:020000040800F2
:10000000588200209D010008772F00081123000866
:10001000FF2E0008A51800087969000800000000FC
:1000200000000000000000000000000069600008FF
:10003000E51A000800000000970A0008C9430008FC
:10004000B7010008B7010008B7010008B7010008B0
:10005000B7010008B7010008B7010008B7010008A0
:10006000B7010008B7010008B7010008B701000890
:10007000B7010008B7010008B7010008B701000880
:10008000B7010008B7010008B7010008B701000870
:10009000B7010008B7010008B7010008B701000860
:1000A000B7010008B7010008B7010008B701000850
:1000B000B7010008B7010008B7010008B701000840
:1000C000B7010008B7010008B7010008B701000830
:1000D000B7010008C1650008B7010008B7010008B2
:1000E000B7010008B7010008B7010008B701000810
:1000F000B7010008B7010008B7010008B701000800
:10010000B7010008B7010008B7010008B7010008EF
:10011000B7010008B7010008B7010008B7010008DF
:10012000B70100080D1A0008B7010008B701000860
:10013000B7010008B7010008B7010008B7010008BF
:10014000B7010008B7010008B7010008B7010008AF
:10015000B7010008B7010008B7010008B70100089F
:10016000B7010008B7010008B7010008B70100088F
:10017000B7010008B7010008B7010008B70100087F
:10018000B7010008B7010008DFF80CD000F0C6FB8B
:10019000004800470981000858820020064880472F
:1001A00006480047FEE7FEE7FEE7FEE7FEE7FEE75C
:1001B000FEE7FEE7FEE7FEE7DD61000889010008D3
:1001C00072B6704762B67047EFF3108072B6704730
:1001D00080F31088704730BF704720BF7047B0FA77
:1001E00080F0704790FAA0F0B0FA80F0704790FA73
:1001F000A0F070472DE9F05F0546002092469B462F
:1002000088460646814640241BE02846414647462C
:10021000224600F068FA53465A46C01A914110D35C
:1002200011461846224600F04FFA2D1A67EB0108D6
:100230004F4622460120002100F046FA17EB000944
:100240004E41201EA4F10104DFDC484631462A4617
:100250004346BDE8F09F40EA01039B0703D009E055
:1002600008C9121F08C0042AFAD203E011F8013BA2
:1002700000F8013B521EF9D2704730B505462A46B8
:100280000B4612F8010B13F8014B08B1A042F8D04D
:100290001CB1002802D06D1CF1E7284630BD10B516
:1002A000044604E00B7800F8013B03B1491C521EE0
:1002B000F8D2204610BDCAB2401E10F8011F8A4273
:1002C00002D00029F9D100207047421C10F8011B10
:1002D0000029FBD1801A704730B504460020034640
:1002E00000E05B1C934203D2E05CCD5C401BF8D085
:1002F00030BD70B5064606F07DFB046805460A224F
:100300000021304600F011FA2C6070BD2DE9FE4F3F
:10031000804681EA0300C00F0C46009021F00041A6
:1003200023F00045B8EB0200A94105D24046214622
:1003300090461C460B46024623F00040104304D171
:100340004046214603B0BDE8F08F270DC7F30A00F1
:10035000C3F30A510290401A0190402866DAC3F3B1
:10036000130040F4801B0098924620B10023D2EB8A
:10037000030A63EB0B0B01985946C0F1400250464B
:1003800000F0A2F906460D4650465946019A00F083
:10039000BAF910EB08006141002487EA115284EA9F
:1003A000E7731A433BD0009A3AB3019A012A4FEA05
:1003B000075210DC001B61EB02014FF0004202EA21
:1003C0000752CDE90042001C41F5801132462B4610
:1003D00000F026FAB6E7001B61EB0201001C41F5B4
:1003E000801300185B412018A2F5001747EB0301AA
:1003F00040EAD570B6196D4111E06D084FEA360636
:1004000045EAC0754FEA0752001B61EB0201001C70
:1004100041F5801149084FEA300000195141324638
:100420002B4603B0BDE8F04F00F0EDB90098012273
:1004300040000023D0EB020263EBE07300982146FA
:100440004FEAE074B8EB000061EB0401E9E783F0E8
:1004500000435BE781F0004158E72DE9FE4F81EA58
:10046000030404F0004421F0004100944FF0000B1D
:1004700023F0004350EA010402D052EA030404D1FD
:100480000020014603B0BDE8F08FC3F30A54C1F366
:100490000A552C44A4F2F3340194A0FB0254C1F396
:1004A000130141F48011C3F3130343F4801301FBE0
:1004B000024400FB034E840A970A44EA815447EA47
:1004C0008357A4FB076802958D0A05FB07854FEA51
:1004D000932C04FB0C542705029D4FEA065847EA6B
:1004E0001637B5EB08056EEB070C870E920E47EA40
:1004F000811742EA8312A7FB0201B6EB0B0164EB02
:1005000000042B0D43EA0C335E1844EB1C50DA4612
:100510005146E7FB0201C5F313044FEA0B3343EAEC
:1005200014534FEA0432019C43EA0603A4F10C047D
:100530000294009CCDE900B400F072F9A2E72DE925
:10054000F04D81EA030404F0004B21F0004514460D
:100550004FF0000A23F0004150EA050220D054EA8F
:1005600001021DD0C5F30A570246C5F31303C1F3B8
:100570001300C1F30A5640F4801543F48013A7EB2F
:100580000608101BD64608F2FD3873EB050002D3AF
:1005900008F1010801E092185B41B8F1000F03DA9D
:1005A00000200146BDE8F08D00204FF48011064682
:1005B00084460EE0171B73EB050705D3121B63EB94
:1005C000050306434CEA010C49084FEA3000921833
:1005D0005B4150EA0107EDD152EA030012D082EAF2
:1005E000040083EA0501084303D100224FF00043D1
:1005F00008E0101BAB4102D20122002302E06FF0A1
:10060000010253101AEB06004CEB085110EB0A00E4
:1006100041EB0B01BDE8F04D00F0F5B80EB5C10F90
:1006200080EAE0700844CA07002140F233438DE8B5
:100630000E000A460B4600F0F3F803B000BD00F0D0
:10064000004230F000400AD0C10D01F56071C0F3E6
:10065000160042EA0151C2084007114370470020CA
:100660000146704701F0004330B421F0004150EAE8
:10067000010206D00A0DA2F56072C1F31301002A2F
:1006800002DC30BC00207047440F44EAC104C100C2
:10069000E01830BC00EBC25000F07FB830B50B461C
:1006A000014600202022012409E021FA02F59D42A2
:1006B00005D303FA02F5491B04FA02F52844151E76
:1006C000A2F10102F1DC30BD202A04DB203A00FA5D
:1006D00002F1002070479140C2F1200320FA03F399
:1006E000194390407047202A04DB203A21FA02F097
:1006F0000021704721FA02F3D040C2F1200291405C
:10070000084319467047202A06DBCB17203A41FAE6
:1007100002F043EAE07306E041FA02F3D040C2F18E
:10072000200291400843194670472DE9F047914651
:100730000F4680460446002614F8015B2DB100F0F8
:10074000FFF80068405DC007F6D12B2D02D02D2D9B
:1007500018D0641E4A463946204600F0F5F827B105
:100760003968A14201D1C7F8008071054FF0020439
:100770000BD54042002803DD06F03CF90460A007D9
:10078000BDE8F08746F48066E4E70028F8DA06F072
:1007900031F904606FF00040F2E70029A8BF70470C
:1007A000401C490008BF20F00100704710B4B0FAA7
:1007B00080FC00FA0CF050EA010404BF10BC704742
:1007C00049B1CCF1200421FA04F411FA0CF118BF5C
:1007D000012121430843A3EB0C01CB1D0106000AB4
:1007E000002BBEBF002010BC704700EBC35010446C
:1007F0000029A4BF10BC7047401C490008BF20F06E
:10080000010010BC704710B5002B08DA401C41F104
:10081000000192185B411A4301D120F0010010BD84
:100820002DE9F04D92469B4611B1B1FA81F202E0FA
:10083000B0FA80F220329046FFF746FF04460F469A
:1008400040EA0A0041EA0B0153465A46084303D1E5
:1008500020463946BDE8F08D114653EA010015D017
:10086000C8F140025046FFF73EFF05460E4650468F
:1008700059464246FFF728FF084301D0012000E017
:100880000020054346EAE0762C4337430A984FEAB6
:100890004453A0EB08004FEAD4240A304FF0000282
:1008A00044EA47544FEAD72502D500200146D1E754
:1008B000010510196941DDE9084500196941BDE8E4
:1008C000F04DA0E7C1F30A52C1F3130140F2FF3328
:1008D00041F480119A4202DA00200146704740F24A
:1008E00033439A42A2F2334202DC5242FFF7FBBE8C
:1008F000FFF7EABE30B5002904DB4FF00044404268
:1009000064EB0101002B04DB4FF00044524264EB26
:100910000303994208BF904230BD0000064C074DCA
:1009200006E0E06840F0010394E8070098471034BF
:10093000AC42F6D3FFF72CFC288500084885000858
:1009400000487047248500082DE9F05F8246007852
:10095000002715468B460AF10104B946302801D01C
:100960009DB113E014F8010B0127782803D0582813
:1009700001D045B10AE00DB1102D07D10027102597
:1009800014F8010B02E0082500E00A250026B04615
:100990000EE005FB080005FB06F1012701EB104600
:1009A0001FFA80F8B6F5803F00D3B94614F8010B62
:1009B000294600F018F80028EBDABBF1000F05D04B
:1009C0000FB1641E00E05446CBF80040B9F1000FAF
:1009D00006D006F00FF802210160C81EBDE8F09FA6
:1009E00048EA0640FAE73A2800D2303820F02002E0
:1009F000412A01D3A2F13700884201D34FF0FF30E2
:100A0000704770B501EB020410F8015B15F00703A5
:100A100001D110F8013B2A1106D110F8012B03E097
:100A200010F8016B01F8016B5B1EF9D12B0705D49F
:100A30000023521E0FD401F8013BFAE710F8013BE6
:100A400002F10202A1EB030303E013F8015B01F8DA
:100A5000015B521EF9D5A142D6D3002070BD000023
:100A600021484FF0FF010170002080F309881F48E2
:100A7000016881F308881E484FF08051016062B61A
:100A8000FEE71B484FF080510160704718484FF057
:100A900080510160704772B6EFF3098050B11EF0CB
:100AA000100F08BF20ED108A734620E9F80F114996
:100AB0000968086000B5104880475DF804EB0F48EE
:100AC0000F490A7802700B480E490A6802601068E4
:100AD000B0E8F80F9E461EF0100F08BFB0EC108A69
:100AE00080F3098862B6704722ED00E0EC00002038
:100AF00004ED00E0E4000020AD4000088A00002082
:100B00008B000020E800002010B52DED0A8B9148E5
:100B100090ED040A10EE101A0846FFF790FD41EC24
:100B2000100BB0EE40BAF0EE60BA8A4890ED000AC1
:100B300010EE101A0846FFF782FD41EC100BB0EEE4
:100B400040CAF0EE60CAB0EE4B1AF0EE6B1A06F037
:100B5000CBF8B0EE40AAF0EE60AA9FED7F0B53EC0D
:100B6000102B51EC1A0BFFF778FC41EC100BB0EE98
:100B7000409AF0EE609A9FED7A0B53EC102B51ECFB
:100B8000190BFFF7DCFC41EC100BB0EE408AF0EEE5
:100B9000608A51EC180BFFF765FD734908606D48DA
:100BA00090ED040A10EE101A0846FFF748FD41ECDC
:100BB000100BB0EE40BAF0EE60BA664890ED020A53
:100BC00010EE101A0846FFF73AFD41EC100BB0EE9C
:100BD00040CAF0EE60CAB0EE4B1AF0EE6B1A06F0A7
:100BE00083F8B0EE40AAF0EE60AA9FED5B0B53ECE9
:100BF000102B51EC1A0BFFF730FC41EC100BB0EE50
:100C0000409AF0EE609A9FED560B53EC102B51EC8E
:100C1000190BFFF794FC41EC100BB0EE408AF0EE9C
:100C2000608A51EC180BFFF71DFD504908605048D1
:100C300090ED010A10EE101A0846FFF700FD41EC96
:100C4000100BB0EE409AF0EE609A494890ED000A21
:100C500010EE101A0846FFF7F2FC41EC100BB0EE54
:100C600040AAF0EE60AAB0EE491AF0EE691A06F05A
:100C70003BF8B0EE408AF0EE608A51EC180BFFF7BB
:100C8000F1FC3C490860334890ED000ADFED3A0A78
:100C9000B4EEE00AF1EE10FA04D2344890ED000A06
:100CA00080ED000A2B4890ED000ADFED330AB4EE28
:100CB000E00AF1EE10FA06DD2C4890ED000AB1EEE4
:100CC000400A80ED000A234890ED020ADFED2A0A6F
:100CD000B4EEE00AF1EE10FA04D2234890ED000AD7
:100CE00080ED000A1B4890ED020ADFED230AB4EE06
:100CF000E00AF1EE10FA06DD1B4890ED000AB1EEB5
:100D0000400A80ED000A134890ED060ADFED1B0A49
:100D100020EE200A1A4880ED000A0E4890ED080ADD
:100D2000DFED160A20EE200A164880ED000A14486E
:100D3000D0ED000A0C4890ED000A01F069FB114863
:100D4000D0ED000A094890ED000A01F0A7FCBDECC7
:100D50000A8B10BD541C002000000000008066407B
:100D600000000060FB2109404401002048010020F0
:100D70002C1D00204C01002000F8FF4600007A3DA9
:100D8000500100205401002000208549087006E130
:100D90008348007820B101280FD002280CD1A3E0AD
:100DA00080A000F033FF4FF4FA6180A000F042FF12
:100DB00010B101207A490870ECE07D4800780028E5
:100DC00073D11AE04FF480717A4802F09AF87AA051
:100DD00000F01CFF4FF4FA624FF48071754800F088
:100DE00082FE78A17348FFF748FA00B106E06FA1D0
:100DF0007048FFF742FA00B100E0E3E700BF0CE003
:100E000068A000F003FF4FF4FA6168A000F012FF41
:100E100018B102206E49087000E0F1E700BF09E058
:100E20006CA000F0F3FE4FF4FA6160A000F002FF46
:100E300000B100E0F4E700BF17E04FF480715D48B7
:100E400002F05FF86DA000F0E1FE4FF4FA6157A0E8
:100E500000F0F0FE48B16CA000F0D8FE4FF4FA614B
:100E60006CA000F0E7FE00B100E0E6E700BF09E09B
:100E70006BA000F0CBFE4FF4FA614CA000F0DAFE5C
:100E800000B100E0F4E700BF0DE06AA000F0BEFE94
:100E90004FF4FA6145A000F0CDFE20B10120444995
:100EA000087001E001E0F0E71DE04148007801280A
:100EB00019D101023F4802F024F862A000F0A6FE1A
:100EC0004FF4FA624FF480713A4800F00CFE5C2156
:100ED000604802F016F860A13648FFF7CEF910B16D
:100EE00002202F49087055E044F620615D4800F06B
:100EF0008DFC4FF47A724FF480712E4800F0F3FDB0
:100F000059A12C48FFF7B9F959490860084600680B
:100F1000E0B3084600680079632802D06D2831D11B
:100F200006E05448007840F010005249087029E06B
:100F3000002413E04E480068401D032202FB040118
:100F40004D48FFF7ACF900204B49C8700846FFF741
:100F5000D0F94A4921F81400601CC4B2042CE9DB22
:100F600043480068401D032202FB04014248FFF78A
:100F700096F900204049C8700846FFF7BAF9404981
:100F8000088000BF00BF002006F086FF354800F053
:100F90002FFC00BF00BF4FF4FA7000F053FCF7E6DF
:100FA0001A00002041542B52535400004F4B0000B4
:100FB00019000020581D002041542B43574D4F4429
:100FC000453D32006E6F206368616E67650000000A
:100FD0001800002041542B43575341503D2258697B
:100FE000616F53695A686F75222C22313233343560
:100FF00036373839222C312C3300000041542B4332
:1010000049504D55583D310041542B4349504D55A1
:10101000583F00002B4349504D55583A31000000CD
:1010200041542B4349505345525645523D312C387B
:101030003038300041542B43495053544F3D3238DF
:101040003830000041542B434950535441545553B8
:1010500000000000581F00202B43495053544154B6
:1010600055533A00D81B002073796E6300000000CE
:101070001C00002002000020B41F0020F40000200B
:10108000FC0000202DED108BB6B02AE0D02006F039
:1010900071FF40B906F0F4FCFE48007840F0010012
:1010A000FC49087005E0FB48007820F00100F94990
:1010B00008703C2006F05EFF40B906F039FCF648A7
:1010C000007840F00100F449087005E0F24800782B
:1010D00020F00100F0490870F0480078401CEF490A
:1010E0000870EE4800780528D0DBD9E201F0A0FEB8
:1010F00001F042F801F018FC00F0ACFEE548007881
:1011000010F0100F7DD0E648007810F0100F40D19D
:10111000C820E4490860E448B0F9000000EE100A75
:10112000B8EEC00AE14880ED010ADF48B0F90200DC
:1011300000EE100AB8EEC00ADC4880ED030ADA4877
:10114000B0F90400A0F5804000EE100AB8EEC00A25
:10115000D64880ED050AD448B0F9080000EE100A20
:10116000B8EEC00AD14880ED070ACF48B0F90A00AE
:1011700000EE100AB8EEC00ACC4880ED090ACA4851
:10118000B0F90C0000EE100AB8EEC00AC74880EDB6
:101190000B0AC448006828B9BE48007820F0100047
:1011A000BC490870C048B0F9000000EE100AB8EE63
:1011B000C00ABE48D0ED010A30EE200AF0EE000A67
:1011C00080EE201A80ED011AB748B0F9020000EE57
:1011D000100AB8EEC00AB548D0ED030A30EE200A76
:1011E000F0EE000A80EE201A80ED031AAE48B0F946
:1011F000040000EE100AB8EEC00AAC48D0ED050AB3
:1012000000E04CE030EE200ADFEDA90A30EE600A83
:10121000F0EE000A80EE201A80ED051AA248B0F91F
:10122000080000EE100AB8EEC00AA048D0ED070A88
:1012300030EE200AF0EE000A80EE201A80ED071A48
:101240009948B0F90A0000EE100AB8EEC00A9748B3
:10125000D0ED090A30EE200AF0EE000A80EE201AE6
:1012600080ED091A9048B0F90C0000EE100AB8EEB3
:10127000C00A8E48D0ED0B0A30EE200AF0EE000ACC
:1012800080EE201A80ED0B1A86480068401E8549C2
:10129000086008460068C82801D9C82008607E4850
:1012A000007810F0010F06D07A48007810F0010F96
:1012B00001D000F053FD7F48007802287ED17E489F
:1012C00001880088401C7C4A108041F2883091FBE4
:1012D000F0F200FB1210002871D1C821774801F00C
:1012E00010FE724890ED0B0A10EE101A0846FFF738
:1012F000A6F941EC100BB0EE408AF0EE608A6B4824
:1013000090ED090A10EE101A0846FFF798F941EC23
:10131000100BB0EE409AF0EE609A644890ED070A28
:1013200010EE101A0846FFF78AF941EC100BB0EEE8
:1013300040AAF0EE60AA5D4890ED050A10EE101A82
:101340000846FFF77CF941EC100BB0EE40BAF0EE26
:1013500060BA564890ED030A10EE101A0846FFF7DF
:101360006EF941EC100BB0EE40CAF0EE60CA4F4887
:1013700090ED010A10EE101A0846FFF760F941ECF3
:10138000100BB0EE40DAF0EE60DA4D4890ED020A54
:1013900010EE101A0846FFF752F941EC100BB0EEB0
:1013A00040EAF0EE60EA464890ED010A10EE101AAD
:1013B0000846FFF744F941EC100B01E069E1D0E089
:1013C000B0EE40FAF0EE60FA3D4890ED000A10EE03
:1013D000101A0846FFF733F941EC100B8DED340B72
:1013E000324890ED0A0A10EE101A0846FFF727F966
:1013F00041EC100B8DED320B2C4890ED080A10EEED
:10140000101A0846FFF71BF941EC100B8DED300B5D
:10141000264890ED060A10EE101A0846FFF70FF95D
:1014200041EC100B8DED2E0B204890ED040A10EED0
:10143000101A0846FFF703F941EC100B8DED2C0B49
:101440001A4890ED020A10EE101A0846FFF7F7F856
:1014500041EC100B8DED2A0B144890ED000A10EEB4
:10146000101A0846FFF7EBF841EC100B8DED280B36
:1014700014480068FFF7E3F841EC100B8DED260BE4
:1014800011480068FFF7DBF841EC100B8DED240BE1
:101490000E481DE002000020040000201001002082
:1014A00003000020F0000020001C0020541C00203D
:1014B000000080461A000020120100207C4100201C
:1014C0002C1D00204C010020480100204401002078
:1014D0000068FFF7B4F841EC100B8DED220B8DED99
:1014E000208B8DED1E9B8DED1CAB8DED1ABB8DED14
:1014F00018CB8DED16DB8DED14EB8DED12FB9DED14
:10150000340B8DED100B9DED320B8DED0E0B9DED23
:10151000300B8DED0C0B9DED2E0B8DED0A0B9DED23
:101520002C0B8DED080B9DED2A0B8DED060B9DED23
:10153000280B8DED040B9DED260B8DED020B9DED23
:10154000240B8DED000B9DED220B53EC102B554918
:10155000554805F023FA544800F0B6FB022006F087
:1015600029FB5248008852490988884233D05048A4
:101570000088642802DD64204D49088000204D4920
:10158000087020E04C484B49097830F81100484970
:1015900009884843642190FBF1F0484908600846F7
:1015A0000068642801D964200860424A1278521CFD
:1015B000D1B2424A128890B206F0CCFB3D48007886
:1015C000401C3C4908703B4800780428DADB384866
:1015D00000883649088000203649087055E03648B2
:1015E0003449097830F811003549324A127831F817
:1015F0001210884232D032482E49097830F8110052
:10160000642805DD64202E492A4A127821F8120048
:101610002B482849097830F81100244909884843A3
:10162000642190FBF1F025490860084600686428B1
:1016300001D9642008601F4A1278521CD1B21F4A97
:10164000128890B206F086FB1D481A49097830F8D6
:1016500011101948174A127820F812101948154924
:101660000978415C1848134A1278805C814207D09F
:10167000154810490978405C12490E4A127888547E
:101680000C480078401C0B4908700A480078042870
:10169000A5DB0E4800780E490870022000F0D2F851
:1016A00024E50000AC8300087C4100200A010020F2
:1016B000FC0000201401002002010020180100207D
:1016C000F4000020FE0000200C0100200200002099
:1016D0000300002010B500220121024800F077F835
:1016E00010BD0000D81B002000B58BB00AA8032154
:1016F00000220592CDE9062108900120010219225D
:10170000124BCDE90132CDE9031003200023104A2A
:1017100010A10090134802F011F90AA80321002239
:101720000592CDE9062108900120010219220E4BF5
:10173000CDE90132CDE90310052000230B4A0CA1AD
:1017400000900F4802F0FAF80BB000BDD817002047
:1017500085100008417070205461736B2053616DD7
:10176000706C65001817002058020020890D0008D1
:10177000417070205461736B20436F6D6D000000E9
:101780009801002008B500F07FF806F0B9F800F0E5
:1017900099F8684602F050F8FFF7A6FFFFF79AFFA6
:1017A0000AE006480078022802D1012006F002FA79
:1017B0004FF4FA7000F046F8F3E700001A0000203A
:1017C0001FB5684604F0D4FB019804B010BDF8B50D
:1017D00006460C4615466B4622462946304601F021
:1017E0001BFEBDF8000008B10020F8BD0120FCE799
:1017F00038B504466A460021204601F021FFBDF8B5
:10180000000008B1002038BD0120FCE77CB505468A
:101810000C464FF47A70604309490968B0FBF1F651
:1018200001A800231A4631460090284601F034FEF4
:10183000BDF8040008B100207CBD0120FCE70000D9
:10184000FC810008FEB5044642F21070844200D9C3
:101850000446B4F57A7F0BD34FF47A70B4FBF0F002
:1018600086B24FF47A70B4FBF0F100FB114501E051
:10187000A5B2002602A800212B463246CDE9001071
:10188000084602F0A7FCFEBD70B5FFF799FF0446BD
:1018900003480068B4FBF0F5284602F0B3FD70BDC4
:1018A000FC81000800BFFEE710B50021044800F0ED
:1018B000DDF8002000F098F8002000F083F810BD5B
:1018C0002864024010B500F01FF800F019F810BDB0
:1018D00010B5002400BF00BFFEF776FC044600BF31
:1018E00000BF1021054801F00CFB00BF00BF2046DF
:1018F000FEF76EFC00BF00BF10BD000018280020DE
:1019000010B5FFF7E5FF10BD10B5002002490860D3
:1019100000F00AF810BD00004400002001490860F2
:10192000704700004400002010B5FFF749FF04464F
:101930000848006840F080700649086000200649A9
:1019400048600846006840F0010008602046FFF744
:10195000E5FF10BDFCED00E0001000E00149486823
:1019600070470000001000E0014609B90B487047BD
:10197000012901D10020FAE7022901D10020F6E770
:10198000032901D10020F2E7042901D10020EEE76C
:10199000052901D10020EAE70020E8E7C01F002068
:1019A00008B54FF4E06001F029FB25208DF8000018
:1019B00000208DF8020001208DF80300684601F038
:1019C000E1FA08BD30B10749096841F00101054A53
:1019D000116005E00349096821F00101014A116025
:1019E000704700000000055030B10749096841F414
:1019F0008041054A116005E00349096821F48041EE
:101A0000014A1160704700000000055010B50749F9
:101A1000074800F037F840B10449054800F00CF8D9
:101A2000FFF742FF01200349087010BD0088001035
:101A300028640240010000200246094B9A4201D26C
:101A4000084801E00648103811F0005F03D0064B4B
:101A50000B40C36002E0044B0B4083607047000002
:101A600010640240006002407D0F7D0F21B10268CA
:101A700042F00102026003E0026822F0010202600B
:101A80007047000070B50246002000240025114E6A
:101A9000B24201D2104B01E00E4B103B0F4E3142CF
:101AA00006D01E2606EAD124166806EA040502E0DE
:101AB000566906F0800511F0005F01D05C6800E017
:101AC0001C68074E34400C4202D00DB1012000E0EA
:101AD000002070BD10640240006002403C0F3C0FCB
:101AE0007D0F7D0F70472DE9F84305468846164661
:101AF0000024A146002E03DD3146032006F07AF9CA
:101B00004AE005F0FBFEB9F1020F07D1032005F012
:101B1000DBFE58B100202855E7B23EE0002E05DD7F
:101B2000032005F0D1FE08B1002736E06946002009
:101B300006F0C0F980B3B9F1000F06D0B9F1010F7A
:101B400013D0B9F1020F26D116E09DF800000D2840
:101B500008D19DF800202046611C8CB22A544FF019
:101B6000020901E04FF0010915E09DF800000D2881
:101B700001D14FF002090EE00521032006F03AF9E9
:101B8000A8F10100A04205DD9DF800202046611C5F
:101B90008CB22A5400BF00BFB3E700BF3846BDE88F
:101BA000F88300001CB508220021684601F0B2F954
:101BB0000121084604F0ACF94FF4006000900120C8
:101BC0008DF8040003208DF8050000208DF8060034
:101BD00001208DF8070069460B4800F0CBF84FF460
:101BE0000061094800F031F96420FFF72BFE4FF443
:101BF0000061054800F02BF96420FFF723FE002068
:101C000006F04AF91CBD00000000024070B5044611
:101C10002046FEF75AFB85B22A462146002006F0F0
:101C200058F9022202A1002006F053F970BD00000D
:101C30000D0A00002DE9F041C2B007460C46002510
:101C40003846FEF742FB8046B8F1FF0F03D900206B
:101C500042B0BDE8F081002C03DD2146032006F0F0
:101C6000C9F82DE005F04AFE002C05DD032005F043
:101C70002BFE08B1002624E041A9002006F01AF945
:101C8000F0B19DF804010A280DD1002D09DD42466E
:101C9000394601A8FEF720FB08B9012611E000250E
:101CA0000EE000250CE0FF2D0AD89DF80401202845
:101CB00006DB9DF804212846691C8DB201A90A544F
:101CC000D0E700BF3046C3E770B504461B48007834
:101CD000022831D144F620611948FFF797FD4FF4EF
:101CE0008071184801F00DF92046FEF7EEFA05461E
:101CF0002A4615A1134804F051FE1248FFF786FF4B
:101D00004FF48071144801F0FCF84FF4FA624FF47C
:101D100080711148FFF7E7FE3E210F48FEF7CBFA2E
:101D200010B12046FFF772FF4FF480710A4801F0AE
:101D3000E8F80348FFF75CFD70BD00001A000020C2
:101D4000D81B0020581E002041542B4349505345B6
:101D50004E443D302C256400581D002010B5FEF780
:101D6000D3FE03480088401C0149088010BD0000D4
:101D70001C010020F0B50A4600210023002400BF0A
:101D80003DE0012505FA01F3156805EA03049C42CC
:101D900034D105684F000326BE40B5430560157970
:101DA0004E00B5400668354305601579012D02D017
:101DB0001579022D16D185684F000326BE40B54324
:101DC000856055794E00B540866835438560456825
:101DD00001268E40B5434560456896798E40B6B27F
:101DE00035434560C5684F000326BE40B543C56016
:101DF000D5794E00B540C6683543C560491C1029E9
:101E0000BFD3F0BDF0B5002300244D07ED0E02FA5C
:101E100005F3CE1000F1200555F826504E07F70EB9
:101E20000F26BE40B543CF1000F1200646F82750DC
:101E3000CE1000F1200555F8265045EA0304CE10D7
:101E400000F1200545F82640F0BD4183704701832D
:101E50007047000000B52DED0C8B87B01C220021CF
:101E6000684601F057F81C22AE49A1F11C00FEF7AC
:101E7000F2F91C22AB491C31AA48FEF7ECF91C22EE
:101E8000A8493831A1F11C00FEF7E5F91C22A5494B
:101E90005431A1F11C00FEF7DEF91C22A249A14831
:101EA0005430FEF7D8F99F481C3800889D491C39EA
:101EB000898B08449B491C39098F084499491C396E
:101EC000B1F85410084497491C39B1F8701008440F
:101ED00000B2ADF8000093481C384188C08B014423
:101EE00090481C38408F01448E481C38B0F856008A
:101EF00001448C481C38B0F87200084400B2ADF8B8
:101F0000020088481C388188008C014485481C38B0
:101F1000808F014483481C38B0F858000144814840
:101F20001C38B0F87400084400B2ADF804007F48D3
:101F300090ED010A10EE101A0846FEF780FB41EC06
:101F4000100BB0EE409AF0EE609A784890ED000ADF
:101F500010EE101A0846FEF772FB41EC100BB0EEC3
:101F600040BAF0EE60BABDF90000FEF757FB41EC55
:101F7000100BB0EE40DAF0EE60DA9FED6D0B53EC33
:101F8000102B51EC1D0BFEF7DAFA41EC100BB0EE02
:101F900040CAF0EE60CA53EC1B2B51EC1C0BFEF751
:101FA0005CFA41EC100BB0EE40AAF0EE60AA53ECE4
:101FB000192B51EC1A0BFEF7A9F941EC100BB0EEFE
:101FC000408AF0EE608A51EC180BFEF74BFB5A4941
:101FD0000860564890ED030A10EE101A0846FEF706
:101FE0002EFB41EC100BB0EE409AF0EE609A4F4899
:101FF00090ED020A10EE101A0846FEF720FB41ECA5
:10200000100BB0EE40BAF0EE60BABDF90200FEF778
:1020100005FB41EC100BB0EE40DAF0EE60DA9FED1C
:10202000440B53EC102B51EC1D0BFEF788FA41ECDE
:10203000100BB0EE40CAF0EE60CA53EC1B2B51EC13
:102040001C0BFEF70AFA41EC100BB0EE40AAF0EEC2
:1020500060AA53EC192B51EC1A0BFEF757F941EC1F
:10206000100BB0EE408AF0EE608A51EC180BFEF7D0
:10207000F9FA314948602D4890ED050A10EE101A22
:102080000846FEF7DCFA41EC100BB0EE409AF0EE99
:10209000609A264890ED040A10EE101A0846FEF7E2
:1020A000CEFA41EC100BB0EE40BAF0EE60BABDF9DA
:1020B0000400FEF7B3FA41EC100BB0EE40DAF0EE9C
:1020C00060DA9FED1B0B53EC102B51EC1D0BFEF750
:1020D00036FA41EC100BB0EE40CAF0EE60CA53EC99
:1020E0001B2B51EC1C0BFEF7B8F941EC100BB0EEBA
:1020F00040AAF0EE60AA53EC192B51EC1A0BFEF734
:1021000005F941EC100BB0EE408AF0EE608A51EC1C
:10211000180BFEF7A7FA0849886007B0BDEC0C8BD6
:1021200000BD0000BC1C0020841C0020401D0020BD
:1021300000000000000014402C1D002070B5044673
:1021400005F09CFF3C2005F06FFF05F0BFFF204627
:1021500005F06AFF05F0BAFF05F090FF3D2005F09D
:1021600063FF05F0B3FF05F03DFF054605F026FFD0
:1021700005F09CFF284670BD1CB505F07FFF3C2094
:1021800005F052FF05F0A2FF032005F04DFF05F01A
:102190009DFF05F073FF3D2005F046FF05F096FF1B
:1021A000002407E005F01EFF0DF8040005F0CAFE4C
:1021B000601CC4B2062CF5DB05F014FF8DF8060098
:1021C00005F0FCFE05F072FF9DF801009DF800107F
:1021D00000EB012000B2414908809DF803009DF802
:1021E000021000EB012000B23C4988809DF80500F8
:1021F0009DF8041000EB012000B2384948809DF89A
:10220000060088740846B0F9000010F5006F1CDD68
:102210000846B0F90000B0F5006F16DA0846B0F9CC
:102220000000B1F90C10884203DD2C4800882B49CE
:1022300088812A48B0F900002849B1F9061088427F
:1022400003DA264800882549C8802448B0F90200EE
:1022500010F5006F1DDD2148B0F90200B0F5006FE8
:1022600017DA1E48B0F902001C49B1F90E10884275
:1022700003DD1A4840881949C8811848B0F902009E
:102280001649B1F90810884203DA14484088134906
:1022900008811248B0F9040010F5006F1DDD0F48E9
:1022A000B0F90400B0F5006F17DA0C48B0F904007B
:1022B0000A49B1F91010884203DD084880880749AF
:1022C00008820648B0F904000449B1F90A108842AE
:1022D00003DA02488088014948811CBD841C002023
:1022E00070B505460C4605F0C9FE3C2005F09CFE85
:1022F00005F0ECFE284605F097FE05F0E7FE2046C7
:1023000005F092FE05F0E2FE05F0D0FE70BD000083
:1023100008A100200AE00A5C114B9A8000BF104A15
:10232000128812F0400FFAD0421CD0B22A28F2D301
:1023300000BFFEE70D0A456E746572204861726445
:102340004661756C745F48616E646C65722C2053D5
:10235000797374656D2048616C742E0D0A0000005D
:102360000010014000B587B00121084603F0D0FD00
:102370000121102003F0ECFD072209212248FFF77C
:1023800041FD07220A212048FFF73CFD00208DF87F
:102390001A0001208DF81B0002208DF818000002A1
:1023A000059002208DF8190005A91748FFF7E2FCF7
:1023B00002208DF818004002059005A91248FFF789
:1023C000D9FC4FF4165001900020ADF80800ADF88C
:1023D0000A00ADF80C00ADF810000C20ADF80E00AE
:1023E00001A90A4804F066F9012240F22551074884
:1023F00004F03AF90121054804F0F3F840210348BC
:1024000004F0E6F807B000BD0000024000100140F3
:10241000904890ED001A70EEC11A8F4890ED002A96
:102420008E4890ED001A01EE821A80ED001A8C4859
:1024300090ED011A8B48D0ED001A31EEC11A884890
:10244000D0ED021A31EE611A874880ED001A8448F7
:1024500090ED031AB1EE411A834880ED011A8048CD
:1024600090ED031AB1EE411A7F4880ED021A7F48C1
:1024700090ED001A7C4880ED031A794890ED001A1F
:102480007948D0ED001A744890ED002A01EE821AC6
:10249000734880ED001A90ED011A7348D0ED011ACF
:1024A0006D4890ED002A01EE821A6D4880ED011A08
:1024B00090ED021A6C48D0ED021A674890ED002AA0
:1024C00001EE821A664880ED021A90ED031A664802
:1024D000D0ED031A604890ED002A01EE821A6048A0
:1024E00080ED031A5D4890ED001A30EE411A604805
:1024F00080ED001A5A48D0ED001A5E48007801EECF
:10250000100AB8EE411A21EE811A5B4880ED001ADC
:102510005348D0ED021A5748007801EE100AB8EE81
:10252000411A21EE811A554880ED001A544890ED69
:10253000001A5048007801EE900AF8EE611A4E48F1
:1025400090ED002A01EE821A4E4880ED001A4A48AA
:1025500090ED001A4B48D0ED001A81EE212A4A482E
:1025600080ED002A454890ED001A4648D0ED001A4B
:1025700081EE212A454880ED002A3F4890ED001A5F
:10258000434880ED001A3648D0ED011A39480078EA
:1025900001EE100AB8EE411A21EE811A3D4880ED95
:1025A000001A2F4890ED001A3748D0ED001A38482D
:1025B00090ED002A01EEC21A294880ED001A90ED34
:1025C000011A3148D0ED001A324890ED002A01EE90
:1025D000C21A234880ED011A90ED021A2B48D0ED63
:1025E000001A2B4890ED002A01EEC21A1C4880ED1B
:1025F000021A90ED031A2548D0ED001A254890EDF7
:10260000002A01EEC21A164880ED031A134890ED15
:10261000001A1D48D0ED001A154890ED002A01EE71
:10262000821A0E4880ED001A0A4890ED001A1748E9
:10263000D0ED001A0E4890ED002A01EE821A0548EE
:1026400080ED001A90ED001A30EEC11A124880EDAC
:10265000001A70476C0100202C0100205801002056
:1026600034010020200100204442002024010020E9
:10267000700100203001002074010020780100204A
:10268000280100207C01002080010020840100201E
:10269000880100208C01002060010020904890ED0E
:1026A000001A70EEC11A8F4890ED002A8E4890ED06
:1026B000001A01EE821A80ED001A8C4890ED011A82
:1026C0008B48D0ED001A31EEC11A8848D0ED021ABD
:1026D00031EE611A874880ED001A844890ED031AA4
:1026E000B1EE411A834880ED011A804890ED031A3B
:1026F000B1EE411A7F4880ED021A7F4890ED001A32
:102700007C4880ED031A794890ED001A7948D0EDA5
:10271000001A744890ED002A01EE821A734880ED89
:10272000001A90ED011A7348D0ED011A6D4890ED32
:10273000002A01EE821A6D4880ED011A90ED021A0E
:102740006C48D0ED021A674890ED002A01EE821A1B
:10275000664880ED021A90ED031A6648D0ED031A20
:10276000604890ED002A01EE821A604880ED031A5D
:102770005D4890ED001A30EE411A604880ED001A75
:102780005A48D0ED001A5E48007801EE100AB8EE03
:10279000411A21EE811A5B4880ED001A5348D0EDB2
:1027A000021A5748007801EE100AB8EE411A21EEDD
:1027B000811A554880ED001A544890ED001A50488F
:1027C000007801EE900AF8EE611A4E4890ED002A6A
:1027D00001EE821A4E4880ED001A4A4890ED001A28
:1027E0004B48D0ED001A81EE212A4A4880ED002A9C
:1027F000454890ED001A4648D0ED001A81EE212A96
:10280000454880ED002A3F4890ED001A434880ED8E
:10281000001A3648D0ED011A3948007801EE100A46
:10282000B8EE411A21EE811A3D4880ED001A2F487A
:1028300090ED001A3748D0ED001A384890ED002A84
:1028400001EEC21A294880ED001A90ED011A3148B4
:10285000D0ED001A324890ED002A01EEC21A23484A
:1028600080ED011A90ED021A2B48D0ED001A2B488A
:1028700090ED002A01EEC21A1C4880ED021A90ED7C
:10288000031A2548D0ED001A254890ED002A01EEE4
:10289000C21A164880ED031A134890ED001A1D481D
:1028A000D0ED001A154890ED002A01EE821A0E486C
:1028B00080ED001A0A4890ED001A1748D0ED001A72
:1028C0000E4890ED002A01EE821A054880ED001AAC
:1028D00090ED001A30EEC11A124880ED001A7047D0
:1028E0006C0100202C0100205C010020340100203C
:1028F000200100204442002024010020700100201B
:1029000030010020740100207801002028010020FF
:102910007C0100208001002084010020880100202B
:102920008C0100206401002010B52DED068B0E22D5
:10293000FE49A1F10E00FDF78EFC0E22FB490E317F
:10294000FA48FDF788FC0E22F8491C31A1F10E006F
:10295000FDF781FC0E22F5492A31A1F10E00FDF7A9
:102960007AFCF349B1F90010F04A0E3AB2F9382076
:10297000881800EBD071491009B2EC4A0E3A118761
:10298000EB49B1F90220E9490E39B1F93A10501872
:1029900000EBD07149100AB2E4490E394A87E44984
:1029A000B1F90420E1490E39B1F93C10501800EB9F
:1029B000D07149100AB2DD490E398A87DC49B1F974
:1029C0000820DA490E39B1F94010501800EBD071E7
:1029D00049100AB2D5490E39A1F84020D449B1F9BD
:1029E0000A20D2490E39B1F94210501800EBD071CB
:1029F00049100AB2CD490E39A1F84220CC49B1F9AB
:102A00000C20CA490E39B1F94410501800EBD071AE
:102A100049100AB2C5490E39A1F844200846B0F958
:102A2000000000EE100AB8EEC00AC248D0ED010A5C
:102A300070EE600A0846B0F90E0000EE100AB8EE1B
:102A4000C00A30EE800ABB48D0ED010A70EE600A81
:102A50000846B0F91C0000EE100AB8EEC00A30EECD
:102A6000800AB448D0ED010A70EE600A0846B0F959
:102A70002A0000EE100AB8EEC00A30EE800AAD4817
:102A8000D0ED010A70EE600A0846B0F9380000EE99
:102A9000100AB8EEC00A30EE800AA648D0ED010A4E
:102AA00030EE600ABDEEC00AB0EE408A0846B0F9CA
:102AB000020000EE100AB8EEC00A9E48D0ED030AEC
:102AC00070EE600A0846B0F9100000EE100AB8EE89
:102AD000C00A30EE800A9748D0ED030A70EE600A13
:102AE0000846B0F91E0000EE100AB8EEC00A30EE3B
:102AF000800A9048D0ED030A70EE600A0846B0F9EB
:102B00002C0000EE100AB8EEC00A30EE800A8948A8
:102B1000D0ED030A70EE600A0846B0F93A0000EE04
:102B2000100AB8EEC00A30EE800A8248D0ED030ADF
:102B300030EE600ABDEEC00AF0EE408A0846B0F9F9
:102B4000040000EE100AB8EEC00A7A48D0ED050A7B
:102B500070EE600A0846B0F9120000EE100AB8EEF6
:102B6000C00A30EE800A7348D0ED050A70EE600AA4
:102B70000846B0F9200000EE100AB8EEC00A30EEA8
:102B8000800A6C48D0ED050A70EE600A0846B0F97C
:102B90002E0000EE100AB8EEC00A30EE800A65483A
:102BA000D0ED050A70EE600A0846B0F93C0000EE70
:102BB000100AB8EEC00A30EE800A5E48D0ED050A71
:102BC00030EE600ABDEEC00AB0EE409A0846B0F999
:102BD000080000EE100AB8EEC00A5648D0ED070A09
:102BE00070EE600A0846B0F9160000EE100AB8EE62
:102BF000C00A30EE800A4F48D0ED070A70EE600A36
:102C00000846B0F9240000EE100AB8EEC00A30EE13
:102C1000800A4848D0ED070A70EE600A0846B0F90D
:102C2000320000EE100AB8EEC00A30EE800A4148C9
:102C3000D0ED070A70EE600A0846B0F9400000EED9
:102C4000100AB8EEC00A30EE800A3A48D0ED070A02
:102C500030EE600ABDEEC00AF0EE409A0846B0F9C8
:102C60000A0000EE100AB8EEC00A3248D0ED090A98
:102C700070EE600A0846B0F9180000EE100AB8EECF
:102C8000C00A30EE800A2B48D0ED090A70EE600AC7
:102C90000846B0F9260000EE100AB8EEC00A30EE81
:102CA000800A2448D0ED090A70EE600A0846B0F99F
:102CB000340000EE100AB8EEC00A30EE800A1D485B
:102CC000D0ED090A70EE600A0846B0F9420000EE45
:102CD000100AB8EEC00A30EE800A1648D0ED090A94
:102CE00030EE600ABDEEC00AB0EE40AA0846B0F968
:102CF0000C0000EE100AB8EEC00A0E48D0ED0B0A28
:102D000070EE600A0846B0F91A0000EE100AB8EE3C
:102D1000C00A30EE800A0748D0ED0B0A70EE600A58
:102D20000846B0F9280000EE100A05E01C1C00203F
:102D3000001C0020541C0020B8EEC00A30EE800AAF
:102D40002B48D0ED0B0A70EE600A0846B0F9360049
:102D500000EE100AB8EEC00A30EE800A2448D0ED2A
:102D60000B0A70EE600A0846B0F9440000EE100A43
:102D7000B8EEC00A30EE800A1D48D0ED0B0A30EEE6
:102D8000600ABDEEC00AF0EE40AAB8EEC80AF1EE45
:102D9000040A80EE201A80ED001AB8EEE80AF1EE7F
:102DA000040A80EE201A80ED021AB8EEC90AF1EE8C
:102DB000040A80EE201A80ED041AB8EEE90AF1EE5A
:102DC000040A80EE201A80ED061AB8EECA0AF1EE67
:102DD000040A80EE201A80ED081AB8EEEA0AF1EE35
:102DE000040A80EE201A80ED0A1ABDEC068B10BD95
:102DF000541C002070B5044605F040F9D02005F0C1
:102E000013F905F063F9204605F00EF905F05EF9B7
:102E100005F034F9D12005F007F905F057F905F070
:102E2000E1F8054605F0CAF805F040F9284670BDFE
:102E30001FB5002408E004F13B01C8B2FFF7DAFF38
:102E40000DF80400601CC4B20E2CF4DB9DF80100E8
:102E50009DF8001000EB012000B21C4908809DF88D
:102E600003009DF8021000EB012000B217494880D2
:102E70009DF805009DF8041000EB012000B21349F5
:102E800088809DF807009DF8061000EB012000B235
:102E90000E49C8809DF809009DF8081000EB01203C
:102EA00000B20A4908819DF80B009DF80A1000EB5A
:102EB000012000B2054948819DF80D009DF80C10D5
:102EC00000EB012000B2014988811FBD001C0020D9
:102ED00070B505460C4605F0D1F8D02005F0A4F8F1
:102EE00005F0F4F8284605F09FF805F0EFF82046C5
:102EF00005F09AF805F0EAF805F0D8F870BD00BFC3
:102F0000FEE730B505460C4622460021284600F073
:102F100001F830BD2DE9F04103460C4617460FB9C4
:102F2000BDE8F08103B9FBE70025002202E02D0295
:102F30002543521C042AFAD3384603F0030C1946E1
:102F4000BCF1000F08D0624603E001F8014B401EBF
:102F5000521C08B1042AF8D30E4601E020C6001F17
:102F60000428FBD2314602E001F8014B401E002844
:102F7000FAD100BFD4E7704710B54FF4407000F0AD
:102F80003DF810BD70B5002100230F22C47824B392
:102F9000174C246804F4E064C4F5E064C4F307212A
:102FA000C1F10404E3B20A4144789C40E1B2847860
:102FB000144021430C07210E0E4C0578615504780E
:102FC00004F01F050124AC4005786D114FF0E02698
:102FD00006EB8505C5F8004109E0047804F01F04FC
:102FE0000125A540044C0678761144F8265070BDA2
:102FF0000CED00E000E400E080E100E00249014364
:10300000024A1160704700000000FA050CED00E074
:103010007047000010B50348006810B1014800680F
:10302000804710BD5C00002070B5044600F0A2F897
:1030300000203E4908703E4908703E4908703E49EC
:1030400008603E4908603E4908703E4908703E49A4
:1030500008703E48006858B13D48056845B13B4896
:10306000066803E0761E002028602D1D002EF9D191
:1030700000203849086038490860384908603849F4
:10308000086038490860384908603849086038499C
:10309000087001F011FD01F04BFD204601F0A0FA8F
:1030A000208800B170BD204601F000FB208800B1EF
:1030B000F8E7204601F006FB208800B1F2E7204641
:1030C00001F068FB208800B1ECE7204601F024FD08
:1030D000208800B1E6E7204601F0D6FD208800B147
:1030E000E0E7204602F0A2F8208800B1DAE72046A7
:1030F00001F0A4FA208800B1D4E7204602F016FDC2
:10310000208800B1CEE7204601F0D4FF208800B12E
:10311000C8E7204602F066FD208800B1C2E701F052
:1031200089F9FFF775FF00BFBCE7000070000020C1
:103130007100002096000020E4000020E80000203C
:103140008A0000208B0000208C000020CC81000829
:10315000C8810008500000205400002058000020C2
:103160005C00002060000020640000206800002057
:10317000C2000020064800680649096800EB81008B
:10318000054908600846006820F00700086070479D
:10319000C8810008CC810008EC00002010B5002494
:1031A0002D480078012800D010BD00BFFDF70CF8B5
:1031B000044600BF2948007828B900BF2046FDF723
:1031C00007F800BFF0E725480078401E2349087043
:1031D00008460078002805DD00BF2046FCF7F8FF10
:1031E00000BFE1E71E480078002805DD00BF20464B
:1031F000FCF7EEFF00BFD7E701F04AFC1949087061
:103200000846007800EB4000174951F820001749A4
:1032100008600846006816490968884205D100BF61
:103220002046FCF7D5FF00BFBEE710480068D0F885
:103230009000401C0D490968C1F890000D480068D5
:10324000401C0C490860FDF721FC00BF2046FCF73C
:10325000BFFF00BF00BFA7E7710000207000002083
:10326000960000208B0000203C3C0020E80000205D
:10327000E4000020B800002010B500241F480078AA
:10328000002800DD10BD1E480078002800DDF9E7A9
:1032900000BFFCF799FF044600BF01F0F9FB194994
:1032A00008700846007800EB4000174951F82000EC
:1032B000164908600846006815490968884205D122
:1032C00000BF2046FCF784FF00BFDBE70F48006823
:1032D000D0F89000401C0D490968C1F890000D48D5
:1032E0000068401C0B490860FDF7CBFB00BF20467F
:1032F000FCF76EFF00BF00BFC4E7000070000020B5
:10330000960000208B0000203C3C0020E8000020BC
:10331000E4000020B800002070B5044600251748DE
:103320000078002803DD46F66250208070BD144806
:103330000078012803D045F689602080F6E711481F
:103340000078FA2803DB45F209202080EEE700BF71
:1033500000BFFCF739FF054600BF00BF09480078F1
:10336000401C0849087000BF00BF2846FCF730FF2A
:1033700000BF00BF0020208000BFD7E77000002002
:10338000710000209600002070B5044600251F48FB
:103390000078002803DD46F66550208070BD1C488B
:1033A0000078012803D045F689602080F6E71948A7
:1033B000007818B946F664502080EFE700BF00BFE0
:1033C000FCF702FF054600BF00BF12480078401E10
:1033D000104908700846007800280ADD00BF00BFC9
:1033E0002846FCF7F5FE00BF00BF46F6635020807C
:1033F000D4E700BF00BF2846FCF7EAFE00BF00BFCD
:10340000FFF73AFF0020208000BFC7E770000020D0
:1034100071000020960000202DE9F04104460E4680
:1034200017461D464FF0000818480078002804DDB4
:1034300042F6E1602880BDE8F0811CB945F6C35032
:103440002880F8E700BF00BFFCF7BEFE804600BF43
:1034500000BF0F482060276200206062666004F1B0
:10346000080001F02BFA204601F0F6FB094800881D
:10347000401C0849088000BF00BF4046FCF7A8FE7A
:1034800000BF00BF0020288000BFD4E770000020EC
:1034900053454D419C0000202DE9F04788B0064679
:1034A000894690461C46109D4FF0000A60480078FF
:1034B000002806DD46F2AE102880002008B0BDE8E6
:1034C000F08726B945F6C35028800020F6E7B8F10A
:1034D000000F03D0B8F5004F02D100E000BF04E0B8
:1034E00045F6256028800020E8E700BF5149306894
:1034F000884204D045F6C45028800020DEE70CB195
:103500000020206000BF00BFFCF75EFE824600BFC7
:1035100000BF306A88B1306A401E30620CB1706AF8
:103520002060376A00BF00BF5046FCF751FE00BF65
:1035300000BF002028803846C0E718F4004F0CD0A8
:10354000376A00BF00BF5046FCF742FE00BF00BF15
:1035500046F2B01028803846B0E737480078002897
:103560000BDD00BF00BF5046FCF732FE00BF00BFBE
:1035700046F6635028800020A0E74B4606223146DD
:10358000684601F013F900BF00BF5046FCF720FE6B
:1035900000BF00BFFFF770FE00BF00BFFCF714FEC6
:1035A000824600BF00BF2548006890F8350030B162
:1035B00001280CD002281AD0032821D110E01CB118
:1035C0001E480068006C20600020288024E01CB1A8
:1035D0001A480068006C206046F2A91028801BE0A1
:1035E0000CB10020206047F2D920288014E01CB1E3
:1035F00012480068006C206045F6C25028800BE03D
:1036000046F62E60288000BF00BF5046FCF7E0FD64
:1036100000BF00BF002051E700BF376A00BF00BFF6
:103620005046FCF7D5FD00BF00BF384646E7000016
:103630007000002053454D4196000020E40000201A
:103640002DE9F04105460E4614462DB945F6C35006
:1036500020800020BDE8F0814EB1B6F5007F07D094
:10366000B6F5004F05D0B6F5024F04D102E000BF19
:1036700000BF00BF04E045F6256020800020E9E798
:1036800000BF0A492868884204D045F6C45020800B
:103690000020DFE7FEF762F98046234642463146C6
:1036A000284601F0FDFA07463846D3E753454D4119
:1036B00010B5044612480078E8B901F0E9F911495B
:1036C000087008460078104908700E48007800EB32
:1036D00040000E4951F820000D4908600846006876
:1036E0000C490860012006490870FDF7B9F943F656
:1036F0009920208002E045F68A60208010BD0000FD
:10370000710000208B0000208A0000203C3C00203B
:10371000E8000020E40000202DE9F04107464FF0CA
:10372000000800BF00BFFCF74FFD804600BF00BF90
:1037300000203A4908803A4908603A4908603A4905
:1037400008603A49088100BF00BF4046FCF740FDD1
:1037500000BF00BF00BF00BFFCF736FD804600BFC2
:1037600000BF3348046800BF00BF4046FCF730FD8F
:1037700000BF00BF22E000BF00BFFCF725FD804670
:1037800000BF00BF002044F8780F2063A061A08232
:10379000E0826062A062FEF7E1F82062A4F17804A2
:1037A00004F164064FF00000B081D4F8B84000BFC7
:1037B00000BF4046FCF70CFD00BF00BF002CDAD173
:1037C00000BF00BFFCF700FD804600BF00BF1948E6
:1037D000056800BF00BF4046FCF7FAFC00BF00BF11
:1037E00012E000BF00BFFCF7EFFC804600BF00BF47
:1037F00005F120060020B081AD6900BF00BF404642
:10380000FCF7E6FC00BF00BF002DEAD102F09CF8F7
:1038100002F0E4FA00203880BDE8F081A200002028
:10382000B4000020C8000020D4000020303C00205C
:10383000BC00002090000020F8B504460026694630
:10384000324800F017FCBDF8000018B1BDF80000C8
:103850002080F8BD6A460021022000F059FCBDF826
:10386000000018B1BDF800002080F2E700BF00BFE3
:10387000FCF7AAFC064600BF00BF002024490860F0
:1038800000BF00BF3046FCF7A3FC00BF00BF00250F
:103890002048006820490968884205D91D48006809
:1038A0001D490968B0FBF1F525B91A4800680A21DD
:1038B000B0FBF1F56A460021284600F029FC694674
:1038C000124800F0B7F9BDF8000018B1BDF80000CB
:1038D0002080BEE700BF00BFFCF776FC064600BFB5
:1038E00000BF00200D490860094800680C490860C5
:1038F00001200C49087000BF00BF3046FCF768FC8F
:1039000000BF00BF0020208000BFA2E7BC40002015
:10391000A4000020FC810008E4810008B40000201D
:10392000A8000020B000002010B50348006810B1C6
:1039300001480068804710BD600000202DE9FF4F5E
:1039400085B004469046DDE91995159F139E002029
:1039500002905D480078002805DD47F24A10288073
:1039600009B0BDE8F08F1CB947F2AD102880F7E729
:10397000B8F1000F03D147F24F102880F0E71EB9CD
:1039800046F62F602880EBE750480068874203D254
:1039900046F630602880E3E71498B84203D346F631
:1039A00031602880DCE71298402803D346F2732068
:1039B0002880D5E712983F2806D14548844203D095
:1039C00046F273202880CBE7204601F03FFC002020
:1039D000288019F0010F10D019F0020F0DD0B34656
:1039E000049007E00020CBF800000BF1040B0498D2
:1039F000401C04900498B842F4D3149806EB80005D
:103A00000390CDE9007932464046039B089900F0C7
:103A1000C9FA8346C4F828800898E06206982062B4
:103A2000129884F83700C4F800B00398A060179883
:103A30006065189860606662A763A4F83C904FF0D8
:103A4000000A08E0002104F17C0040F82A100AF185
:103A5000010000F0FF0ABAF1000FF3D004F1640096
:103A6000169900F08FFE204600F038F800BF00BF26
:103A7000FCF7AAFB029000BF00BF94F8370001F0EA
:103A800027F8204601F09CF8204601F095FB1148EC
:103A90000088401C0F4908800F480078012807D093
:103AA00000BF00BF0298FCF793FB00BF00BF57E7C1
:103AB00000BF00BF0298FCF78BFB00BF00BFFFF701
:103AC000DBFB00BF4CE7000070000020F88100081D
:103AD000703B0020C00000207100002010B504469B
:103AE0000348006818B1204601490968884710BD9D
:103AF0005000002070B504460D460026434800786B
:103B0000002803DD47F24E10288070BD40488442F3
:103B100003D147F24C102880F7E77CB900BF00BF03
:103B2000FCF752FB064600BF00BF3A48046800BFDE
:103B300000BF3046FCF74CFB00BF00BF00BF00BF1A
:103B4000FCF742FB064600BF00BF94F83600082889
:103B50002DD2DFE800F004090E10080A0F112046EC
:103B600001F04CF82EE02DE000BF204601F0D0FE21
:103B700028E000BF00BF00BF204601F0C9FE94F856
:103B80003400082810D2DFE800F004070508090A0D
:103B90000B0600BF00BF08E000BF00BF00BF00BFB2
:103BA000204600F0C3FE00E000BF00BF0AE000BFF7
:103BB00000BF3046FCF70CFB00BF00BF46F62D608F
:103BC0002880A2E700BF04F1640000F0B9FD2046A0
:103BD00000F024F8204601F007FB0F480088401E43
:103BE0000D490880204601F031FBFF2084F83600A3
:103BF00000BF00BF3046FCF7EBFA00BF00BF00205B
:103C00002880FFF739FB00BF7FE70000700000202D
:103C1000703B0020E4000020C000002010B50446E6
:103C20000348006818B1204601490968884710BD5B
:103C30005400002070B504460D4600261548007853
:103C4000002803DD47F25510288070BD00BF00BF7B
:103C5000FCF7BAFA064600BF00BF1CB10E48006868
:103C600084420AD100BF00BF3046FCF7B1FA00BF62
:103C700000BF47F257102880E7E700BF00BF30467B
:103C8000FCF7A6FA00BF00BF2946204601F054FB0E
:103C900000BFDAE770000020E400002010B5044601
:103CA0000348006818B1204601490968884710BDDB
:103CB000580000202DE9F04780460E4614461D4668
:103CC0004FF000096F480078002805DD46F2AE107D
:103CD00028800020BDE8F0871EB1B6F5004F02D164
:103CE00000E000BF04E045F6256028800020F1E7F1
:103CF00000BF0CB10020206000BF00BFFCF764FAD9
:103D0000814600BF00BF60480068406CA8B35E48B1
:103D10000068406C401E5C49096848645A48006865
:103D2000476C1CB158480068006C2060FDF716FE17
:103D300055490968096C401A53490968C1F8A4003B
:103D400051480068D0F8A8004F490968D1F8A4107C
:103D5000884207D24C480068D0F8A4004A49096854
:103D6000C1F8A80000BF00BF4846FCF731FA00BF09
:103D700000BF002028803846ACE7FFE716F4004F6C
:103D80000BD000BF00BF4846FCF722FA00BF00BFBF
:103D900046F2B010288000209CE73C4800780028BC
:103DA0000BDD00BF00BF4846FCF712FA00BF00BFA2
:103DB00046F66350288000208CE743460722002106
:103DC000084600F0F3FC00BF00BF4846FCF700FACD
:103DD00000BF00BFFFF750FA00BF00BFFCF7F4F9C7
:103DE000814600BF00BF2848006890F8350020B128
:103DF000012826D0032834D12CE0FCB122480068E9
:103E0000006C2060FDF7AAFD1F490968096C401A83
:103E10001D490968C1F8A4001B480068D0F8A80033
:103E200019490968D1F8A410884207D216480068D9
:103E3000D0F8A40014490968C1F8A800002028801F
:103E400013E01CB110480068006C206046F2A91015
:103E500028800AE00CB10020206047F2D920288099
:103E600003E046F62E60288000BF00BF06480068C9
:103E7000476C00BF00BF4846FCF7AAF900BF00BF6F
:103E8000384627E770000020E4000020960000205C
:103E90002DE9F04106460D4614461DB1B5F5004F1B
:103EA00002D100E000BF05E045F62560208000203B
:103EB000BDE8F08100BFFDF751FD80462346424634
:103EC0002946304601F0C4FA07463846F0E70000BC
:103ED0002DE9F04705460E4617461C464FF0000AEE
:103EE0002E480078002804DD47F259102080BDE8F4
:103EF000F0871EB946F2D5202080F8E71FB946F2B8
:103F0000D5202080F3E700BF00BFFCF75DF98246B3
:103F100000BF00BF0DB922480568286868B900BF16
:103F200000BF5046FCF754F900BF00BF00203060CE
:103F3000386047F252102080D9E795F83C0010F025
:103F4000010F0DD100BF00BF5046FCF741F900BF83
:103F500000BF00203060386047F254102080C6E770
:103F600000BF00BF5046FCF733F900BF00BF4FF061
:103F70000008D5F8249003E009F1040908F10108CC
:103F8000D9F800000028F7D0C6F80080A86BA0EB95
:103F9000080038600020208000BFA8E770000020E3
:103FA000E4000020F0B50446DDE9055602EB85008B
:103FB00020F007004FF0807C071F3846C7F800C08C
:103FC000071F38463C60DFF8A8C0071F3846C7F80F
:103FD00000C04FF0123C071F3846C7F800C04FF032
:103FE000033C071F3846C7F800C04FF0023C071FCC
:103FF0003846C7F800C0071F38463B60071F3846E1
:1040000039604FF0113C071F3846C7F800C04FF029
:10401000103C071F3846C7F800C04FF0093C071F87
:104020003846C7F800C04FF0083C071F3846C7F8AD
:1040300000C04FF0073C071F3846C7F800C04FF0DC
:10404000063C071F3846C7F800C04FF0053C071F65
:104050003846C7F800C04FF0043C071F3846C7F881
:1040600000C06FF0020C071F3846C7F800C0F0BD53
:104070003954000870B505460C460A4800780028F7
:1040800003DD47F25D10208070BD0748854203D1F3
:1040900047F25B102080F7E72146284601F0BAFA84
:1040A00000BFF1E770000020703B002010B51548FC
:1040B000006810B1134800688047FDF74FFC0446C4
:1040C0001148006811490968884215D00E480068F7
:1040D000D0F89800201A0C490968C1F894000A48E1
:1040E0000068D0F89C0008490968D1F89410084489
:1040F00005490968C1F89C0004480068C0F8984068
:1041000010BD000064000020E4000020E800002052
:104110002DE9F04105460E46144600272A4800784E
:10412000002804DD47F275202080BDE8F081274893
:104130000078002803DD46F663502080F5E736B1AD
:10414000022E05D0042E0AD0082E09D101E000BFAE
:1041500000BF1DB947F27E202080E6E704E003E0BF
:1041600045F625602080E0E700BF00BF00BFFCF7F8
:104170002BF8074600BF00BF01201549096881F8E8
:1041800036002346324629461148006801F0E2FA1B
:10419000208838B100BF00BF3846FCF719F800BFCF
:1041A00000BFC2E70A48006800F028FD00BF00BF5A
:1041B0003846FCF70DF800BF00BFFFF75DF80020A0
:1041C000208000BFB1E700007000002096000020B2
:1041D000E40000202DE9FF5F05460E46174698468D
:1041E000DDE90EA4002000905D480078002804DD81
:1041F00047F275202080BDE8FF9F5A4800780028CC
:1042000003DD46F663502080F5E70AF00E0BBBF1A4
:10421000000F09D0BBF1020F07D0BBF1040F10D083
:10422000BBF1080F0ED101E000BF00BFB8F1000FD5
:1042300006D12FB926B91DB947F27E202080DAE7D2
:1042400004E003E045F625602080D4E700BF3AF0A3
:104250001E0001D0012000E00020039003980128F7
:1042600003D145F625602080C5E7CAF3001002900F
:104270000298C0B9B8F57A7F03D347F27B2020803B
:10428000B9E73B2F03DD47F27A202080B3E73B2ECE
:1042900003DD47F279202080ADE7632D12DD47F280
:1042A00078202080A7E742F20F70864203DD47F2B4
:1042B000792020809FE7B5F57A7F03DB47F27820ED
:1042C000208098E72848D0F800904FF4FA70B0FBAF
:1042D000F9F0404400FB09F04FF47A71B0FBF1F1C2
:1042E0004FF461606843C6EB061200EB820038446D
:1042F00000FB09100190019860B300BF00BFFBF7FD
:1043000063FF009000BF00BF01201849096881F8D1
:10431000360023465A4615480199006801F01AFAFA
:10432000208838B100BF00BF0098FBF751FF00BFE5
:1043300000BF60E70D48006800F060FC00BF00BFF0
:104340000098FBF745FF00BF00BFFEF795FF002078
:10435000208002E047F27E20208000BF4BE7000073
:104360007000002096000020FC810008E40000207E
:1043700008B500F01FF86A4600210A48FFF788FDDB
:1043800009480068401E084908600846006838B9B6
:104390000648006808606A4600210548FFF778FD76
:1043A00008BD0000FC3F0020E0000020DC000020F1
:1043B000BC40002010B50348006810B101480068F7
:1043C000804710BD6800002010B5002401F0C4FE35
:1043D00000BF00BFFBF7F8FE044600BF00BF08485F
:1043E0000078401C0649087000BF00BF2046FBF75C
:1043F000EFFE00BF00BFFFF7BBFFFEF7CFFE10BD13
:104400007000002001464A1E4FF0E0235A61084A1E
:10441000106820F07F4000BF10601A46126942F019
:1044200005021A611A46126942F002021A617047C7
:1044300020ED00E0244A2549254A264A2649274AF4
:104440002748284A284A294A294A2A482A482B4ADA
:104450002B482C4A2C482D4A2D482E482E482F48B0
:104460002F4A304A304A3148314A324A324833487A
:1044700033483448344835483548364A364A374A4E
:10448000374A384838483948394A3A4A3A4A3B481C
:104490003B483C483C493D483D4A3E4A3E4A3F4AEB
:1044A0003F4A404A404A4148414A424A42484348BA
:1044B000434A444A4448454A454A4648464847488C
:1044C00000BF00BF00BF704740820008A8830008FB
:1044D00041820008428200084482000848820008A5
:1044E0004C82000849820008748200087582000826
:1044F00076820008788200087A8200087E820008AE
:1045000080820008A0820008A2820008A48200081D
:10451000A6820008A8820008AA820008AC820008CF
:10452000D8820008D9820008DA820008DC820008FC
:10453000DE820008DF820008E0820008E2820008D4
:10454000E4820008E6820008E8820008EA820008A7
:10455000EC8200081C8300081D8300081E830008ED
:104560001F8300082083000822830008248300089A
:104570004C8300084D8300084E8300084F830008D9
:1045800050830008528300085483000858830008B1
:10459000598300085A8300085B8300085C83000885
:1045A0005D8300085E8300085F8300086083000865
:1045B0006283000863830008648300086683000840
:1045C00068830008698300086C830008A0830008E2
:1045D000A1830008A2830008A4830008A683000822
:1045E0000021034A1160034A1180018070470000D6
:1045F0007400002078000020002400BF19E000BFF4
:1046000000BFFBF7E1FD044600BF00BF094800689A
:10461000401C0849086008480068401C06490860BA
:1046200000BF00BF2046FBF7D3FD00BF00BFFEF771
:10463000F1FCE4E76C000020A400002010B58AB073
:10464000044600200E4908600B2000210591CDE9A9
:104650000704069108460B4909680B4A12680B4B80
:104660001B68CDE90132CDE903103F200023084A41
:1046700008A100900C48FFF761F90AB010BD0000D6
:104680006C000020A4810008A08100089C81000823
:10469000F945000875432F4F532D49494920496476
:1046A0006C65205461736B00703B00200021034A4D
:1046B0001160034A11800180704700007C000020D7
:1046C0008000002070B501461A4D2D681DB945F2D5
:1046D0001E750D8070BD184D2D881DB945F21D75D4
:1046E0000D80F7E7134D28682A681032124D2D8887
:1046F0006D1EACB2002308E0026000254560058114
:10470000C560103010325D1CABB2A342F4DB002553
:10471000056045600581C560064D2D68074E356012
:10472000054D2D88B5800025F58035810D8000BFB1
:10473000D0E70000DC810008D4810008303C002074
:1047400010B5014648894B89002B17DD0A680C4BD0
:104750001B6813600A4C4B6823602346DB884C8936
:104760001B1B074CE38023469B884C892344044C45
:10477000A38000234B818B810B604B6010BD000038
:10478000303C00200181002242818281026042602F
:10479000704700000021034A1160034A1180018024
:1047A0007047000084000020880000202DE9F041BF
:1047B00005460C4616461F461548006880F83460CA
:1047C00000201349096881F835003946104800680F
:1047D00000F0D6FC6CB104F10808EC600122294617
:1047E0000B48006800F016F82946404600F06BF8C8
:1047F00006E0002006490968C8870549096808637A
:1048000003480168204600F019F8BDE8F081000077
:10481000E400002010B5C287016300230AE00024F1
:104820004C600C600C614C610C83CC618860203161
:104830005C1CA3B29342F2DB10BD000030B548B15E
:104840004568C1F8BC5000F10804226893681D6AED
:10485000C56113E091F83450022D02D0072D08D124
:1048600003E007A5C1F8BC5007E007A5C1F8BC509C
:1048700003E008A5C1F8BC5000BF00BF30BD000078
:104880005461736B205100005461736B2053656D4C
:10489000000000002000000030B507A5C1F8BC50A2
:1048A00000F1080422681AB193681D6AC56101E02D
:1048B00001A5C56130BD000020000000002101609D
:1048C000416001817047F0B58E6896F837500789CE
:1048D0003FB90127078100274F600F6001604160E9
:1048E00023E007897F1C0781026806E0946894F83A
:1048F0003770AF4200DD02E05268002AF6D100BFF7
:1049000032B900274F6043680B60596041600CE08A
:1049100017682FB9116000270F604A60016004E03A
:1049200013680B604A6059601160F0BD2DE9F041D9
:104930000446256BE68F0AE0D5F80C8008F10807DD
:104940002946384600F00AF82035701E86B2002E3F
:10495000F2DC0020E0872063BDE8F08110B5048917
:10496000012C03D100240460446011E00C6824B9D8
:104970004A680024146002600AE04C6824B90B689D
:1049800000245C60436003E00B684A685A6013606F
:104990000489641E048100244C600C6010BD2DE964
:1049A000F84306460C4617469846089D94F836008C
:1049B000082853D2DFE800F00405080906072C2D6B
:1049C00000BF00BF00BF4AE000BF94F834000328D6
:1049D00007D143463A4621463046009500F042F85A
:1049E00003E0E765A4F86080256436B12046FFF750
:1049F0009DFF21463046FFF74FFF204600F08EFC1A
:104A0000002004F13404A070607004F8340926E03A
:104A100000BF94F83400032807D143463A462146A4
:104A20003046009500F01EF803E0E765A4F86080CA
:104A30002564204600F06CFF36B12046FFF776FF74
:104A400021463046FFF728FF042004F13404A0700B
:104A50004FF00000607004F8340900E000BF00BFB0
:104A6000BDE8F883F0B50446059E086BCD8F0AE0DB
:104A7000C768A74204D1046142610383C66104E0B0
:104A800020306F1EBDB2002DF2DC00BFF0BD000073
:104A900070B50025074C03E005F12000C5B2241DC8
:104AA00020680028F8D02068FBF799FB2844C5B29D
:104AB000284670BD48000020002004E00021034A81
:104AC00042F82010401C0228F8D37047480000200C
:104AD00030B5420900F01F030121C3F11F04A140BA
:104AE000034C54F822400C43014D45F8224030BDA0
:104AF0004800002030B5420900F01F030121C3F136
:104B00001F04A140034C54F822408C43014D45F84A
:104B1000224030BD480000200021034A1160034AB2
:104B20001180018070470000900000209400002058
:104B300000210AE001EB4102054B03EB8200002259
:104B40000281026042604A1CD1B24029F2D3704710
:104B50003C3C002010B5044694F83700FFF7B8FF3E
:104B600094F8370005490978884203D1204600F0BF
:104B700027F802E0204600F003F810BD8A0000206C
:104B800010B590F8373003EB43030C4C04EB830172
:104B90000B893BB901230B810023C36003610860CB
:104BA000486009E00B895B1C0B810B68C360002324
:104BB00003610A681061086010BD00003C3C0020E1
:104BC00010B590F8373003EB43030B4C04EB830133
:104BD0000B893BB901230B810023C360036108608B
:104BE000486008E00B895B1C0B810023C3604A68A6
:104BF0000261D060486010BD3C3C00202DE9F041CE
:104C0000054695F8370000EB4000124901EB80049F
:104C10002F69EE6887B946B9002020812060606066
:104C200095F83700FFF766FF0EE02089401E2081CF
:104C300000203061266007E02089401E2081FE6050
:104C40000EB9676000E0376100202861E860BDE8C8
:104C5000F08100003C3C002009A1C16100214161BC
:104C60000849096811B90021816105E00549096811
:104C70008161044909684861024908607047000081
:104C800020000000980000200021034A1160034A20
:104C90001180018070470000980000209C000020D7
:104CA0002DE9FF5F0446884691461D46002001908D
:104CB00000BF00BFFBF788FA019000BF00BF04F1FE
:104CC0000807388900284FD10420012804D0022881
:104CD00014D0042834D123E0206AFF280DD100BF6E
:104CE00000BF0198FBF774FA00BF00BF46F6C5503D
:104CF0002880002004B0BDE8F09F22E0206AA0F5E3
:104D00007F41FF390BD100BF00BF0198FBF760FA6C
:104D100000BF00BF46F6C55028800020EAE710E03B
:104D2000206A401C0BD100BF00BF0198FBF750FA6E
:104D300000BF00BF46F6C55028800020DAE700E03B
:104D400000BF00BF206A401C2062D4F820A0C4F835
:104D5000249000BF00BF0198FBF73AFA00BF00BFE4
:104D6000002028805046C5E718F4007F01D03E8916
:104D700000E00126D7F800B011E0DBF8080002904F
:104D8000DBF80400039000231A46CDF8009020467B
:104D90000299FFF704FEDDF80CB0701E86B2002EFB
:104DA000EBD1D4F820A000BF00BF0198FBF710FAA8
:104DB00000BF00BF18F4004F01D1FEF75DFA0020DC
:104DC0002880504696E7000086B00020009000BF83
:104DD00006E0A9490968480001AA0021FFF798F9EF
:104DE000A64800780128F4D101A8FEF795FC002719
:104DF000A3480068A0490968884205D9A04800680E
:104E00009D490968B0FBF1F727B99D4800680A2160
:104E1000B0FBF1F72EE1FCF7A1FD804600BF00BF1B
:104E2000FBF7D2F9009000BF00BF96480068964992
:104E3000086000209349086000BF00BF0098FBF79E
:104E4000C7F900BF00BF914800688F4909688842D0
:104E500048D98E4800688E49884205D242F21070C7
:104E600003900120029023E0884800688949884225
:104E700005D24FF47A7003900A20029018E083481C
:104E800000688549884203D26420039002900FE0B5
:104E90007E4800688149884205D20A2003904FF479
:104EA0007A70029004E00120039042F210700290A8
:104EB000764801680298B1FBF0FA734903980968D3
:104EC0004843B0FBFAF042F21071081A74490880A6
:104ED000744800880988884208DA71480088714956
:104EE000088003E042F210706D490880FEF71CFD57
:104EF000002500BF00BFFBF767F9009000BF00BFAF
:104F00006948046800BF00BF0098FBF761F900BF63
:104F100000BF26E000BF00BFFBF756F9009000BFBE
:104F200000BF54F89C0F6060002044F89C0900BF4B
:104F300000BF0098FBF74CF900BF00BFD4F8A000F9
:104F4000054400BF00BFFBF73FF9009000BF00BF62
:104F5000D4F8B84000BF00BF0098FBF739F900BF94
:104F600000BF002CD6D145B34948854205D242F254
:104F7000107005904FF0010B1BE04648854205D2AA
:104F80004FF47A7005904FF00A0B12E042488542C8
:104F900003D26420059083460BE04048854204D24A
:104FA0000A2005904FF47A7B03E00120059042F23D
:104FB000107BB5FBFBF0049003E00020059001207E
:104FC000049000BF00BFFBF7FFF8009000BF00BFD8
:104FD0003548046800BF00BF0098FBF7F9F800BF30
:104FE00000BF2BE0D4F8A000059948430499B0FB1A
:104FF000F1F086B242F21070864200D90646A4F85B
:105000008C60B4F88E00B04201DAA4F88E6001AB77
:1050100004F1AC02111D2046FEF75AFF00BF00BF8D
:10502000FBF7D2F8009000BF00BFD4F8B84000BF33
:1050300000BF0098FBF7CCF800BF00BF002CD1D117
:105040001A480078012805D100201849087001A8E5
:10505000FEF762FBFCF782FCA0EB0809144800682D
:10506000484502D21248C0F8009001AA00213846F3
:10507000FFF74EF8CFE60000E4810008B000002002
:10508000FC810008A4000020AC000020A800002043
:10509000801A060000093D00005A62020084D717FA
:1050A000A0000020A2000020BC0000209E000020E4
:1050B000B400002010B58AB0044600201F490860E3
:1050C0001F4908601F4908601F4908701F49087080
:1050D0001F48006820B946F62B6020800AB010BD3A
:1050E0001C4800681C490968884203D246F62C60B7
:1050F0002080F3E7194800783F2803D346F62A605A
:105100002080EBE7032000210591CDE907040691FB
:10511000084610490968124A12680D4B1B68CDE910
:105120000132CDE903100D48007800230D4A0EA18D
:1051300000901248FEF702FC00BFCFE7A400002059
:10514000AC000020A8000020B00000209E0000203D
:10515000E8810008F0810008F8810008E08100087B
:10516000EC810008C94D000875432F4F532D494964
:10517000492053746174205461736B003C3F0020DC
:1051800038B504460D4685B16B46022229462046B5
:1051900000F0E0FABDF8000018B9032084F83600EA
:1051A00006E0022084F8360002E0022084F836008F
:1051B0002046FFF723FD38BD0021C0F8B41009498F
:1051C000096819B90021C0F8B81007E00549096855
:1051D000C0F8B81003490968C1F8B4000149086073
:1051E00070470000BC000020D0F8B420D0F8B81000
:1051F0004AB90D4B196011B10023C1F8B430002336
:10520000C0F8B8300FE029B90023C2F8B830C0F8B0
:10521000B43008E0C2F8B810C1F8B4200023C0F8D8
:10522000B830C0F8B4307047BC0000200021044AF8
:105230001160044A1180044A116001807047000027
:10524000BC000020C0000020B800002070B504465B
:1052500000202060A0606060E06020616061A0616B
:10526000E0612BA0206200206062A062E062206307
:10527000E0872064E065A4F86000002104F1640088
:10528000FFF780FA002044F8740F6060E060A082AD
:105290002061A4F17404054606E0002104F17C00BD
:1052A00040F82510681CC5B2002DF6D0002004F18E
:1052B0003404206120676067606084F85600E0670E
:1052C000A06720814FF0004060614FF00000A061B6
:1052D000E06120626062A4F85800A4F85A00E0651A
:1052E0002066FCF73BFB064666660020A066207041
:1052F0006070A0704020E0700020C4F88000C4F806
:10530000840005A0C4F88800A4F1340470BD000036
:105310003F5461736B0000002000000010B504468C
:10532000204600F0F5FA94F8360010F0040F02D190
:105330002046FFF70FFC10BD70B504460D46002651
:1053400000BF00BFFAF740FF064600BF00BF0020C5
:10535000288094F8360008285ED2DFE800F00405C3
:1053600006071227394B00BF00BF00BF00BF00BFB8
:105370003046FAF72DFF00BF00BF47F253102880D8
:1053800055E014F88A0F401E207014F88A0928B9D5
:10539000002084F836002046FFF7C0FF00BF00BFA2
:1053A0003046FAF715FF00BF00BF40E014F88A0F3F
:1053B000401E207014F88A0910B9012084F83600C4
:1053C00000BF00BF3046FAF703FF00BF00BF2EE06A
:1053D00014F88A0F401E207014F88A0910B90220B0
:1053E00084F8360000BF00BF3046FAF7F1FE00BF78
:1053F00000BF1CE014F88A0F401E207014F88A09C0
:1054000010B9032084F8360000BF00BF3046FAF719
:10541000DFFE00BF00BF0AE000BF00BF3046FAF762
:10542000D7FE00BF00BF46F62D60288070BD00BFCC
:10543000FDF722FF00BFF9E708B504480068FEF752
:105440002DFC69460020FEF755FB08BDE400002056
:105450002DE9F8430446884617461D464FF00009DB
:1054600000BF00BFFAF7B0FE814600BF00BF0CB915
:105470006748046827640020288094F836000828CC
:1054800075D2DFE800F0040550510607525300BF03
:1054900000BF00BF0420012804D0022813D0042834
:1054A00033D122E0606CFF280CD100BF00BF48461A
:1054B000FAF78EFE00BF00BF46F6C55028800020D8
:1054C000BDE8F88322E0606CA0F57F41FF390BD185
:1054D00000BF00BF4846FAF77BFE00BF00BF46F69C
:1054E000C55028800020EBE710E0606C401C0BD119
:1054F00000BF00BF4846FAF76BFE00BF00BF46F68C
:10550000C55028800020DBE700E000BF00BF606CD2
:10551000401C6064666C00BF00BF4846FAF758FE46
:1055200000BF00BF70E000BF00BF00BF94F83400B0
:10553000072814D100231A46214618460097FFF782
:105540002EFA666C00BF00BF4846FAF741FE00BF66
:1055500000BF18F4004F4AD1FDF78EFE47E004204B
:10556000012805D0022813D0042833D122E03FE0DF
:10557000606CFF280BD100BF00BF4846FAF728FE39
:1055800000BF00BF46F6C5502880002098E722E003
:10559000606CA0F57F41FF390BD100BF00BF4846CA
:1055A000FAF716FE00BF00BF46F6C550288000205F
:1055B00086E710E0606C401C0BD100BF00BF48467E
:1055C000FAF706FE00BF00BF46F6C550288000204F
:1055D00076E700E000BF00BF606C401C6064666C52
:1055E00000BF00BF4846FAF7F3FD00BF00BF0BE065
:1055F00000BF00BF4846FAF7EBFD00BF00BF46F60C
:105600002D602880002600BF00BF304658E700000C
:10561000E400002070B504460D46002600BF00BF20
:10562000FAF7D2FD064600BF00BF0CB93D4804683A
:105630003C48006884420ED13B48007800280ADDCF
:1056400000BF00BF3046FAF7C3FD00BF00BF46F6FB
:105650006350288070BD0020288094F83600082808
:1056600050D2DFE800F0041523313F4041420420CE
:1056700084F83600012084F88A002046FFF7BEFA3D
:1056800000BF00BF3046FAF7A3FD00BF00BF44E0F3
:10569000052084F83600012084F88A0000BF00BF8E
:1056A0003046FAF795FD00BF00BF36E0062084F8CB
:1056B0003600012084F88A0000BF00BF3046FAF7A8
:1056C00087FD00BF00BF28E0072084F836000120D6
:1056D00084F88A0000BF00BF3046FAF779FD00BFAA
:1056E00000BF1AE000BF00BF00BF94F88A00401C52
:1056F00084F88A0000BF00BF3046FAF769FD00BF9A
:1057000000BF0AE000BF00BF3046FAF761FD00BFEE
:1057100000BF46F62D6028809CE700BFFDF7ACFD7A
:1057200000BF97E7E400002096000020002108E079
:10573000064A02EBC100002202608280C2804A1C3D
:1057400091B2034A12889142F2DB70476838002018
:10575000148200082DE9F04F0C4616461D46042E13
:105760001ED1DFF8A091D9F80090A4EB0909A9F1A6
:10577000010313F5803F0DD94FF00009C0F84C909C
:10578000C0F85090C0F81C9047F27E29A5F8009010
:10579000BDE8F08FC46403F10109C0F850903FE008
:1057A00084B3082E25D1D0F8489009EB0407DFF820
:1057B0005491D9F80090A7EB0909A9F10103A3427C
:1057C00001D2C76406E0DFF83C91D9F80090A1440B
:1057D000C0F84C90DFF82CA1D0F84C90DAF800A07B
:1057E000A9EB0A09C0F85090D0F84C90C0F8489046
:1057F00016E0DFF81091D9F80090A144C0F84C9061
:1058000004650DE0FFE74FF00009C0F84C90C0F8C8
:105810005090C0F81C9047F27E29A5F80090B7E799
:10582000DFF8E4A0BAF800A0D0F84C90B9FBFAFB7E
:105830000AFB1B991FFA89F8DFF8D09009EBC80220
:10584000B2F80490B9F1000F0BD14FF00009C0F885
:105850001490C0F8189010604FF00109A2F804905D
:105860003EE0116834E0DFF89CA0D1F84C90DAF803
:1058700000A0A9EB0A09C1F85090D0F85090D1F8D7
:1058800050A0D1450ED9D1F81490B9F1000F01D034
:1058900049691DE04FF00009C0F81490816148612A
:1058A000002115E0D1F81890B9F1000F07D14FF0A1
:1058B0000009C0F8189041618861106007E0D1F8D4
:1058C00018C0C0F818C04161CCF8140088610021EC
:1058D0000029C8D1B2F8049009F10109A2F8049096
:1058E000B2F80690B2F804A0D14503DAB2F80490F9
:1058F000A2F80690C2614FF00009A5F8009000BF21
:1059000046E70000C4000020148200086838002028
:1059100010B5C269BAB1002404651468844205D187
:105920004169116039B100248C6104E081694369E7
:105930004B6103B19961002444618461C461C46412
:105940009488641E948010BD002006E0054A02EB96
:10595000C0010022CA80421C90B2034A12889042C1
:10596000F4DB704768380020148200082DE9F05FEE
:105970004FF0000B00BF00BFFAF726FC834600BFC4
:1059800000BFFBF7EBFF054659480068401C58492B
:1059900008600846006857490988B0FBF1F201FB2E
:1059A00012001FFA80FA544800EBCA08D8F80040E9
:1059B000002788E0002C7DD0D4F8149094F83600AD
:1059C00008287BD2DFE800F00408051B06400753D7
:1059D00000BF00BF00BF72E04549E06C0968401A93
:1059E00020654349E06C0968884206D1002084F8AC
:1059F00036002046FFF792FC00E001275FE03C49BB
:105A0000E06C0968401A20653949E06C09688842F1
:105A100018D10020E065A4F86000FBF79FFF206428
:105A20002046FEF783FF2046FFF778FC002004F1B4
:105A30003404A0704FF0030060704FF0000004F8D1
:105A4000340900E001273AE02949E06C0968401A6E
:105A500020652749E06C0968884206D1042084F853
:105A600036002046FFF754FF00E0012727E02049D9
:105A7000E06C0968401A20651D49E06C096888429D
:105A80001AD10020E065A4F86000FBF767FF2064EE
:105A90002046FEF74BFF2046FFF73AFF042004F1B3
:105AA0003404A0704FF0030060704FF0000004F861
:105AB000340902E006E001E0012700E000BF00BF7A
:105AC0004C4600E00127002F3FF474AFFBF746FF80
:105AD000461B0A480068B04201D20848066000BF71
