:020000040800F2
:10000000588200209D010008972C00082920000834
:100010001F2C00084D160008C966000800000000EB
:10002000000000000000000000000000C15D0008AA
:1000300091180008000000003B090008E540000896
:10004000B7010008B7010008B7010008B7010008B0
:10005000B7010008B7010008B7010008B7010008A0
:10006000B7010008B7010008B7010008B701000890
:10007000B7010008B7010008B7010008B701000880
:10008000B7010008B7010008B7010008B701000870
:10009000B7010008B7010008B7010008B701000860
:1000A000B7010008B7010008B7010008B701000850
:1000B000B7010008B7010008B7010008B701000840
:1000C000B7010008B7010008B7010008B701000830
:1000D000B70100080D630008B7010008B701000868
:1000E000B7010008B7010008B7010008B701000810
:1000F000B7010008B7010008B7010008B701000800
:10010000B7010008B7010008B7010008B7010008EF
:10011000B7010008B7010008B7010008B7010008DF
:10012000B7010008B5170008B7010008B7010008BB
:10013000B7010008B7010008B7010008B7010008BF
:10014000B7010008B7010008B7010008B7010008AF
:10015000B7010008B7010008B7010008B70100089F
:10016000B7010008B7010008B7010008B70100088F
:10017000B7010008B7010008B7010008B70100087F
:10018000B7010008B7010008DFF80CD000F07AFBD7
:10019000004800478D7E00085882002006488047AE
:1001A00006480047FEE7FEE7FEE7FEE7FEE7FEE75C
:1001B000FEE7FEE7FEE7FEE7215F00088901000891
:1001C00072B6704762B67047EFF3108072B6704730
:1001D00080F31088704730BF704720BF7047B0FA77
:1001E00080F0704790FAA0F0B0FA80F0704790FA73
:1001F000A0F070472DE9F05F0546002092469B462F
:1002000088460646814640241BE02846414647462C
:10021000224600F020F852465B46801A994110D3DE
:1002200010461946224600F04AFA2D1A67EB0108DB
:100230004F4622460120002100F041FA17EB000949
:100240004E41201EA4F10104DFDC484631462A4617
:100250004346BDE8F09F202A04DB203A21FA02F051
:100260000021704721FA02F3D040C2F120029140F0
:1002700008431946704740EA01039B0703D009E091
:1002800008C9121F08C0042AFAD203E011F8013B82
:1002900000F8013B521EF9D2704730B50EE003461C
:1002A0000A4601E05B1C521C1C781578AC4201D157
:1002B000002CF7D115F0FF0F04D0401C0278002A63
:1002C000EDD1002030BDCAB20178914203D009B10E
:1002D000401CF9E7002070470146002000E0401C68
:1002E0000A5C002AFBD1704730B504460020034663
:1002F00000E05B1C934203D2E05CCD5C401BF8D075
:1003000030BD2DE9FE4F074681EA0300C00F0E46BF
:10031000019021F0004123F00044B81AA14105D218
:100320003846314617461E460B46024623F000402B
:10033000104304D13846314603B0BDE8F08F350D87
:10034000C5F30A00C3F30A510290401A00904028F6
:1003500068DAC3F3130040F4801B0198924620B181
:100360000023D2EB030A63EB0B0B00985946C0F154
:100370004002504600F0A3F980460C4650465946CC
:10038000009A00F0ABF9C0197141EF1785EA1153DB
:100390003B4340D0019A52B3009A012A11DC00225B
:1003A000801A4FF0004361EB055103EA05538018B2
:1003B000CDE9002341F580114246234600F0E3F9E0
:1003C000BAE72E050025401B61EB0601401941F5F7
:1003D0008012001852412818A6F5001343EB0201C1
:1003E00040EAD470294318EB0808644113E064081C
:1003F0004FEA38084FF0000244EAC0744FEA055350
:10040000801A61EB0301801841F5801149084FEA19
:100410003000801859414246234603B0BDE8F04FF2
:1004200000F0A4B90198012240000023D0EB0202A1
:1004300063EBE07301984FEAE074381A66EB04014D
:10044000EBE783F000435CE781F0004159E72DE9D9
:10045000FE4F81EA030421F0004504F0004423F03C
:1004600000414FF0000A009450EA050302D052EA1E
:10047000010304D10020014603B0BDE8F08FC1F3B1
:100480000A53C5F30A541C44A0FB02B3C5F3130579
:1004900045F4801CC1F3130141F480180CFB0233B6
:1004A00000FB083EA4F2F334810A930A41EA8C511E
:1004B00043EA88530194A1FB03474FEA9C2505FBBF
:1004C00003734FEA982601FB06373D05260545EAEA
:1004D0001435BBEB06016EEB0503850E920E45EA63
:1004E0008C1542EA8812A5FB0206261E67EB000760
:1004F0000C0D44EA0334A41947EB1350C1F313065F
:100500004FF0000319464FEA033343EA165343EA18
:100510000403019CE5FB0201A4F10C040294009C7D
:100520004FEA0632CDE900A400F02DF9A4E72DE949
:10053000F04D81EA030404F0004B21F0004714461B
:100540004FF0000A23F0004150EA070220D054EA9D
:1005500001021DD0C1F30A550246C1F31300C7F3CF
:100560000A56C7F3130340F4801143F48013A6EB3B
:100570000508101BD64608F2FD3873EB010002D3C4
:1005800008F1010801E092185B41B8F1000F03DAAD
:1005900000200146BDE8F08D00204FF4801506468E
:1005A00007460EE0B2EB040C73EB010C04D3121BF4
:1005B000064363EB01032F436D084FEA30009218A6
:1005C0005B4150EA050CEDD152EA030012D082EAF9
:1005D000040083EA0105284303D100224FF00043C1
:1005E00008E0101B8B4102D20122002302E06FF0D1
:1005F000010253101AEB060047EB085110EB0A00FA
:1006000041EB0B01BDE8F04D00F0B0B80EB5C10FE5
:1006100080EAE0700844CA07002140F233438DE8C5
:100620000E000A460B4600F0AEF803B000BD00F025
:10063000004230F000400DD0C10D01F5607142EA7A
:1006400001510022C0F31600520742EAD0024007CF
:100650001143704700200146704701F0004230B45A
:1006600021F0004150EA010306D00B0DA3F56073A1
:10067000C1F31301002B02DC30BC00207047440F93
:1006800044EAC104C100A01830BC00EBC35000F024
:1006900037B830B50B46014600202022012409E07E
:1006A00021FA02F59D4205D303FA02F5491B04FA2B
:1006B00002F52844151EA2F10102F1DC30BD202A0A
:1006C00004DB203A00FA02F1002070479140C2F1A9
:1006D000200320FA03F3194390407047202A06DBD9
:1006E000CB17203A41FA02F043EAE071704741FA31
:1006F00002F3D040C2F120029140084319467047EE
:100700000029A8BF7047401C490008BF20F0010025
:10071000704710B4B0FA80FC00FA0CF050EA010403
:1007200004BF10BC704749B1CCF1200421FA04F495
:1007300011FA0CF118BF012121430843A3EB0C016E
:10074000CB1D0106000A002BBEBF002010BC704765
:1007500000EBC35010440029A4BF10BC7047401CDC
:10076000490008BF20F0010010BC704710B5002BF5
:1007700008DA401C41F1000192185B411A4301D193
:1007800020F0010010BD2DE9F04D92469B4611B1BD
:10079000B1FA81F202E0B0FA80F220329046FFF71F
:1007A0008EFF06460F4640EA0A0041EA0B01524618
:1007B0005B46084303D130463946BDE8F08D194603
:1007C00052EA010015D0C8F140025046FFF743FD40
:1007D00004460D46504659464246FFF770FF08430F
:1007E00001D0012000E00020044345EAE0752643E3
:1007F0002F430A984FEAD625A0EB08000A304FEAAB
:1008000046534FF0000245EA47554FEAD72402D538
:1008100000200146D1E7010550196141DDE9084595
:1008200000196941BDE8F04DA0E7C1F30A52C1F3D8
:10083000130140F2FF3341F480119A4202DA0020A2
:100840000146704740F233439A42A2F2334202DC3F
:100850005242FFF700BDFFF732BF000030B500295C
:1008600004DB4FF00044404264EB0101002B04DB49
:100870004FF00044524264EB0303994208BF904298
:1008800030BD0000064C074D06E0E06840F0010373
:1008900094E8070098471034AC42F6D3FFF778FC91
:1008A000208200084082000870B501EB020410F8B5
:1008B000015B15F0070301D110F8013B2A1106D1A5
:1008C00010F8012B03E010F8016B01F8016B5B1EBF
:1008D000F9D12B0705D40023521E0FD401F8013B98
:1008E000FAE710F8013B02F10202A1EB030303E077
:1008F00013F8015B01F8015B521EF9D5A142D6D372
:10090000002070BD21484FF0FF010170002080F3EE
:1009100009881F48016881F308881E484FF08051FC
:10092000016062B6FEE71B484FF0805101607047DE
:1009300018484FF080510160704772B6EFF309809C
:1009400050B11EF0100F08BF20ED108A734620E949
:10095000F80F11490968086000B5104880475DF834
:1009600004EB0F480F490A7802700B480E490A68D9
:1009700002601068B0E8F80F9E461EF0100F08BF26
:10098000B0EC108A80F3098862B6704722ED00E06F
:100990000001002004ED00E0F8000020C93D00083F
:1009A0009E0000209F000020FC00002010B52DEDCF
:1009B0000A8B874801690846FFF739FE41EC100BA6
:1009C000B0EE40AAF0EE60AA814801680846FFF741
:1009D0002EFE41EC100BB0EE408AF0EE608AB0EED5
:1009E0004A1AF0EE6A1A06F023F8B0EE409AF0EEDA
:1009F000609A9FED780B53EC102B51EC190BFFF71D
:100A000026FD41EC100BB0EE40CAF0EE60CA9FED3F
:100A1000730B53EC102B51EC1C0BFFF788FD41ECD2
:100A2000100BB0EE40BAF0EE60BA51EC1B0BFFF7C2
:100A300014FE6C490860664801690846FFF7F7FD37
:100A400041EC100BB0EE409AF0EE609A604881687D
:100A50000846FFF7ECFD41EC100BB0EE40BAF0EEAB
:100A600060BAB0EE491AF0EE691A05F0E1FFB0EE97
:100A700040AAF0EE60AA9FED570B53EC102B51ECFF
:100A80001A0BFFF7E4FC41EC100BB0EE408AF0EEDD
:100A9000608A9FED520B53EC102B51EC180BFFF7B3
:100AA00046FD41EC100BB0EE40CAF0EE60CA51ECCE
:100AB0001C0BFFF7D2FD4C4908604C4841680846C2
:100AC000FFF7B5FD41EC100BB0EE409AF0EE609AE6
:100AD000464801680846FFF7AAFD41EC100BB0EE4E
:100AE000408AF0EE608AB0EE491AF0EE691A05F01D
:100AF0009FFFB0EE40AAF0EE60AA51EC1A0BFFF790
:100B0000ACFD3B490860324890ED000ADFED390A40
:100B1000B4EEE00AF1EE10FA03D23348006832492D
:100B200008602B4890ED000ADFED320AB4EEE00ACF
:100B3000F1EE10FA06DD2C4890ED000AB1EE400A05
:100B400080ED000A224890ED020ADFED2A0AB4EE99
:100B5000E00AF1EE10FA03D2224800682149086049
:100B60001B4890ED020ADFED230AB4EEE00AF1EE35
:100B700010FA06DD1B4890ED000AB1EE400A80ED48
:100B8000000A134890ED060ADFED1B0A20EE200A4A
:100B90001A4880ED000A0E4890ED080ADFED160AAB
:100BA00020EE200A164880ED000A1448D0ED000A15
:100BB0000C4890ED000A01F0B7FA1148D0ED000A98
:100BC000094890ED000A01F0F7FBBDEC0A8B10BD5F
:100BD000601C0020000000000080664000000060F3
:100BE000FB2109405401002058010020381D00203D
:100BF0005C01002000F8FF4600007A3D6001002003
:100C00006401002000206D490870D6E06B48007830
:100C100020B101280FD002280CD1A3E068A000F079
:100C200097FE4FF4FA6168A000F0A6FE10B1012013
:100C300062490870BCE065480078002873D11AE06A
:100C40004FF48071624801F0ECFF62A000F080FE7A
:100C50004FF4FA624FF480715D4800F01AFE60A113
:100C60005B48FFF71AFB00B106E057A15848FFF7B1
:100C700014FB00B100E0E3E700BF0CE050A000F07F
:100C800067FE4FF4FA6150A000F076FE18B1022022
:100C90005649087000E0F1E700BF09E054A000F0F9
:100CA00057FE4FF4FA6148A000F066FE00B100E084
:100CB000F4E700BF17E04FF48071454801F0B1FF41
:100CC00055A000F045FE4FF4FA613FA000F054FE3D
:100CD00048B154A000F03CFE4FF4FA6154A000F07B
:100CE0004BFE00B100E0E6E700BF09E053A000F0D2
:100CF0002FFE4FF4FA6134A000F03EFE00B100E098
:100D0000F4E700BF0DE052A000F022FE4FF4FA61BC
:100D10002DA000F031FE20B101202C49087001E027
:100D200001E0F0E71DE029480078012819D101020F
:100D3000274801F076FF4AA000F00AFE4FF4FA625D
:100D40004FF48071224800F0A4FD5C21484801F076
:100D500068FF48A11E48FFF7A0FA10B1022017490A
:100D6000087025E044F62061454800F023FC4FF46C
:100D70007A724FF48071164800F08BFD41A114483F
:100D8000FFF78BFA414908600846006860B10846E1
:100D900000680079632806D13D48007840F01000D3
:100DA0003B49087000BF00BF354800F0F5FB00BFAD
:100DB00000BF4FF4FA7000F019FC27E71A0000207A
:100DC00041542B52535400004F4B00001900002097
:100DD000641D002041542B43574D4F44453D320084
:100DE0006E6F206368616E67650000001800002068
:100DF00041542B43575341503D225869616F536909
:100E00005A686F75222C22313233343536373839EF
:100E1000222C312C3300000041542B4349504D55B6
:100E2000583D310041542B4349504D55583F000027
:100E30002B4349504D55583A3100000041542B4343
:100E400049505345525645523D312C3830383000C8
:100E500041542B43495053544F3D323838300000F1
:100E600041542B4349505354415455530000000002
:100E7000641F00202B4349505354415455533A00AA
:100E8000E41B002073796E63000000001C0000204A
:100E9000020000202DED108BB8B0D02006F02CFF02
:100EA00030B9FE48007840F00100FC49087005E0C8
:100EB000FA48007820F00100F849087006F08CFC30
:100EC0003C2006F019FF30B9F548007840F00100E9
:100ED000F349087005E0F248007820F00100F0497D
:100EE000087006F0D3FBAFE201F032FE00F0D0FF55
:100EF00001F0AAFB00F04CFEE848007810F0100F5B
:100F00007DD0E848007810F0100F40D1C820E649A5
:100F10000860E648B0F9000000EE100AB8EEC00A1A
:100F2000E34880ED010AE148B0F9020000EE100A42
:100F3000B8EEC00ADE4880ED030ADC48B0F90400D0
:100F4000A0F5804000EE100AB8EEC00AD84880ED47
:100F5000050AD648B0F9080000EE100AB8EEC00A3B
:100F6000D34880ED070AD148B0F90A0000EE100A14
:100F7000B8EEC00ACE4880ED090ACC48B0F90C00A2
:100F800000EE100AB8EEC00AC94880ED0B0AC64848
:100F9000006828B9C148007820F01000BF490870E7
:100FA000C248B0F9000000EE100AB8EEC00AC0480E
:100FB000D0ED010A30EE200AF0EE000A80EE201A91
:100FC00080ED011AB948B0F9020000EE100AB8EE3F
:100FD000C00AB748D0ED030A30EE200AF0EE000A4E
:100FE00080EE201A80ED031AB048B0F9040000EE3C
:100FF000100AB8EEC00AAE48D0ED050A00E04CE099
:1010000030EE200ADFEDAB0A30EE600AF0EE000AA7
:1010100080EE201A80ED051AA448B0F9080000EE11
:10102000100AB8EEC00AA248D0ED070A30EE200A36
:10103000F0EE000A80EE201A80ED071A9B48B0F906
:101040000A0000EE100AB8EEC00A9948D0ED090A6D
:1010500030EE200AF0EE000A80EE201A80ED091A28
:101060009248B0F90C0000EE100AB8EEC00A9048A1
:10107000D0ED0B0A30EE200AF0EE000A80EE201AC6
:1010800080ED0B1A88480068401E874908600846B2
:101090000068C82801D9C82008608148007810F08D
:1010A000010F06D07D48007810F0010F01D000F04C
:1010B000F7FC8148007802287ED1804801780078CA
:1010C000401C7E4A10707E4891FBF0F200FB12102B
:1010D000002872D1C8217B4801F0A3FD7448C16A81
:1010E0000846FFF7A4FA41EC100BB0EE408AF0EE90
:1010F000608A6F48416A0846FFF799FA41EC100B85
:10110000B0EE409AF0EE609A6948C1690846FFF770
:101110008EFA41EC100BB0EE40AAF0EE60AA6448E3
:1011200041690846FFF783FA41EC100BB0EE40BA74
:10113000F0EE60BA5E48C1680846FFF778FA41EC05
:10114000100BB0EE40CAF0EE60CA5948416808463C
:10115000FFF76DFA41EC100BB0EE40DAF0EE60DA1A
:10116000594881680846FFF762FA41EC100BB0EE6F
:1011700040EAF0EE60EA544841680846FFF757FA43
:1011800041EC100BB0EE40FAF0EE60FA4E48016808
:101190000846FFF74CFA41EC100B8DED340B444838
:1011A000816A0846FFF743FA41EC100B8DED320BD4
:1011B0003F48016A084601E039E1A0E0FFF737FA4D
:1011C00041EC100B8DED300B394881690846FFF773
:1011D0002EFA41EC100B8DED2E0B354801690846B7
:1011E000FFF725FA41EC100B8DED2C0B3048816890
:1011F0000846FFF71CFA41EC100B8DED2A0B2C482A
:1012000001680846FFF713FA41EC100B8DED280B2F
:101210002E480068FFF70BFA41EC100B8DED260B02
:101220002B480068FFF703FA41EC100B8DED240BFF
:1012300028480068FFF7FBF941EC100B8DED220BFD
:101240008DED208B8DED1E9B8DED1CAB8DED1ABBB6
:101250008DED18CB8DED16DB8DED14EB8DED12FBC6
:101260009DED340B8DED100B9DED320B8DED0E0BC6
:101270009DED300B8DED0C0B9DED2E0B8DED0A0BC6
:101280009DED2C0B8DED080B9DED2A0B8DED060BC6
:101290009DED280B8DED040B1EE0000002000020E8
:1012A0000400002003000020040100200C1C00208A
:1012B000601C0020000080461A000020240100204D
:1012C00040420F007C410020381D00205C010020BE
:1012D00058010020540100209DED260B8DED020BDE
:1012E0009DED240B8DED000B9DED220B53EC102B8F
:1012F0005649574805F0FAF9554800F087FB55481C
:10130000008855490988884233D0534800886428AA
:1013100002DD64205049088000205049087020E018
:101320004F484E49097830F811004B490988484325
:10133000642190FBF1F04B4908600846006864287E
:1013400001D96420086045480078401CC1B2454876
:10135000006880B206F0D4FB40480078401C3F494A
:1013600008703E4800780428DADB3B480088394999
:10137000088000203949087055E039483749097814
:1013800030F811103848354A127830F8120081428E
:1013900032D035483149097830F81100642805DD2C
:1013A000642031492D4A127821F812002E482B4929
:1013B000097830F81100274909884843642190FBD7
:1013C000F1F02849086008460068642801D96420C3
:1013D000086022480078401CC1B22248006880B2F0
:1013E00006F08EFB20481D49097830F811001C4991
:1013F0001A4A127821F812001C4818490978415CF1
:101400001B48164A1278805C814207D0184813495D
:101410000978405C1549114A127888540F480078C1
:10142000401C0E4908700D4800780428A5DB1148BF
:1014300000781149087036A8002102230A46CDE938
:101440000010084602F054FD4EE50000308100080F
:101450007C4100201E0100201001002025010020F9
:1014600016010020280100200801002012010020A0
:1014700020010020020000200300002010B50022FF
:101480000121024800F077F810BD0000E41B0020A5
:1014900000B58BB00AA8032100220592CDE90621F0
:1014A0000890012001021922124BCDE90132CDE949
:1014B000031003200023104A10A10090134802F0EB
:1014C000CDF80AA8032100220592CDE90621089053
:1014D0000120010219220E4BCDE90132CDE90310A2
:1014E000052000230B4A0CA100900F4802F0B6F82B
:1014F0000BB000BDE4170020950E0008417070206D
:101500005461736B2053616D706C6500241700206B
:1015100064020020050C0008417070205461736B58
:1015200020436F6D6D000000A401002008B506F097
:1015300097F800F09BF800F07BF8684602F00CF892
:10154000FFF7A6FFFFF79AFF0AE006480078022897
:1015500002D1012006F006FA4FF4FA7000F046F8C6
:10156000F3E700001A0000201FB5684604F0B0FB46
:10157000019804B010BDF8B506460C4615466B46FA
:1015800022462946304601F0D7FDBDF8000008B1DB
:101590000020F8BD0120FCE738B504466A4600216A
:1015A000204601F0DDFEBDF8000008B1002038BD86
:1015B0000120FCE77CB505460C464FF47A70604389
:1015C00009490968B0FBF1F601A800231A46314623
:1015D0000090284601F0F0FDBDF8040008B100209D
:1015E0007CBD0120FCE70000807F0008FEB50446BA
:1015F00042F21070844200D90446B4F57A7F0BD3CE
:101600004FF47A70B4FBF0F085B24FF47A70B4FB0B
:10161000F0F100FB114601E0A5B2002602A800216E
:101620002B463246CDE90010084602F061FCFEBDB3
:1016300070B5FFF799FF044603480068B4FBF0F566
:10164000284602F06DFD70BD807F000800BFFEE7F8
:1016500010B50021044800F0DDF8002000F098F8F3
:10166000002000F083F810BD2864024010B500F09F
:101670001FF800F019F810BD10B5002400BF00BF1E
:10168000FEF7A2FD044600BF00BF1021054801F08F
:10169000C8FA00BF00BF2046FEF79AFD00BF00BF9A
:1016A00010BD00001828002010B5FFF7E5FF10BDA1
:1016B00010B500200249086000F00AF810BD0000D3
:1016C00058000020014908607047000058000020C1
:1016D00010B5FFF749FF04460848006840F08070E5
:1016E000064908600020064948600846006840F046
:1016F000010008602046FFF7E5FF10BDFCED00E0AB
:10170000001000E00149486870470000001000E048
:10171000014609B90B487047012901D10020FAE7B9
:10172000022901D10020F6E7032901D10020F2E7C8
:10173000042901D10020EEE7052901D10020EAE7C4
:101740000020E8E7C01F002008B54FF4E06001F07A
:10175000E5FA25208DF8000000208DF80200012018
:101760008DF80300684601F09DFA08BD30B10749C5
:10177000096841F00101054A116005E00349096863
:1017800021F00101014A116070470000000005507E
:1017900030B10749096841F48041054A116005E00C
:1017A0000349096821F48041014A11607047000033
:1017B0000000055010B50749074800F037F840B160
:1017C0000449054800F00CF8FFF742FF01200349E7
:1017D000087010BD0088001028640240010000203D
:1017E0000246094B9A4201D2084801E006481038E7
:1017F00011F0005F03D0064B0B40C36002E0044BC6
:101800000B4083607047000010640240006002409B
:101810007D0F7D0F21B1026842F00102026003E0FA
:10182000026822F0010202607047000030B50246F3
:10183000002000248446124DAA4201D2114B01E03F
:101840000F4B103B104D294206D01E2505EAD1242E
:10185000156805EA040C02E0556905F0800C11F0EA
:10186000005F01D05C6800E01C68084D2C400C4211
:1018700004D0BCF1000F01D0012000E0002030BDF9
:1018800010640240006002403C0F3C0F7D0F7D0F52
:1018900070472DE9F8430546894616460024A046C0
:1018A000002E03DD3146032006F074F94AE005F00E
:1018B000D5FEB8F1020F07D1032005F0B5FE58B1EF
:1018C00000202855E7B23EE0002E05DD032005F09C
:1018D000ABFE08B1002736E06946002006F0ACF9FF
:1018E00080B3B8F1000F06D0B8F1010F13D0B8F1F2
:1018F000020F26D116E09DF800000D2808D19DF8B2
:1019000000202046611C8CB22A544FF0020801E0EE
:101910004FF0010815E09DF800000D2801D14FF0AF
:1019200002080EE00521032006F034F9A9F10100B8
:10193000A04205DD9DF800202046611C8CB22A548F
:1019400000BF00BFB3E700BF3846BDE8F883000022
:1019500070B504462046FEF7BFFC85B22A462146F4
:10196000002006F078F9022202A1002006F073F9A7
:1019700070BD00000D0A00002DE9F041C2B08046A4
:101980000C4600254046FEF7A7FC0746FF2F03D96B
:10199000002042B0BDE8F081002C03DD2146032089
:1019A00006F0F8F82DE005F059FE002C05DD0320C7
:1019B00005F03AFE08B1002624E041A9002006F017
:1019C0003BF9F0B19DF804010A280DD1002D09DD85
:1019D0003A46414601A8FEF787FC08B9012611E006
:1019E00000250EE000250CE0FF2D0AD89DF804012B
:1019F000202806DB9DF804212846691C8DB201A928
:101A00000A54D0E700BF3046C3E7000070B5044673
:101A10001B480078022831D144F620611948FFF7AD
:101A2000C9FD4FF48071184801F0FBF82046FEF71D
:101A300053FC05462A4615A1134804F057FE1248E8
:101A4000FFF786FF4FF48071144801F0EAF84FF475
:101A5000FA624FF480711148FFF71BFF3E210F48D7
:101A6000FEF731FC10B12046FFF772FF4FF4807192
:101A70000A4801F0D6F80348FFF78EFD70BD00005C
:101A80001A000020E41B0020641E002041542B4358
:101A9000495053454E443D302C256400641D0020C0
:101AA00010B5FEF783FF03480088401C01490880F9
:101AB00010BD00002C01002070B50A460021002353
:101AC0008C4600BF3DE0012404FA01F3146804EAE7
:101AD000030C9C4534D104684E000325B540AC434B
:101AE000046014794D00AC4005682C4304601479FF
:101AF000012C02D01479022C16D184684E000325E3
:101B0000B540AC43846054794D00AC4085682C43AB
:101B10008460446801258D40AC43446044689579F5
:101B20008D40ADB22C434460C4684E000325B540DF
:101B3000AC43C460D4794D00AC40C5682C43C4604C
:101B4000491C1029BFD370BD70B500239C464C07BB
:101B5000E40E02FA04F3CD1000F1200454F82540FD
:101B60004D07EE0E0F25B540AC43CE1000F1200519
:101B700045F82640CD1000F1200454F8254044EAF1
:101B8000030CCD1000F1200444F825C070BD000006
:101B900000B52DED0C8B87B01C220021684601F0AA
:101BA00049F81C22A549A1F11C00FEF764FB1C2288
:101BB000A2491C31A148FEF75EFB1C229F49383127
:101BC000A1F11C00FEF757FB1C229C495431A1F1E6
:101BD0001C00FEF750FB1C22994998485430FEF730
:101BE0004AFB96481C38008894491C39898B084464
:101BF00092491C39098F084490491C39B1F8541096
:101C000008448E491C39B1F87010084400B2ADF890
:101C100000008A481C384188C08B014487481C3822
:101C2000408F014485481C38B0F856000144834871
:101C30001C38B0F87200084400B2ADF802007F48CA
:101C40001C388188008C01447C481C38808F0144FA
:101C50007A481C38B0F85800014478481C38B0F86D
:101C60007400084400B2ADF80400764841680846A4
:101C7000FEF7DDFC41EC100BB0EE409AF0EE609AFE
:101C8000704801680846FEF7D2FC41EC100BB0EE3C
:101C900040CAF0EE60CABDF90000FEF7B7FC41ECA7
:101CA000100BB0EE40BAF0EE60BA9FED670B53EC4C
:101CB000102B51EC1B0BFEF73AFC41EC100BB0EE75
:101CC00040DAF0EE60DA53EC1C2B51EC1D0BFEF702
:101CD000BEFB41EC100BB0EE40AAF0EE60AA53EC54
:101CE000192B51EC1A0BFEF70CFB41EC100BB0EE6C
:101CF000408AF0EE608A51EC180BFEF7AEFC5449B6
:101D000008605048C1680846FEF791FC41EC100B92
:101D1000B0EE409AF0EE609A4A4881680846FEF7B5
:101D200086FC41EC100BB0EE40BAF0EE60BABDF9A3
:101D30000200FEF76BFC41EC100BB0EE40AAF0EE97
:101D400060AA9FED410B53EC102B51EC1A0BFEF7E0
:101D5000EEFB41EC100BB0EE40CAF0EE60CA53EC63
:101D60001B2B51EC1C0BFEF772FB41EC100BB0EE81
:101D700040DAF0EE60DA53EC192B51EC1D0BFEF754
:101D8000C0FA41EC100BB0EE408AF0EE608A51ECE4
:101D9000180BFEF762FC2E4948602A484169084644
:101DA000FEF745FC41EC100BB0EE40AAF0EE60AA45
:101DB000244801690846FEF73AFC41EC100BB0EEEE
:101DC00040BAF0EE60BABDF90400FEF71FFC41EC2A
:101DD000100BB0EE40CAF0EE60CA9FED1B0B53EC47
:101DE000102B51EC1C0BFEF7A2FB41EC100BB0EEDC
:101DF000409AF0EE609A53EC1B2B51EC190BFEF756
:101E000026FB41EC100BB0EE408AF0EE608A53ECFA
:101E10001A2B51EC180BFEF774FA41EC100BB0EED4
:101E200040DAF0EE60DA51EC1D0BFEF716FC0849C3
:101E3000886007B0BDEC0C8B00BD0000C81C002002
:101E4000901C00204C1D00200000000000001440E9
:101E5000381D002070B5044605F0D2FF3C2005F087
:101E6000A5FF05F0F5FF204605F0A0FF05F0F0FF07
:101E700005F0C6FF3D2005F099FF05F0E9FF05F0EC
:101E800073FF054605F05CFF05F0D2FF284670BDE4
:101E90001CB505F0B5FF3C2005F088FF05F0D8FF24
:101EA000032005F083FF05F0D3FF05F0A9FF3D20D7
:101EB00005F07CFF05F0CCFF002407E005F054FF9F
:101EC0000DF8040005F000FF601CC4B2062CF5DB21
:101ED00005F04AFF8DF8060005F032FF05F0A8FF77
:101EE0009DF801009DF8001000EB012000B241496F
:101EF00008809DF803009DF8021000EB012000B25D
:101F00003C4988809DF805009DF8041000EB0120F5
:101F100000B2384948809DF8060088740846B0F938
:101F2000000010F5006F1CDD0846B0F90000B0F5A8
:101F3000006F16DA0846B0F90000B1F90C108842BB
:101F400003DD2C4800882B4988812A48B0F900001D
:101F50002849B1F90610884203DA26480088254945
:101F6000C8802448B0F9020010F5006F1DDD21483B
:101F7000B0F90200B0F5006F17DA1E48B0F90200A0
:101F80001C49B1F90E10884203DD1A4840881949EE
:101F9000C8811848B0F902001649B1F90810884202
:101FA00003DA14484088134908811248B0F9040044
:101FB00010F5006F1DDD0F48B0F90400B0F5006F9B
:101FC00017DA0C48B0F904000A49B1F91010884238
:101FD00003DD08488088074908820648B0F90400F4
:101FE0000449B1F90A10884203DA0248808801499D
:101FF00048811CBD901C002070B505460C4605F0BC
:10200000FFFE3C2005F0D2FE05F022FF284605F039
:10201000CDFE05F01DFF204605F0C8FE05F018FFB7
:1020200005F006FF70BD000008A100200AE00A5C70
:10203000114B9A8000BF104A128812F0400FFAD05C
:10204000421CD0B22A28F2D300BFFEE70D0A456E2B
:1020500074657220486172644661756C745F486192
:102060006E646C65722C2053797374656D204861C1
:102070006C742E0D0A0000000010014000B587B0FE
:102080000121084603F0F4FD0121102003F010FEA9
:10209000072209212248FFF757FD07220A2120487D
:1020A000FFF752FD00208DF81A0001208DF81B006B
:1020B00002208DF818000002059002208DF819000A
:1020C00005A91748FFF7F8FC02208DF81800400218
:1020D000059005A91248FFF7EFFC4FF41650019048
:1020E0000020ADF80800ADF80A00ADF80C00ADF81E
:1020F00010000C20ADF80E0001A90A4804F082F986
:10210000012240F22551074804F056F90121054803
:1021100004F00DF94021034804F000F907B000BDB8
:102120000000024000100140914890ED001A70EE4E
:10213000C11A904890ED002A8F4890ED001A01EEE8
:10214000821A80ED001A8D4890ED011A8C48D0ED6E
:10215000001A31EEC11A8948D0ED021A31EE611A27
:10216000884880ED001A8548083090ED011AB1EEDC
:10217000411A844880ED011A8048083090ED011A18
:10218000B1EE411A7F4880ED021A7F4800687D4910
:10219000C8607A4890ED001A0846D0ED001A7548DC
:1021A00090ED002A01EE821A744880ED001A90ED3D
:1021B000011A0846D0ED011A6E4890ED002A01EE92
:1021C000821A6E4880ED011A90ED021A0846D0ED91
:1021D000021A684890ED002A01EE821A674880EDE5
:1021E000021A083090ED011A0846D0ED031A614832
:1021F00090ED002A01EE821A6048083080ED011A45
:102200005D4890ED001A30EE411A604880ED001AEA
:102210005A48D0ED001A5E48007801EE100AB8EE78
:10222000411A21EE811A5B4880ED001A5348D0ED27
:10223000021A5748007801EE100AB8EE411A21EE52
:10224000811A554880ED001A544890ED001A504804
:10225000007801EE900AF8EE611A4E4890ED002ADF
:1022600001EE821A4E4880ED001A4A4890ED001A9D
:102270004B48D0ED001A81EE212A4A4880ED002A11
:10228000454890ED001A4648D0ED001A81EE212A0B
:10229000454880ED002A3F480068444908603748B7
:1022A000D0ED011A3A48007801EE100AB8EE411A52
:1022B00021EE811A3E4880ED001A304890ED001A58
:1022C0003848D0ED001A084690ED002A01EEC21AF7
:1022D0002A4880ED001A90ED011A3248D0ED001A1C
:1022E000334890ED002A01EEC21A244880ED011A0D
:1022F00090ED021A2C48D0ED001A084690ED002A05
:1023000001EEC21A1D4880ED021A083090ED011A44
:102310002548D0ED001A264890ED002A01EEC21A99
:102320001648083080ED011A134890ED001A1D4838
:10233000D0ED001A154890ED002A01EE821A0E48E1
:1023400080ED001A0A4890ED001A1748D0ED001AE7
:102350000E4890ED002A01EE821A054880ED001A21
:1023600090ED001A30EEC11A124880ED001A704745
:102370007C0100203C010020680100204401002075
:102380003001002044420020340100208001002060
:102390004001002084010020880100203801002035
:1023A0008C01002090010020940100209801002061
:1023B0009C01002070010020914890ED001A70EE01
:1023C000C11A904890ED002A8F4890ED001A01EE56
:1023D000821A80ED001A8D4890ED011A8C48D0EDDC
:1023E000001A31EEC11A8948D0ED021A31EE611A95
:1023F000884880ED001A8548083090ED011AB1EE4A
:10240000411A844880ED011A8048083090ED011A85
:10241000B1EE411A7F4880ED021A7F4800687D497D
:10242000C8607A4890ED001A0846D0ED001A754849
:1024300090ED002A01EE821A744880ED001A90EDAA
:10244000011A0846D0ED011A6E4890ED002A01EEFF
:10245000821A6E4880ED011A90ED021A0846D0EDFE
:10246000021A684890ED002A01EE821A674880ED52
:10247000021A083090ED011A0846D0ED031A61489F
:1024800090ED002A01EE821A6048083080ED011AB2
:102490005D4890ED001A30EE411A604880ED001A58
:1024A0005A48D0ED001A5E48007801EE100AB8EEE6
:1024B000411A21EE811A5B4880ED001A5348D0ED95
:1024C000021A5748007801EE100AB8EE411A21EEC0
:1024D000811A554880ED001A544890ED001A504872
:1024E000007801EE900AF8EE611A4E4890ED002A4D
:1024F00001EE821A4E4880ED001A4A4890ED001A0B
:102500004B48D0ED001A81EE212A4A4880ED002A7E
:10251000454890ED001A4648D0ED001A81EE212A78
:10252000454880ED002A3F48006844490860374824
:10253000D0ED011A3A48007801EE100AB8EE411ABF
:1025400021EE811A3E4880ED001A304890ED001AC5
:102550003848D0ED001A084690ED002A01EEC21A64
:102560002A4880ED001A90ED011A3248D0ED001A89
:10257000334890ED002A01EEC21A244880ED011A7A
:1025800090ED021A2C48D0ED001A084690ED002A72
:1025900001EEC21A1D4880ED021A083090ED011AB2
:1025A0002548D0ED001A264890ED002A01EEC21A07
:1025B0001648083080ED011A134890ED001A1D48A6
:1025C000D0ED001A154890ED002A01EE821A0E484F
:1025D00080ED001A0A4890ED001A1748D0ED001A55
:1025E0000E4890ED002A01EE821A054880ED001A8F
:1025F00090ED001A30EEC11A124880ED001A7047B3
:102600007C0100203C0100206C01002044010020DE
:1026100030010020444200203401002080010020CD
:1026200040010020840100208801002038010020A2
:102630008C010020900100209401002098010020CE
:102640009C0100207401002010B52DED068B0E2298
:10265000FE49A1F10E00FDF70EFE0E22FB490E31E0
:10266000FA48FDF708FE0E22F8491C31A1F10E00D0
:10267000FDF701FE0E22F5492A31A1F10E00FDF70A
:10268000FAFDF349B1F90010F04A0E3AB2F93820D8
:10269000881800EBD071491009B2EC4A0E3A118744
:1026A000EB49B1F90220E9490E39B1F93A10501855
:1026B00000EBD07149100AB2E4490E394A87E44967
:1026C000B1F90420E1490E39B1F93C10501800EB82
:1026D000D07149100AB2DD490E398A87DC49B1F957
:1026E0000820DA490E39B1F94010501800EBD071CA
:1026F00049100AB2D5490E39A1F84020D449B1F9A0
:102700000A20D2490E39B1F94210501800EBD071AD
:1027100049100AB2CD490E39A1F84220CC49B1F98D
:102720000C20CA490E39B1F94410501800EBD07191
:1027300049100AB2C5490E39A1F844200846B0F93B
:10274000000000EE100AB8EEC00AC248D0ED010A3F
:1027500070EE600A0846B0F90E0000EE100AB8EEFE
:10276000C00A30EE800ABB48D0ED010A70EE600A64
:102770000846B0F91C0000EE100AB8EEC00A30EEB0
:10278000800AB448D0ED010A70EE600A0846B0F93C
:102790002A0000EE100AB8EEC00A30EE800AAD48FA
:1027A000D0ED010A70EE600A0846B0F9380000EE7C
:1027B000100AB8EEC00A30EE800AA648D0ED010A31
:1027C00030EE600ABDEEC00AB0EE408A0846B0F9AD
:1027D000020000EE100AB8EEC00A9E48D0ED030ACF
:1027E00070EE600A0846B0F9100000EE100AB8EE6C
:1027F000C00A30EE800A9748D0ED030A70EE600AF6
:102800000846B0F91E0000EE100AB8EEC00A30EE1D
:10281000800A9048D0ED030A70EE600A0846B0F9CD
:102820002C0000EE100AB8EEC00A30EE800A89488B
:10283000D0ED030A70EE600A0846B0F93A0000EEE7
:10284000100AB8EEC00A30EE800A8248D0ED030AC2
:1028500030EE600ABDEEC00AF0EE408A0846B0F9DC
:10286000040000EE100AB8EEC00A7A48D0ED050A5E
:1028700070EE600A0846B0F9120000EE100AB8EED9
:10288000C00A30EE800A7348D0ED050A70EE600A87
:102890000846B0F9200000EE100AB8EEC00A30EE8B
:1028A000800A6C48D0ED050A70EE600A0846B0F95F
:1028B0002E0000EE100AB8EEC00A30EE800A65481D
:1028C000D0ED050A70EE600A0846B0F93C0000EE53
:1028D000100AB8EEC00A30EE800A5E48D0ED050A54
:1028E00030EE600ABDEEC00AB0EE409A0846B0F97C
:1028F000080000EE100AB8EEC00A5648D0ED070AEC
:1029000070EE600A0846B0F9160000EE100AB8EE44
:10291000C00A30EE800A4F48D0ED070A70EE600A18
:102920000846B0F9240000EE100AB8EEC00A30EEF6
:10293000800A4848D0ED070A70EE600A0846B0F9F0
:10294000320000EE100AB8EEC00A30EE800A4148AC
:10295000D0ED070A70EE600A0846B0F9400000EEBC
:10296000100AB8EEC00A30EE800A3A48D0ED070AE5
:1029700030EE600ABDEEC00AF0EE409A0846B0F9AB
:102980000A0000EE100AB8EEC00A3248D0ED090A7B
:1029900070EE600A0846B0F9180000EE100AB8EEB2
:1029A000C00A30EE800A2B48D0ED090A70EE600AAA
:1029B0000846B0F9260000EE100AB8EEC00A30EE64
:1029C000800A2448D0ED090A70EE600A0846B0F982
:1029D000340000EE100AB8EEC00A30EE800A1D483E
:1029E000D0ED090A70EE600A0846B0F9420000EE28
:1029F000100AB8EEC00A30EE800A1648D0ED090A77
:102A000030EE600ABDEEC00AB0EE40AA0846B0F94A
:102A10000C0000EE100AB8EEC00A0E48D0ED0B0A0A
:102A200070EE600A0846B0F91A0000EE100AB8EE1F
:102A3000C00A30EE800A0748D0ED0B0A70EE600A3B
:102A40000846B0F9280000EE100A05E0281C002016
:102A50000C1C0020601C0020B8EEC00A30EE800A7A
:102A60002B48D0ED0B0A70EE600A0846B0F936002C
:102A700000EE100AB8EEC00A30EE800A2448D0ED0D
:102A80000B0A70EE600A0846B0F9440000EE100A26
:102A9000B8EEC00A30EE800A1D48D0ED0B0A30EEC9
:102AA000600ABDEEC00AF0EE40AAB8EEC80AF1EE28
:102AB000040A80EE201A80ED001AB8EEE80AF1EE62
:102AC000040A80EE201A80ED021AB8EEC90AF1EE6F
:102AD000040A80EE201A80ED041AB8EEE90AF1EE3D
:102AE000040A80EE201A80ED061AB8EECA0AF1EE4A
:102AF000040A80EE201A80ED081AB8EEEA0AF1EE18
:102B0000040A80EE201A80ED0A1ABDEC068B10BD77
:102B1000601C002070B5044605F072F9D02005F065
:102B200045F905F095F9204605F040F905F090F9D2
:102B300005F066F9D12005F039F905F089F905F0BD
:102B400013F9054605F0FCF805F072F9284670BD4A
:102B50001FB5002408E004F13B01C8B2FFF7DAFF1B
:102B60000DF80400601CC4B20E2CF4DB9DF80100CB
:102B70009DF8001000EB012000B21C4908809DF870
:102B800003009DF8021000EB012000B217494880B5
:102B90009DF805009DF8041000EB012000B21349D8
:102BA00088809DF807009DF8061000EB012000B218
:102BB0000E49C8809DF809009DF8081000EB01201F
:102BC00000B20A4908819DF80B009DF80A1000EB3D
:102BD000012000B2054948819DF80D009DF80C10B8
:102BE00000EB012000B2014988811FBD0C1C0020B0
:102BF00070B505460C4605F003F9D02005F0D6F86F
:102C000005F026F9284605F0D1F805F021F920460F
:102C100005F0CCF805F01CF905F00AF970BD00BF0D
:102C2000FEE730B505460C4622460021284600F056
:102C300001F830BD2DE9F04103460C4617460FB9A7
:102C4000BDE8F08103B9FBE70025002202E02D0278
:102C50002543521C042AFAD3384603F0030C1946C4
:102C6000BCF1000F08D0624603E001F8014B401EA2
:102C7000521C08B1042AF8D30E4601E020C6001FFA
:102C80000428FBD2314602E001F8014B401E002827
:102C9000FAD100BFD4E7704710B54FF4407000F090
:102CA0003DF810BD70B5002100230F22C47824B375
:102CB000174C246804F4E064C4F5E064C4F307210D
:102CC000C1F10404E3B20A4144789C40E1B2847843
:102CD000144021430C07210E0E4C057861550478F1
:102CE00004F01F050124AC4005786D114FF0E0267B
:102CF00006EB8505C5F8004109E0047804F01F05DE
:102D00000124AC40044D0678761145F8264070BD8C
:102D10000CED00E000E400E080E100E00249014346
:102D2000024A1160704700000000FA050CED00E057
:102D30007047000010B50348006810B101480068F2
:102D4000804710BD7000002070B5044600F0A2F866
:102D500000203E4908703E4908703E4908703E49CF
:102D600008603E4908603E4908703E4908703E4987
:102D700008703E48006858B13D48056845B13B4879
:102D8000066803E0761E002028602D1D002EF9D174
:102D900000203849086038490860384908603849D7
:102DA000086038490860384908603849086038497F
:102DB000087001F01BFD01F055FD204601F09EFA60
:102DC000208800B170BD204601F0FEFA208800B1D5
:102DD000F8E7204601F004FB208800B1F2E7204626
:102DE00001F066FB208800B1ECE7204601F02EFDE3
:102DF000208800B1E6E7204601F0E0FD208800B120
:102E0000E0E7204602F0B0F8208800B1DAE720467B
:102E100001F0A2FA208800B1D4E7204602F030FD8C
:102E2000208800B1CEE7204601F0E2FF208800B103
:102E3000C8E7204602F080FD208800B1C2E701F01B
:102E400087F9FFF775FF00BFBCE700008400002092
:102E500085000020AA000020F8000020FC000020CF
:102E60009E0000209F000020A0000020507F00084E
:102E70004C7F000864000020680000206C000020E7
:102E80007000002074000020780000207C000020EA
:102E9000D6000020064800680649096800EB81005A
:102EA000054908600846006820F007000860704780
:102EB0004C7F0008507F00080001002010B500245E
:102EC0002D480078012800D010BD00BFFDF77CF927
:102ED000044600BF2948007828B900BF2046FDF706
:102EE00077F900BFF0E725480078401E23490870B5
:102EF00008460078002805DD00BF2046FDF768F988
:102F000000BFE1E71E480078002805DD00BF20462D
:102F1000FDF75EF900BFD7E701F054FC19490870CE
:102F20000846007800EB4000174951F82000174987
:102F300008600846006816490968884205D100BF44
:102F40002046FDF745F900BFBEE710480068D0F8FD
:102F50009000401C0D490968C1F890000D480068B8
:102F6000401C0C490860FDF7E3FC00BF2046FDF75C
:102F70002FF900BF00BFA7E78500002084000020D4
:102F8000AA0000209F0000203C3C0020FC00002004
:102F9000F8000020CC00002010B500241F48007865
:102FA000002800DD10BD1E480078002800DDF9E78C
:102FB00000BFFDF709F9044600BF01F003FC194901
:102FC00008700846007800EB4000174951F82000CF
:102FD000164908600846006815490968884205D105
:102FE00000BF2046FDF7F4F800BFDBE70F4800689C
:102FF000D0F89000401C0D490968C1F890000D48B8
:103000000068401C0B490860FDF78DFC00BF20469E
:10301000FDF7DEF800BF00BFC4E700008400002019
:10302000AA0000209F0000203C3C0020FC00002063
:10303000F8000020CC00002070B504460025174899
:103040000078002803DD46F66250208070BD1448E9
:103050000078012803D045F689602080F6E7114802
:103060000078FA2803DB45F209202080EEE700BF54
:1030700000BFFDF7A9F8054600BF00BF094800786A
:10308000401C0849087000BF00BF2846FDF7A0F8A3
:1030900000BF00BF0020208000BFD7E784000020D1
:1030A00085000020AA00002070B5044600251F48B6
:1030B0000078002803DD46F66550208070BD1C486E
:1030C0000078012803D045F689602080F6E719488A
:1030D000007818B946F664502080EFE700BF00BFC3
:1030E000FDF772F8054600BF00BF12480078401E89
:1030F000104908700846007800280ADD00BF00BFAC
:103100002846FDF765F800BF00BF46F663502080F3
:10311000D4E700BF00BF2846FDF75AF800BF00BF44
:10312000FFF73AFF0020208000BFC7E7840000209F
:1031300085000020AA0000202DE9F04104460E463B
:1031400017461D464FF0000818480078002804DD97
:1031500042F6E1602880BDE8F0811CB945F6C35015
:103160002880F8E700BF00BFFDF72EF8804600BFBB
:1031700000BF0F482060276200206062666004F193
:10318000080001F02BFA204601F000FC09480088F5
:10319000401C0849088000BF00BF4046FDF718F8F2
:1031A00000BF00BF0020288000BFD4E784000020BB
:1031B00053454D41B00000202DE9F04788B0064648
:1031C000894690461C46109D4FF0000A60480078E2
:1031D000002806DD46F2AE102880002008B0BDE8C9
:1031E000F08726B945F6C35028800020F6E7B8F1ED
:1031F000000F03D0B8F5004F02D100E000BF04E09B
:1032000045F6256028800020E8E700BF5149306876
:10321000884204D045F6C45028800020DEE70CB177
:103220000020206000BF00BFFCF7CEFF824600BF39
:1032300000BF306A88B1306A401E30620CB1706ADB
:103240002060376A00BF00BF5046FCF7C1FF00BFD7
:1032500000BF002028803846C0E718F4004F0CD08B
:10326000376A00BF00BF5046FCF7B2FF00BF00BF87
:1032700046F2B01028803846B0E73748007800287A
:103280000BDD00BF00BF5046FCF7A2FF00BF00BF30
:1032900046F6635028800020A0E74B4606223146C0
:1032A000684601F011F900BF00BF5046FCF790FFDF
:1032B00000BF00BFFFF770FE00BF00BFFCF784FF38
:1032C000824600BF00BF2548006890F8350030B145
:1032D00001280CD002281AD0032821D110E01CB1FB
:1032E0001E480068006C20600020288024E01CB18B
:1032F0001A480068006C206046F2A91028801BE084
:103300000CB10020206047F2D920288014E01CB1C5
:1033100012480068006C206045F6C25028800BE01F
:1033200046F62E60288000BF00BF5046FCF750FFD5
:1033300000BF00BF002051E700BF376A00BF00BFD9
:103340005046FCF745FF00BF00BF384646E7000087
:103350008400002053454D41AA000020F8000020C1
:103360002DE9F04105460E4614462DB945F6C350E9
:1033700020800020BDE8F0814EB1B6F5007F07D077
:10338000B6F5004F05D0B6F5024F04D102E000BFFC
:1033900000BF00BF04E045F6256020800020E9E77B
:1033A00000BF0A492868884204D045F6C4502080EE
:1033B0000020DFE7FEF7A6F9804623464246314665
:1033C000284601F007FB07463846D3E753454D41F1
:1033D00010B5044612480078E8B901F0F3F9114934
:1033E000087008460078104908700E48007800EB15
:1033F00040000E4951F820000D4908600846006859
:103400000C490860012006490870FDF77BFA43F675
:103410009920208002E045F68A60208010BD0000DF
:10342000850000209F0000209E0000203C3C0020E2
:10343000FC000020F80000202DE9F04107464FF085
:10344000000800BF00BFFCF7BFFE804600BF00BF02
:1034500000203A4908803A4908603A4908603A49E8
:1034600008603A49088100BF00BF4046FCF7B0FE43
:1034700000BF00BF00BF00BFFCF7A6FE804600BF34
:1034800000BF3348046800BF00BF4046FCF7A0FE01
:1034900000BF00BF22E000BF00BFFCF795FE8046E2
:1034A00000BF00BF002044F8780F2063A061A08215
:1034B000E0826062A062FEF725F92062A4F1780440
:1034C00004F164064FF00000B081D4F8B84000BFAA
:1034D00000BF4046FCF77CFE00BF00BF002CDAD1E5
:1034E00000BF00BFFCF770FE804600BF00BF194858
:1034F000056800BF00BF4046FCF76AFE00BF00BF82
:1035000012E000BF00BFFCF75FFE804600BF00BFB7
:1035100005F120060020B081AD6900BF00BF404624
:10352000FCF756FE00BF00BF002DEAD102F0AAF85A
:1035300002F0FEFA00203880BDE8F081B6000020DD
:10354000C8000020DC000020E8000020303C002003
:10355000D0000020A4000020F8B5044600266946EB
:10356000324800F015FCBDF8000018B1BDF80000AD
:103570002080F8BD6A460021022000F057FCBDF80B
:10358000000018B1BDF800002080F2E700BF00BFC6
:10359000FCF71AFE064600BF00BF00202449086061
:1035A00000BF00BF3046FCF713FE00BF00BF002580
:1035B0002048006820490968884205D91D480068EC
:1035C0001D490968B0FBF1F525B91A4800680A21C0
:1035D000B0FBF1F56A460021284600F027FC694659
:1035E000124800F0C3F9BDF8000018B1BDF80000A2
:1035F0002080BEE700BF00BFFCF7E6FD064600BF27
:1036000000BF00200D490860094800680C490860A7
:1036100001200C49087000BF00BF3046FCF7D8FD00
:1036200000BF00BF0020208000BFA2E7BC400020F8
:10363000B8000020807F0008687F0008C8000020D4
:10364000BC000020C400002010B50348006810B181
:1036500001480068804710BD740000202DE9FF4F2D
:103660002DED028B85B004469146179F159EDDED2A
:10367000198A9DED1A8ADDE91B85002002906048B9
:103680000078002807DD47F24A10288005B0BDEC1D
:10369000028BBDE8FF8F1CB947F2AD102880F5E71B
:1036A000B9F1000F03D147F24F102880EEE71EB9A1
:1036B00046F62F602880E9E752480068874203D227
:1036C00046F630602880E1E71698B84203D346F604
:1036D00031602880DAE71498402803D346F273203B
:1036E0002880D3E714983F2806D14748844203D066
:1036F00046F273202880C9E7204601F045FC0020EF
:10370000288018F0010F10D018F0020F0DD0B3462A
:10371000049007E00020CBF800000BF1040B0498A4
:10372000401C04900498B842F4D3169806EB80002D
:103730000390CDE9007832464846039B0A9900F091
:10374000CDFA8346C4F828909DED0A0A84ED0B0A51
:103750009DED080A84ED080A149884F83700C4F82F
:1037600000B00398A060C4ED158A84ED018A6662FA
:10377000A763A4F83C804FF0000A08E0002104F1A0
:103780007C0040F82A100AF1010000F0FF0ABAF1AB
:10379000000FF3D004F16400189900F081FE204678
:1037A00000F038F800BF00BFFCF70EFD029000BF2C
:1037B00000BF94F83710084601F024F8204601F0C5
:1037C00099F8204601F096FB10480088401C0F49EC
:1037D00008800F480078012807D000BF00BF02987A
:1037E000FCF7F6FC00BF00BF50E700BF00BF029827
:1037F000FCF7EEFC00BF00BFFFF7CEFB00BF45E7C4
:10380000840000207C7F0008703B0020D400002052
:103810008500002010B504460348006818B1204612
:1038200001490968884710BD6400002070B504464E
:103830000D46002643480078002803DD47F24E106D
:10384000288070BD4048844203D147F24C10288044
:10385000F7E77CB900BF00BFFCF7B6FC064600BF27
:1038600000BF3A48046800BF00BF3046FCF7B0FC18
:1038700000BF00BF00BF00BFFCF7A6FC064600BFAC
:1038800000BF94F8360008282DD2DFE800F00409C4
:103890000E10080A0F11204601F04AF82EE02DE024
:1038A00000BF204601F0D2FE28E000BF00BF00BFED
:1038B000204601F0CBFE94F83400082810D2DFE84F
:1038C00000F004070508090A0B0600BF00BF08E066
:1038D00000BF00BF00BF00BF204600F0B7FE00E001
:1038E00000BF00BF0AE000BF00BF3046FCF770FC1D
:1038F00000BF00BF46F62D602880A2E700BF04F19C
:10390000640000F0ABFD204600F024F8204601F0F2
:1039100009FB0F480088401E0D490880204601F031
:1039200033FBFF2084F8360000BF00BF3046FCF7B1
:103930004FFC00BF00BF00202880FFF72DFB00BF19
:103940007FE7000084000020703B0020F80000208A
:10395000D400002010B504460348006818B1204682
:1039600001490968884710BD6800002070B5044609
:103970000D46002615480078002803DD47F2551053
:10398000288070BD00BF00BFFCF71EFC064600BFCC
:1039900000BF1CB10E48006884420AD100BF00BFBE
:1039A0003046FCF715FC00BF00BF47F257102880D7
:1039B000E7E700BF00BF3046FCF70AFC00BF00BFCE
:1039C0002946204601F056FB00BFDAE784000020BC
:1039D000F800002010B504460348006818B12046DE
:1039E00001490968884710BD6C0000202DE9F047A7
:1039F00080460E4614461D464FF000096F48007879
:103A0000002805DD46F2AE1028800020BDE8F087D2
:103A10001EB1B6F5004F02D100E000BF04E045F64C
:103A2000256028800020F1E700BF0CB10020206055
:103A300000BF00BFFCF7C8FB814600BF00BF604865
:103A40000068406CA8B35E480068406C401E5C494A
:103A5000096848645A480068476C1CB158480068B7
:103A6000006C2060FDF74EFE55490968096C401A4C
:103A700053490968C1F8A40051480068D0F8A8006B
:103A80004F490968D1F8A410884207D24C48006811
:103A9000D0F8A4004A490968C1F8A80000BF00BFD7
:103AA0004846FCF795FB00BF00BF00202880384641
:103AB000ACE7FFE716F4004F0BD000BF00BF48464D
:103AC000FCF786FB00BF00BF46F2B0102880002044
:103AD0009CE73C48007800280BDD00BF00BF48464B
:103AE000FCF776FB00BF00BF46F66350288000203D
:103AF0008CE7434607220021084600F0E5FC00BFA2
:103B000000BF4846FCF764FB00BF00BFFFF744FA64
:103B100000BF00BFFCF758FB814600BF00BF28482C
:103B2000006890F8350020B1012826D0032834D150
:103B30002CE0FCB122480068006C2060FDF7E2FD3B
:103B40001F490968096C401A1D490968C1F8A40099
:103B50001B480068D0F8A80019490968D1F8A410DA
:103B6000884207D216480068D0F8A40014490968B2
:103B7000C1F8A8000020288013E01CB1104800689C
:103B8000006C206046F2A91028800AE00CB10020E9
:103B9000206047F2D920288003E046F62E60288076
:103BA00000BF00BF06480068476C00BF00BF484622
:103BB000FCF70EFB00BF00BF384627E7840000205B
:103BC000F8000020AA0000202DE9F04106460D462D
:103BD00014461DB1B5F5004F02D100E000BF05E06D
:103BE00045F6256020800020BDE8F08100BFFDF78C
:103BF00089FD8046234642462946304601F0C6FAF2
:103C000007463846F0E700002DE9F04705460E4626
:103C100017461C464FF0000A2E480078002804DDA5
:103C200047F259102080BDE8F0871EB946F2D52032
:103C30002080F8E71FB946F2D5202080F3E700BFC7
:103C400000BFFCF7C1FA824600BF00BF0DB9224891
:103C50000568286868B900BF00BF5046FCF7B8FA8D
:103C600000BF00BF00203060386047F25210208053
:103C7000D9E7A88F10F0010F0DD100BF00BF50464B
:103C8000FCF7A6FA00BF00BF00203060386047F2A2
:103C900054102080C7E700BF00BF5046FCF798FAD9
:103CA00000BF00BF4FF00008D5F8249003E009F1F1
:103CB000040908F10108D9F800000028F7D0C6F877
:103CC0000080A86BA0EB080038600020208000BFB7
:103CD000A9E7000084000020F8000020F0B50446A9
:103CE000DDE9055C02EB850020F007004FF08077EE
:103CF000061F30463760061F30463460234F061FCC
:103D0000304637604FF01237061F304637604FF0AD
:103D10000337061F304637604FF00237061F304624
:103D20003760061F30463360061F304631604FF063
:103D30001137061F304637604FF01037061F3046E8
:103D400037604FF00937061F304637604FF00837AD
:103D5000061F304637604FF00737061F3046376082
:103D60004FF00637061F304637604FF00537061F05
:103D7000304637604FF00437061F304637606FF02B
:103D80000207061F30463760F0BD0000755100087D
:103D900070B505460C460A480078002803DD47F256
:103DA0005D10208070BD0748854203D147F25B104B
:103DB0002080F7E72146284601F0CAFA00BFF1E764
:103DC00084000020703B002010B51548006810B139
:103DD000134800688047FDF795FC044611480068C9
:103DE00011490968884215D00E480068D0F898003B
:103DF000201A0C490968C1F894000A480068D0F8F4
:103E00009C0008490968D1F89410084405490968DC
:103E1000C1F89C0004480068C0F8984010BD00003C
:103E200078000020F8000020FC0000202DE9F0417F
:103E300005460E46144600272A480078002804DD6F
:103E400047F275202080BDE8F081274800780028DF
:103E500003DD46F663502080F5E736B1022E05D02B
:103E6000042E0AD0082E09D101E000BF00BF1DB901
:103E700047F27E202080E6E704E003E045F6256077
:103E80002080E0E700BF00BF00BFFCF79DF90746B8
:103E900000BF00BF01201549096881F8360023469C
:103EA000324629461148006801F0F2FA208838B1FC
:103EB00000BF00BF3846FCF78BF900BF00BFC2E768
:103EC0000A48006800F034FD00BF00BF3846FCF728
:103ED0007FF900BF00BFFFF75FF80020208000BF20
:103EE000B1E7000084000020AA000020F8000020B4
:103EF0002DE9FF5F05460E4617469846DDE90EA4FC
:103F0000002000905D480078002804DD47F275200D
:103F10002080BDE8FF9F5A480078002803DD46F660
:103F200063502080F5E70AF00E0BBBF1000F09D0BB
:103F3000BBF1020F07D0BBF1040F10D0BBF1080F8B
:103F40000ED101E000BF00BFB8F1000F06D12FB9BC
:103F500026B91DB947F27E202080DAE704E003E0AD
:103F600045F625602080D4E700BF3AF01E0001D05E
:103F7000012000E0002003900398012803D145F6BA
:103F800025602080C5E7CAF300100290029801283E
:103F900018D0B8F57A7F03D347F27B202080B8E7AA
:103FA0003B2F03DD47F27A202080B2E73B2E03DD72
:103FB00047F279202080ACE7632D12DD47F27820AC
:103FC0002080A6E742F20F70864203DD47F2792097
:103FD00020809EE7B5F57A7F03DB47F278202080CA
:103FE00097E72848D0F800904FF4FA70B0FBF9F04A
:103FF000404400FB09F04FF47A71B0FBF1F14FF44B
:1040000061606843C6EB061200EB8200384400FB97
:1040100009100190019860B300BF00BFFCF7D4F80D
:10402000009000BF00BF01201749096881F83600E1
:1040300023465A4614480199006801F029FA20885D
:1040400038B100BF00BF0098FCF7C2F800BF00BF46
:104050005FE70D48006800F06BFC00BF00BF0098F0
:10406000FCF7B6F800BF00BFFEF796FF00202080E7
:1040700002E047F27E20208000BF4AE78400002053
:10408000AA000020807F0008F800002008B500F09A
:104090001FF86A4600210A48FFF796FD09480068A4
:1040A000401E084908600846006838B9064800689C
:1040B00008606A4600210548FFF786FD08BD00003C
:1040C000FC3F0020F4000020F0000020BC40002055
:1040D00010B50348006810B101480068804710BD62
:1040E0007C00002010B5002401F0D8FE00BF00BF06
:1040F000FCF76AF8044600BF00BF08480078401C7F
:104100000649087000BF00BF2046FCF761F800BFF9
:1041100000BFFFF7BBFFFEF7D1FE10BD84000020FB
:1041200001464A1E4FF0E0235A61084A106820F009
:104130007F4000BF10601A46126942F005021A6102
:104140001A46126942F002021A61704720ED00E03F
:10415000244A2549254A264A2649274A2748284AE3
:10416000284A294A294A2A482A482B4A2B482C4AB5
:104170002C482D4A2D482E482E482F482F4A304A89
:10418000304A3148314A324A324833483348344859
:10419000344835483548364A364A374A374A384827
:1041A00038483948394A3A4A3A4A3B483B483C48F9
:1041B0003C493D483D4A3E4A3E4A3F4A3F4A404AC2
:1041C000404A4148414A424A42484348434A444A95
:1041D0004448454A454A46484648474800BF00BF0C
:1041E00000BF7047C47F00082C810008C57F00080D
:1041F000C67F0008C87F0008CC7F0008D07F000879
:10420000CD7F0008F87F0008F97F0008FA7F0008DA
:10421000FC7F0008FE7F0008028000080480000880
:104220002480000826800008288000082A800008D2
:104230002C8000082E800008308000085C80000878
:104240005D8000085E8000086080000862800008D1
:1042500063800008648000086680000868800008A9
:104260006A8000086C8000086E800008708000087A
:10427000A0800008A1800008A2800008A380000898
:10428000A4800008A6800008A8800008D08000084C
:10429000D1800008D2800008D3800008D4800008B4
:1042A000D6800008D8800008DC800008DD80000887
:1042B000DE800008DF800008E0800008E180000860
:1042C000E2800008E3800008E4800008E68000083F
:1042D000E7800008E8800008EA800008EC80000819
:1042E000ED800008F0800008248100082581000886
:1042F00026810008288100082A8100080021034A3D
:104300001160034A1180018070470000880000207E
:104310008C000020002400BF19E000BF00BFFBF7A5
:1043200053FF044600BF00BF09480068401C08490D
:10433000086008480068401C0649086000BF00BFCC
:104340002046FBF745FF00BF00BFFEF7F3FCE4E7A4
:1043500080000020B800002010B58AB0044600207C
:104360000E4908600B2000210591CDE90704069154
:1043700008460B4909680B4A12680B4B1B68CDE9CC
:104380000132CDE903103F200023084A08A1009024
:104390000C48FFF763F90AB010BD00008000002050
:1043A000287F0008247F0008207F000815430008AC
:1043B00075432F4F532D4949492049646C6520545A
:1043C00061736B00703B00200021034A1160034AB7
:1043D00011800180704700009000002094000020B0
:1043E00070B501461A4D2D681DB945F21E750D8038
:1043F00070BD184D2D881DB945F21D750D80F7E76C
:10440000134D28682A681032124D2D886D1EACB2EB
:10441000002308E00260002545600581C56010307A
:1044200010325D1CABB2A342F4DB00250560456091
:104430000581C560064D2D68074E3560054D2D88F8
:10444000B5800025F58035810D8000BFD0E70000E4
:10445000607F0008587F0008303C002010B50146FE
:1044600048894B89002B17DD0A680C4B1B681360C9
:104470000A4C4B6823602346DB884C891B1B074C86
:10448000E38023469B884C892344044CA38000236B
:104490004B818B810B604B6010BD0000303C0020D5
:1044A00001810022428182810260426070470000E7
:1044B0000021034A1160034A118001807047000007
:1044C000980000209C0000202DE9F04105460C4694
:1044D000164698461548006880F834600020134955
:1044E000096881F8350041461048006800F0E6FC94
:1044F0006CB104F10807EC60012229460B48006802
:1045000000F016F82946384600F06DF806E0002065
:1045100006490968C88705490968086303480168AE
:10452000204600F019F8BDE8F0810000F8000020F6
:1045300010B5C287016300230AE000244C600C60C0
:104540000C614C610C83CC61886020315C1CA3B28F
:104550009342F2DB10BD000030B560B1D0F804C06A
:10456000C1F8BCC000F1080422689368D3F820C0E9
:10457000C0F81CC013E091F83450022D02D0072D72
:1045800008D103E006A5C1F8BC5007E006A5C1F8B4
:10459000BC5003E007A5C1F8BC5000BF00BF30BD50
:1045A0005461736B205100005461736B2053656D2F
:1045B000000000002000000030B507A5C1F8BC5085
:1045C00000F1080422681AB193681D6AC56101E010
:1045D00001A5C56130BD0000200000000021016080
:1045E000416001817047F0B58E6896F837500789B1
:1045F0003FB90127078100274F600F6001604160CC
:1046000023E007897F1C0781026806E0946894F81C
:104610003770AF4200DD02E05268002AF6D100BFD9
:1046200032B900274F6043680B60596041600CE06D
:1046300017682FB9116000270F604A60016004E01D
:1046400013680B604A6059601160F0BD2DE9F041BC
:104650000446256BE68F0AE0D5F80C8008F10807C0
:104660002946384600F00AF82035701E86B2002E22
:10467000F2DC0020E0872063BDE8F08110B50489FA
:10468000012C03D100240460446011E00C6824B9BB
:104690004A680024146002600AE04C6824B90B6880
:1046A00000245C60436003E00B684A685A60136052
:1046B0000489641E048100244C600C6010BDF0B5B8
:1046C0002DED028B81B005460C4616461F469DED2A
:1046D000088A94F83600082857D2DFE800F004056D
:1046E000080906072E2F00BF00BF00BF4EE000BF25
:1046F00094F83400032808D18DED008A3B463246F9
:104700002146284600F047F804E0E665A4F860700A
:1047100084ED108A35B12046FFF798FF21462846E0
:10472000FFF74AFF204600F097FC002004F1340414
:10473000A070607004F8340928E000BF94F83400D9
:10474000032808D18DED008A3B4632462146284693
:1047500000F021F804E0E665A4F8607084ED108AAA
:10476000204600F073FF35B12046FFF76FFF21466A
:104770002846FFF721FF042004F13404A0704FF015
:104780000000607004F8340900E000BF00BF01B011
:10479000BDEC028BF0BD70B504469DED040A086BBC
:1047A000CD8F0BE0C668A64205D104614261038348
:1047B00080ED070A04E020306E1EB5B2002DF1DC5A
:1047C00000BF70BD70B50025074C03E005F1200067
:1047D000C5B2241D20680028F8D02068FBF7FFFC34
:1047E0002844C5B2284670BD5C000020002004E0CB
:1047F0000021034A42F82010401C0228F8D37047D9
:104800005C00002030B5420900F01F030121C3F114
:104810001F04A140034C54F822400C43014D45F8BD
:10482000224030BD5C00002030B5420900F01F037B
:104830000121C3F11F04A140034C54F822408C43D2
:10484000014D45F8224030BD5C0000200021034AA4
:104850001160034A1180018070470000A40000200D
:10486000A800002000210AE001EB4102054B03EB08
:10487000820000220281026042604A1CD1B24029BB
:10488000F2D370473C3C002010B5044694F8370042
:10489000FFF7B8FF94F8370005490978884203D13B
:1048A000204600F027F802E0204600F003F810BD93
:1048B0009E00002010B590F8373003EB43030C4CFA
:1048C00004EB83010B893BB901230B810023C360F7
:1048D00003610860486009E00B895B1C0B810B6871
:1048E000C360002303610A681061086010BD000006
:1048F0003C3C002010B590F8373003EB43030B4CE1
:1049000004EB83010B893BB901230B810023C360B6
:1049100003610860486008E00B895B1C0B81002381
:10492000C3604A680261D060486010BD3C3C002012
:104930002DE9F041054695F8370000EB400012499B
:1049400001EB80042F69EE6887B946B90020208109
:104950002060606095F83700FFF766FF0EE0208961
:10496000401E208100203061266007E02089401E23
:104970002081FE600EB9676000E037610020286189
:10498000E860BDE8F08100003C3C002009A1C16165
:10499000002141610849096811B90021816105E0E0
:1049A000054909688161044909684861024908604C
:1049B0007047000020000000AC0000200021034AE6
:1049C0001160034A1180018070470000AC00002094
:1049D000B00000202DE9F04F2DED028B83B004468E
:1049E000884691461D460020019000BF00BFFBF79E
:1049F000EBFB019000BF00BF04F1080738890028D5
:104A000051D10420012804D0022816D0042836D120
:104A100025E0206AFF280FD100BF00BF0198FBF7F7
:104A2000D7FB00BF00BF46F6C5502880002003B06A
:104A3000BDEC028BBDE8F08F22E0206AA0F57F413B
:104A4000FF390BD100BF00BF0198FBF7C1FB00BFCE
:104A500000BF46F6C55028800020E8E710E0206A35
:104A6000401C0BD100BF00BF0198FBF7B1FB00BF9A
:104A700000BF46F6C55028800020D8E700E000BF00
:104A800000BF206A401C2062D4F820A0C4F8249003
:104A900000BF00BF0198FBF79BFB00BF00BF0020D9
:104AA00028805046C3E718F4007F01D03E8900E01B
:104AB0000126D7F800B010E0DBF8080002909BED6B
:104AC000018A00231A46CDF8009020460299FFF78C
:104AD000F6FD18EE10BA701E86B2002EECD1D4F896
:104AE00020A000BF00BF0198FBF772FB00BF00BF12
:104AF00018F4004F01D1FEF74FFA002028805046ED
:104B000095E7000086B00020009000BF06E0A949AC
:104B10000968480001AA0021FFF788F9A648007833
:104B20000128F4D101A8FEF787FC0027A3480068FC
:104B3000A0490968884205D9A04800689D490968CC
:104B4000B0FBF1F727B99D4800680A21B0FBF1F7E7
:104B50002EE1FCF7D7FD804600BF00BFFBF734FB1A
:104B6000009000BF00BF9648016896480160002091
:104B70009349086000BF00BF0098FBF729FB00BF06
:104B800000BF914800688F490968884248D98E481B
:104B900000688E49884205D242F2107003900120CD
:104BA000029023E0884800688949884205D24FF482
:104BB0007A7003900A20029018E0834800688549C3
:104BC000884203D26420039002900FE07E48006880
:104BD0008149884205D20A2003904FF47A700290EE
:104BE00004E00120039042F21070029076480068C1
:104BF0000299B0FBF1FA7349039809684843B0FB86
:104C0000FAF042F21071081A74490880744800885A
:104C10000988884208DA714800887149088003E0F1
:104C200042F210706D490880FEF70EFD002500BFAE
:104C300000BFFBF7C9FA009000BF00BF69480468D5
:104C400000BF00BF0098FBF7C3FA00BF00BF26E01B
:104C500000BF00BFFBF7B8FA009000BF00BF54F8D8
:104C60009C0F6060002044F89C0900BF00BF0098C2
:104C7000FBF7AEFA00BF00BFD4F8A000054400BFA8
:104C800000BFFBF7A1FA009000BF00BFD4F8B84006
:104C900000BF00BF0098FBF79BFA00BF00BF002CCD
:104CA000D6D145B34948854205D242F210700590ED
:104CB0004FF0010B1BE04648854205D24FF47A7055
:104CC00005904FF00A0B12E04248854203D264205F
:104CD000059083460BE04048854204D20A200590A7
:104CE0004FF47A7B03E00120059042F2107BB5FB84
:104CF000FBF0049003E0002005900120049000BF29
:104D000000BFFBF761FA009000BF00BF35480468A0
:104D100000BF00BF0098FBF75BFA00BF00BF2BE0AD
:104D2000D4F8A000059948430499B0FBF1F086B28D
:104D300042F21070864200D90646A4F88C60B4F89E
:104D40008E00B04201DAA4F88E6001AB04F1AC022F
:104D5000111D2046FEF758FF00BF00BFFBF734FAD5
:104D6000009000BF00BFD4F8B84000BF00BF00985B
:104D7000FBF72EFA00BF00BF002CD1D11A480078F3
:104D8000012805D100201849087001A8FEF754FB3E
:104D9000FCF7B8FCA0EB080914480068484502D2AB
:104DA0001248C0F8009001AA00213846FFF73EF8EB
:104DB000CFE60000687F0008C4000020807F000864
:104DC000B8000020C0000020BC000020801A0600AF
:104DD00000093D00005A62020084D717B400002089
:104DE000B6000020D0000020B2000020C800002043
:104DF00010B58AB0044600201F4908601F490860AA
:104E00001F4908601F4908701F4908701F48006843
:104E100020B946F62B6020800AB010BD1C480068FF
:104E20001C490968884203D246F62C602080F3E7CB
:104E3000194800783F2803D346F62A602080EBE724
:104E4000032000210591CDE9070406910846104989
:104E50000968124A12680D4B1B68CDE90132CDE991
:104E600003100D48007800230D4A0EA1009012484F
:104E7000FEF7F4FB00BFCFE7B8000020C000002021
:104E8000BC000020C4000020B20000206C7F00089D
:104E9000747F00087C7F0008647F0008707F000832
:104EA000054B000875432F4F532D49494920537432
:104EB0006174205461736B003C3F002038B5044698
:104EC0000D4685B16B4602222946204600F0E0FAE5
:104ED000BDF8000018B9032084F8360006E002206F
:104EE00084F8360002E0022084F836002046FFF7FE
:104EF0001FFD38BD0021C0F8B4100949096819B96F
:104F00000021C0F8B81007E005490968C0F8B810DA
:104F100003490968C1F8B4000149086070470000FE
:104F2000D0000020D0F8B420D0F8B8104AB90D4B0A
:104F3000196011B10023C1F8B4300023C0F8B830B3
:104F40000FE029B90023C2F8B830C0F8B43008E047
:104F5000C2F8B810C1F8B4200023C0F8B830C0F8C7
:104F6000B4307047D00000200021044A1160044A88
:104F70001180044A1160018070470000D0000020B9
:104F8000D4000020CC00002070B504460020206032
:104F9000A0606060E06020616061A061E0612BA0C2
:104FA000206200206062A062E0622063E0872064EB
:104FB000E065A4F86000002104F16400FFF770FAD6
:104FC000002044F8740F6060E060A0822061A4F1CA
:104FD0007404054606E0002104F17C0040F8251029
:104FE000681CC5B2002DF6D0002004F13404206105
:104FF00020676067606084F85600E067A0672081E2
:105000004FF0004060614FF00000A061E06120625D
:105010006062A4F85800A4F85A00E0652066FCF726
:1050200071FB064666660020A06620706070A07066
:105030004020E0700020C4F88000C4F8840005A07F
:10504000C4F88800A4F1340470BD00003F546173BB
:105050006B0000002000000010B50446204600F060
:10506000F5FA94F8360010F0040F02D12046FFF74D
:105070000BFC10BD70B504460D46002600BF00BFF6
:10508000FBF7A2F8064600BF00BF0020288094F876
:10509000360008285ED2DFE800F004050607122774
:1050A000394B00BF00BF00BF00BF00BF3046FBF759
:1050B0008FF800BF00BF47F25310288055E014F866
:1050C0008A0F401E207014F88A0928B9002084F83D
:1050D00036002046FFF7C0FF00BF00BF3046FBF799
:1050E00077F800BF00BF40E014F88A0F401E207020
:1050F00014F88A0910B9012084F8360000BF00BFF7
:105100003046FBF765F800BF00BF2EE014F88A0FA9
:10511000401E207014F88A0910B9022084F8360065
:1051200000BF00BF3046FBF753F800BF00BF1CE0D4
:1051300014F88A0F401E207014F88A0910B9032051
:1051400084F8360000BF00BF3046FBF741F800BFCF
:1051500000BF0AE000BF00BF3046FBF739F800BFD0
:1051600000BF46F62D60288070BD00BFFDF714FF1C
:1051700000BFF9E708B504480068FEF72BFC694654
:105180000020FEF753FB08BDF80000202DE9F8438E
:105190000446884617461D464FF0000900BF00BF71
:1051A000FBF712F8814600BF00BF0CB967480468DE
:1051B00027640020288094F83600082875D2DFE89C
:1051C00000F0040550510607525300BF00BF00BF56
:1051D0000420012804D0022813D0042833D122E06F
:1051E000606CFF280CD100BF00BF4846FAF7F0FF03
:1051F00000BF00BF46F6C55028800020BDE8F883F8
:1052000022E0606CA0F57F41FF390BD100BF00BFE9
:105210004846FAF7DDFF00BF00BF46F6C5502880BC
:105220000020EBE710E0606C401C0BD100BF00BF1A
:105230004846FAF7CDFF00BF00BF46F6C5502880AC
:105240000020DBE700E000BF00BF606C401C606432
:10525000666C00BF00BF4846FAF7BAFF00BF00BF48
:1052600070E000BF00BF00BF94F83400072814D1DD
:1052700000231A46214618460097FFF720FA666C6D
:1052800000BF00BF4846FAF7A3FF00BF00BF18F4F5
:10529000004F4AD1FDF780FE47E00420012805D0E9
:1052A000022813D0042833D122E03FE0606CFF28AD
:1052B0000BD100BF00BF4846FAF78AFF00BF00BF0E
:1052C00046F6C5502880002098E722E0606CA0F5E3
:1052D0007F41FF390BD100BF00BF4846FAF778FF86
:1052E00000BF00BF46F6C5502880002086E710E0CA
:1052F000606C401C0BD100BF00BF4846FAF768FF46
:1053000000BF00BF46F6C5502880002076E700E0C9
:1053100000BF00BF606C401C6064666C00BF00BFD3
:105320004846FAF755FF00BF00BF0BE000BF00BFC3
:105330004846FAF74DFF00BF00BF46F62D602880B3
:10534000002600BF00BF304658E70000F8000020EC
:1053500070B504460D46002600BF00BFFAF734FFC3
:10536000064600BF00BF0CB93D4804683C480068D1
:1053700084420ED13B48007800280ADD00BF00BF00
:105380003046FAF725FF00BF00BF46F6635028807D
:1053900070BD0020288094F83600082850D2DFE83D
:1053A00000F0041523313F404142042084F83600C8
:1053B000012084F88A002046FFF7BAFA00BF00BF38
:1053C0003046FAF705FF00BF00BF44E0052084F82F
:1053D0003600012084F88A0000BF00BF3046FAF78B
:1053E000F7FE00BF00BF36E0062084F8360001203B
:1053F00084F88A0000BF00BF3046FAF7E9FE00BF1C
:1054000000BF28E0072084F83600012084F88A00D5
:1054100000BF00BF3046FAF7DBFE00BF00BF1AE056
:1054200000BF00BF00BF94F88A00401C84F88A00C7
:1054300000BF00BF3046FAF7CBFE00BF00BF0AE056
:1054400000BF00BF3046FAF7C3FE00BF00BF46F6FC
:105450002D6028809CE700BFFDF79EFD00BF97E709
:10546000F8000020AA000020002108E0064A02EB14
:10547000C100002202608280C2804A1C91B2034AAD
:1054800012889142F2DB704768380020987F00084C
:105490002DE9F04F0C4616461D46042E1ED1DFF8AE
:1054A000A091D9F80090A4EB0909A9F1010313F523
:1054B000803F0DD94FF00009C0F84C90C0F85090D3
:1054C000C0F81C9047F27E29A5F80090BDE8F08F47
:1054D000C46403F10109C0F850903FE084B3082E82
:1054E00025D1D0F8489009EB0407DFF85491D9F89A
:1054F0000090A7EB0909A9F10103A34201D2C764F7
:1055000006E0DFF83C91D9F80090A144C0F84C9037
:10551000DFF82CA1D0F84C90DAF800A0A9EB0A092A
:10552000C0F85090D0F84C90C0F8489016E0DFF8E2
:105530001091D9F80090A144C0F84C9004650DE09A
:10554000FFE74FF00009C0F84C90C0F85090C0F849
:105550001C9047F27E29A5F80090B7E7DFF8E4A099
:10556000BAF800A0D0F84C90B9FBFAFB0AFB1B99E3
:105570001FFA89F8DFF8D09009EBC802B2F804905E
:10558000B9F1000F0BD14FF00009C0F81490C0F82A
:10559000189010604FF00109A2F804903EE01168E5
:1055A00034E0DFF89CA0D1F84C90DAF800A0A9EB29
:1055B0000A09C1F85090D0F85090D1F850A0D145C8
:1055C0000ED9D1F81490B9F1000F01D049691DE04E
:1055D0004FF00009C0F8149081614861002115E086
:1055E000D1F81890B9F1000F07D14FF00009C0F8B9
:1055F000189041618861106007E0D1F818C0C0F8C8
:1056000018C04161CCF81400886100210029C8D17C
:10561000B2F8049009F10109A2F80490B2F80690DA
:10562000B2F804A0D14503DAB2F80490A2F80690CB
:10563000C2614FF00009A5F8009000BF46E70000E6
:10564000D8000020987F00086838002010B5C26993
:10565000BAB1002404651468844205D1416911601F
:1056600039B100248C6104E0816943694B6103B165
:105670009961002444618461C461C4649488641E97
:10568000948010BD002006E0054A02EBC001002214
:10569000CA80421C90B2034A12889042F4DB7047E1
:1056A00068380020987F00082DE9F0472DED028B27
:1056B0004FF0000A00BF00BFFAF786FD824600BF28
:1056C00000BFFCF71FF805465E480068401C5D49B6
:1056D0000860084600685C490988B0FBF1F201FBEC
:1056E00012001FFA80F8594800EBC8073C684FF0D9
:1056F00000098FE0002C7CD094ED058A94F83600E8
:10570000082877D2DFE800F00408051C0642075697
:1057100000BF00BF00BF77E04A49E06C0968401A4B
:1057200020654849E06C0968884206D1002084F869
:1057300036002046FFF790FC01E04FF0010963E0DE
:105740004049E06C0968401A20653E49E06C0968F0
:10575000884218D10020E065A4F86000FBF7D2FF72
:1057600020642046FEF772FF2046FFF775FC0020FC
:1057700004F13404A0704FF0030060704FF000009B
:1057800004F8340901E04FF001093DE02D49E06CD7
:105790000968401A20652B49E06C0968884206D1E7
:1057A000042084F836002046FFF750FF01E04FF058
:1057B000010929E02349E06C0968401A2065214964
:1057C000E06C096888421BD10020E065A4F8600005
:1057D000FBF798FF20642046FEF738FF2046FFF7CE
:1057E00035FF042004F13404A0704FF00300607012
:1057F00001E00DE007E04FF0000004F8340901E09B
:105800004FF0010900E000BF00BF18EE104A01E0B0
:105810004FF00109B9F1000F3FF46CAFFBF772FFD5
:10582000461B0B480068B04201D20948066000BF21
:1058300000BF5046FAF7CCFC00BF00BFBDEC028BA6
:10584000BDE8F087D8000020987F00086838002065
:10585000DC0000201CB500BF0EE001AB6A46002151
:105860000846FEF7C3F8BDF8040028B903480078DD
:10587000012801D1FFF718FFEFE7000085000020A5
:1058800010B58AB0044600201D4908601D49086013
:10589000FFF7EAFD1C48006820B947F2122020807B
:1058A0000AB010BD1948006819490968884203D236
:1058B00047F213202080F3E7164800783F2803D3EF
:1058C00047F211202080EBE70B20002105910A46CA
:1058D000CDE9070406910D4800680F4909680A4B95
:1058E0001B68CDE90131CDE903020A4800780023A5
:1058F0000A4A0BA100900F48FDF7B0FE00BFCFE7AA
:10590000D8000020DC000020887F0008907F00087D
:105910007C7F0008847F00088C7F000855580008B1
:1059200075432F4F532D494949205469636B2054C7
:1059300061736B00FC3F002070B58AB00446002004
:10594000314908603148006840B1314800682F494A
:105950000968B0FBF1F02F49086006E02C480068A8
:105960000A21B0FBF1F02B4908602A4800682A4957
:10597000086000202949086029490860002508E0DE
:10598000284800EBC5060020B080F0803060681C1D
:1059900085B2254800888542F2DB2448006820B99A
:1059A00047F2473020800AB070BD21480068214985
:1059B0000968884203D247F248302080F3E71E4846
:1059C00000783F2803D347F246302080EBE70B20D6
:1059D00000210591CDE9070406910846144909689C
:1059E000164A1268114B1B68CDE90132CDE903104C
:1059F000114800780023124A12A100901748FDF7C1
:105A00002DFE00BFCFE70000E0000020A47F0008CB
:105A1000807F0008F0000020F4000020EC0000204F
:105A2000E8000020E83A0020B87F0008A87F0008BE
:105A3000B07F00087C7F0008A07F0008AC7F0008D2
:105A4000555B000875432F4F532D49494920546930
:105A50006D6572205461736B00000000BC40002033
:105A6000F0B50C46022680F82A60012C05D12D4F96
:105A7000466A3F683E4486610CE0066A2EB9294FAB
:105A8000466A3F683E44866104E0264F066A3F68E6
:105A90003E448661244F3F888669B6FBF7FC07FBCE
:105AA0001C66B5B2214E06EBC502166836B9002653
:105AB000066146611060012696802CE0194F8669C8
:105AC0003F68F61BC661116820E0164F8E693F687B
:105AD000F61BCE61C669CF69BE4209D90E690EB107
