:020000040800F2
:10000000187D00209D010008E92300081D14000848
:1000100091230008C50E0008F54B00080000000001
:10002000000000000000000000000000E1450008A2
:100030009110000800000000B30A0008B132000867
:10004000B7010008B7010008B7010008B7010008B0
:10005000B7010008B7010008B7010008B7010008A0
:10006000B7010008B7010008B7010008B701000890
:10007000B7010008B7010008B7010008B701000880
:10008000B7010008B7010008B7010008B701000870
:10009000B7010008B7010008B7010008B701000860
:1000A000B7010008B7010008B7010008B701000850
:1000B000B7010008B7010008B7010008B701000840
:1000C000B7010008B7010008B7010008B701000830
:1000D000B7010008A9490008B7010008B7010008E6
:1000E000B7010008B7010008B7010008B701000810
:1000F000B7010008B7010008B7010008B701000800
:10010000B7010008B7010008B7010008B7010008EF
:10011000B7010008B7010008B7010008B7010008DF
:10012000B7010008C50F0008B7010008B7010008B3
:10013000B7010008B7010008B7010008B7010008BF
:10014000B7010008B7010008B7010008B7010008AF
:10015000B7010008B7010008B7010008B70100089F
:10016000B7010008B7010008B7010008B70100088F
:10017000B7010008B7010008B7010008B70100087F
:10018000B7010008B7010008DFF80CD000F064FCEC
:1001900000480047A9620008187D002006488047F3
:1001A00006480047FEE7FEE7FEE7FEE7FEE7FEE75C
:1001B000FEE7FEE7FEE7FEE781460008890100084A
:1001C00072B6704762B67047EFF3108072B6704730
:1001D00080F31088704730BF704720BF7047B0FA77
:1001E00080F0704790FAA0F0B0FA80F0704790FA73
:1001F000A0F07047002800D17047002900D1704757
:10020000002A00D170472DE9F81F00F0030301F028
:100210000304A34211D1C3F1040303F00303012B30
:100220001DD3012A00D2F2E011F8014B00F8014B76
:10023000A3F10103A2F10102F1E700F0010301F0D3
:100240000104A34200D094E0012B44D311F8014BE8
:1002500000F8014BA3F10103A2F10102F4E7B2F5AA
:10026000B47F26D3B1E8F81FA0E8F81FB1E8F81F63
:10027000A0E8F81FB1E8F81FA0E8F81FB1E8F81FE0
:10028000A0E8F81FB1E8F81FA0E8F81FB1E8F81FD0
:10029000A0E8F81FB1E8F81FA0E8F81FB1E8F81FC0
:1002A000A0E8F81FB1E8F81FA0E8F81FA2F5B472A3
:1002B000D5E7282A06D3B1E8F81FA0E8F81FA2F175
:1002C0002802F6E7042A06D351F8043B40F8043B21
:1002D000A2F10402F6E7202A42D331F8023B20F8CB
:1002E000023B31F8023B20F8023B31F8023B20F898
:1002F000023B31F8023B20F8023B31F8023B20F888
:10030000023B31F8023B20F8023B31F8023B20F877
:10031000023B31F8023B20F8023B31F8023B20F867
:10032000023B31F8023B20F8023B31F8023B20F857
:10033000023B31F8023B20F8023B31F8023B20F847
:10034000023B31F8023B20F8023B31F8023B20F837
:10035000023B31F8023B20F8023BA2F12002BAE74F
:10036000022A06D331F8023B20F8023BA2F1020236
:10037000F6E7102A42D311F8013B00F8013B11F8CF
:10038000013B00F8013B11F8013B00F8013B11F87B
:10039000013B00F8013B11F8013B00F8013B11F86B
:1003A000013B00F8013B11F8013B00F8013B11F85B
:1003B000013B00F8013B11F8013B00F8013B11F84B
:1003C000013B00F8013B11F8013B00F8013B11F83B
:1003D000013B00F8013B11F8013B00F8013B11F82B
:1003E000013B00F8013B11F8013B00F8013B11F81B
:1003F000013B00F8013BA2F11002BAE7012A06D343
:1004000011F8013B00F8013BA2F10102F6E7BDE85B
:10041000F81F70472DE9F05F0546002092469B4685
:1004200088460646814640241BE02846414647460A
:10043000224600F009FA52465B46801A994110D3D1
:1004400010461946224600F0F0F92D1A67EB010814
:100450004F4622460120002100F0E7F917EB000982
:100460004E41201EA4F10104DFDC484631462A46F5
:100470004346BDE8F09F40EA01039B0703D009E033
:1004800008C9121F08C0042AFAD203E011F8013B80
:1004900000F8013B521EF9D270472DE9FE4F074686
:1004A00081EA0300C00F0E46019021F0004123F0C5
:1004B0000044B81AA14105D23846314617461E46B7
:1004C0000B46024623F00040104304D13846314623
:1004D00003B0BDE8F08F350DC5F30A00C3F30A5130
:1004E0000290401A0090402868DAC3F3130040F4E9
:1004F000801B0198924620B10023D2EB030A63EBE4
:100500000B0B00985946C0F14002504600F08DF99F
:1005100080460C4650465946009A00F0A5F9C0198D
:100520007141EF1785EA11533B4340D0019A52B312
:10053000009A012A11DC0022801A4FF0004361EB7F
:10054000055103EA05538018CDE9002341F58011D8
:100550004246234600F0DDF9BAE72E050025401B90
:1005600061EB0601401941F580120018524128182C
:10057000A6F5001343EB020140EAD470294318EBBF
:100580000808644113E064084FEA38084FF000029D
:1005900044EAC0744FEA0553801A61EB03018018E6
:1005A00041F5801149084FEA300080185941424610
:1005B000234603B0BDE8F04F00F09EB90198012238
:1005C00040000023D0EB020263EBE07301984FEA96
:1005D000E074381A66EB0401EBE783F000435CE754
:1005E00081F0004159E72DE9FE4F81EA030421F033
:1005F000004504F0004423F000414FF0000A00944D
:1006000050EA050302D052EA010304D1002001465A
:1006100003B0BDE8F08FC1F30A53C5F30A541C447C
:10062000A0FB02B3C5F3130545F4801CC1F313010D
:1006300041F480180CFB023300FB083EA4F2F334B3
:10064000810A930A41EA8C5143EA88530194A1FB41
:1006500003474FEA9C2505FB03734FEA982601FBED
:1006600006373D05260545EA1435BBEB06016EEB62
:100670000503850E920E45EA8C1542EA8812A5FB09
:100680000206261E67EB00070C0D44EA0334A4198A
:1006900047EB1350C1F313064FF0000319464FEA1E
:1006A000033343EA165343EA0403019CE5FB0201CA
:1006B000A4F10C040294009C4FEA0632CDE900A498
:1006C00000F027F9A4E72DE9F04D81EA030404F0D6
:1006D000004B21F0004714464FF0000A23F0004180
:1006E00050EA070220D054EA01021DD0C1F30A5596
:1006F0000246C1F31300C7F30A56C7F3130340F4CD
:10070000801143F48013A6EB0508101BD64608F2AF
:10071000FD3873EB010002D308F1010801E09218E3
:100720005B41B8F1000F03DA00200146BDE8F08D0F
:1007300000204FF48015064607460EE0B2EB040C8D
:1007400073EB010C04D3121B064363EB01032F432D
:100750006D084FEA300092185B4150EA050CEDD16C
:1007600052EA030012D082EA040083EA010528431A
:1007700003D100224FF0004308E0101B8B4102D24E
:100780000122002302E06FF0010253101AEB060071
:1007900047EB085110EB0A0041EB0B01BDE8F04DAF
:1007A00000F0AAB80EB5C10F80EAE0700844CA078D
:1007B000002140F233438DE80E000A460B4600F05C
:1007C000A8F803B000BD00F0004230F000400DD0AA
:1007D000C10D01F5607142EA01510022C0F316001B
:1007E000520742EAD00240071143704700200146F9
:1007F000704701F0004230B421F0004150EA01039B
:1008000006D00B0DA3F56073C1F31301002B02DCBE
:1008100030BC00207047440F44EAC104C100A01856
:1008200030BC00EBC35000F031B8202A04DB203A82
:1008300000FA02F1002070479140C2F1200320FA33
:1008400003F3194390407047202A04DB203A21FA31
:1008500002F00021704721FA02F3D040C2F12002D9
:100860009140084319467047202A06DBCB17203AEF
:1008700041FA02F043EAE071704741FA02F3D040D6
:10088000C2F1200291400843194670470029A8BFD1
:100890007047401C490008BF20F00100704710B4A9
:1008A000B0FA80FC00FA0CF050EA010404BF10BC5E
:1008B000704749B1CCF1200421FA04F411FA0CF18B
:1008C00018BF012121430843A3EB0C01CB1D0106F6
:1008D000000A002BBEBF002010BC704700EBC350C5
:1008E00010440029A4BF10BC7047401C490008BF39
:1008F00020F0010010BC704710B5002B08DA401C36
:1009000041F1000192185B411A4301D120F001002E
:1009100010BD2DE9F04D92469B4611B1B1FA81F21E
:1009200002E0B0FA80F220329046FFF77EFF0646E2
:100930000F4640EA0A0041EA0B0152465B46084373
:1009400003D130463946BDE8F08D194652EA010020
:1009500015D0C8F140025046FFF776FF04460D4619
:10096000504659464246FFF760FF084301D0012038
:1009700000E00020044345EAE07526432F430A982F
:100980004FEAD625A0EB08000A304FEA46534FF055
:10099000000245EA47554FEAD72402D50020014618
:1009A000D1E7010550196141DDE9084500196941A8
:1009B000BDE8F04DA0E72DE9F04D00231A461B1AC3
:1009C0008A4103DB00200146BDE8F08DC1F30A52E5
:1009D000C1F3130141F480154FF0000BD10702D190
:1009E00000186D41521E0026044640F2FF113046A9
:1009F00001EB620A37468046024600204FF4801120
:100A0000FFF722FF80197941331847EB0102B4EB5D
:100A1000030C75EB020C04D3E41A65EB02050646E1
:100A20000F46241908F101006D4180463428E3DDAA
:100A3000B11947EB0700091BA84103D24FF0FF3261
:100A4000134601E0002213461BEB060047EB0A5158
:100A5000BDE8F04DFFF750BF064C074D06E0E068DB
:100A600040F0010394E8070098471034AC42F6D3F5
:100A7000FFF78EFBD8640008F864000821484FF0A7
:100A8000FF010170002080F309881F48016881F38D
:100A900008881E484FF08051016062B6FEE71B488F
:100AA0004FF080510160704718484FF0805101604D
:100AB000704772B6EFF3098050B11EF0100F08BFF7
:100AC00020ED108A734620E9F80F11490968086083
:100AD00000B5104880475DF804EB0F480F490A78CD
:100AE00002700B480E490A6802601068B0E8F80FFF
:100AF0009E461EF0100F08BFB0EC108A80F30988E4
:100B000062B6704722ED00E0D400002004ED00E062
:100B1000CC000020712E000872000020730000201D
:100B2000D00000201FB5104D002401222C7021465A
:100B30000E4801F033FC6C70AC70281D0C4901228A
:100B4000CDE90240CDE9002108481423002209A183
:100B5000C83002F0B5FA287808B905F023F80A2061
:100B600000F086F9F7E7000014000020842200203E
:100B7000690F0008434F4D204F7665722054696D10
:100B8000657200003249082201F10800FFF732FBCC
:100B90002F4904220839081DFFF72CFB2C4DDFF8E4
:100BA000B0800C3D4FF0640A2888688005F1140677
:100BB00005F1040905F1080B69882888814218D0DD
:100BC000642801D9A5F800A00024574636F814007F
:100BD0002988484390FBF7F0642800D96420C1B20B
:100BE000601C05F0E1F9641CE4B2042CEED3288803
:100BF000688000244FEA0B0736F8142038F81410E8
:100C000040468A4214D0642902D9514620F814A0E3
:100C100088B26988484390FBFAF0642800D96420C0
:100C2000C1B2601C05F0C0F938F8140026F81400B1
:100C300019F80420395D8A4201D009F80410641CB7
:100C4000E4B2042CD8D3052000F012F9B4E7000078
:100C5000E40000200EB5D02005F052FA284C4FF0E9
:100C6000D001F8B127A004F033F8207820F001007B
:100C7000207005F069F83C2005F042FA274D4FF04E
:100C80003C01B0B126A004F023F8287820F0010040
:100C9000287004F0C5FF00F0F3FC002602AF3346D5
:100CA0000A221FE024A004F013F8207840F001008D
:100CB000DEE727A004F00CF8287840F00100E7E711
:100CC000252003F099FF2078C00602D5452003F0C7
:100CD00093FF287821780840C00701D000F0DAF9A6
:100CE0000323002200210846CDE9006702F026F91F
:100CF00000F0C6FE00F008FB2878C006E3D5DFE769
:100D0000010000204D50552D36303530204572728F
:100D10002028307825303258290D0A0002000020A2
:100D2000484D43353838334C20457272202830788E
:100D300025303258290D0A004D50552D36303530AA
:100D4000204F6B2028307825303258290D0A0000BA
:100D5000484D43353838334C204F6B2028307825A8
:100D6000303258290D0A00002DE9F0438BB00024E1
:100D70004FF0190906A809AE0325CDF8089005948F
:100D800070C01B4A0127CDE900524FF48078184803
:100D9000CDE903872346174A17A1C03801F0C8FDE3
:100DA000194A042005948DE805020DF1180C164827
:100DB000ACE87000CDE903870023144A14A1C038C1
:100DC00001F0B6FD164A052005948DE805020DF1E7
:100DD00018091348A9E87000CDE903870023114AD8
:100DE00011A1C03801F0A4FD0BB0BDE8F0830000F4
:100DF00068170020550C0008417070205461736B17
:100E00002053616D706C6500281C0020850B000864
:100E1000417070205461736B204F7574707574004D
:100E2000E8010020250B0008417070205461736BAD
:100E300020436F6D6D00000008B504F0DFFE00F088
:100E400053F800F031F8684601F01CFDFFF78CFF05
:100E50004FF4FA74012005F039F8204600F008F844
:100E6000F8E71FB5684603F06DFB019804B010BDAC
:100E70000EB542F210724FF47A71904201D91046C9
:100E800001E0884205D3B0FBF1F293B201FB1202FC
:100E900001E083B2002202A90020CDE90001014651
:100EA00002F04CF80EBD000010B5FFF7DAFF044960
:100EB0000968BDE81040B0FBF1F002F00BBA000089
:100EC000B4630008FEE7000010B50021054800F0FB
:100ED000A9F8002000F068F8BDE81040002000F0FC
:100EE00055B8000028640240044910B5002008608D
:100EF00000F01CF8BDE8104000F002B82C00002003
:100F000010B5FFF761F904461021044801F041FAD9
:100F10002046BDE81040FFF75BB9000080230020A9
:100F200001490860704700002C00002010B5FFF751
:100F300098FF08490A6842F080720A600649002258
:100F40004A600A6842F001020A60BDE81040FFF7FB
:100F5000E7BF0000FCED00E0001000E00148406841
:100F600070470000001000E006484178002908D0D2
:100F7000002141708170031DAFF21302024802F09C
:100F800037B97047140000204C2300200549002881
:100F9000086802D040F0010001E020F00100086084
:100FA000704700000000055005490028086802D07D
:100FB00040F4804001E020F4804008607047000069
:100FC0000000055070B5094C094D2146284600F037
:100FD00033F8002808D02146284600F00DF8FFF726
:100FE00073FF04490120087070BD000000880010E4
:100FF0002864024000000020074A904201D20748BE
:1010000001E005481038064A8B0001EA020101D5CB
:10101000C160704781607047106402400060024008
:101020007D0F7D0F0029016802D041F0010101E030
:1010300021F001010160704710B5114A002490426F
:1010400001D2104A01E00E4A103A0F4B194206D065
:101050001E2303EAD12C036803EA0C0302E0406973
:1010600000F08003880001D5506800E01068074A4E
:101070001040084201D003B10124204610BD0000F9
:1010800010640240006002403C0F3C0F7D0F7D0F5A
:101090007047000010B500F015FB00F05BF8044845
:1010A00000F034FA03480188491C018010BD00009B
:1010B000E43C0020F4000020F0B5002201234FF0B2
:1010C000030C00BF0D6803FA02F42540A5422DD1A0
:1010D000066854000CFA04F5AE4306600E79076802
:1010E000A6403E4306600E79012E01D0022E12D199
:1010F0008668AE4386604D798668A5403543856035
:10110000456803FA02F6B543456045688E79964016
:10111000B6B235434560C56856000CFA06F7BD43C4
:10112000C560CD79A540C4682543C560521C102A0E
:10113000C8D3F0BD4B07DB0E9A40C90810B500EBD1
:101140008100016A0F249C40A1430162016A11439E
:10115000016210BDF0B51C222DED068B87B0002179
:10116000684601F01BF956491C220C46A1F11C00EF
:10117000FFF781F952491C221C310D462046FFF72A
:101180007AF94F491C2238310E462846FFF773F989
:101190004B491C2254310C463046FFF76CF9484944
:1011A0001C2238392046FFF766F94548444C1C3864
:1011B00084340188828BB0F854301144028F1A4471
:1011C0001144B0F8702011440DB2ADF800504188C0
:1011D000C28BB0F856301144428F1A441144B0F813
:1011E000722011440EB2ADF802608188028CB0F812
:1011F00058301144828FB0F874001A4411440844E6
:1012000007B2ADF804706068FFF7DDFA41EC180B27
:101210002068FFF7D8FA41EC190B2846FFF7C2FA0D
:101220009FED28AB53EC1A2BFFF74DFA53EC192B1B
:10123000FFF7D9F953EC182BFFF72FF9FFF7D9FA7D
:10124000A4F114052860E068FFF7BDFA41EC180B23
:10125000A068FFF7B8FA41EC190B3046FFF7A2FA85
:1012600053EC1A2BFFF72FFA53EC192BFFF7BBF9AE
:1012700053EC182BFFF711F9FFF7BBFA68606069B0
:10128000FFF7A1FA41EC190B2069FFF79CFA41EC3A
:10129000180B3846FFF786FA53EC1A2BFFF713FAB0
:1012A00053EC182BFFF79FF953EC192BFFF7F5F8C8
:1012B000FFF79FFAA86007B0BDEC068BF0BD0000F9
:1012C000E4200020000000000000144010B5044697
:1012D00004F096FF3C2004F069FF04F0B3FF2046C1
:1012E00004F064FF04F0AEFF04F08AFF3D2004F038
:1012F0005DFF04F0A7FF04F035FF044604F020FF73
:1013000004F092FF204610BD7CB504F079FF3C202C
:1013100004F04CFF04F096FF032004F047FF04F0B4
:1013200091FF04F06DFF3D2004F040FF04F08AFFC0
:1013300000246D4604F016FF285504F0CDFE641C11
:10134000E4B2062CF6D304F00DFF8DF8060004F08D
:10135000F7FE04F069FF9DF801009DF8001000EB16
:10136000012001B2204801F2FF7501809DF80320A1
:101370009DF8023002EB032212B282809DF8053004
:101380009DF8044003EB04231BB243809DF8064004
:10139000847440F6FF74A54209D2B0F90C50A942FA
:1013A00000DD8181B0F90650A94200DAC18003F264
:1013B000FF71A14209D2B0F90E108B4200DDC3814A
:1013C000B0F908108B4200DA038102F2FF71A142EA
:1013D00009D2B0F910108A4200DD0282B0F90A1079
:1013E0008A4200DA42817CBDAC20002070B50546FF
:1013F0000C4604F005FF3C2004F0D8FE04F022FF68
:10140000284604F0D3FE04F01DFF204604F0CEFE73
:1014100004F018FFBDE8704004F006BF114906A2B1
:101420000020135C8B800B885B06FCD5401CC0B28F
:101430002A28F6D3FEE700000D0A456E7465722077
:10144000486172644661756C745F48616E646C6576
:10145000722C2053797374656D2048616C742E0D65
:101460000A0000000010014010B50446104800F0CA
:1014700023F80F4800F10C01D0EC031A183091EC5E
:10148000030A90EC033A00F057FB0A4890ED010A7A
:1014900084ED000A90ED020A84ED010A90ED030A42
:1014A00084ED020A90ED040A84ED030A10BD0000E9
:1014B000F03C0020F800002011499FED120A0A6854
:1014C00002608A6842600A698260D1ED060A60EEB5
:1014D000800AC0ED030AD1ED080A60EE800AC0ED73
:1014E000040AD1ED0A0A084920EE800A80ED050AB7
:1014F0000A6882614A68C2618968016270470000B7
:101500007C20002000007A3D5421002010B50446C4
:101510002DED0A8B84B06846FFF7A6FF9DED02AA69
:10152000F8EE00AADDED039A2AEE2A0AB0EE009A40
:10153000B7EE00CA69EE890A20EE0A0A00EEE90A4F
:1015400030EE0C0A10EE100AFFF73DF99DED010A8E
:10155000DDED000A41EC180B20EE090A60EE890A65
:1015600020EE0A0A00EEA90A10EE100AFFF72BF986
:1015700041EC100BB0EE481AF0EE681A03F0FCFED6
:101580009FED39BB51EC100B53EC1B2BFFF72BF8E5
:101590009FED378B53EC182BFFF795F8FFF729F9E0
:1015A00020609DED010ADDED030A9DED021A20EE9B
:1015B0002A0A20EE200ADDED000A60EE890A00EE1C
:1015C000810A10EE100AFFF7FEF841EC100B03F051
:1015D000A7FB53EC1B2B51EC100BFFF704F853EC5B
:1015E000182BFFF770F8FFF704F96060DDED019A42
:1015F00029EEAA0A60EE290A9DED020A20EE09AA48
:101600004AEE400A30EE8C0A10EE100AFFF7DBF8C3
:101610009DED030ADDED000A41EC180B2AEE000AED
:1016200060EE890A00EEA90A10EE100AFFF7CBF867
:1016300041EC100BB0EE481AF0EE681A03F09CFE75
:1016400053EC1B2B51EC100BFEF7CDFF9FED0A1B4B
:1016500053EC112BFFF737F8FFF7CBF8A06004B07D
:10166000BDEC0A8B10BD0000000000000080664049
:1016700000000060FB2109C000000060FB21094060
:1016800038B50E4CB7EE000A684684ED010A9FEDAE
:101690000C0A84ED020A84ED030A84ED040A84ED49
:1016A000050A84ED060A84ED070A01F0D5FC2062E4
:1016B000684601F0D1FC606238BD0000F8000020EF
:1016C0000000000070B5DE490E220C46A1F10E00AC
:1016D000FEF7D1FEDA490E220E310D462046FEF706
:1016E000CAFED7490E221C310C462846FEF7C3FE1F
:1016F000D3490E222A310D462046FEF7BCFED048C3
:101700001C3800F10E04B0F90010B4F9382011446F
:1017100001EBD17149100180B0F90210B4F93A20FF
:10172000114401EBD17149104180B0F90410B4F9B2
:101730003C20114401EBD17149108180B0F90810AF
:10174000B4F94020114401EBD17149100181B0F985
:101750000A10B4F94220114401EBD17149104181C2
:10176000B0F90C10B4F94420114401EBD1714910C7
:10177000818101460E222846FEF77DFEB4F9000065
:10178000B4F90E1000EE100A04F14600F8EEC00A9B
:1017900090ED010A30EEC01A00EE901AB4F91C1058
:1017A000F8EEE00A71EE200A30EEC01A00EE901A50
:1017B000B4F92A10F8EEE00A71EE200A30EEC01AF1
:1017C00000EE901AB4F93810F8EEE00A71EE200A33
:1017D00030EEC01A00EE901AB4F90210F8EEE00AEA
:1017E00071EE200A30EEC00AFDEEC00A00EE101ABB
:1017F000B4F91010B8EEC01A90ED030A71EE401A59
:1018000001EE101AB4F91E10B8EEC11A31EE811AA9
:1018100071EE401A01EE101AB4F92C10B8EEC11A8C
:1018200031EE811A71EE401A01EE101AB4F93A1035
:10183000B8EEC11A31EE811A71EE401A01EE101A9B
:10184000B4F90410B8EEC11A31EE811A31EE400A33
:10185000BDEEC01A00EE101AB4F91210F8EEC01A5C
:1018600090ED050A31EEC02A01EE901AB4F920106D
:10187000F8EEE11A72EE211A31EEC02A01EE901A4A
:10188000B4F92E10F8EEE11A72EE211A31EEC02AE8
:1018900001EE901AB4F93C10F8EEE11A72EE211A3A
:1018A00031EEC02A01EE901AB4F90810F8EEE11AF0
:1018B00072EE211A31EEC00AFDEEC01A00EE101AC7
:1018C000B4F91610B8EEC02A90ED070A72EE402A5D
:1018D00002EE101AB4F92410B8EEC22A32EE822AAF
:1018E00072EE402A02EE101AB4F93210B8EEC22A93
:1018F00032EE822A72EE402A02EE101AB4F940103B
:10190000B8EEC22A32EE822A72EE402A02EE101A95
:10191000B4F90A10B8EEC22A32EE822A32EE400A38
:10192000BDEEC02A00EE101AB4F91810F8EEC02A65
:1019300090ED090A32EEC03A02EE901AB4F9261080
:10194000F8EEE22A73EE222A32EEC03A02EE901A44
:10195000B4F93410F8EEE22A73EE222A32EEC03ADD
:1019600002EE901AB4F94210F8EEE22A73EE222A3F
:1019700032EEC03A02EE901AB4F90C10F8EEE22AF8
:1019800073EE222A32EEC00AFDEEC02A00EE101AD3
:10199000B4F91A10B8EEC03A90ED0B0A73EE403A63
:1019A00003EE101AB4F92810B8EEC33A33EE833AB6
:1019B00073EE403A03EE101AB4F93610B8EEC33A9B
:1019C00033EE833A73EE403A03EE101AB8EEC33AA0
:1019D00033EE833AB4F94410F8EEE00A73EE403A7D
:1019E00003EE101AB8EEC33A33EE833A33EE400AF0
:1019F000BDEEC03AB1EE040AC0EE803AF8EEC10A7C
:101A000080EE801AF8EEE10AC0ED003A80ED021A8D
:101A100080EE801AF8EEC20A80ED041A80EE801A79
:101A2000F8EEE20A80ED061A80EE801AF8EEC30A9C
:101A300080ED081A80EE801A80ED0A1A70BD000051
:101A40004420002010B5044604F0DAFBD02004F056
:101A5000ADFB04F0F7FB204604F0A8FB04F0F2FB1A
:101A600004F0CEFBD12004F0A1FB04F0EBFB04F06A
:101A700079FB044604F064FB04F0D6FB204610BD5D
:101A80007FB500244FEA0D0504F13B00C0B2FFF71B
:101A9000D9FF2855641CE4B20E2CF5D39DF8010043
:101AA0009DF8001000EB0121164801809DF80310FD
:101AB0009DF8022001EB022141809DF805109DF860
:101AC000042001EB022181809DF807109DF806207B
:101AD00001EB0221C1809DF809109DF8082001EB5F
:101AE000022101819DF80B109DF80A2001EB0221D3
:101AF00041819DF80D109DF80C2001EB02218181A0
:101B00007FBD00002820002070B505460C4604F07B
:101B100077FBD02004F04AFB04F094FB284604F045
:101B200045FB04F08FFB204604F040FB04F08AFBE9
:101B3000BDE8704004F078BB10B5B5EEC03A2DEDAD
:101B40000A0BF1EE10FA2DED108B9CB011D1F5EED1
:101B5000C03AF1EE10FA0CD1B5EEC04AF1EE10FA2F
:101B600007D11CB0BDEC108B0AB0BDE8104000F0EE
:101B7000BDBAFE4CF5EEC01AD4ED024AD4ED035ABC
:101B800020EE645AD4ED034A04EEE05AD4ED044A40
:101B900004EEC15AF6EE004A25EE24DA94ED015A1D
:101BA00025EE005A05EE815AD4ED045A05EEE05AAE
:101BB000D4ED025A65EE24DA94ED015A25EE205A4E
:101BC00005EEC15AD4ED045A05EE805A25EE24FAEA
:101BD00094ED015A25EE011A94ED025A05EE201AF1
:101BE000D4ED030A00EEC01A21EE24EAF1EE10FA59
:101BF00009D1B5EEC02AF1EE10FA04D1F5EEC02AF3
:101C0000F1EE10FA7ED021EEA10A02EE020A02EEF7
:101C1000A20A04F033FB21EE805A62EE001A22EE93
:101C2000806A23EE030A8DED2F5ACDED301A8DED2B
:101C3000316A03EEA30A04EE040A04F01FFB23EE4C
:101C4000009A23EE808A64EE008A94ED010AF0EE99
:101C500000EA20EE2E0A20EE091A8DED081A94ED06
:101C6000010A20EE2E0A20EE081A8DED0B1AD4ED93
:101C7000020A94ED010A60EEAE0A20EE2E0A60EE32
:101C8000891A20EE280ACDED0E1AD4ED010A60EE75
:101C9000AE6ACDED096AD4ED020A60EEAEAAD4EDCB
:101CA000030A60EEAEBAD4ED040A20EEAE6A8DED02
:101CB0000A6AD4ED010A94ED031A60EEAE0A20EE32
:101CC000812A8DED022AD4ED030A20EEAE1AD4ED5E
:101CD000040A21EE201A8DED011AD4ED010A94EDCB
:101CE000011A20EE81CAD4ED010A94ED021A60EEC9
:101CF00081FAD4ED010A94ED031A60EE813ACDED3C
:101D0000053A00E09EE1D4ED010A94ED041A20EEBC
:101D1000813A8DED0F3AD4ED020A94ED021A20EECD
:101D200081AAD4ED020A94ED031A20EE815A8DEDBA
:101D3000105AD4ED020A94ED041A60EE81CAD4ED73
:101D4000030A94ED031A60EE819AD4ED030A94ED30
:101D5000041A20EE813A8DED113AD4ED040A94ED87
:101D6000041AD4ED041A20EE81BA69EE0C0A9DED36
:101D70000B1A41EE610A94ED031AD4ED031A40EEFA
:101D8000010A2AEE881A49EE0A0A41EE210A2AEED1
:101D9000A81AD4ED041A41EE210A9DED081AD4EDDB
:101DA000041A21EE211AD4ED021A49EE690A08EE4E
:101DB0000C1A49EE4B0A00EE611ADDED0E1A94ED95
:101DC000030A01EE801A2BEEA80AD4ED041A08EEDD
:101DD0004A1A08EE291A00EE211A20EEA00A08EE8F
:101DE0004B1A01EE010A10EE100AFEF7ECFC41EC72
:101DF000100B03F0B5FB51EC100BFEF7FAFC9DED58
:101E00000B1A94ED020AD4ED031A9DED022A21EE7D
:101E1000000A9DED081A1CEEAE2A9DED2F5A01EE28
:101E2000610ADDED0E1A94ED041A00EE900A72EECE
:101E3000452AB6EE002A08EE8C0A32EE693ADDED4C
:101E4000053A9DED105A32EE4A2A33EE4B3A01EE36
:101E5000810A2BEE881AD4ED041A23EE203A7CEE88
:101E6000E33A32EE692A08EECA0A9DED0A6ADDED10
:101E7000096AB1EE007A60EEAE5A01EE210A9DEDDC
:101E8000011ADDED301A0FEEAE1A08EEE90A31EE56
:101E9000611A08EE8B0A61EE2A1A00EE233A4BEE25
:101EA000E21A60EE2E4A33EE494A94ED033A20EEF0
:101EB000033A43EE441A94ED023A60EE033A94ED8D
:101EC000043A40EEC33A9DED0F3A35EE433A23EE25
:101ED000205A9DED113A3FEE833A00EE035A35EE5B
:101EE000483AB7EE005A0AEE6E5A43EE831ADDED19
:101EF000053A73EEAC3A09EEEE5A63EEA03A40EEC4
:101F0000023A94ED032A20EE822A73EEE83A42EE7A
:101F1000231A22EE862A9DED316A35EE465A94ED5B
:101F2000026A06EE812A26EE076AD4ED016A06EE01
:101F3000452A94ED046A20EE066A06EE042A94ED22
:101F4000036A20EE866A00EE266AD4ED026A06EE87
:101F5000032A94ED046A20EE866A04EEE66A06EE31
:101F6000232A9DED0A6A21EE066A01E0F8000020AE
:101F7000DDED096A06EEE26AD4ED036A62EEAA2A92
:101F800066EE876A4BEE812A94ED021A06EEC56A68
:101F900020EEEE5AD4ED036A20EE011A25EE265A01
:101FA000D4ED016A00EE665AD4ED046A05EE046AC7
:101FB00094ED025A20EE855A00EE265AD4ED036ABB
:101FC00005EE036A94ED015A20EE855A04EEE65AB6
:101FD000D4ED044A05EEE41A05EE236A41EE042A24
:101FE00094ED031A20EE010A94ED011A00EEC10AE5
:101FF00040EE032A94ED020A20EE800A40EE232AE6
:1020000021EEA10A02EE020A06EE060A02EEA20A7A
:1020100004F034F961EE800A62EE001A94ED002AB1
:1020200026EE001A22EE800A02EE60DAD4ED000AF3
:1020300040EEE1DAD4ED000A00EEC1FAD4ED000A78
:1020400000EEC0EAD4ED010A9FED270A4DEE000A2A
:10205000C4ED010AD4ED020A4DEE800AC4ED020A75
:10206000D4ED030A4FEE000AC4ED030AD4ED040ACE
:102070004EEE000AC4ED040A94ED010AD4ED010A03
:1020800094ED021A20EE200AD4ED020A00EE810A35
:10209000D4ED030A94ED031A00EE810AD4ED040A8C
:1020A00094ED041A00EE810A04F0E8F8D4ED010A78
:1020B00060EE800AC4ED010AD4ED020A60EE800AE7
:1020C000C4ED020AD4ED030A60EE800AC4ED030AEF
:1020D000D4ED040A20EE800A84ED040A1CB0BDECA5
:1020E000108B0AB010BD00006F12833A00B5A64AEB
:1020F000B6EE005A2DED088BF5EEC01A92ED023ABD
:10210000D2ED033A92ED034A20EE433AD2ED024A71
:1021100003EEE03AD2ED043A03EEC13A63EE053A3B
:1021200092ED013A23EE003A04EE013A92ED044AB0
:1021300004EE603A23EE054A92ED013A23EE203A8E
:1021400004EEC13AD2ED044A04EE803A63EE054A49
:1021500092ED013A23EE011A92ED023A03EE201AB3
:10216000D2ED030A00EEC01A21EE055AF1EE10FA84
:1021700009D1B5EEC02AF1EE10FA04D1F5EEC02A6D
:10218000F1EE10FA7ED021EEA10A02EE020A02EE72
:10219000A20A04F073F861EE800A92ED033AF0EEC1
:1021A000001AB1EE006A63EE215A92ED043A92ED04
:1021B000028A92ED019A23EE217A92ED023A22EE02
:1021C000001A62EE802A63EE067A92ED033A92EDEF
:1021D000010AD2ED039A63EE066AB2EE003A20EEEF
:1021E000212A68EE038A92ED038A92ED020AD2ED6B
:1021F00004AA28EE038A92ED013A20EE210AD2EDDC
:10220000011A23EE09AA92ED023A92ED029A61EECA
:10221000861A2AEE06AA23EE099A92ED033A92ED67
:1022200002BA63EE299A92ED043A63EE2AAA21EEED
:10223000A93A05EEA03A01EE893A67EEAA1A47EEEE
:10224000601A00EE413A4AEE0B1A42EE411A71EE64
:10225000E71A48EE891A48EEA91A47EEA21AD2EDFB
:10226000037A6AEE277A42EE207A46EEAA7A47EEA1
:10227000417A37EEE62A08EE092A08EE292A06EE08
:10228000A22A00E031E069EE062AD2ED046A62EE8D
:10229000A62A40EE602A29EE860AD2ED040A40EE14
:1022A000202A23EE030A01EEA10A45EEC12A02EE1E
:1022B000020A02EEA20A03F0E1FF63EE000A22EE38
:1022C000001A92ED002A61EE801A22EE800A42EE98
:1022D000603AD2ED000A00EEE14AD2ED000A40EE8B
:1022E000C14AD2ED000A00EEC05AD2ED010A9FEDBC
:1022F000270A43EE800AC2ED010AD2ED020A44EE3B
:10230000000AC2ED020AD2ED030A44EE800AC2EDD1
:10231000030AD2ED040A45EE000AC2ED040A92ED6A
:10232000010AD2ED010A92ED021A20EE200AD2ED46
:10233000020A00EE810AD2ED030A92ED031A00EEC2
:10234000810AD2ED040A92ED041A00EE810A03F02C
:1023500095FFD2ED010A60EE800AC2ED010AD2EDCE
:10236000020A60EE800AC2ED020AD2ED030A60EEB4
:10237000800AC2ED030AD2ED040A20EE800A82ED43
:10238000040ABDEC088B00BDF80000206F12833AF0
:10239000FEE70A46002100F001B8000010B5002A4F
:1023A00021D000281FD000244FEA04035B1C41EA1F
:1023B0000424042BFAD310F0030305D10AE000BF74
:1023C000521E00F8011B5B1C5AB1042BF8D301E02C
:1023D00010C0121F042AFBD203E000BF00F8011B4B
:1023E000521E002AFAD110BD7047000070B50F21AF
:1023F000C478027801234FF0E026E4B1124C24683F
:1024000004F4E064C4F5E064C4F30724C4F10405F3
:10241000E1404478AC4085780D4025430B4C2901C0
:102420001155007800F01F018B40400906EB800039
:10243000C0F8003170BD02F01F008340500906EB68
:102440008000C0F8803170BD0CED00E000E400E0D9
:102450000249084302490860704700000000FA057D
:102460000CED00E07047000002480068002800D032
:10247000004770474400002010B5044600F09CF867
:102480003B490020424A08703A4908703A490870AE
:102490003A4908603A4908603A4908703A49087070
:1024A0003A490870116831B13A49096819B112689E
:1024B00001C1521EFCD138490860384908603849CA
:1024C0000860384908603849086038490860384968
:1024D00008603849087001F01FF901F055F92046ED
:1024E00000F00EFF2088002841D1204600F05CFF5C
:1024F000208800283BD1204600F062FF2088002879
:1025000035D1204600F0B6FF208800282FD1204684
:1025100001F02EF92088002829D1204601F0BEF9CB
:102520002088002823D1204601F06AFB208800285B
:102530001DD1204600F004FF2088002817D1204636
:1025400001F022FE2088002811D1204601F0B4FAC3
:10255000208800280BD1204601F078FE2088002832
:1025600005D100F0CBFEBDE81040FFF77BBF10BDEA
:1025700058000020590000207E000020CC000020E0
:10258000D0000020720000207300002074000020A2
:10259000906300088C630008380000203C00002095
:1025A0004000002044000020480000204C00002093
:1025B00050000020AA00002005480649006809686C
:1025C00000EB8100044920F007000860704700001C
:1025D0008C63000890630008D4000020184810B5F0
:1025E000007801282BD1FDF7EFFD16490446087845
:1025F00000B3401E10F0FF0008701BD11248007895
:10260000C0B901F077F811490870114900EB40009A
:1026100051F820000F4908600F490968884209D025
:1026200050F8901F491C01600C480168491C01606A
:10263000FEF73AFA2046BDE81040FDF7C9BD10BDCF
:1026400059000020580000207E0000207300002068
:10265000A4370020D0000020CC000020A0000020E3
:10266000154810B50078002824D1144800780028B7
:1026700020D1FDF7A9FD044601F03CF8104908708F
:10268000104900EB400051F820000F4908600F4945
:102690000968884209D050F8901F491C01600C4815
:1026A0000168491C0160FEF7FAF92046BDE81040B8
:1026B000FDF78EBD10BD0000580000207E000020F8
:1026C00073000020A4370020D0000020CC000020A0
:1026D000A000002070B504460E48007810B146F600
:1026E000625015E00C480078012802D045F6896058
:1026F0000EE00A4D2878FA2802D345F2092007E0B7
:10270000FDF762FD2978491C2970FDF761FD002065
:10271000208070BD58000020590000207E0000205D
:1027200070B504461348007810B146F665501EE0B7
:1027300011480078012802D045F6896017E00F4D56
:10274000287860B1FDF740FD2978491E11F0FF019E
:10275000297007D0FDF73CFD46F6635007E046F6CA
:10276000645004E0FDF734FDFFF77AFF002020807D
:1027700070BD000058000020590000207E0000209D
:1027800070B50F4D0446287818B145F68A60208050
:1027900070BD00F0AFFF0B4908700B4908700B4982
:1027A00000EB400051F82000094908600949086021
:1027B00001202870FEF762F943F69920E7E7000050
:1027C000590000207300002072000020A437002070
:1027D000D0000020CC0000202DE9F0410746FDF795
:1027E000F3FC214900260E8020490E6020490E602E
:1027F00020490E6020490E81FDF7EAFCFDF7E4FC5C
:102800001E490C6816E000BFFDF7DEFC44F8786F47
:1028100005462663A661A682E6826662A662FEF788
:102820009DFB20624FF07000A4F178040653D4F8A9
:10283000B8402846FDF7CCFC002CE5D1FDF7C4FCE0
:102840000F490C6804E000BFFDF7BEFCA685A46933
:10285000FDF7BEFC002CF7D101F0E2FB01F0CAFD50
:102860003E80BDE8F08100008A0000209C0000202E
:10287000B0000020BC00002098370020A4000020F9
:1028800078000020F8B5044669461E4800F0DCFADE
:10289000BDF8000028BB6A460021022000F008FBBA
:1028A000BDF80000E8B9FDF78FFC174E0025356034
:1028B000FDF78EFC154916480A6803689A4202D94A
:1028C000B2FBF3F010B90A21B2FBF1F06A46002125
:1028D00000F0EEFA69460B4800F056F9BDF800002A
:1028E00008B12080F8BDFDF76FFC0A490A4A0D6067
:1028F00031681160094A01211170FDF769FC2580DA
:10290000F8BD0000243C00208C000020B4630008C7
:10291000A06300089C000020900000209800002088
:1029200002480068002800D0004770474800002097
:102930002DE9FF4F04462DED028B83B017A8DDE98A
:1029400014B6DDE91297DDE91985924690EC028A0A
:102950004C48007810B147F24A1018E054B1BAF16F
:10296000000F0AD067B14848006886420BD246F68D
:1029700030600CE047F2AD1009E047F24F1006E07E
:1029800046F62F6003E0B34507D346F63160288052
:1029900003B0BDEC028BBDE8FF8F46F27322B9F1A4
:1029A000400F05D2B9F13F0F04D13848844201D01D
:1029B0002A80EDE7204601F033F9002028805FEA05
:1029C000C8700AD05FEA887007D5002238461346DF
:1029D00001E008C0521CB242FBD3CDE9006807EB0E
:1029E0008B052B463A465046089900F0F1F9C4F899
:1029F00028A00899E1620699216284F83790A560C1
:102A0000206084ED158AC4ED018A6762A663002008
:102A1000A4F83C804FEA000104EB8002401CD1671F
:102A200010F0FF00F8D004F16400169900F01AFDD0
:102A3000204600F031F8FDF7C7FB054694F8370053
:102A400000F076FE204600F0E5FE204601F0A8F8F2
:102A50000F490888401C08800E4800780128284645
:102A600007D003B0BDEC028B04B0BDE8F04FFDF71A
:102A7000AFBBFDF7ADFB03B0BDEC028BBDE8FF4F74
:102A8000FFF7EEBD58000020B0630008D8360020E4
:102A9000A80000205900002002490968002900D040
:102AA000084770473800002070B504462E480D4690
:102AB000007810B147F24E1004E02C48844203D154
:102AC00047F24C10088070BD2CB9FDF77DFB2849FA
:102AD0000C68FDF77DFBFDF777FB064694F83600A2
:102AE00008283AD2DFE800F004080C0C1C080C0C93
:102AF000204600F0A9FE13E0204601F075FA0FE031
:102B0000204601F071FA94F83400072808D2DFE873
:102B100000F00704070404040400204600F057FDF9
:102B200004F1640000F082FC204600F025F8204605
:102B300001F048F80F490888401E0880204601F03F
:102B40006FF8FF2084F836003046FDF741FB002087
:102B50002880BDE87040FFF783BD3046FDF738FBA5
:102B600046F62D60288070BD58000020D836002021
:102B7000CC000020A800002002490968002900D0EC
:102B8000084770473C00002070B504460E480D46CB
:102B9000007818B147F25510088070BDFDF714FB9E
:102BA0001CB10A4909688C4205D1FDF711FB47F2B7
:102BB0005710288070BDFDF70BFB29462046BDE865
:102BC000704001F097B8000058000020CC000020B1
:102BD00002490968002900D00847704740000020DA
:102BE0002DE9F05F834647488846144600781D4625
:102BF00010B146F2AE1007E0B8F1000F06D0B8F5FC
:102C0000004F03D045F6256018803AE0002704B154
:102C10002760FDF7D9FA3C4E82463068D0F84490E0
:102C2000B9F1000F1BD0A9F10109C0F844900CB113
:102C3000006C2060FEF792F901463068026C891A38
:102C4000C0F8A410D0F8A8208A4201D2C0F8A81079
:102C50005046FDF7BDFA2F804846BDE8F09F5FEA79
:102C6000084005D55046FDF7B3FA46F2B01007E02C
:102C70002648007838B15046FDF7AAFA46F6635068
:102C800028800020E9E700215B460722084600F083
:102C9000FDFB5046FDF79CFAFFF7E2FCFDF794FAC6
:102CA0008046306890F8351031B1012917D00329DA
:102CB0001BD046F62E601CE07CB1006C2060FEF755
:102CC0004DF901463068026C891AC0F8A410D0F89A
:102CD000A8208A4201D2C0F8A8102F800AE00CB1C7
:102CE000006C206046F2A91003E004B1276047F2AF
:102CF000D92028803068446C4046FDF769FA2046A8
:102D0000ABE7000058000020CC0000207E0000202F
:102D100070B506460D00144607D0B5F5004F04D037
:102D200045F625601080002070BDFEF717F90246B9
:102D3000234629463046BDE8704001F03BB800000C
:102D40002DE9F041044620480E46174600781D46FE
:102D500010B147F2591007E046F2D52026B11FB155
:102D6000FDF732FA1CB104E01880BDE8F081174984
:102D70000C684FF00008216839B1A18FC9070DD048
:102D8000FDF726FA0020616A14E0FDF721FAC6F883
:102D9000008047F25210C7F8008007E0FDF718FAEC
:102DA000C6F8008047F25410C7F800802880DCE79E
:102DB000091D401C0A68002AFAD03060A16B081A6D
:102DC0003860A5F80080D0E758000020CC00002033
:102DD00010B54FF08074DDF808C002EB8C0222F0D1
:102DE0000702A2F12402C2E90704164890614FF0DD
:102DF000123050614FF0033010614FF00230C2E9E1
:102E000002304FF0113062E80A014FF0103142F801
:102E1000241FA2F118004FF0093141614FF0083131
:102E200001614FF00731C1604FF0063181604FF012
:102E3000053141604FF0043140F804196FF0020190
:102E4000016010BD9D3D0008074A127812B147F29B
:102E50005D1004E0054A904203D147F25B10088000
:102E6000704700F0F3BF000058000020D836002063
:102E70000C4810B5006800B18047FEF76FF80A49AA
:102E80000A4A09681268914208D001F194014B681E
:102E9000A0EB03030B608C6823448B60C2F898009E
:102EA00010BD00004C000020CC000020D00000200D
:102EB0002DE9F04105461E480E461446007810B133
:102EC00047F2752026E01B48007810B146F66350A3
:102ED00020E046B1022E06D0042E05D0082E02D0E6
:102EE00045F6256016E09DB1FDF76EF9124F80465C
:102EF000012138682346324680F83610294601F011
:102F000007F8208848B14046BDE8F041FDF760B9B8
:102F100047F27E201080BDE8F081386800F094FC14
:102F20004046FDF755F9FFF79BFB00202080F2E7B4
:102F3000580000207E000020CC0000202DE9F04742
:102F4000414E1D46DDE90834367816B147F275204A
:102F500074E03E4E367816B146F663506EE013F0DC
:102F60000E0647F27E2945F6256C05D0022E03D0C9
:102F7000042E05D0082E06D115B90AB901B9E0B35F
:102F800033F01E0703D0A4F800C0BDE8F087C3F3F8
:102F9000001347F2792747F278284FF47A7C012B07
:102FA0000DD0654501D3B81C48E03B2A02D947F251
:102FB0007A2043E03B2906D8632808D80AE042F289
:102FC0000F73994201D92780DFE7604502D3A4F847
:102FD0000080DAE71E4B4FF4FA77C1EB01111B6852
:102FE000B7FBF3F73D445D43B5FBFCF54FF4616778
:102FF000784300EB8100104400E021E000FB035522
:10300000F5B1FDF7E1F8134F8046012138682346FA
:10301000324680F83610294600F07AFF208820B129
:103020004046BDE8F047FDF7D3B8386800F00CFC27
:103030004046FDF7CDF8FFF713FB00202080A4E702
:10304000A4F80090A1E70000580000207E000020B6
:10305000B4630008CC00002070B50546FDF7B4F855
:1030600003490C68FDF7B4F800202880204670BDA5
:10307000AC00002008B500F01BF86A4600210848A3
:10308000FFF746FE07490868401E086007D106485A
:103090006A460068086000210448FFF739FE08BD51
:1030A000643B0020C8000020C4000020243C002015
:1030B00002480068002800D00047704750000020F8
:1030C0002DE9F04704462DED028B0BA8DDF8288092
:1030D0000D9D8A4690EC028A164621481F460078CC
:1030E00010B147F2433038E044B1B8F1010F0CD0D1
:1030F000B8F1020F05D045F625602EE045F6C35025
:103100002BE01FB947F2403027E026B3FDF75CF80B
:103110008146012084F82A0026620026A6616762A3
:103120001048E661C4E9000AA4F8288004F1080008
:1031300080EC028A20462661666101F079F80A492E
:103140000888401C08804846FDF742F82E80BDECF8
:10315000028BBDE8F08747F23F302880F7E7000098
:1031600058000020544D5220B8000020F8B5054604
:103170001D480C46007810B147F2433009E035B1E4
:103180001A492868884206D045F6C45028E047F21C
:103190004230088025E06846FFF79CFA95F82A003F
:1031A000C8B1002601280CD0022807D0032808D077
:1031B0006846FFF7B5FA47F2413011E0284601F0C2
:1031C0007FF90021284601F0C3F86846FFF7A8FA06
:1031D00026800120F8BD6846FFF7A2FA47F23D308D
:1031E00020800020F8BD000058000020544D5220DF
:1031F000F8B505462C480E46174600781C4610B117
:1032000047F2433009E035B128492868884206D0A2
:1032100045F6C45001E047F24230188041E068466C
:10322000FFF758FA95F82A00A0B301282BD00228FE
:1032300007D0032827D06846FFF772FA47F24130DB
:103240002EE0284601F03CF900202080B6B147F27C
:103250004430032E07D0042E09D06846FFF760FAE9
:1032600045F625601CE0AA683AB1E96802E0AA6860
:103270001AB139462846904700E020806846FFF79B
:103280004FFA0120F8BD6846FFF74AFA47F2493085
:103290002080F6E7FFE76846FFF742FA47F23D3045
:1032A00020800020F8BD000058000020544D52201E
:1032B00010B5FCF789FF064A1178491C1170FCF71C
:1032C00087FFFFF7D7FEBDE81040FFF787B9000082
:1032D000580000204FF0E021401E48610648026877
:1032E00022F07F420260086940F005000861086929
:1032F00040F002000861704720ED00E070470000D8
:10330000034A00211160034A1180018070470000C8
:103310005C00002060000020074C084DFCF754FFC3
:103320002168491C21602968491C2960FCF750FF6D
:10333000FFF79AF8F2E70000540000208C0000200C
:1033400000B50E4A89B0002111600B22059106914B
:10335000CDE907200A480B4A0B4B006812681B682E
:103360000292CDE903013F20CDE900030023074A83
:1033700007A10C48FFF7DCFA09B000BD540000209B
:10338000886300088463000880630008193300081C
:1033900075432F4F532D4949492049646C6520548A
:1033A00061736B00D8360020034A00211160034A84
:1033B0001180018070470000640000206800002038
:1033C00070B5174C216861B1164E318861B13288F1
:1033D0002168521E1FFA82FC002501F110032A46C3
:1033E0000EE045F21E7101E045F21D71018070BDD5
:1033F000C1E900320A81CA60103110336D1CADB2D0
:103400006545F5D30A604A600A81CA6006492368A7
:103410000B6033888B80CA800A81028070BD0000F7
:1034200098630008946300089837002010B542891B
:10343000A2B10B490368D1F800C0C3F800C04368CB
:103440000B60CB8844891B1BCB808B884489234429
:103450008B8000214181818101604160104610BD57
:103460009837002001810021418181810160416004
:1034700070470000034A00211160034A1180018057
:10348000704700006C000020700000202DE9F04122
:10349000114E05460C4630680027194680F8342046
:1034A00080F8357000F066FB64B1EC6004F1080749
:1034B00001222946306800F011F82946384600F00C
:1034C00053F802E03068C787076320463168BDE8DB
:1034D000F04100F017B80000CC00002010B5C28702
:1034E00000242346016309E04B600B600B614B61D4
:1034F0000B83CB6188602031641CA4B29442F3D367
:1035000010BD000038B14268C1F8BC2081688968EC
:10351000096AC161704791F83400022803D0072876
:1035200003D004A002E004A000E005A0C1F8BC00A4
:1035300070470000200000005461736B20510000B0
:103540005461736B2053656D00000000054AC1F89B
:10355000BC20816819B18968096AC1617047C2617C
:1035600070470000E063000830B58A68002392F8D5
:10357000374002891AB1521C028102680DE0012213
:1035800002814B600B6001601AE000BFD2F808C0F6
:103590009CF83750A54203D85268002AF6D10BE0B8
:1035A00052B1D2F800C0BCF1000F0BD0C1E900C28B
:1035B000CCF80410116030BD4B6042680A60516065
:1035C000416030BD1160C1E90032016030BD70B5AD
:1035D0000546C48F066B07E0F0683146083000F0FE
:1035E00009F82036641EA4B2002CF5D10020E8872B
:1035F000286370BD02890023012A10D00A688AB1AD
:10360000D1F804C0BCF1000F10D0C2F804C0CCF84F
:1036100000200289521E02814B600B6070470360DC
:103620004360F6E74A6813600260F2E75360426065
:10363000EFE7F8B50C46054691F8361000260698D7
:1036400008293BD2DFE801F03A3A04043A3A212152
:1036500094F83410032912D0E265A4F86030206495
:1036600035B12046FFF7B3FF21462846FFF76EFF2E
:10367000204600F031FB04F13404A6701CE00090F9
:103680002146284600F021F8EAE794F8341003298F
:1036900015D0E265A4F860302064204600F0A4FC58
:1036A00035B12046FFF793FF21462846FFF74EFF2E
:1036B00004F134040420A07066702670F8BD0090F8
:1036C0002146284600F001F8E7E730B50C6BDDF83D
:1036D0000CC0C98F0BE0E568854205D1C4E904023E
:1036E0002383C4F81CC030BD2034491E89B2002990
:1036F000F1D130BD10B50024064802E02034E4B218
:10370000001D01680029F9D00846FCF768FD204437
:10371000C0B210BD300000200020044A014600BFA6
:1037200042F82010401C0228FAD3704730000020D5
:1037300000F01F0241090120C2F11F029040034A1C
:1037400052F82130034342F8213070473000002006
:1037500000F01F0241090120C2F11F029040034AFC
:1037600052F82130834342F8213070473000002066
:10377000034A00211160034A118001807047000054
:10378000780000207C0000200020074B014600BF8D
:1037900000EB400203EB8202401C11811160C0B2B9
:1037A00051604028F4D37047A437002010B5044678
:1037B00090F83700FFF7BCFF074994F83700097805
:1037C0008842204603D1BDE8104000F023B8BDE890
:1037D000104000F003B800007200002090F837108D
:1037E0000B4A01EB410102EB810100220B8943B13D
:1037F0005B1C0B810B68C0E903320A68106108602A
:10380000704701230B81C260026108604860704705
:10381000A437002090F837100A4A01EB410102EB6F
:10382000810100220B893BB15B1C0B81C2604A689D
:103830000261D0604860704701230B81C260026161
:103840000860F7E7A437002070B5044690F8370009
:10385000114900EB400001EB8000D4E90312002580
:1038600042B103895B1E0381D16091B10A61256178
:10387000E56070BD29B10289521E02810D610160AF
:10388000F5E705810560456094F83700FFF760FFB4
:10389000EDE74260EBE70000A4370020034A002177
:1038A0001160034A118001807047000080000020F1
:1038B00084000020714D08B52868714E440004E072
:1038C0006A4600212046FFF7F3FA30780128F7D145
:1038D0006846FEF781FF6B48296802688A4206D96C
:1038E00011462A68B1FBF2F8B8F1000F03D1006865
:1038F0000A21B0FBF1F8644F42F2107B5FF0000642
:10390000FDF72CFB8246FCF75FFC01465F48604CEC
:103910000268226006600846FCF75AFC5D4823688E
:1039200002689A422BD95C48824202D25846012151
:1039300015E05A48824203D24FF47A700A210EE011
:103940005748824202D26420014608E0554882422C
:1039500003D20A204FF47A7101E001205946B2FBEC
:10396000F1F15843B0FBF1F1ABEB01004E4980B2ED
:1039700008804E490A88824204D2088002E04A4800
:10398000A0F800B0FEF7CCFF0025FCF71DFC3C685A
:103990000DE000BFFCF718FC54F89C1FC4E900615F
:1039A000FCF716FC60680544FCF70EFCE469FCF7C4
:1039B0000FFC002CEED10DB33748854202D2D94618
:1039C000012018E03548854203D24FF47A790A2065
:1039D00011E03348854203D24FF0640948460AE0BB
:1039E0003048854204D24FF00A094FF47A7002E061
:1039F0004FF001095846B5FBF0F502E04FF0000921
:103A00000125FCF7E1FB3C681DE000BFD4F8A000F5
:103A100000FB09F0B0FBF5F080B2584500D95846DC
:103A2000A4F88C00B4F88E10814201D2A4F88E0064
:103A300004F1AC026B46111D2046FFF781F9FCF73B
:103A4000C3FBD4F8B840FCF7C3FB002CDED1184808
:103A50000178012903D106706846FEF7BDFEFDF727
:103A60007DFA1449A0EB0A000A68824200D208607D
:103A70006A4600214046FFF71BFA41E7A0630008B1
:103A800098000020B4630008A40000208C000020EF
:103A90009400002090000020801A060000093D00DC
:103AA000005A62020084D717880000208A00002094
:103AB000860000209C00002030B51D4A89B00021FE
:103AC00011601C4A11601C4A11601C4A11701C4A8A
:103AD00011701C4A136843B11B4B1C4D1C682D68A8
:103AE000AC4205D246F62C6108E046F62B6105E0B3
:103AF000174C25783F2D04D346F62A61018009B082
:103B000030BD032505910691CDE907501868114B8A
:103B100012681B68CDE90301CDE9012320780090EC
:103B200000230D4A0DA11248FEF702FFE7E700004F
:103B30008C000020940000209000002098000020BD
:103B400086000020A4630008AC630008B06300088E
:103B50009C630008A8630008B538000875432F4F20
:103B6000532D4949492053746174205461736B008B
:103B7000A43A002038B50446022531B16B46022232
:103B800000F0C6F9BDF8000028B184F83650204690
:103B9000FFF75AFE38BD032084F83600F7E700002F
:103BA000074B0022C0F8B420196829B1C0F8B8103A
:103BB000C1F8B40018607047C0F8B820FAE70000F8
:103BC000A4000020D0E92D2100234AB181B1C2F820
:103BD000B81000F1B400C1F8B4204360036070472E
:103BE000064A116009B1C1F8B430C0F8B830704766
:103BF000C2F8B830C0F8B43070470000A40000200C
:103C0000044A00211160044A1180044A11600180B5
:103C100070470000A4000020A8000020A0000020A1
:103C200070B50025056085604560C560056145612A
:103C30000446856125A0C4E907506562A562E56276
:103C40002563E5872564E565A4F86050002104F14B
:103C50006400FFF707FC44F8745F28466560E56080
:103C6000A5822561A4F1740404EB800100F1010038
:103C7000CD6710F0FF00F7D004F134044FF000409E
:103C8000256125676567656084F85650E567A56717
:103C90002581C4E90505E56125626562A4F85850EF
:103CA000A4F85A50E5652566FDF758F9C4E91905E9
:103CB00025706570A5704020E070C4F8805004F154
:103CC000840404A0C4E9005070BD00003F54617337
:103CD0006B0000002000000010B5044600F084F9DD
:103CE00094F83600400704D42046BDE81040FFF7A2
:103CF0005DBD10BD70B504460D46FCF765FA06467D
:103D00000020288094F83610082940D2DFE801F01E
:103D1000040404040B1F29333046FCF759FA47F218
:103D2000531028800FE094F88A10491E11F0FF010B
:103D300084F88A1004D184F836002046FFF7CCFFBF
:103D40003046FCF745FABDE87040FEF789BC94F8B0
:103D50008A00401E10F0FF0084F88A00F0D1012094
:103D600012E094F88A00401E10F0FF0084F88A00E8
:103D7000E6D1022008E094F88A00401E10F0FF000F
:103D800084F88A00DCD1032084F83600D8E7304676
:103D9000FCF71EFA46F62D60288070BD044808B571
:103DA0000068FEF715FF69460020FEF77DFE08BD9E
:103DB000CC0000202DE9F8430446884615461E46EF
:103DC000FCF702FA07460CB91F480468002046F6C3
:103DD000C5592564308094F8360008282BD2DFE8D6
:103DE00000F004040D0D04040D0D656C681C1AD060
:103DF0006D1C38466564FCF7EBF923E094F8340059
:103E00000728F2D100231A46214618460095FFF7ED
:103E100010FC3846656CFCF7DBF95FEA084011D40A
:103E2000FEF71EFC0EE03846FCF7D2F9A6F800902B
:103E30000020BDE8F8833846FCF7CAF946F62D6045
:103E4000308000252846F4E7CC00002070B50446F9
:103E50000D46FCF7B9F90646204804B90468006825
:103E6000844208D11E48007828B13046FCF7B0F9EA
:103E700046F6635030E00020288094F83610012088
:103E8000082924D2DFE801F0040D16181E1E1E1E9C
:103E9000042184F8361084F88A002046FFF7D4FC09
:103EA00001E0052109E03046FCF792F9BDE87040D9
:103EB000FEF7D6BB062100E0072184F8361084F80F
:103EC0008A00F0E714F88A0F401C2070EBE73046B8
:103ED000FCF77EF946F62D60288070BDCC000020EE
:103EE0007E00002010B500200146074C074B06E07D
:103EF00004EBC002401C11609180D18080B21A880E
:103F00009042F5D310BD0000D0330020C8630008F4
:103F1000F0B5324C47F27E2625680024042A08D0EA
:103F2000B1B32E4E082A36680E440BD0C0E9136197
:103F300015E04A1B521E12F5803F2AD8521CC0E9D8
:103F400013120CE0826C0A44571B7F1E8F4201D271
:103F5000C26400E0C664C16C4A1B02658164204AE9
:103F6000C16C1288B1FBF2F602FB16111D4A89B230
:103F700002EBC102918889B11168F1B1CE6C761B58
:103F80000E65076DB74212D94E6966B13146F5E745
:103F9000FFE7C4640465C4611E80F0BD44618461B0
:103FA000012110600BE0C0E90541486105E08D6921
:103FB00075B1C0E90515686188619188491C9180D7
:103FC000D58889B28D4200D2D180C2611C80F0BDFB
:103FD000C0E9051488611060EFE70000AC00002024
:103FE000C8630008D0330020C269002A17D000211E
:103FF00001651368834204D14369136043B1996139
:1040000006E0D0E9053CCCF814300BB1C3F818C079
:1040100041618161C161C1649088401E9080704798
:1040200010B500200346064C064A04E004EBC0012C
:10403000401CCB8080B211888842F7D310BD0000AD
:10404000D0330020C86300082DE9F05FFCF7BCF80E
:104050008146FCF783FF3E4F06463E4938684FF0E5
:104060000008401C38600988C246B0FBF1F201FB31
:104070001200394980B24FF0030B51F83040CCB3F5
:1040800094F836006569082851D2DFE800F0500442
:10409000501050265034E06C3968421A226588422C
:1040A00049D184F836A02046FFF716FE3DE0E06CCB
:1040B0003968421A226588423DD1C4F85CA0A4F850
:1040C00060A0FCF74BFF20642046FFF780FA2046F3
:1040D000FFF702FE84F836A023E0E16C38680A1A84
:1040E0002265814227D1042084F836002046FFF75C
:1040F0007BFF1AE01FE0E06C3968421A22658842B3
:1041000019D1C4F85CA0A4F860A0FCF727FF2064D4
:104110002046FFF75CFA2046FFF766FF042084F88C
:10412000360084F835B084F834A02C46A7E72C4636
:10413000B8F1000FA3D0FCF711FF0849801B0A68F3
:10414000824200D208604846BDE8F05FFCF740B804
:10415000AC000020C8630008D0330020B00000206D
:104160001CB5084C00216B4601AA0846FEF738FD35
:10417000BDF800000028F5D120780128F2D1FFF722
:1041800063FFEFE75900002030B504461A4889B0B4
:104190000025056019480560FFF7A4FE184801686E
:1041A00041B11849184B0A681B689A4205D247F278
:1041B000132008E047F2122005E0144A13783F2B41
:1041C00004D347F21120208009B030BD0B230595A0
:1041D0000695CDE907340E4B096800681B68CDE9E8
:1041E0000103CDE90315107800900023094A0AA1C4
:1041F0000E48FEF79DFBE7E7AC000020B000002072
:10420000BC630008C4630008B0630008B86300081A
:10421000C06300086141000875432F4F532D494981
:1042200049205469636B205461736B00643B002028
:10423000054B0022C262196819B10163C862186097
:1042400070470263FBE70000B400002030B52A4A43
:1042500089B00021294B1160294C2A4A1D681DB1E3
:104260002468B4FBF5F303E023680A24B3FBF4F3FA
:1042700013601A46244B274D274C1A60234A1160BD
:10428000234A1160002206E005EBC203521C99800C
:10429000D98092B2196023889A42F5D31F4A1368D5
:1042A00043B11F4B1F4D1C682D68AC4205D247F22D
:1042B000483108E047F2473105E01B4C25783F2D97
:1042C00004D347F24631018009B030BD0B2505917A
:1042D0000691CDE907501868144B12681B68CDE9A8
:1042E0000301CDE90123207800900023104A11A199
:1042F0001648FEF71DFBE7E7B4000020CC6300087A
:10430000B4630008C4000020C8000020C0000020E2
:10431000BC00002050360020DC630008D063000899
:10432000D8630008B0630008CA630008D4630008BB
:104330001D44000875432F4F532D494949205469A6
:104340006D6572205461736B00000000243C0020F6
:1043500030B5022280F82A20234A0129136823D08D
:10436000016A09B3214A194481611288B1FBF2F450
:1043700002FB14121E4C92B204EBC2020024156818
:10438000A5B1C91AC1611168F9B18D69A5EB030C1A
:10439000C1F81CC0C569654511D9D1F810C0BCF180
:1043A000000F08D06146F0E7416ADBE70461446131
:1043B000106001200BE0C0E90441086105E04B6991
:1043C00063B1C0E90413186148619088401C908073
:1043D000D18880B2814200D2D08030BDC0E90414BF
:1043E00048611060F1E70000C0000020DC630008B5
:1043F0005036002010B500200346064C064A04E063
:1044000004EBC001401CCB8080B211888842F7D3F6
:1044100010BD000050360020DC6300081CB5DFF83A
:104420009090DFF890A0244EDFF890B000216B460A
:1044300001AA0846FEF7D4FB6846FEF74BF9FCF7E5
:104440008DFD044630684FF00308401C3060B9F819
:104450000010B0FBF1F201FB120080B25AF830708C
:10446000C7B1B86931683D69884213D1384600F058
:1044700027F8388D022808D087F82A80BA6812B148
:104480003846F96890472F46EAE701213846FFF79A
:104490005FFFF3E7FCF762FD041B6846FEF740F997
:1044A000DBF80010A142C1D2CBF80040BEE700000B
:1044B000DC63000850360020C0000020BC00002053
:1044C00010B5124A81691288B1FBF2F302FB131195
:1044D0000F4A89B202EBC1020023146801698442C9
:1044E00003D1116041B14B6106E0D0F814C0CCF8A3
:1044F000101009B1C1F814C0012180F82A1003611D
:1045000043619088401E908010BD0000DC6300086D
:1045100050360020044A0029116801D0014300E010
:10452000814311607047000030380240044A00297E
:10453000116801D0014300E0814311607047000021
:104540004438024030B5224B1968224A11F00C0160
:1045500004D0214D042903D0082903D002601DE0B6
:1045600005601BE01A49091F0C68C4F3805C0C68E5
:10457000BCF1000F04F03F0402D0B5FBF4F201E0FF
:10458000B2FBF4F20C680968C4F388146243C1F307
:104590000141491C4900B2FBF1F1016019680F4A61
:1045A00001F0F0010909545C0168E14041601C68B8
:1045B00004F4E054A40A145D21FA04F484601B6836
:1045C00003F460435B0BD25CD140C16030BD00009E
:1045D000083802400024F40040787D011A000020D1
:1045E00070470000224900200A6842F480320A60C5
:1045F0004FF4A0430A6800F1010012F4003F01D11A
:104600009842F7D10868800331D5194840300268D4
:1046100042F0805202601748026842F44042026051
:104620001348083002680260026842F400420260E7
:10463000026842F4A0520260031F0F4A1A600A681F
:1046400042F080720A600A689201FCD50B4A40F27F
:1046500005711160016821F003010160016841F0FA
:10466000020101600168C1F381010229FAD170479A
:10467000003802400070004019544007003C0240DE
:10468000124810B5016841F47001016010480168DA
:1046900041F0010101600E4A0021083211600268F8
:1046A0000C4B1A400260031D0B4A1A60026822F488
:1046B0008022026006480C300160FFF793FF034937
:1046C0004FF000608039086010BD000088ED00E008
:1046D00000380240FFFFF6FE103000240029018858
:1046E00002D041F0800101E021F08001018070479B
:1046F0000029018802D041F0010101E021F001010F
:1047000001807047002930F8441F02D041F4004175
:1047100001E0C1F30E0101807047000030B5028C4A
:1047200022F001020284028C8388048B22F00202B0
:1047300024F073050C882C438D8915434A882A433D
:104740000C4DA84202D00C4DA8420DD122F0080514
:10475000CA8923F440732A4322F004058A882A4335
:104760000D8A1D434B8A2B438380048389684163F0
:10477000028430BD0000014000040140028B22F0A1
:1047800008020A430283704730B5028C22F01002FF
:104790000284028C8388048B22F0200224F4E645F4
:1047A0000C88240645EA14448D892D0542EA1545F6
:1047B0004A88120545EA1242104DA84202D0104D17
:1047C000A84215D122F08005CA8923F4406312055E
:1047D00045EA124222F040058A88120545EA124253
:1047E0000D8AAD0443EA15454B8A9B0445EA134301
:1047F0008380048389688163028430BD00000140A6
:1048000000040140028B22F4006242EA012101838C
:104810007047000030B5028C22F480720284028C52
:104820008388848B22F4007224F073050C882C4357
:104830008D892D0642EA15454A88120645EA12423C
:10484000104DA84202D0104DA84215D122F40065A7
:10485000CA8923F44053120645EA124222F48065C5
:104860008A88120645EA12420D8A2D0543EA15454B
:104870004B8A1B0545EA1343838084838968C1639F
:10488000028430BD0000014000040140828B22F010
:1048900008020A438283704730B5028C22F48052AA
:1048A0000284038C8288848B4D8824F4E64C0C8827
:1048B0002D0724064CEA144423F4005C8B891B0763
:1048C0004CEA134343EA1545084B984202D0084B83
:1048D000984205D122F480430A8A920543EA1242A3
:1048E0008280848389680164058430BD00000140B2
:1048F00000040140828B22F4006242EA012181839C
:104900007047000030B50288174B184C98420DD004
:10491000A0420BD0B0F1804F08D0154DA84205D071
:10492000144DA84202D0144DA84204D122F0700CBC
:104930004A8842EA0C02114DA84207D0104DA84205
:1049400004D022F4407C0A8942EA0C0202804A68C0
:10495000C2620A880285984201D0A04201D1897AB8
:1049600001860121818230BD000001400004014028
:104970000004004000080040000C0040001000400F
:1049800000140040064A054B11785854491C117018
:10499000012240F22771034800F0AFB880210020C7
:1049A000040000200010014070B5304C40F2277622
:1049B0003146204600F082F8C0B12E4D2C492878AF
:1049C000095C401C2870204600F010F93146204652
:1049D00000F05DF8284928780978884244D13146AA
:1049E0002046BDE87040002200F087B840F225550F
:1049F0002946204600F062F8002835D02946264690
:104A0000204600F044F81D4C1D4D607870B1401EEA
:104A1000C7281DD2304600F0E5F861786854491C7B
:104A2000C8B26070285C0A2808D009E0304600F05F
:104A3000D9F861786854491C617001E00120A070C8
:104A40000E49BDE870400E48091DC830FEF78EBB08
:104A500000206070094B0146BDE8704008481B1DEE
:104A6000084AC830FEF7C4BB70BD0000001001400A
:104A700080210020030000200400002014000020FA
:104A800084220020690F0008C943018070470A0A88
:104A900001219140C943018070470029818902D0DA
:104AA00041F4005101E021F4005181817047024638
:104AB000002012880A4200D00120704770B501F032
:104AC0001F0601220025C1F3421302FA06F4012B4E
:104AD0000FD0022B0FD0838A4FEA11210088234286
:104AE00002FA01F200EA020001D000B101252846D5
:104AF00070BD8389F0E7038AEEE7C1F3421301F04A
:104B00001F0C012101FA0CF1012B07D0022B07D059
:104B10001430002A026805D00A4304E00C30F8E79C
:104B20001030F6E78A430260704700007FB5044604
:104B3000008A0D4620F44051E88808432082A0896D
:104B400041F20C618843A9882A8911436A8902438A
:104B50001143A181A08A20F44071A8890843A08252
:104B60006846FFF7EFFC1D48844202D01C4884428F
:104B700001D1039800E00298A1890904002900EB03
:104B8000C00101EB0010296802DA4FEA410101E09F
:104B90004FEA8101B0FBF1F06422B0FBF2F14FEA81
:104BA00001114FEA11136FF018056B4300EB8300FE
:104BB000A3891D044FF0320306D503EBC000B0FB00
:104BC000F2F000F0070005E003EB0010B0FBF2F09C
:104BD00000F00F00084320817FBD0000001001405D
:104BE000001401408088C0F308007047C1F3080139
:104BF00081807047FEE7000010B5252829D04528A0
:104C000061D1A520FFF7BEFE4520FFF7BBFE2E4C6D
:104C10002088C0B2FFF7B6FE2088C0F30720FFF758
:104C2000B1FE6088C0B2FFF7ADFE6088C0F3072018
:104C3000FFF7A8FEA088C0B2FFF7A4FEB4F80400F6
:104C4000C0F30720FFF79EFEBDE810405A20FFF793
:104C500099BEA520FFF796FE2520FFF793FE1B4C7B
:104C60002088C0B2FFF78EFE2088C0F30720FFF730
:104C700089FE6088C0B2FFF785FE6088C0F3072018
:104C8000FFF780FEA088C0B2FFF77CFEA088C0F3CB
:104C90000720FFF777FE2089C0B2FFF773FE208957
:104CA000C0F30720FFF76EFE6089C0B2FFF76AFE0F
:104CB0006089C0F30720FFF765FEA089C0B2FFF747
:104CC00061FEA089BCE710BDAC2000202820002098
:104CD0000FB4054B10B503A9044A029800F01EFD5D
:104CE00010BC5DF814FB0000B56000082001002036
:104CF00003B401984100009850EAC12018BF042075
:104D00004A0D18BF40F0010040F2FF72B2EB515F54
:104D100008BF40F00200012808BF052002B070471C
:104D200070B5C1482DED020B2DED0E8B82B0119D9B
:104D300025F000449FEDBEDB9FEDBFCB844240DBFE
:104D4000A4F140511098A1F17F6108430ED0BC48F6
:104D5000844202DC27D1109828B39DED100B53EC50
:104D6000102B51EC100BFBF798FB27E09DED100B7F
:104D700053EC1D2B51EC100BFBF735FC9DED100B8C
:104D800041EC180B53EC1C2B51EC100BFBF72BFCDC
:104D900053EC182BFBF781FB41EC100B02B0BDEC80
:104DA0000E8B02B070BD012000F0B2FC9FEDA60B8F
:104DB00053EC102B51EC100BFBF785FC41EC100B66
:104DC000ECE7A3489FEDA4BB844256DA9DED100B9F
:104DD000B4F1795F0ADA51EC100BFFF789FF042870
:104DE00008BF00F075FC9DED100BD7E753EC102BBE
:104DF00051EC100BFBF7F7FB41EC180B9848062120
:104E0000B0EE480AF0EE680A784400F0E5FB53EC97
:104E1000182B51EC100BFBF7E6FB41EC190B9148FA
:104E2000B0EE480AF0EE680A0421784400F0D4FBA2
:104E300053EC182B51EC100BFBF7D5FB53EC1B2B51
:104E4000FBF72BFB41EC100B51EC190B53EC102B27
:104E5000FBF739FC41EC100B8DED000B53EC102BE4
:104E60009DED100B51EC100BFBF7BDFB9DED101BE6
:104E700053EC112BFBF711FBA0E79DED100B51EC50
:104E8000100B01F007F953EC1B2BFBF7A9FB41ECCE
:104E9000100B8DED000B9FED740B53EC102B9DED63
:104EA000000B51EC100BFBF79EFB41EC190B70480B
:104EB0000621B0EE490AF0EE690A784400F08CFB56
:104EC00053EC192B51EC100BFBF78DFB41EC1A0B3B
:104ED0006848B0EE490AF0EE690A0421784400F00F
:104EE0007BFB53EC192B51EC100BFBF77CFB53ECC9
:104EF0001B2BFBF7D2FA41EC1B0B51EC190B01F009
:104F000003FA41EC180B5C489FED5DEBA04222DCFC
:104F100053EC1B2B51EC1A0BFBF7D5FB41EC100BA0
:104F200051EC180B8DED000B53EC102BFBF75BFBDA
:104F300053EC182BFBF7B1FA53EC1E2BFBF753FB8A
:104F400053EC1D2BFBF749FB53EC1C2BFBF748FBE9
:104F500041EC100B5FE08DED008B002000909DED8B
:104F6000000B51EC180B53EC102BFBF796FA9DED50
:104F7000000B41EC1C0B53EC102B51EC100BFBF70E
:104F800032FB53EC192BFBF72BFB53EC1C2BFBF7E1
:104F90009AFB41EC190B53EC1B2B51EC1A0BFBF752
:104FA00092FB41EC1A0B53EC1E2B51EC190BFBF747
:104FB0001AFB53EC1D2BFBF713FB41EC190B53ECC5
:104FC0001E2B51EC180BFBF70EFB53EC1A2BFBF7C7
:104FD0000AFB53EC192BFBF700FB9DED000B41EC9A
:104FE000180B53EC1E2B51EC100BFBF7FCFA9FED4A
:104FF000269B53EC192BFBF7F3FA41EC100B51EC09
:10500000180B53EC102BFBF7E8FA53EC192BFBF7BA
:10501000E7FA41EC100B002D3FF7C0AE51EC100B3E
:1050200081F00041CAE600000000F03F00000000EF
:10503000075C143326A6913C182D4454FB21F93FFC
:105040000000F07F000000000000000000000000F1
:105050000000E03F00000000000000000000F03F02
:10506000DC150000EA150000000000000000E03F31
:105070002A150000381500003333EF3F0000000010
:105080000000000000000040182D4454FB21E93FBF
:1050900070B59F482DED020B2DED068B079D25F079
:1050A000004484421DDB9B48844202DC0FD10698F9
:1050B00068B19DED060B53EC102B51EC100BFBF778
:1050C000ECF9BDEC068B02B041EC100B70BD002D6D
:1050D000CCBF9FED910B9FED920BBDEC068B02B008
:1050E00070BD9148844215DA90488442A8BF4FF0C1
:1050F000FF3440DA9DED060B51EC100BFFF7F8FD85
:10510000042808BF00F0E4FA9DED060BBDEC068B09
:1051100002B070BD9DED060B51EC100B00F0BAFF14
:1051200041EC100B82488DED060B9FED839B844272
:105130003CDA834884421FDA00249FED83AB51ECB4
:10514000100B53EC1A2BFBF7A8F99DED060B41EC65
:10515000180B53EC1A2B51EC100BFBF744FA53ECE1
:10516000192BFBF73AFA53EC182BFBF7ACFA41EC8E
:10517000100B8DED060B49E0012453EC192B51EC7B
:10518000100BFBF78AF99DED060B41EC180B53EC65
:10519000192B51EC100BFBF720FA53EC182BFBF7F3
:1051A00092FA41EC100B8DED060B2FE0684884421B
:1051B0001FDA02249FED68AB51EC100B53EC1A2B55
:1051C000FBF711FA53EC192BFBF767F99DED060B72
:1051D00041EC180B53EC1A2B51EC100BFBF7FDF9BB
:1051E00053EC182BFBF76FFA41EC100B8DED060B0F
:1051F0000CE053EC102B03249FED590B51EC100BDA
:10520000FBF761FA41EC100B8DED060B9DED060BE3
:1052100053EC102B51EC100BFBF7E5F941EC180B9C
:1052200053EC182BFBF7DFF941EC190B4E48062124
:10523000B0EE490AF0EE690A784400F0CDF953EC7B
:10524000182B51EC100BFBF7CEF941EC180B47482B
:10525000B0EE490AF0EE690A0521784400F0BCF985
:1052600053EC192B51EC100BFBF7BDF941EC100B73
:1052700051EC180B53EC102B002C0EDAFBF70DF948
:105280009DED061B53EC112BFBF7ADF99DED061BB5
:1052900053EC112BFBF7A4F935E0FBF7FEF89DED7D
:1052A000061B53EC112BFBF79EF941EC100B304819
:1052B000784400EBC40090ED001B51EC100B53EC54
:1052C000112BFBF78AF99DED061B53EC112BFBF715
:1052D00084F941EC100B2748784400EBC40090EDB2
:1052E000001B51EC100B53EC112BFBF779F941EC3F
:1052F000100B002DA2BFBDEC068B02B070BD51ECAF
:10530000100B81F0004141EC100BFFE600000000A3
:10531000000010440000F07F182D4454FB21F93F99
:10532000182D4454FB21F9BF0000DC3F0000203E53
:105330000000F33F00000000000000000000F03F0C
:105340000000E63F000000000000000000000040F8
:105350000080034000000000000000000000F83F53
:10536000000000000000F0BF641200001A120000EC
:10537000A41100005C11000070B5694E2DED040B06
:105380002DED028B82B0DDE9053C079ACCF10004DB
:1053900022F000414CEA040441EAD474049D23F055
:1053A0000040B44205D86C422C4340EAD474B44265
:1053B00010D99DED060B53EC102B9DED040B51EC19
:1053C000100BFBF76AF841EC100B02B0BDEC028B3E
:1053D00004B070BDA2F14054A4F17F6454EA0C04FF
:1053E0000BD0022404EAA27444EAD37405439FED6F
:1053F0004E8B9FED4F2B07D010E09DED040B51EC31
:10540000100B00F0C6FB3BE0002C14BF012C9DEDFF
:10541000040BDAD0022C36D0032C39D051EA0C0C14
:105420009FED451B9FED460B0AD0B14219D1B0420A
:1054300009D121F0804120F080400791059010E0D3
:10544000002BC2DA11E0DFF800C1FC44002C08BFD9
:105450009CED000BB9D0012C0CD0022C13D0032CE6
:1054600016D0B04219D1002BAFDAB0EE410AF0EEFF
:10547000610AAAE79CED000B51EC100B81F0004192
:1054800041EC100BA1E7B0EE480AF0EE680A9CE789
:10549000B0EE420AF0EE620A97E7401A00153C2887
:1054A00016DC002ABCBF10F13C0F9FED290B0FDB6F
:1054B0009DED060B53EC102B9DED040B51EC100BE6
:1054C000FBF701F900F0E6FD00F063FB41EC100B87
:1054D000002C8DED000B3FF478AF012C10D0022C86
:1054E0009FED1D0B53EC102B9DED000B51EC100BA1
:1054F0000ED0FBF772F853EC182BFBF76EF8BFE7F2
:1055000010EE900A80F0004001909DED000B5CE7EA
:10551000FBF763F853EC182BFBF762F8B0E70000D9
:105520000000F07F00000000182D4454FB210940CA
:10553000182D4454FB2109C0182D4454FB21F9BFF8
:10554000182D4454FB21F93F821000000000000098
:105550000000000000000000075C143326A6A13CF8
:1055600000B52DED048BB0EE408AF0EE608A83B07A
:1055700051EC180BFBF71FFA41EC190B19EE101A3E
:1055800019EE900A8DED009B002918BF01210843F8
:1055900020F00040C0F17F6010F1E04014D518EE1B
:1055A000101A18EE900A8DED008B002918BF01210A
:1055B000084320F00040C0F17F6000F1E040002887
:1055C000A4BF012000F0A4F8B0EE490A03B0F0EE49
:1055D000690ABDEC048B00BD70B505462DED028B4C
:1055E0004C1E00EBC400B0EE408AF0EE608A90EDF5
:1055F000000B34F0060017D053EC182B51EC100BB5
:10560000FAF7F1FF41EC100B641E05EBC40090EDBE
:10561000001B51EC100B53EC112BFAF73EFF41EC41
:10562000100B34F00600E7D1022C36D0042C1CD02D
:10563000062C1CBFBDEC028B70BD53EC182B51EC3B
:10564000100BFAF7D0FF95ED0A1B53EC112BFAF76C
:1056500024FF53EC182BFAF7C6FF95ED081B53EC0B
:10566000112BFAF71AFF41EC100B53EC182B51ECED
:10567000100BFAF7B8FF95ED061B53EC112BFAF758
:105680000CFF53EC182BFAF7AEFF95ED041B53EC0F
:10569000112BFAF702FF41EC100B53EC182B51ECD5
:1056A000100BFAF7A0FF95ED021B53EC112BFAF744
:1056B000F4FE53EC182BFAF796FF95ED001B53EC14
:1056C000112BFAF7EAFEBDEC028B41EC100B70BD1A
:1056D0009FED050B10B553EC102B51EC100BFAF7A6
:1056E00082FF41EC100B10BD000000000000001014
:1056F00002E008C8121F08C1002AFAD1704770479B
:10570000002001E001C1121F002AFBD170470000F8
:105710000149086070470000240100202DE9FF4F77
:105720008DB005460F460026E9E1252879D10024F1
:105730006D1CF74AA246A14601212B78203B01FAB5
:1057400003F0104202D004436D1CF6E728782A28A3
:1057500010D06FF02F022878A0F13001092915D858
:105760000AEB8A0102EB410144F0020400EB010A5A
:105770006D1CF0E757F804ABBAF1000F03DA44F4FC
:105780000054CAF1000A44F002046D1C28782E2847
:1057900017D115F8010F44F004042A280ED06FF039
:1057A0002F022878A0F1300109290AD809EB8901D4
:1057B00002EB410100EB01096D1CF2E757F8049B75
:1057C0006D1C28786C280FD006DC4C2817D0682870
:1057D0000DD06A2814D104E0742810D07A280FD193
:1057E0000DE044F400140AE044F4801401E044F4B1
:1057F00040146978814202D16D1C04F580146D1C3F
:1058000095F800C0BCF16E0F2AD012DCBCF1630F1A
:105810003CD007DCBCF1000F76D0BCF1580F19D199
:10582000A7E018E0BCF1640F6FD0BCF1690F11D193
:105830006BE0BCF1730F32D006DCBCF16F0F71D09E
:10584000BCF1700F06D196E0BCF1750F6BD0BCF1C6
:10585000780F69D06046DDE90F129047761C4DE164
:10586000C4F30250022806D003280AD0042801CF2E
:105870000AD0066042E101CF4FEAE671C0E900615B
:105880003CE101CF068039E1067037E101CF8DF8A8
:10589000000000208DF80100EB46012003E057F8DE
:1058A00004BB4FF0FF3061074FF0000102D40DE060
:1058B00008F10101884649450FDA8045F8DB1BF8FD
:1058C00008100029F4D108E008F10101884681425E
:1058D000FADB1BF808100029F6D1DDE90F23AAEB4B
:1058E00008008146214600F03CF9304400EB0806F0
:1058F00004E0DDE90F121BF8010B9047B8F1010835
:10590000F7D221464846F4E0FDE00A21C4F30252F2
:105910004FF0000B0891022A07D001CFC117032ACC
:1059200009D00AE030E022E023E0FF1D27F007075E
:10593000F7E8020105E000B2C117042A01D140B224
:10594000C117002906DA0023D0EB030063EB010145
:105950002D2202E0220504D52B228DF824200122DD
:1059600003E0E20701D02022F7E790464EE00A214B
:105970000BE0102109E010214FF0000B44F004046B
:105980004FF00809089103E008214FF0000B08913F
:10599000C4F30252022A04D001CF0021032A06D008
:1059A00007E0FF1D27F00707F7E8020105E080B2D6
:1059B0000021042A01D1C0B200214FF000082207C3
:1059C00024D5BCF1700F29D0089B83F0100353EA53
:1059D0000B0309D150EA010206D030228DF82420B1
:1059E0008DF825C002229046089B83F0080353EAF5
:1059F0000B030BD150EA010201D1620706D5302218
:105A00008DF824204FF00108A9F10109BCF1580FCD
:105A100009D040A20B9208AA0A9211E040228DF808
:105A200024200122DFE740A2F4E75B46089AFAF758
:105A3000F1FC0B9B9B5C0A9AA2F101020A92137083
:105A400050EA0102F1D10A98ADEB000000F1200B01
:105A5000600702D524F4803401E04FF00109D945F4
:105A600002DDA9EB0B0000E0002000EB0B0141443C
:105A70000890AAEB01000B90E00306D4DDE90F23A8
:105A800021460B9800F06DF806444FF000090DF127
:105A9000240A07E0DDE90F121AF809009047761C86
:105AA00009F10109C145F5DBE0030CD5DDE90F2360
:105AB00021460B9800F055F8064404E0DDE90F128A
:105AC00030209047761C0899481E08900029F5DC84
:105AD00008E00A980A990078491C0A91DDE90F123A
