:020000040800F2
:10000000107B0020A10100088B2E00086722000849
:10001000132E0008211800083569000800000000B0
:100020000000000000000000000000002D6000083B
:10003000651A000800000000A30A0008D942000861
:10004000BB010008BB010008BB010008BB010008A0
:10005000BB010008BB010008BB010008BB01000890
:10006000BB010008BB010008BB010008BB01000880
:10007000BB010008BB010008BB010008BB01000870
:10008000BB010008BB010008BB010008BB01000860
:10009000BB010008BB010008BB010008BB01000850
:1000A000BB010008BB010008BB010008BB01000840
:1000B000BB010008BB010008BB010008BB01000830
:1000C000BB010008BB010008BB010008BB01000820
:1000D000BB01000879650008BB010008BB010008EE
:1000E000BB010008BB010008BB010008BB01000800
:1000F000BB010008BB010008BB010008BB010008F0
:10010000BB010008BB010008BB010008BB010008DF
:10011000BB010008BB010008BB010008BB010008CF
:10012000BB01000889190008BB010008BB010008D9
:10013000BB010008BB010008BB010008BB010008AF
:10014000BB010008BB010008BB010008BB0100089F
:10015000BB010008BB010008BB010008BB0100088F
:10016000BB010008BB010008BB010008BB0100087F
:10017000BB010008BB010008BB010008BB0100086F
:10018000BB010008BB010008DFF80CD000F0CCFB7D
:1001900000480047B1820008107B00207047000033
:1001A0000648804706480047FEE7FEE7FEE7FEE711
:1001B000FEE7FEE7FEE7FEE7FEE7FEE78D610008EB
:1001C0008901000872B6704762B67047EFF310807D
:1001D00072B6704780F31088704730BF704720BFF9
:1001E0007047B0FA80F0704790FAA0F0B0FA80F053
:1001F000704790FAA0F070472DE9F05F05460020A7
:1002000092469B4688460646814640241BE0284687
:1002100041464746224600F020F852465B46801A87
:10022000994110D310461946224600F063FA2D1A60
:1002300067EB01084F4622460120002100F05AFAE0
:1002400017EB00094E41201EA4F10104DFDC4846F3
:1002500031462A464346BDE8F09F202A04DB203A77
:1002600021FA02F00021704721FA02F3D040C2F1D6
:100270002002914008431946704740EA01039B075A
:1002800003D009E008C9121F08C0042AFAD203E00B
:1002900011F8013B00F8013B521EF9D2704730B50E
:1002A0000EE003460A4601E05B1C521C1C781578E0
:1002B000AC4201D1002CF7D115F0FF0F04D0401C47
:1002C0000278002AEDD1002030BD10B5044604E0CC
:1002D0000B7800F8013B03B1491C521EF8D22046AE
:1002E00010BDCAB20178914203D009B1401CF9E7B0
:1002F000002070470146002000E0401C0A5C002AF4
:10030000FBD1704730B504460020034600E05B1C7B
:10031000934203D2E05CCD5C401BF8D030BD70B599
:10032000064606F045FB046805460A2200213046D1
:1003300000F001FA2C6070BD2DE9FE4F074681EAFE
:100340000300C00F0E46019021F0004123F000444D
:10035000B81AA14105D23846314617461E460B460B
:10036000024623F00040104304D13846314603B022
:10037000BDE8F08F350DC5F30A00C3F30A510290B2
:10038000401A0090402868DAC3F3130040F4801B41
:100390000198924620B10023D2EB030A63EB0B0BCA
:1003A00000985946C0F14002504600F0A3F980463B
:1003B0000C4650465946009A00F0ABF9C0197141FD
:1003C000EF1785EA11533B4340D0019A52B3009A8C
:1003D000012A11DC0022801A4FF0004361EB055125
:1003E00003EA05538018CDE9002341F58011424608
:1003F000234600F01BFABAE72E050025401B61EBEF
:100400000601401941F58012001852412818A6F53E
:10041000001343EB020140EAD470294318EB0808AB
:10042000644113E064084FEA38084FF0000244EAE0
:10043000C0744FEA0553801A61EB0301801841F53F
:10044000801149084FEA300080185941424623463E
:1004500003B0BDE8F04F00F0DCB901980122400084
:100460000023D0EB020263EBE07301984FEAE074E3
:10047000381A66EB0401EBE783F000435CE781F098
:10048000004159E72DE9FE4F81EA030421F00045C0
:1004900004F0004423F000414FF0000A009450EAB9
:1004A000050302D052EA010304D10020014603B043
:1004B000BDE8F08FC1F30A53C5F30A541C44A0FBF6
:1004C00002B3C5F3130545F4801CC1F3130141F4D5
:1004D00080180CFB023300FB083EA4F2F334810ABF
:1004E000930A41EA8C5143EA88530194A1FB0347E4
:1004F0004FEA9C2505FB03734FEA982601FB06375C
:100500003D05260545EA1435BBEB06016EEB0503F8
:10051000850E920E45EA8C1542EA8812A5FB02066A
:10052000261E67EB00070C0D44EA0334A41947EBC1
:100530001350C1F313064FF0000319464FEA03337B
:1005400043EA165343EA0403019CE5FB0201A4F1CC
:100550000C040294009C4FEA0632CDE900A400F09E
:1005600065F9A4E72DE9F04D81EA030404F0004B9E
:1005700021F0004714464FF0000A23F0004150EAF2
:10058000070220D054EA01021DD0C1F30A550246E9
:10059000C1F31300C7F30A56C7F3130340F48011E5
:1005A00043F48013A6EB0508101BD64608F2FD386D
:1005B00073EB010002D308F1010801E092185B41DE
:1005C000B8F1000F03DA00200146BDE8F08D0020ED
:1005D0004FF48015064607460EE0B2EB040C73EBB1
:1005E000010C04D3121B064363EB01032F436D0878
:1005F0004FEA300092185B4150EA050CEDD152EA07
:10060000030012D082EA040083EA0105284303D1E3
:1006100000224FF0004308E0101B8B4102D2012260
:10062000002302E06FF0010253101AEB060047EBC3
:10063000085110EB0A0041EB0B01BDE8F04D00F052
:10064000E8B80EB5C10F80EAE0700844CA0700217F
:1006500040F233438DE80E000A460B4600F0E6F800
:1006600003B000BD00F0004230F000400DD0C10DDD
:1006700001F5607142EA01510022C0F316005207F1
:1006800042EAD002400711437047002001467047FC
:1006900001F0004230B421F0004150EA010306D0DD
:1006A0000B0DA3F56073C1F31301002B02DC30BC0A
:1006B00000207047440F44EAC104C100A01830BCB8
:1006C00000EBC35000F06FB830B50B460146002078
:1006D0002022012409E021FA02F59D4205D303FA04
:1006E00002F5491B04FA02F52844151EA2F1010285
:1006F000F1DC30BD202A04DB203A00FA02F10020B0
:1007000070479140C2F1200320FA03F3194390404F
:100710007047202A06DBCB17203A41FA02F043EA61
:10072000E071704741FA02F3D040C2F120029140DB
:100730000843194670472DE9F0470F469146804619
:100740000446002614F8015B2DB100F0FFF80068A4
:10075000405DC007F6D12B2D02D02D2D18D0641E80
:100760004A463946204600F0F5F827B13968A142DB
:1007700001D1C7F8008071054FF002040BD540424B
:10078000002803DD06F014F90460A007BDE8F08737
:1007900046F48066E4E70028F8DA06F009F9046018
:1007A0006FF00040F2E70029A8BF7047401C4900E5
:1007B00008BF20F00100704710B4B0FA80FC00FAC6
:1007C0000CF050EA010404BF10BC704749B1CCF1F1
:1007D000200421FA04F411FA0CF118BF012121437D
:1007E0000843A3EB0C01CB1D0106000A002BBEBF82
:1007F000002010BC704700EBC35010440029A4BF78
:1008000010BC7047401C490008BF20F0010010BC1C
:10081000704710B5002B08DA401C41F10001921816
:100820005B411A4301D120F0010010BD2DE9F04DCC
:1008300092469B4611B1B1FA81F202E0B0FA80F221
:1008400020329046FFF756FF06460F4640EA0A0060
:1008500041EA0B0152465B46084303D13046394614
:10086000BDE8F08D194652EA010015D0C8F14002EA
:100870005046FFF7F2FC04460D46504659464246A4
:10088000FFF738FF084301D0012000E000200443B7
:1008900045EAE07526432F430A984FEAD625A0EB98
:1008A00008000A304FEA46534FF0000245EA475528
:1008B0004FEAD72402D500200146D1E7010550199F
:1008C0006141DDE9084500196941BDE8F04DA0E747
:1008D000C1F30A52C1F3130140F2FF3341F4801116
:1008E0009A4202DA00200146704740F233439A42AE
:1008F000A2F2334202DC5242FFF7AFBCFFF7FABE6E
:1009000030B5002904DB4FF00044404264EB0101A4
:10091000002B04DB4FF00044524264EB0303994286
:1009200008BF904230BD0000064C074D06E0E0686D
:1009300040F0010394E8070098471034AC42F6D326
:10094000FFF726FCD0860008F086000800487047B4
:10095000CC8600082DE9F05F8246007800278B46A0
:1009600015460AF10104B946302801D09DB113E0C3
:1009700014F8010B0127782803D0582801D045B17D
:100980000AE00DB1102D07D10027102514F8010B36
:1009900002E0082500E00A250026B0460EE005FB2F
:1009A000080005FB06F1012701EB10461FFA80F84D
:1009B000B6F5803F00D3B94614F8010B294600F084
:1009C00018F80028EBDABBF1000F05D00FB1641E58
:1009D00000E05446CBF80040B9F1000F06D005F016
:1009E000E7FF02210160C81EBDE8F09F48EA06400B
:1009F000FAE73A2800D2303820F02002412A01D309
:100A0000A2F13700884201D34FF0FF30704770B534
:100A100001EB020410F8015B15F0070301D110F897
:100A2000013B2A1106D110F8012B03E010F8016BED
:100A300001F8016B5B1EF9D12B0705D40023521E70
:100A40000FD401F8013BFAE710F8013B02F1020272
:100A5000A1EB030303E013F8015B01F8015B521EF5
:100A6000F9D5A142D6D3002070BD000021484FF037
:100A7000FF010170002080F309881F48016881F39D
:100A800008881E484FF08051016062B6FEE71B489F
:100A90004FF080510160704718484FF0805101605D
:100AA000704772B6EFF3098050B11EF0100F08BF07
:100AB00020ED108A734620E9F80F11490968086093
:100AC00000B5104880475DF804EB0F480F490A78DD
:100AD00002700B480E490A6802601068B0E8F80F0F
:100AE0009E461EF0100F08BFB0EC108A80F30988F4
:100AF00062B6704722ED00E0F000002004ED00E057
:100B0000E8000020BD3F00088E0000208F0000207C
:100B1000EC00002010B52DED0A8B874801690846CE
:100B2000FFF7A0FD41EC100BB0EE40AAF0EE60AA7A
:100B3000814801680846FFF795FD41EC100BB0EEC7
:100B4000408AF0EE608AB0EE4A1AF0EE6A1A06F0B9
:100B5000A7F8B0EE409AF0EE609A9FED780B53EC58
:100B6000102B51EC190BFFF78DFC41EC100BB0EE84
:100B700040CAF0EE60CA9FED730B53EC102B51ECA2
:100B80001C0BFFF7EFFC41EC100BB0EE40BAF0EE9F
:100B900060BA51EC1B0BFFF77BFD6C49086066489F
:100BA00001690846FFF75EFD41EC100BB0EE409A7C
:100BB000F0EE609A604881680846FFF753FD41EC0B
:100BC000100BB0EE40BAF0EE60BAB0EE491AF0EE9B
:100BD000691A06F065F8B0EE40AAF0EE60AA9FED43
:100BE000570B53EC102B51EC1A0BFFF74BFC41EC5D
:100BF000100BB0EE408AF0EE608A9FED520B53EC82
:100C0000102B51EC180BFFF7ADFC41EC100BB0EEC4
:100C100040CAF0EE60CA51EC1C0BFFF739FD4C499D
:100C200008604C4841680846FFF71CFD41EC100B7A
:100C3000B0EE409AF0EE609A464801680846FFF729
:100C400011FD41EC100BB0EE408AF0EE608AB0EE80
:100C5000491AF0EE691A06F023F8B0EE40AAF0EE59
:100C600060AA51EC1A0BFFF713FD3B4908603248AC
:100C700090ED000ADFED390AB4EEE00AF1EE10FA69
:100C800003D233480068324908602B4890ED000ACF
:100C9000DFED320AB4EEE00AF1EE10FA06DD2C4880
:100CA00090ED000AB1EE400A80ED000A224890ED76
:100CB000020ADFED2A0AB4EEE00AF1EE10FA03D2DE
:100CC00022480068214908601B4890ED020ADFEDC8
:100CD000230AB4EEE00AF1EE10FA06DD1B4890EDAF
:100CE000000AB1EE400A80ED000A134890ED060AB2
:100CF000DFED1B0A20EE200A1A4880ED000A0E489C
:100D000090ED080ADFED160A20EE200A164880ED65
:100D1000000A1448D0ED000A0C4890ED000A01F0DA
:100D2000FDFA1148D0ED000A094890ED000A01F0E3
:100D30003DFCBDEC0A8B10BD10150020000000002A
:100D40000080664000000060FB2109404001002057
:100D500044010020E81500204801002000F8FF466B
:100D600000007A3D4C010020500100200024422068
:100D700007F052F958B9422109A005F0DDFD05F050
:100D800071F8044621460CA005F0D6FD05E005F0FB
:100D900069F842210EA005F0CFFD00BFFEE700007C
:100DA0004F5637363730204F6B2028307825303279
:100DB00058290D0A000000004F56373637302049B9
:100DC00044203D2028307825303458290D0A000071
:100DD0004F5637363730204572722028307825300C
:100DE0003258290D0A00000000208349087001E1F3
:100DF0008148007820B101280FD002280CD1A3E04F
:100E00007EA000F0C3FE4FF4FA617EA000F0D2FE97
:100E100010B1012078490870E7E07B48007800288D
:100E200073D11AE04FF48071784801F0F4FF78A094
:100E300000F0ACFE4FF4FA624FF48071734800F09A
:100E400012FE76A17148FFF72AFA00B106E06DA103
:100E50006E48FFF724FA00B100E0E3E700BF0CE0C2
:100E600066A000F093FE4FF4FA6166A000F0A2FEC7
:100E700018B102206C49087000E0F1E700BF09E0FA
:100E80006AA000F083FE4FF4FA615EA000F092FECB
:100E900000B100E0F4E700BF17E04FF480715B4859
:100EA00001F0B9FF6BA000F071FE4FF4FA6155A09C
:100EB00000F080FE48B16AA000F068FE4FF4FA61CD
:100EC0006AA000F077FE00B100E0E6E700BF09E0AD
:100ED00069A000F05BFE4FF4FA614AA000F06AFEE0
:100EE00000B100E0F4E700BF0DE068A000F04EFEA6
:100EF0004FF4FA6143A000F05DFE20B101204249A9
:100F0000087001E001E0F0E71DE03F4800780128AB
:100F100019D101023D4801F07EFF60A000F036FECD
:100F20004FF4FA624FF48071384800F09CFD5C2168
:100F30005E4801F070FF5EA13448FFF7B0F910B1D0
:100F400002202D49087050E000215C4800F01CFC94
:100F50004FF480712D4801F05EFF4FF47A724FF428
:100F600080712A4800F07FFD00205549086055A196
:100F70002648FFF794F9524908600846006880B394
:100F800052480068401C514908604D48006800798B
:100F9000632802D06D2820D106E04D48007840F04B
:100FA00010004B49087018E0002413E04448006822
:100FB000401D032212FB04014648FFF786F900207A
:100FC0004449C8700846FFF7AAF9434921F81400BC
:100FD000601CC4B2042CE9DB00BF00BF002006F097
:100FE00091FF364800F0C2FB00BF00BF4FF4FA701B
:100FF00000F0E6FBFCE600002400002041542B52E8
:10100000535400004F4B00001C0000201416002019
:1010100041542B43574D4F44453D32006E6F206382
:1010200068616E67650000001400002041542B4386
:10103000575341503D225869616F53695A686F7523
:10104000222C22313233343536373839222C312CA8
:101050003300000041542B4349504D55583D310059
:1010600041542B4349504D55583F00002B434950A4
:101070004D55583A3100000041542B4349505345D7
:10108000525645523D312C383038300041542B43B4
:10109000495053544F3D32383830000041542B43AF
:1010A0004950535441545553000000001E1800206D
:1010B0002B4349505354415455533A009414002043
:1010C0001800002073796E630000000020000020EB
:1010D0000200002014180020F80000202DED108BD5
:1010E000B6B02AE0D02006F07BFF40B906F0D0FC75
:1010F000FE48007840F00100FC49087005E0FB481C
:10110000007820F00100F94908703C2006F068FFE3
:1011100040B906F0F9FBF648007840F00100F449C8
:10112000087005E0F248007820F00100F0490870EE
:10113000F0480078401CEF490870EE480078052818
:10114000D0DB4FE201F0FEFD00F0C2FF01F076FBC4
:1011500000F03EFEE548007810F0100F7DD0E64824
:10116000007810F0100F40D1C820E4490860E4482E
:10117000B0F9000000EE100AB8EEC00AE14880EDB8
:10118000010ADF48B0F9020000EE100AB8EEC00A0A
:10119000DC4880ED030ADA48B0F90400A0F580408D
:1011A00000EE100AB8EEC00AD64880ED050AD44811
:1011B000B0F9080000EE100AB8EEC00AD14880ED80
:1011C000070ACF48B0F90A0000EE100AB8EEC00ACC
:1011D000CC4880ED090ACA48B0F90C0000EE100AAC
:1011E000B8EEC00AC74880ED0B0AC448006828B9A9
:1011F000BE48007820F01000BC490870C048B0F923
:10120000000000EE100AB8EEC00ABE48D0ED010A98
:1012100030EE200AF0EE000A80EE201A80ED011A6E
:10122000B748B0F9020000EE100AB8EEC00AB5489F
:10123000D0ED030A30EE200AF0EE000A80EE201A0C
:1012400080ED031AAE48B0F9040000EE100AB8EEC3
:10125000C00AAC48D0ED050A00E04CE030EE200AB0
:10126000DFEDA90A30EE600AF0EE000A80EE201AE7
:1012700080ED051AA248B0F9080000EE100AB8EE99
:10128000C00AA048D0ED070A30EE200AF0EE000AAE
:1012900080EE201A80ED071A9948B0F90A0000EE96
:1012A000100AB8EEC00A9748D0ED090A30EE200ABD
:1012B000F0EE000A80EE201A80ED091A9048B0F98D
:1012C0000C0000EE100AB8EEC00A8E48D0ED0B0AF2
:1012D00030EE200AF0EE000A80EE201A80ED0B1AA4
:1012E00086480068401E8549086008460068C8288E
:1012F00001D9C82008607E48007810F0010F06D0A0
:101300007A48007810F0010F01D000F0E5FC7F482A
:10131000007802287ED17E4801880088401C7C4AE3
:10132000108041F2883091FBF0F200FB121000288F
:1013300071D1C821774801F06EFD7248C16A084634
:10134000FFF790F941EC100BB0EE408AF0EE608AA6
:101350006C48416A0846FFF785F941EC100BB0EE86
:10136000409AF0EE609A6748C1690846FFF77AF93B
:1013700041EC100BB0EE40AAF0EE60AA6148416962
:101380000846FFF76FF941EC100BB0EE40BAF0EEF3
:1013900060BA5C48C1680846FFF764F941EC100B7D
:1013A000B0EE40CAF0EE60CA564841680846FFF702
:1013B00059F941EC100BB0EE40DAF0EE60DA564825
:1013C00081680846FFF74EF941EC100BB0EE40EA99
:1013D000F0EE60EA504841680846FFF743F941ECF7
:1013E000100BB0EE40FAF0EE60FA4B480168084688
:1013F000FFF738F941EC100B8DED340B4148816A51
:101400000846FFF72FF941EC100B8DED320B3D48EC
:10141000016A01E0DFE0A3E00846FFF723F941ECB1
:10142000100B8DED300B374881690846FFF71AF92C
:1014300041EC100B8DED2E0B324801690846FFF789
:1014400011F941EC100B8DED2C0B2E4881680846EC
:10145000FFF708F941EC100B8DED2A0B29480168C4
:101460000846FFF7FFF841EC100B8DED280B2B48D9
:101470000068FFF7F7F841EC100B8DED260B2848BC
:101480000068FFF7EFF841EC100B8DED240B2548B9
:101490000068FFF7E7F841EC100B8DED220B8DEDA6
:1014A000208B8DED1E9B8DED1CAB8DED1ABB8DED54
:1014B00018CB8DED16DB8DED14EB8DED12FB9DED54
:1014C000340B8DED100B9DED320B8DED0E0B9DED64
:1014D000300B8DED0C0B9DED2E0B8DED0A0B9DED64
:1014E0002C0B8DED080B9DED2A0B1DE0020000205A
:1014F000040000201201002003000020F40000205E
:10150000BC1400201015002000008046240000209C
:1015100014010020383A0020E8150020480100207E
:1015200044010020400100208DED060B9DED280BAD
:101530008DED040B9DED260B8DED020B9DED240B27
:101540008DED000B9DED220B53EC102B2649274807
:1015500005F002FA254800F077FB022006F032FB86
:1015600000202349087032E022482149097830F8E8
:10157000111021481E4A127830F81200814221D001
:101580001D481B49097830F81100642805DD6420E6
:101590001949174A127821F812001749144A12788B
:1015A00031F8120012490978491CC9B206F012FC40
:1015B00011480F49097830F811000E490C4A127889
:1015C00021F812000A480078401C094908700848B0
:1015D00000780428C8DB094800780949087002200F
:1015E00000F0EEF8AEE5000054850008383A00201F
:1015F0001601002004010020F80000200200002055
:101600000300002010B500220121024800F09DF8DF
:1016100010BD00009414002000B58BB00AA803216F
:1016200000220592CDE9062108900120010219222D
:101630001E4BCDE90132CDE90310032000231C4AE3
:101640001CA100901F4802F003F90AA80321002200
:101650000592CDE9062108900120010219221A4BBA
:10166000CDE90132CDE9031005200023174A18A166
:1016700000901B4802F0ECF80AA803210022059212
:10168000CDE906210890012001021922154BCDE970
:101690000132CDE9031004200023134A13A1009066
:1016A000164802F0D5F80BB000BD000094100020E1
:1016B000DD100008417070205461736B2053616D20
:1016C000706C6500D40F002054020020E90D000862
:1016D000417070205461736B20436F6D6D0000008A
:1016E00094010020D40B00206D0D00084170702083
:1016F0005461736B2043616D65726100140B0020AF
:1017000008B500F07FF806F0E3F800F099F86846B5
:1017100002F01CF8FFF780FFFFF774FF0AE00648AD
:101720000078022802D1012006F04CFA4FF4FA703A
:1017300000F046F8F3E70000240000201FB56846DB
:1017400004F0EEFB019804B010BDF8B506460C4657
:1017500015466B4622462946304601F0E7FDBDF8A6
:10176000000008B10020F8BD0120FCE738B50446B0
:101770006A460021204601F0EDFEBDF8000008B1E8
:10178000002038BD0120FCE77CB505460C464FF42F
:101790007A70604309490968B0FBF1F601A800239B
:1017A0001A4631460090284601F000FEBDF80400BC
:1017B00008B100207CBD0120FCE70000A4830008E4
:1017C000FEB5044642F21070844200D90446B4F5D6
:1017D0007A7F0BD34FF47A70B4FBF0F086B24FF4FB
:1017E0007A70B4FBF0F100FB114501E0A5B20026D0
:1017F00002A800212B463246CDE90010084602F02F
:1018000071FCFEBD70B5FFF799FF04460348006800
:10181000B4FBF0F5284602F07DFD70BDA4830008FE
:1018200000BFFEE710B50021044800F0DDF80020FD
:1018300000F098F8002000F083F810BD2864024002
:1018400010B500F01FF800F019F810BD10B5002415
:1018500000BF00BFFEF7BAFC044600BF00BF102166
:10186000054801F0D8FA00BF00BF2046FEF7B2FCE1
:1018700000BF00BF10BD0000D420002010B5FFF74E
:10188000E5FF10BD10B500200249086000F00AF81D
:1018900010BD0000480000200149086070470000AA
:1018A0004800002010B5FFF749FF044608480068CB
:1018B00040F08070064908600020064948600846EC
:1018C000006840F0010008602046FFF7E5FF10BD0A
:1018D000FCED00E0001000E001494868704700009E
:1018E000001000E0014609B90B487047012901D1F9
:1018F0000020FAE7022901D10020F6E7032901D1EF
:101900000020F2E7042901D10020EEE7052901D1EA
:101910000020EAE70020E8E77C18002008B54FF433
:10192000E06001F0F5FA25208DF8000000208DF828
:10193000020001208DF80300684601F0ADFA08BDF1
:1019400030B10749096841F00101054A116005E01D
:101950000349096821F00101014A11607047000044
:101960000000055030B10749096841F48041054A3B
:10197000116005E00349096821F48041014A1160C2
:10198000704700000000055010B50749074800F0F7
:1019900037F840B10449054800F00CF8FFF742FF62
:1019A00001200349087010BD00880010286402401F
:1019B000010000200246094B9A4201D2084801E08A
:1019C0000648103811F0005F03D0064B0B40C3608F
:1019D00002E0044B0B40836070470000106402403B
:1019E000006002407D0F7D0F21B1026842F00102CC
:1019F000026003E0026822F001020260704700000A
:101A000030B50246002000248446124DAA4201D27D
:101A1000114B01E00F4B103B104D294206D01E2503
:101A200005EAD124156805EA040C02E0556905F0C1
:101A3000800C11F0005F01D05C6800E01C68084D6C
:101A40002C400C4204D0BCF1000F01D0012000E07A
:101A5000002030BD10640240006002403C0F3C0F8B
:101A60007D0F7D0F70472DE9F843054689461646E0
:101A70000024A046002E03DD3146032006F0F0F9D5
:101A80004AE005F023FFB8F1020F07D1032005F06B
:101A900003FF58B100202855E7B23EE0002E05DDD7
:101AA000032005F0F9FE08B1002736E06946002062
:101AB00006F036FA80B3B8F1000F06D0B8F1010F86
:101AC00013D0B8F1020F26D116E09DF800000D28C2
:101AD00008D19DF800202046611C8CB22A544FF09A
:101AE000020801E04FF0010815E09DF800000D2804
:101AF00001D14FF002080EE00521032006F0B0F9F5
:101B0000A9F10100A04205DD9DF800202046611CDE
:101B10008CB22A5400BF00BFB3E700BF3846BDE80F
:101B2000F88300001CB508220021684601F07CF90A
:101B30000121084604F0C4F94FF400600090012030
:101B40008DF8040003208DF8050000208DF80600B4
:101B500001208DF8070069460B4800F0C9F84FF4E2
:101B60000061094800F02FF96420FFF729FE4FF4C7
:101B70000061054800F029F96420FFF721FE0020EC
:101B800006F0C0F91CBD00000000024070B504461C
:101B90002046FEF7AFFB85B22A462146002006F01C
:101BA000CEF9022202A1002006F0C9F970BD0000A2
:101BB0000D0A00002DE9F041C2B080460C46002518
:101BC0004046FEF797FB0746FF2F03D9002042B09F
:101BD000BDE8F081002C03DD2146032006F040F92A
:101BE0002DE005F073FE002C05DD032005F054FE0A
:101BF00008B1002624E041A9002006F091F9F0B1D7
:101C00009DF804010A280DD1002D09DD3A46414610
:101C100001A8FEF777FB08B9012611E000250EE0C8
:101C200000250CE0FF2D0AD89DF80401202806DBD2
:101C30009DF804212846691C8DB201A90A54D0E7F9
:101C400000BF3046C3E7000070B504461A4800786C
:101C5000022830D100211948FFF796FD4FF480711A
:101C6000174801F0D8F82046FEF744FB05462A46FF
:101C700014A1134804F070FE1148FFF787FF4FF4DA
:101C80008071144801F0C7F84FF4FA624FF4807184
:101C90001048FFF7E8FE3E210E48FEF722FB10B188
:101CA0002046FFF773FF4FF480710A4801F0B3F844
:101CB0000248FFF75BFD70BD240000209414002053
:101CC0001417002041542B43495053454E443D3096
:101CD0002C2564001416002010B5FEF71BFF0348E6
:101CE0000088401C0149088010BD00001801002038
:101CF00070B50A46002100238C4600BF3DE0012458
:101D000004FA01F3146804EA030C9C4534D1046816
:101D10004E000325B540AC43046014794D00AC403F
:101D200005682C4304601479012C02D01479022C2C
:101D300016D184684E000325B540AC4384605479C5
:101D40004D00AC4085682C438460446801258D407B
:101D5000AC434460446895798D40ADB22C434460F7
:101D6000C4684E000325B540AC43C460D4794D002F
:101D7000AC40C5682C43C460491C1029BFD370BD5A
:101D800070B500239C464C07E40E02FA04F3CD1014
:101D900000F1200454F825404D07EE0E0F25B54004
:101DA000AC43CE1000F1200545F82640CD1000F1DF
:101DB000200454F8254044EA030CCD1000F120041F
:101DC00044F825C070BD418370470183704700000F
:101DD00000B52DED0C8B87B01C220021684601F068
:101DE00023F81C22A549A1F11C00FEF746FA1C228B
:101DF000A2491C31A148FEF740FA1C229F49383104
:101E0000A1F11C00FEF739FA1C229C495431A1F1C2
:101E10001C00FEF732FA1C22994998485430FEF70C
:101E20002CFA96481C38008894491C39898B084440
:101E300092491C39098F084490491C39B1F8541053
:101E400008448E491C39B1F87010084400B2ADF84E
:101E500000008A481C384188C08B014487481C38E0
:101E6000408F014485481C38B0F85600014483482F
:101E70001C38B0F87200084400B2ADF802007F4888
:101E80001C388188008C01447C481C38808F0144B8
:101E90007A481C38B0F85800014478481C38B0F82B
:101EA0007400084400B2ADF8040076484168084662
:101EB000FEF7D8FB41EC100BB0EE409AF0EE609AC2
:101EC000704801680846FEF7CDFB41EC100BB0EE00
:101ED00040CAF0EE60CABDF90000FEF7B2FB41EC6B
:101EE000100BB0EE40BAF0EE60BA9FED670B53EC0A
:101EF000102B51EC1B0BFEF735FB41EC100BB0EE39
:101F000040DAF0EE60DA53EC1C2B51EC1D0BFEF7BF
:101F1000B9FA41EC100BB0EE40AAF0EE60AA53EC17
:101F2000192B51EC1A0BFEF707FA41EC100BB0EE2F
:101F3000408AF0EE608A51EC180BFEF7A9FB544979
:101F400008605048C1680846FEF78CFB41EC100B56
:101F5000B0EE409AF0EE609A4A4881680846FEF773
:101F600081FB41EC100BB0EE40BAF0EE60BABDF967
:101F70000200FEF766FB41EC100BB0EE40AAF0EE5B
:101F800060AA9FED410B53EC102B51EC1A0BFEF79E
:101F9000E9FA41EC100BB0EE40CAF0EE60CA53EC27
:101FA0001B2B51EC1C0BFEF76DFA41EC100BB0EE45
:101FB00040DAF0EE60DA53EC192B51EC1D0BFEF712
:101FC000BBF941EC100BB0EE408AF0EE608A51ECA8
:101FD000180BFEF75DFB2E4948602A484169084608
:101FE000FEF740FB41EC100BB0EE40AAF0EE60AA09
:101FF000244801690846FEF735FB41EC100BB0EEB2
:1020000040BAF0EE60BABDF90400FEF71AFB41ECED
:10201000100BB0EE40CAF0EE60CA9FED1B0B53EC04
:10202000102B51EC1C0BFEF79DFA41EC100BB0EE9F
:10203000409AF0EE609A53EC1B2B51EC190BFEF713
:1020400021FA41EC100BB0EE408AF0EE608A53ECBE
:102050001A2B51EC180BFEF76FF941EC100BB0EE98
:1020600040DAF0EE60DA51EC1D0BFEF711FB084987
:10207000886007B0BDEC0C8B00BD00007815002017
:1020800040150020FC150020000000000000144056
:10209000E815002070B5044606F076F83C2006F0FE
:1020A0001BF806F0C5F8204606F016F806F0C0F852
:1020B00006F06AF83D2006F00FF806F0B9F805F0D2
:1020C000E9FF054605F0D2FF06F090F8284670BDFE
:1020D0001CB506F059F83C2005F0FEFF06F0A8F804
:1020E000032005F0F9FF06F0A3F806F04DF83D20B7
:1020F00005F0F2FF06F09CF8002407E005F0CAFFA7
:102100000DF8040005F054FF601CC4B2062CF5DB8A
:1021100005F0C0FF8DF8060005F0A8FF06F066F890
:102120009DF801009DF8001000EB012000B241492C
:1021300008809DF803009DF8021000EB012000B21A
:102140003C4988809DF805009DF8041000EB0120B3
:1021500000B2384948809DF8060088740846B0F9F6
:10216000000010F5006F1CDD0846B0F90000B0F566
:10217000006F16DA0846B0F90000B1F90C10884279
:1021800003DD2C4800882B4988812A48B0F90000DB
:102190002849B1F90610884203DA26480088254903
:1021A000C8802448B0F9020010F5006F1DDD2148F9
:1021B000B0F90200B0F5006F17DA1E48B0F902005E
:1021C0001C49B1F90E10884203DD1A4840881949AC
:1021D000C8811848B0F902001649B1F908108842C0
:1021E00003DA14484088134908811248B0F9040002
:1021F00010F5006F1DDD0F48B0F90400B0F5006F59
:1022000017DA0C48B0F904000A49B1F910108842F5
:1022100003DD08488088074908820648B0F90400B1
:102220000449B1F90A10884203DA0248808801495A
:1022300048811CBD4015002070B505460C4605F0D0
:10224000A3FF3C2005F048FF05F0F2FF284605F00B
:1022500043FF05F0EDFF204605F03EFF05F0E8FFE7
:1022600005F0C4FF70BDFDF799FF00BFFEE7000059
:1022700000B587B00121084603F022FE012110209D
:1022800003F03EFE072209212248FFF779FD0722CD
:102290000A212048FFF774FD00208DF81A00012064
:1022A0008DF81B0002208DF8180000020590022016
:1022B0008DF8190005A91748FFF71AFD02208DF8BF
:1022C00018004002059005A91248FFF711FD4FF4D0
:1022D000165001900020ADF80800ADF80A00ADF8E6
:1022E0000C00ADF810000C20ADF80E0001A90A4852
:1022F00004F0BEF9012240F22551074804F092F99A
:102300000121054804F049F94021034804F03CF953
:1023100007B000BD0000024000100140914890ED60
:10232000001A70EEC11A904890ED002A8F4890ED87
:10233000001A01EE821A80ED001A8D4890ED011A04
:102340008C48D0ED001A31EEC11A8948D0ED021A3E
:1023500031EE611A884880ED001A8548083090ED0A
:10236000011AB1EE411A844880ED011A8048083004
:1023700090ED011AB1EE411A7F4880ED021A7F48B4
:1023800000687D49C8607A4890ED001A0846D0ED93
:10239000001A754890ED002A01EE821A744880ED0B
:1023A000001A90ED011A0846D0ED011A6E4890ED22
:1023B000002A01EE821A6E4880ED011A90ED021A91
:1023C0000846D0ED021A684890ED002A01EE821A04
:1023D000674880ED021A083090ED011A0846D0EDEA
:1023E000031A614890ED002A01EE821A6048083015
:1023F00080ED011A5D4890ED001A30EE411A6048F8
:1024000080ED001A5A48D0ED001A5E48007801EEBF
:10241000100AB8EE411A21EE811A5B4880ED001ACD
:102420005348D0ED021A5748007801EE100AB8EE72
:10243000411A21EE811A554880ED001A544890ED5A
:10244000001A5048007801EE900AF8EE611A4E48E2
:1024500090ED002A01EE821A4E4880ED001A4A489B
:1024600090ED001A4B48D0ED001A81EE212A4A481F
:1024700080ED002A454890ED001A4648D0ED001A3C
:1024800081EE212A454880ED002A3F4800684449F2
:1024900008603748D0ED011A3A48007801EE100A7A
:1024A000B8EE411A21EE811A3E4880ED001A3048FC
:1024B00090ED001A3848D0ED001A084690ED002A39
:1024C00001EEC21A2A4880ED001A90ED011A324836
:1024D000D0ED001A334890ED002A01EEC21A2448CC
:1024E00080ED011A90ED021A2C48D0ED001A084632
:1024F00090ED002A01EEC21A1D4880ED021A083044
:1025000090ED011A2548D0ED001A264890ED002ADA
:1025100001EEC21A1648083080ED011A134890EDFA
:10252000001A1D48D0ED001A154890ED002A01EE62
:10253000821A0E4880ED001A0A4890ED001A1748DA
:10254000D0ED001A0E4890ED002A01EE821A0548DF
:1025500080ED001A90ED001A30EEC11A124880ED9D
:10256000001A704768010020280100205401002053
:10257000300100201C010020003B00202001002031
:102580006C0100202C01002070010020740100204B
:1025900024010020780100207C010020800100201F
:1025A00084010020880100205C010020914890ED0A
:1025B000001A70EEC11A904890ED002A8F4890EDF5
:1025C000001A01EE821A80ED001A8D4890ED011A72
:1025D0008C48D0ED001A31EEC11A8948D0ED021AAC
:1025E00031EE611A884880ED001A8548083090ED78
:1025F000011AB1EE411A844880ED011A8048083072
:1026000090ED011AB1EE411A7F4880ED021A7F4821
:1026100000687D49C8607A4890ED001A0846D0ED00
:10262000001A754890ED002A01EE821A744880ED78
:10263000001A90ED011A0846D0ED011A6E4890ED8F
:10264000002A01EE821A6E4880ED011A90ED021AFE
:102650000846D0ED021A684890ED002A01EE821A71
:10266000674880ED021A083090ED011A0846D0ED57
:10267000031A614890ED002A01EE821A6048083082
:1026800080ED011A5D4890ED001A30EE411A604865
:1026900080ED001A5A48D0ED001A5E48007801EE2D
:1026A000100AB8EE411A21EE811A5B4880ED001A3B
:1026B0005348D0ED021A5748007801EE100AB8EEE0
:1026C000411A21EE811A554880ED001A544890EDC8
:1026D000001A5048007801EE900AF8EE611A4E4850
:1026E00090ED002A01EE821A4E4880ED001A4A4809
:1026F00090ED001A4B48D0ED001A81EE212A4A488D
:1027000080ED002A454890ED001A4648D0ED001AA9
:1027100081EE212A454880ED002A3F48006844495F
:1027200008603748D0ED011A3A48007801EE100AE7
:10273000B8EE411A21EE811A3E4880ED001A304869
:1027400090ED001A3848D0ED001A084690ED002AA6
:1027500001EEC21A2A4880ED001A90ED011A3248A3
:10276000D0ED001A334890ED002A01EEC21A244839
:1027700080ED011A90ED021A2C48D0ED001A08469F
:1027800090ED002A01EEC21A1D4880ED021A0830B1
:1027900090ED011A2548D0ED001A264890ED002A48
:1027A00001EEC21A1648083080ED011A134890ED68
:1027B000001A1D48D0ED001A154890ED002A01EED0
:1027C000821A0E4880ED001A0A4890ED001A174848
:1027D000D0ED001A0E4890ED002A01EE821A05484D
:1027E00080ED001A90ED001A30EEC11A124880ED0B
:1027F000001A7047680100202801002058010020BD
:10280000300100201C010020003B0020200100209E
:102810006C0100202C0100207001002074010020B8
:1028200024010020780100207C010020800100208C
:1028300084010020880100206001002010B52DEDEA
:10284000068B0E22FE49A1F10E00FDF716FD0E22A9
:10285000FB490E31FA48FDF710FD0E22F8491C31F4
:10286000A1F10E00FDF709FD0E22F5492A31A1F173
:102870000E00FDF702FDF349B1F90010F04A0E3ADF
:10288000B2F93820881800EBD071491009B2EC4A2F
:102890000E3A1187EB49B1F90220E9490E39B1F935
:1028A0003A10501800EBD07149100AB2E4490E39C1
:1028B0004A87E449B1F90420E1490E39B1F93C10E5
:1028C000501800EBD07149100AB2DD490E398A87E1
:1028D000DC49B1F90820DA490E39B1F94010501835
:1028E00000EBD07149100AB2D5490E39A1F8402049
:1028F000D449B1F90A20D2490E39B1F94210501821
:1029000000EBD07149100AB2CD490E39A1F842202E
:10291000CC49B1F90C20CA490E39B1F9441050180C
:1029200000EBD07149100AB2C5490E39A1F8442014
:102930000846B0F9000000EE100AB8EEC00AC2481E
:10294000D0ED010A70EE600A0846B0F90E0000EE04
:10295000100AB8EEC00A30EE800ABB48D0ED010A7A
:1029600070EE600A0846B0F91C0000EE100AB8EEDE
:10297000C00A30EE800AB448D0ED010A70EE600A59
:102980000846B0F92A0000EE100AB8EEC00A30EE90
:10299000800AAD48D0ED010A70EE600A0846B0F931
:1029A000380000EE100AB8EEC00A30EE800AA648E1
:1029B000D0ED010A30EE600ABDEEC00AB0EE408AEA
:1029C0000846B0F9020000EE100AB8EEC00A9E48B0
:1029D000D0ED030A70EE600A0846B0F9100000EE70
:1029E000100AB8EEC00A30EE800A9748D0ED030A0C
:1029F00070EE600A0846B0F91E0000EE100AB8EE4C
:102A0000C00A30EE800A9048D0ED030A70EE600AEA
:102A10000846B0F92C0000EE100AB8EEC00A30EEFD
:102A2000800A8948D0ED030A70EE600A0846B0F9C2
:102A30003A0000EE100AB8EEC00A30EE800A824872
:102A4000D0ED030A30EE600ABDEEC00AF0EE408A17
:102A50000846B0F9040000EE100AB8EEC00A7A4841
:102A6000D0ED050A70EE600A0846B0F9120000EEDB
:102A7000100AB8EEC00A30EE800A7348D0ED050A9D
:102A800070EE600A0846B0F9200000EE100AB8EEB9
:102A9000C00A30EE800A6C48D0ED050A70EE600A7C
:102AA0000846B0F92E0000EE100AB8EEC00A30EE6B
:102AB000800A6548D0ED050A70EE600A0846B0F954
:102AC0003C0000EE100AB8EEC00A30EE800A5E4804
:102AD000D0ED050A30EE600ABDEEC00AB0EE409AB5
:102AE0000846B0F9080000EE100AB8EEC00A5648D1
:102AF000D0ED070A70EE600A0846B0F9160000EE45
:102B0000100AB8EEC00A30EE800A4F48D0ED070A2E
:102B100070EE600A0846B0F9240000EE100AB8EE24
:102B2000C00A30EE800A4848D0ED070A70EE600A0D
:102B30000846B0F9320000EE100AB8EEC00A30EED6
:102B4000800A4148D0ED070A70EE600A0846B0F9E5
:102B5000400000EE100AB8EEC00A30EE800A3A4893
:102B6000D0ED070A30EE600ABDEEC00AF0EE409AE2
:102B70000846B0F90A0000EE100AB8EEC00A324862
:102B8000D0ED090A70EE600A0846B0F9180000EEB0
:102B9000100AB8EEC00A30EE800A2B48D0ED090AC0
:102BA00070EE600A0846B0F9260000EE100AB8EE92
:102BB000C00A30EE800A2448D0ED090A70EE600A9F
:102BC0000846B0F9340000EE100AB8EEC00A30EE44
:102BD000800A1D48D0ED090A70EE600A0846B0F977
:102BE000420000EE100AB8EEC00A30EE800A164825
:102BF000D0ED090A30EE600ABDEEC00AB0EE40AA80
:102C00000846B0F90C0000EE100AB8EEC00A0E48F3
:102C1000D0ED0B0A70EE600A0846B0F91A0000EE1B
:102C2000100AB8EEC00A30EE800A0748D0ED0B0A51
:102C300070EE600A0846B0F9280000EE100A05E0C0
:102C4000D8140020BC14002010150020B8EEC00AD3
:102C500030EE800A2B48D0ED0B0A70EE600A084671
:102C6000B0F9360000EE100AB8EEC00A30EE800A65
:102C70002448D0ED0B0A70EE600A0846B0F9440013
:102C800000EE100AB8EEC00A30EE800A1D48D0ED02
:102C90000B0A30EE600ABDEEC00AF0EE40AAB8EEB4
:102CA000C80AF1EE040A80EE201A80ED001AB8EE90
:102CB000E80AF1EE040A80EE201A80ED021AB8EE5E
:102CC000C90AF1EE040A80EE201A80ED041AB8EE6B
:102CD000E90AF1EE040A80EE201A80ED061AB8EE39
:102CE000CA0AF1EE040A80EE201A80ED081AB8EE46
:102CF000EA0AF1EE040A80EE201A80ED0A1ABDEC11
:102D0000068B10BD1015002070B5044605F03CFA86
:102D1000D02005F0E1F905F08BFA204605F0DCF94A
:102D200005F086FA05F030FAD12005F0D5F905F066
:102D30007FFA05F0AFF9054605F098F905F056FA67
:102D4000284670BD1FB5002408E004F13B01C8B25D
:102D5000FFF7DAFF0DF80400601CC4B20E2CF4DBA0
:102D60009DF801009DF8001000EB012000B21C4905
:102D700008809DF803009DF8021000EB012000B2CE
:102D8000174948809DF805009DF8041000EB0120CC
:102D900000B2134988809DF807009DF8061000EBEB
:102DA000012000B20E49C8809DF809009DF8081066
:102DB00000EB012000B20A4908819DF80B009DF844
:102DC0000A1000EB012000B2054948819DF80D0072
:102DD0009DF80C1000EB012000B2014988811FBD55
:102DE000BC14002070B505460C4605F0CDF9D02086
:102DF00005F072F905F01CFA284605F06DF905F0AA
:102E000017FA204605F068F905F012FA05F0EEF918
:102E100070BD00BFFEE730B505460C4622460021D6
:102E2000284600F001F830BD2DE9F04103460C467C
:102E300017460FB9BDE8F08103B9FBE70025002272
:102E400002E02D022543521C042AFAD3384603F02F
:102E5000030C1946BCF1000F08D0624603E001F8EC
:102E6000014B401E521C08B1042AF8D30E4601E063
:102E700020C6001F0428FBD2314602E001F8014BB6
:102E8000401E0028FAD100BFD4E7704710B54FF4B8
:102E9000407000F03DF810BD70B5002100230F22F6
:102EA000C47824B3174C246804F4E064C4F5E064E7
:102EB000C4F30721C1F10404E3B20A4144789C4001
:102EC000E1B28478144021430C07210E0E4C0578A2
:102ED0006155047804F01F050124AC4005786D119C
:102EE0004FF0E02606EB8505C5F8004109E00478BF
:102EF00004F01F050124AC40044D0678761145F816
:102F0000264070BD0CED00E000E400E080E100E050
:102F100002490143024A1160704700000000FA05AF
:102F20000CED00E07047000010B50348006810B1D8
:102F300001480068804710BD6000002070B504465D
:102F400000F0A2F800203E4908703E4908703E4952
:102F500008703E4908603E4908603E4908703E4995
:102F600008703E4908703E48006858B13D48056801
:102F700045B13B48066803E0761E002028602D1D01
:102F8000002EF9D1002038490860384908603849D6
:102F9000086038490860384908603849086038498D
:102FA00008603849087001F01BFD01F055FD20460E
:102FB00001F09EFA208800B170BD204601F0FEFAB3
:102FC000208800B1F8E7204601F004FB208800B11A
:102FD000F2E7204601F066FB208800B1ECE72046CE
:102FE00001F02EFD208800B1E6E7204601F0E0FD6B
:102FF000208800B1E0E7204602F0B0F8208800B158
:10300000DAE7204601F0A2FA208800B1D4E7204692
:1030100002F030FD208800B1CEE7204601F0E2FF4B
:10302000208800B1C8E7204602F080FD208800B16A
:10303000C2E701F087F9FFF775FF00BFBCE70000AA
:1030400074000020750000209A000020E800002095
:10305000EC0000208E0000208F0000209000002057
:10306000748300087083000854000020580000207A
:103070005C00002060000020640000206800002048
:103080006C000020C6000020064800680649096858
:1030900000EB8100054908600846006820F0070041
:1030A000086070477083000874830008F0000020F7
:1030B00010B500242D480078012800D010BD00BFB5
:1030C000FDF784F8044600BF2948007828B900BFFE
:1030D0002046FDF77FF800BFF0E725480078401E46
:1030E0002349087008460078002805DD00BF204607
:1030F000FDF770F800BFE1E71E480078002805DD05
:1031000000BF2046FDF766F800BFD7E701F054FC8A
:10311000194908700846007800EB4000174951F83B
:103120002000174908600846006816490968884267
:1031300005D100BF2046FDF74DF800BFBEE710489F
:103140000068D0F89000401C0D490968C1F8900053
:103150000D480068401C0C490860FDF79DFC00BF4D
:103160002046FDF737F800BF00BFA7E77500002035
:10317000740000209A0000208F000020F834002006
:10318000EC000020E8000020BC00002010B5002466
:103190001F480078002800DD10BD1E480078002878
:1031A00000DDF9E700BFFDF711F8044600BF01F0AC
:1031B00003FC194908700846007800EB40001749E5
:1031C00051F820001649086008460068154909684A
:1031D000884205D100BF2046FCF7FCFF00BFDBE7BB
:1031E0000F480068D0F89000401C0D490968C1F8EC
:1031F00090000D480068401C0B490860FDF747FC33
:1032000000BF2046FCF7E6FF00BF00BFC4E7000098
:10321000740000209A0000208F000020F834002065
:10322000EC000020E8000020BC00002070B504463F
:10323000002517480078002803DD46F662502080FC
:1032400070BD14480078012803D045F689602080BD
:10325000F6E711480078FA2803DB45F209202080C0
:10326000EEE700BF00BFFCF7B1FF054600BF00BF9F
:1032700009480078401C0849087000BF00BF284674
:10328000FCF7A8FF00BF00BF0020208000BFD7E7E9
:1032900074000020750000209A00002070B50446DC
:1032A00000251F480078002803DD46F66550208081
:1032B00070BD1C480078012803D045F68960208045
:1032C000F6E71948007818B946F664502080EFE711
:1032D00000BF00BFFCF77AFF054600BF00BF1248E1
:1032E0000078401E104908700846007800280ADD62
:1032F00000BF00BF2846FCF76DFF00BF00BF46F6C9
:1033000063502080D4E700BF00BF2846FCF762FF6F
:1033100000BF00BFFFF73AFF0020208000BFC7E7D3
:1033200074000020750000209A0000202DE9F04173
:1033300004460E4617461D464FF000081848007810
:10334000002804DD42F6E1602880BDE8F0811CB968
:1033500045F6C3502880F8E700BF00BFFCF736FFF2
:10336000804600BF00BF0F482060276200206062D7
:10337000666004F1080001F02BFA204601F000FC21
:1033800009480088401C0849088000BF00BF40462B
:10339000FCF720FF00BF00BF0020288000BFD4E75B
:1033A0007400002053454D41A00000202DE9F04756
:1033B00088B00646894690461C46109D4FF0000A8C
:1033C00060480078002806DD46F2AE102880002014
:1033D00008B0BDE8F08726B945F6C3502880002024
:1033E000F6E7B8F1000F03D0B8F5004F02D100E0C6
:1033F00000BF04E045F6256028800020E8E700BF14
:1034000051493068884204D045F6C45028800020D5
:10341000DEE70CB10020206000BF00BFFCF7D6FE45
:10342000824600BF00BF306A88B1306A401E3062F9
:103430000CB1706A2060376A00BF00BF5046FCF7CD
:10344000C9FE00BF00BF002028803846C0E718F43E
:10345000004F0CD0376A00BF00BF5046FCF7BAFEE1
:1034600000BF00BF46F2B01028803846B0E73748AA
:10347000007800280BDD00BF00BF5046FCF7AAFE15
:1034800000BF00BF46F6635028800020A0E74B46EF
:1034900006223146684601F011F900BF00BF5046D0
:1034A000FCF798FE00BF00BFFFF770FE00BF00BF33
:1034B000FCF78CFE824600BF00BF2548006890F8EC
:1034C000350030B101280CD002281AD0032821D1B0
:1034D00010E01CB11E480068006C206000202880AD
:1034E00024E01CB11A480068006C206046F2A91064
:1034F00028801BE00CB10020206047F2D9202880F2
:1035000014E01CB112480068006C206045F6C250FF
:1035100028800BE046F62E60288000BF00BF504692
:10352000FCF758FE00BF00BF002051E700BF376A1C
:1035300000BF00BF5046FCF74DFE00BF00BF38463D
:1035400046E700007400002053454D419A000020DA
:10355000E80000202DE9F04105460E4614462DB93D
:1035600045F6C35020800020BDE8F0814EB1B6F58D
:10357000007F07D0B6F5004F05D0B6F5024F04D155
:1035800002E000BF00BF00BF04E045F625602080D8
:103590000020E9E700BF0A492868884204D045F6C0
:1035A000C45020800020DFE7FEF796F980462346CE
:1035B00042463146284601F007FB07463846D3E726
:1035C00053454D4110B5044612480078E8B901F062
:1035D000F3F91149087008460078104908700E4840
:1035E000007800EB40000E4951F820000D490860BA
:1035F000084600680C490860012006490870FDF77C
:1036000035FA43F69920208002E045F68A60208052
:1036100010BD0000750000208F0000208E000020EB
:10362000F8340020EC000020E80000202DE9F041F3
:1036300007464FF0000800BF00BFFCF7C7FD8046FB
:1036400000BF00BF00203A4908803A4908603A4963
:1036500008603A4908603A49088100BF00BF404607
:10366000FCF7B8FD00BF00BF00BF00BFFCF7AEFD18
:10367000804600BF00BF3348046800BF00BF40461B
:10368000FCF7A8FD00BF00BF22E000BF00BFFCF7B1
:103690009DFD804600BF00BF002044F8780F2063E6
:1036A000A061A082E0826062A062FEF715F920624C
:1036B000A4F1780404F164064FF00000B081D4F85E
:1036C000B84000BF00BF4046FCF784FD00BF00BF0C
:1036D000002CDAD100BF00BFFCF778FD804600BFA8
:1036E00000BF1948056800BF00BF4046FCF772FDE7
:1036F00000BF00BF12E000BF00BFFCF767FD8046BF
:1037000000BF00BF05F120060020B081AD6900BFF9
:1037100000BF4046FCF75EFD00BF00BF002DEAD1B0
:1037200002F0AAF802F0FEFA00203880BDE8F0812D
:10373000A6000020B8000020CC000020D800002007
:10374000EC340020C000002094000020F8B50446AE
:1037500000266946324800F015FCBDF8000018B19B
:10376000BDF800002080F8BD6A460021022000F06C
:1037700057FCBDF8000018B1BDF800002080F2E74A
:1037800000BF00BFFCF722FD064600BF00BF0020BF
:103790002449086000BF00BF3046FCF71BFD00BF96
:1037A00000BF00252048006820490968884205D9E3
:1037B0001D4800681D490968B0FBF1F525B91A4894
:1037C00000680A21B0FBF1F56A460021284600F0A6
:1037D00027FC6946124800F0C3F9BDF8000018B193
:1037E000BDF800002080BEE700BF00BFFCF7EEFC84
:1037F000064600BF00BF00200D4908600948006868
:103800000C49086001200C49087000BF00BF304619
:10381000FCF7E0FC00BF00BF0020208000BFA2E753
:1038200078390020A8000020A48300088C830008B9
:10383000B8000020AC000020B400002010B5034800
:10384000006810B101480068804710BD6400002086
:103850002DE9FF4F2DED028B85B004469146179F51
:10386000159EDDED198A9DED1A8ADDE91B85002084
:10387000029060480078002807DD47F24A1028804F
:1038800005B0BDEC028BBDE8FF8F1CB947F2AD104F
:103890002880F5E7B9F1000F03D147F24F102880D7
:1038A000EEE71EB946F62F602880E9E75248006827
:1038B000874203D246F630602880E1E71698B84286
:1038C00003D346F631602880DAE71498402803D302
:1038D00046F273202880D3E714983F2806D1474842
:1038E000844203D046F273202880C9E7204601F0C5
:1038F00045FC0020288018F0010F10D018F0020FAE
:103900000DD0B346049007E00020CBF800000BF187
:10391000040B0498401C04900498B842F4D3169801
:1039200006EB80000390CDE9007832464846039BC1
:103930000A9900F0CDFA8346C4F828909DED0A0A52
:1039400084ED0B0A9DED080A84ED080A149884F8AA
:103950003700C4F800B00398A060C4ED158A84ED68
:10396000018A6662A763A4F83C804FF0000A08E071
:10397000002104F17C0040F82A100AF1010000F057
:10398000FF0ABAF1000FF3D004F16400189900F0B7
:1039900081FE204600F038F800BF00BFFCF716FC9F
:1039A000029000BF00BF94F83710084601F024F8D9
:1039B000204601F099F8204601F096FB1048008857
:1039C000401C0F4908800F480078012807D000BF2D
:1039D00000BF0298FCF7FEFB00BF00BF50E700BF2E
:1039E00000BF0298FCF7F6FB00BF00BFFFF7CEFB5D
:1039F00000BF45E774000020A08300082C3400209D
:103A0000C40000207500002010B50446034800687B
:103A100018B1204601490968884710BD54000020AC
:103A200070B504460D46002643480078002803DDA3
:103A300047F24E10288070BD4048844203D147F2BF
:103A40004C102880F7E77CB900BF00BFFCF7BEFB35
:103A5000064600BF00BF3A48046800BF00BF3046BA
:103A6000FCF7B8FB00BF00BF00BF00BFFCF7AEFB18
:103A7000064600BF00BF94F8360008282DD2DFE8C4
:103A800000F004090E10080A0F11204601F04AF850
:103A90002EE02DE000BF204601F0D2FE28E000BF5E
:103AA00000BF00BF204601F0CBFE94F83400082888
:103AB00010D2DFE800F004070508090A0B0600BF72
:103AC00000BF08E000BF00BF00BF00BF204600F0FD
:103AD000B7FE00E000BF00BF0AE000BF00BF3046F5
:103AE000FCF778FB00BF00BF46F62D602880A2E7F8
:103AF00000BF04F1640000F0ABFD204600F024F8A4
:103B0000204601F009FB0F480088401E0D4908803F
:103B1000204601F033FBFF2084F8360000BF00BFD1
:103B20003046FCF757FB00BF00BF00202880FFF79E
:103B30002DFB00BF7FE70000740000202C34002024
:103B4000E8000020C400002010B5044603480068C7
:103B500018B1204601490968884710BD5800002067
:103B600070B504460D46002615480078002803DD90
:103B700047F25510288070BD00BF00BFFCF726FB40
:103B8000064600BF00BF1CB10E48006884420AD13F
:103B900000BF00BF3046FCF71DFB00BF00BF47F26F
:103BA00057102880E7E700BF00BF3046FCF712FB44
:103BB00000BF00BF2946204601F056FB00BFDAE7F0
:103BC00074000020E800002010B504460348006897
:103BD00018B1204601490968884710BD5C000020E3
:103BE0002DE9F04780460E4614461D464FF0000969
:103BF0006F480078002805DD46F2AE1028800020CE
:103C0000BDE8F0871EB1B6F5004F02D100E000BF5D
:103C100004E045F6256028800020F1E700BF0CB1E4
:103C20000020206000BF00BFFCF7D0FA814600BF33
:103C300000BF60480068406CA8B35E480068406CF4
:103C4000401E5C49096848645A480068476C1CB1CA
:103C500058480068006C2060FDF73EFE5549096831
:103C6000096C401A53490968C1F8A400514800681A
:103C7000D0F8A8004F490968D1F8A410884207D2AB
:103C80004C480068D0F8A4004A490968C1F8A80067
:103C900000BF00BF4846FCF79DFA00BF00BF0020F0
:103CA00028803846ACE7FFE716F4004F0BD000BF82
:103CB00000BF4846FCF78EFA00BF00BF46F2B010C6
:103CC000288000209CE73C48007800280BDD00BFDE
:103CD00000BF4846FCF77EFA00BF00BF46F66350BF
:103CE000288000208CE7434607220021084600F088
:103CF000E5FC00BF00BF4846FCF76CFA00BF00BF00
:103D0000FFF744FA00BF00BFFCF760FA814600BF2E
:103D100000BF2848006890F8350020B1012826D05F
:103D2000032834D12CE0FCB122480068006C2060EC
:103D3000FDF7D2FD1F490968096C401A1D49096841
:103D4000C1F8A4001B480068D0F8A8001949096808
:103D5000D1F8A410884207D216480068D0F8A40011
:103D600014490968C1F8A8000020288013E01CB19C
:103D700010480068006C206046F2A91028800AE014
:103D80000CB10020206047F2D920288003E046F6DD
:103D90002E60288000BF00BF06480068476C00BF47
:103DA00000BF4846FCF716FA00BF00BF384627E7B9
:103DB00074000020E80000209A0000202DE9F04166
:103DC00006460D4614461DB1B5F5004F02D100E080
:103DD00000BF05E045F6256020800020BDE8F081A9
:103DE00000BFFDF779FD804623464246294630460E
:103DF00001F0C6FA07463846F0E700002DE9F04723
:103E000005460E4617461C464FF0000A2E4800781D
:103E1000002804DD47F259102080BDE8F0871EB964
:103E200046F2D5202080F8E71FB946F2D520208041
:103E3000F3E700BF00BFFCF7C9F9824600BF00BF2F
:103E40000DB922480568286868B900BF00BF504610
:103E5000FCF7C0F900BF00BF00203060386047F2B7
:103E600052102080D9E7A88F10F0010F0DD100BFAC
:103E700000BF5046FCF7AEF900BF00BF0020306025
:103E8000386047F254102080C7E700BF00BF50469B
:103E9000FCF7A0F900BF00BF4FF00008D5F8249050
:103EA00003E009F1040908F10108D9F8000000282D
:103EB000F7D0C6F80080A86BA0EB0800386000209F
:103EC000208000BFA9E7000074000020E800002067
:103ED000F0B50446DDE9055C02EB850020F0070043
:103EE0004FF08077061F30463760061F304634603B
:103EF000234F061F304637604FF01237061F3046FB
:103F000037604FF00337061F304637604FF00237F7
:103F1000061F30463760061F30463360061F3046A6
:103F200031604FF01137061F304637604FF01037C1
:103F3000061F304637604FF00937061F304637609E
:103F40004FF00837061F304637604FF00737061F1F
:103F5000304637604FF00637061F304637604FF067
:103F60000537061F304637604FF00437061F3046CE
:103F700037606FF00207061F30463760F0BD000063
:103F80006953000870B505460C460A4800780028B9
:103F900003DD47F25D10208070BD0748854203D1E4
:103FA00047F25B102080F7E72146284601F0CAFA65
:103FB00000BFF1E7740000202C34002010B5154834
:103FC000006810B1134800688047FDF785FC04467F
:103FD0001148006811490968884215D00E480068E8
:103FE000D0F89800201A0C490968C1F894000A48D2
:103FF0000068D0F89C0008490968D1F8941008447A
:1040000005490968C1F89C0004480068C0F8984058
:1040100010BD000068000020E8000020EC00002037
:104020002DE9F04105460E46144600272A4800783F
:10403000002804DD47F275202080BDE8F081274884
:104040000078002803DD46F663502080F5E736B19E
:10405000022E05D0042E0AD0082E09D101E000BF9F
:1040600000BF1DB947F27E202080E6E704E003E0B0
:1040700045F625602080E0E700BF00BF00BFFCF7E9
:10408000A5F8074600BF00BF01201549096881F85F
:1040900036002346324629461148006801F0F2FAFC
:1040A000208838B100BF00BF3846FCF793F800BF46
:1040B00000BFC2E70A48006800F034FD00BF00BF3F
:1040C0003846FCF787F800BF00BFFFF75FF8002015
:1040D000208000BFB1E70000740000209A0000209B
:1040E000E80000202DE9FF5F05460E46174698467A
:1040F000DDE90EA4002000905D480078002804DD72
:1041000047F275202080BDE8FF9F5A4800780028BC
:1041100003DD46F663502080F5E70AF00E0BBBF195
:10412000000F09D0BBF1020F07D0BBF1040F10D074
:10413000BBF1080F0ED101E000BF00BFB8F1000FC6
:1041400006D12FB926B91DB947F27E202080DAE7C3
:1041500004E003E045F625602080D4E700BF3AF094
:104160001E0001D0012000E00020039003980128E8
:1041700003D145F625602080C5E7CAF30010029000
:104180000298012818D0B8F57A7F03D347F27B2034
:104190002080B8E73B2F03DD47F27A202080B2E78A
:1041A0003B2E03DD47F279202080ACE7632D12DD42
:1041B00047F278202080A6E742F20F70864203DDA6
:1041C00047F2792020809EE7B5F57A7F03DB47F23E
:1041D0007820208097E72848D0F800904FF4FA70B4
:1041E000B0FBF9F0404400FB09F04FF47A71B0FBEA
:1041F000F1F14FF461606843C6EB061200EB8200F8
:10420000384400FB09100190019860B300BF00BF63
:10421000FBF7DCFF009000BF00BF012017490968D1
:1042200081F8360023465A4614480199006801F087
:1042300029FA208838B100BF00BF0098FBF7CAFFF9
:1042400000BF00BF5FE70D48006800F06BFC00BFD7
:1042500000BF0098FBF7BEFF00BF00BFFEF796FF50
:104260000020208002E047F27E20208000BF4AE745
:10427000740000209A000020A4830008E8000020B9
:1042800008B500F01FF86A4600210A48FFF796FDBE
:1042900009480068401E084908600846006838B9A7
:1042A0000648006808606A4600210548FFF786FD59
:1042B00008BD0000B8380020E4000020E000002025
:1042C0007839002010B50348006810B10148006833
:1042D000804710BD6C00002010B5002401F014FFD1
:1042E00000BF00BFFBF772FF044600BF00BF0848D5
:1042F0000078401C0649087000BF00BF2046FBF74D
:1043000069FF00BF00BFFFF7BBFFFEF7D1FE10BD86
:104310007400002001464A1E4FF0E0235A61084A0B
:10432000106820F07F4000BF10601A46126942F00A
:1043300005021A611A46126942F002021A617047B8
:1043400020ED00E0244A2549254A264A2649274AE5
:104350002748284A284A294A294A2A482A482B4ACB
:104360002B482C4A2C482D4A2D482E482E482F48A1
:104370002F4A304A304A3148314A324A324833486B
:1043800033483448344835483548364A364A374A3F
:10439000374A384838483948394A3A4A3A4A3B480D
:1043A0003B483C483C493D483D4A3E4A3E4A3F4ADC
:1043B0003F4A404A404A4148414A424A42484348AB
:1043C000434A444A4448454A454A4648464847487D
:1043D00000BF00BF00BF7047E88300085085000899
:1043E000E9830008EA830008EC830008F0830008F2
:1043F000F4830008F18300081C8400081D84000871
:104400001E840008208400082284000826840008F6
:1044100028840008488400084A8400084C84000866
:104420004E84000850840008528400085484000818
:104430008084000881840008828400088484000845
:104440008684000887840008888400088A8400081D
:104450008C8400088E8400089084000892840008F0
:1044600094840008C4840008C5840008C684000839
:10447000C7840008C8840008CA840008CC840008E7
:10448000F4840008F5840008F6840008F784000826
:10449000F8840008FA840008FC84000800850008FD
:1044A00001850008028500080385000804850008CE
:1044B00005850008068500080785000808850008AE
:1044C0000A8500080B8500080C8500080E85000889
:1044D000108500081185000814850008488500082B
:1044E000498500084A8500084C8500084E8500086B
:1044F0000021034A1160034A1180018070470000C7
:10450000780000207C000020002400BF19E000BFDC
:1045100000BFFBF75BFE044600BF00BF0948006810
:10452000401C0849086008480068401C06490860AB
:1045300000BF00BF2046FBF74DFE00BF00BFFEF7E7
:10454000F3FCE4E770000020A800002010B58AB05A
:10455000044600200E4908600B2000210591CDE99A
:104560000704069108460B4909680B4A12680B4B71
:104570001B68CDE90132CDE903103F200023084A32
:1045800008A100900C48FFF763F90AB010BD0000C5
:10459000700000204C830008488300084483000812
:1045A0000945000875432F4F532D49494920496457
:1045B0006C65205461736B002C3400200021034A89
:1045C0001160034A118001807047000080000020C4
:1045D0008400002070B501461A4D2D681DB945F2C2
:1045E0001E750D8070BD184D2D881DB945F21D75C5
:1045F0000D80F7E7134D28682A681032124D2D8878
:104600006D1EACB2002308E0026000254560058104
:10461000C560103010325D1CABB2A342F4DB002544
:10462000056045600581C560064D2D68074E356003
:10463000054D2D88B5800025F58035810D8000BFA2
:10464000D0E70000848300087C830008EC3400205D
:1046500010B5014648894B89002B17DD0A680C4BC1
:104660001B6813600A4C4B6823602346DB884C8927
:104670001B1B074CE38023469B884C892344044C36
:10468000A38000234B818B810B604B6010BD000029
:10469000EC3400200181002242818281026042606C
:1046A000704700000021034A1160034A1180018015
:1046B00070470000880000208C0000202DE9F041A8
:1046C00005460C46164698461548006880F8346042
:1046D00000201349096881F83500414610480068F8
:1046E00000F0E6FC6CB104F10807EC6001222946F9
:1046F0000B48006800F016F82946384600F06DF8BF
:1047000006E0002006490968C8870549096808636A
:1047100003480168204600F019F8BDE8F081000068
:10472000E800002010B5C287016300230AE00024DE
:104730004C600C600C614C610C83CC618860203152
:104740005C1CA3B29342F2DB10BD000030B560B137
:10475000D0F804C0C1F8BCC000F108042268936816
:10476000D3F820C0C0F81CC013E091F83450022DDB
:1047700002D0072D08D103E006A5C1F8BC5007E020
:1047800006A5C1F8BC5003E007A5C1F8BC5000BFA6
:1047900000BF30BD5461736B205100005461736BD6
:1047A0002053656D000000002000000030B507A513
:1047B000C1F8BC5000F1080422681AB193681D6A60
:1047C000C56101E001A5C56130BD00002000000009
:1047D00000210160416001817047F0B58E6896F854
:1047E000375007893FB90127078100274F600F60C5
:1047F0000160416023E007897F1C0781026806E0B1
:10480000946894F83770AF4200DD02E05268002AE5
:10481000F6D100BF32B900274F6043680B60596082
:1048200041600CE017682FB9116000270F604A60E3
:10483000016004E013680B604A6059601160F0BDCC
:104840002DE9F0410446256BE68F0AE0D5F80C808F
:1048500008F108072946384600F00AF82035701E8E
:1048600086B2002EF2DC0020E0872063BDE8F081F4
:1048700010B50489012C03D100240460446011E0C8
:104880000C6824B94A680024146002600AE04C688D
:1048900024B90B6800245C60436003E00B684A683D
:1048A0005A6013600489641E048100244C600C600B
:1048B00010BDF0B52DED028B81B005460C461646B5
:1048C0001F469DED088A94F83600082857D2DFE885
:1048D00000F00405080906072E2F00BF00BF00BF27
:1048E0004EE000BF94F83400032808D18DED008A13
:1048F0003B4632462146284600F047F804E0E6658C
:10490000A4F8607084ED108A35B12046FFF798FF57
:1049100021462846FFF74AFF204600F097FC00207A
:1049200004F13404A070607004F8340928E000BF7A
:1049300094F83400032808D18DED008A3B463246B6
:104940002146284600F021F804E0E665A4F86070EE
:1049500084ED108A204600F073FF35B12046FFF742
:104960006FFF21462846FFF721FF042004F134049D
:10497000A0704FF00000607004F8340900E000BF40
:1049800000BF01B0BDEC028BF0BD70B504469DEDDB
:10499000040A086BCD8F0BE0C668A64205D10461FE
:1049A0004261038380ED070A04E020306E1EB5B239
:1049B000002DF1DC00BF70BD70B50025074C03E091
:1049C00005F12000C5B2241D20680028F8D0206819
:1049D000FBF707FC2844C5B2284670BD4C000020F8
:1049E000002004E00021034A42F82010401C022865
:1049F000F8D370474C00002030B5420900F01F0387
:104A00000121C3F11F04A140034C54F822400C4380
:104A1000014D45F8224030BD4C00002030B5420920
:104A200000F01F030121C3F11F04A140034C54F8FF
:104A300022408C43014D45F8224030BD4C000020FF
:104A40000021034A1160034A118001807047000071
:104A5000940000209800002000210AE001EB4102B0
:104A6000054B03EB820000220281026042604A1C77
:104A7000D1B24029F2D37047F834002010B5044673
:104A800094F83700FFF7B8FF94F837000549097824
:104A9000884203D1204600F027F802E0204600F0CB
:104AA00003F810BD8E00002010B590F8373003EBEE
:104AB00043030C4C04EB83010B893BB901230B81AD
:104AC0000023C36003610860486009E00B895B1C38
:104AD0000B810B68C360002303610A6810610860E2
:104AE00010BD0000F834002010B590F8373003EB0B
:104AF00043030B4C04EB83010B893BB901230B816E
:104B00000023C36003610860486008E00B895B1CF8
:104B10000B810023C3604A680261D060486010BD09
:104B2000F83400202DE9F041054695F8370000EBF8
:104B30004000124901EB80042F69EE6887B946B93D
:104B4000002020812060606095F83700FFF766FF45
:104B50000EE02089401E208100203061266007E0A1
:104B60002089401E2081FE600EB9676000E0376139
:104B700000202861E860BDE8F0810000F8340020E2
:104B800009A1C161002141610849096811B90021E9
:104B9000816105E005490968816104490968486146
:104BA0000249086070470000200000009C000020BF
:104BB0000021034A1160034A118001807047000000
:104BC0009C000020A00000202DE9F04F2DED028B6D
:104BD00083B00446884691461D460020019000BFE0
:104BE00000BFFBF7F3FA019000BF00BF04F1080714
:104BF0003889002851D10420012804D0022816D079
:104C0000042836D125E0206AFF280FD100BF00BF5D
:104C10000198FBF7DFFA00BF00BF46F6C5502880B9
:104C2000002003B0BDEC028BBDE8F08F22E0206ACB
:104C3000A0F57F41FF390BD100BF00BF0198FBF702
:104C4000C9FA00BF00BF46F6C55028800020E8E73B
:104C500010E0206A401C0BD100BF00BF0198FBF799
:104C6000B9FA00BF00BF46F6C55028800020D8E73B
:104C700000E000BF00BF206A401C2062D4F820A0E2
:104C8000C4F8249000BF00BF0198FBF7A3FA00BF4F
:104C900000BF002028805046C3E718F4007F01D0F1
:104CA0003E8900E00126D7F800B010E0DBF80800EC
:104CB00002909BED018A00231A46CDF80090204611
:104CC0000299FFF7F6FD18EE10BA701E86B2002E9C
:104CD000ECD1D4F820A000BF00BF0198FBF77AFA0E
:104CE00000BF00BF18F4004F01D1FEF74FFA0020BB
:104CF0002880504695E7000086B00020009000BF55
:104D000006E0A9490968480001AA0021FFF788F9CF
:104D1000A64800780128F4D101A8FEF787FC0027F7
:104D2000A3480068A0490968884205D9A0480068DE
:104D30009D490968B0FBF1F727B99D4800680A2131
:104D4000B0FBF1F72EE1FCF7C7FD804600BF00BFC6
:104D5000FBF73CFA009000BF00BF964801689648F8
:104D6000016000209349086000BF00BF0098FBF776
:104D700031FA00BF00BF914800688F490968884236
:104D800048D98E4800688E49884205D242F2107098
:104D900003900120029023E08848006889498842F6
:104DA00005D24FF47A7003900A20029018E08348ED
:104DB00000688549884203D26420039002900FE086
:104DC0007E4800688149884205D20A2003904FF44A
:104DD0007A70029004E00120039042F21070029079
:104DE000764800680299B0FBF1FA734903980968A4
:104DF0004843B0FBFAF042F21071081A7449088077
:104E0000744800880988884208DA71480088714926
:104E1000088003E042F210706D490880FEF70EFD35
:104E2000002500BF00BFFBF7D1F9009000BF00BF15
:104E30006948046800BF00BF0098FBF7CBF900BFCA
:104E400000BF26E000BF00BFFBF7C0F9009000BF25
:104E500000BF54F89C0F6060002044F89C0900BF1C
:104E600000BF0098FBF7B6F900BF00BFD4F8A00060
:104E7000054400BF00BFFBF7A9F9009000BF00BFC9
:104E8000D4F8B84000BF00BF0098FBF7A3F900BFFB
:104E900000BF002CD6D145B34948854205D242F225
:104EA000107005904FF0010B1BE04648854205D27B
:104EB0004FF47A7005904FF00A0B12E04248854299
:104EC00003D26420059083460BE04048854204D21B
:104ED0000A2005904FF47A7B03E00120059042F20E
:104EE000107BB5FBFBF0049003E00020059001204F
:104EF000049000BF00BFFBF769F9009000BF00BF3E
:104F00003548046800BF00BF0098FBF763F900BF95
:104F100000BF2BE0D4F8A000059948430499B0FBEA
:104F2000F1F086B242F21070864200D90646A4F82B
:104F30008C60B4F88E00B04201DAA4F88E6001AB48
:104F400004F1AC02111D2046FEF758FF00BF00BF60
:104F5000FBF73CF9009000BF00BFD4F8B84000BF99
:104F600000BF0098FBF736F900BF00BF002CD1D17D
:104F70001A480078012805D100201849087001A8B6
:104F8000FEF754FBFCF7A8FCA0EB080914480068E6
:104F9000484502D21248C0F8009001AA00213846C4
:104FA000FFF73EF8CFE600008C830008B400002035
:104FB000A4830008A8000020B0000020AC0000205E
:104FC000801A060000093D00005A62020084D717CB
:104FD000A4000020A6000020C0000020A2000020A5
:104FE000B800002010B58AB0044600201F490860B0
:104FF0001F4908601F4908601F4908701F49087051
:105000001F48006820B946F62B6020800AB010BD0A
:105010001C4800681C490968884203D246F62C6087
:105020002080F3E7194800783F2803D346F62A602A
:105030002080EBE7032000210591CDE907040691CC
:10504000084610490968124A12680D4B1B68CDE9E1
:105050000132CDE903100D48007800230D4A0EA15E
:1050600000901248FEF7F4FB00BFCFE7A800002035
:10507000B0000020AC000020B4000020A2000020FE
:105080009083000898830008A083000888830008A4
:1050900094830008F94C000875432F4F532D49495C
:1050A000492053746174205461736B00F8370020F9
:1050B00038B504460D4685B16B4602222946204686
:1050C00000F0E0FABDF8000018B9032084F83600BB
:1050D00006E0022084F8360002E0022084F8360060
:1050E0002046FFF71FFD38BD0021C0F8B410094964
:1050F000096819B90021C0F8B81007E00549096826
:10510000C0F8B81003490968C1F8B4000149086043
:1051100070470000C0000020D0F8B420D0F8B810CC
:105120004AB90D4B196011B10023C1F8B430002306
:10513000C0F8B8300FE029B90023C2F8B830C0F881
:10514000B43008E0C2F8B810C1F8B4200023C0F8A9
:10515000B830C0F8B4307047C00000200021044AC5
:105160001160044A1180044A1160018070470000F8
:10517000C0000020C4000020BC00002070B5044620
:1051800000202060A0606060E06020616061A0613C
:10519000E0612BA0206200206062A062E0622063D8
:1051A000E0872064E065A4F86000002104F1640059
:1051B000FFF770FA002044F8740F6060E060A0828E
:1051C0002061A4F17404054606E0002104F17C008E
:1051D00040F82510681CC5B2002DF6D0002004F15F
:1051E0003404206120676067606084F85600E067DF
:1051F000A06720814FF0004060614FF00000A06187
:10520000E06120626062A4F85800A4F85A00E065EA
:105210002066FCF761FB064666660020A0662070EB
:105220006070A0704020E0700020C4F88000C4F8D6
:10523000840005A0C4F88800A4F1340470BD000007
:105240003F5461736B0000002000000010B504465D
:10525000204600F0F5FA94F8360010F0040F02D161
:105260002046FFF70BFC10BD70B504460D46002626
:1052700000BF00BFFAF7AAFF064600BF00BF00202C
:10528000288094F8360008285ED2DFE800F0040594
:1052900006071227394B00BF00BF00BF00BF00BF89
:1052A0003046FAF797FF00BF00BF47F2531028803F
:1052B00055E014F88A0F401E207014F88A0928B9A6
:1052C000002084F836002046FFF7C0FF00BF00BF73
:1052D0003046FAF77FFF00BF00BF40E014F88A0FA6
:1052E000401E207014F88A0910B9012084F8360095
:1052F00000BF00BF3046FAF76DFF00BF00BF2EE0D1
:1053000014F88A0F401E207014F88A0910B9022080
:1053100084F8360000BF00BF3046FAF75BFF00BFDD
:1053200000BF1CE014F88A0F401E207014F88A0990
:1053300010B9032084F8360000BF00BF3046FAF7EA
:1053400049FF00BF00BF0AE000BF00BF3046FAF7C8
:1053500041FF00BF00BF46F62D60288070BD00BF32
:10536000FDF714FF00BFF9E708B504480068FEF731
:105370002BFC69460020FEF753FB08BDE800002027
:105380002DE9F8430446884617461D464FF00009AC
:1053900000BF00BFFAF71AFF814600BF00BF0CB97B
:1053A0006748046827640020288094F8360008289D
:1053B00075D2DFE800F0040550510607525300BFD4
:1053C00000BF00BF0420012804D0022813D0042805
:1053D00033D122E0606CFF280CD100BF00BF4846EB
:1053E000FAF7F8FE00BF00BF46F6C550288000203F
:1053F000BDE8F88322E0606CA0F57F41FF390BD156
:1054000000BF00BF4846FAF7E5FE00BF00BF46F602
:10541000C55028800020EBE710E0606C401C0BD1E9
:1054200000BF00BF4846FAF7D5FE00BF00BF46F6F2
:10543000C55028800020DBE700E000BF00BF606CA3
:10544000401C6064666C00BF00BF4846FAF7C2FEAD
:1054500000BF00BF70E000BF00BF00BF94F8340081
:10546000072814D100231A46214618460097FFF753
:1054700020FA666C00BF00BF4846FAF7ABFE00BFDB
:1054800000BF18F4004F4AD1FDF780FE47E004202A
:10549000012805D0022813D0042833D122E03FE0B0
:1054A000606CFF280BD100BF00BF4846FAF792FEA0
:1054B00000BF00BF46F6C5502880002098E722E0D4
:1054C000606CA0F57F41FF390BD100BF00BF48469B
:1054D000FAF780FE00BF00BF46F6C55028800020C6
:1054E00086E710E0606C401C0BD100BF00BF48464F
:1054F000FAF770FE00BF00BF46F6C55028800020B6
:1055000076E700E000BF00BF606C401C6064666C22
:1055100000BF00BF4846FAF75DFE00BF00BF0BE0CA
:1055200000BF00BF4846FAF755FE00BF00BF46F671
:105530002D602880002600BF00BF304658E70000DD
:10554000E800002070B504460D46002600BF00BFED
:10555000FAF73CFE064600BF00BF0CB93D480468A0
:105560003C48006884420ED13B48007800280ADDA0
:1055700000BF00BF3046FAF72DFE00BF00BF46F661
:105580006350288070BD0020288094F836000828D9
:1055900050D2DFE800F0041523313F40414204209F
:1055A00084F83600012084F88A002046FFF7BAFA12
:1055B00000BF00BF3046FAF70DFE00BF00BF44E059
:1055C000052084F83600012084F88A0000BF00BF5F
:1055D0003046FAF7FFFD00BF00BF36E0062084F832
:1055E0003600012084F88A0000BF00BF3046FAF779
:1055F000F1FD00BF00BF28E0072084F8360001203D
:1056000084F88A0000BF00BF3046FAF7E3FD00BF10
:1056100000BF1AE000BF00BF00BF94F88A00401C22
:1056200084F88A0000BF00BF3046FAF7D3FD00BF00
:1056300000BF0AE000BF00BF3046FAF7CBFD00BF55
:1056400000BF46F62D6028809CE700BFFDF79EFD59
:1056500000BF97E7E80000209A000020002108E042
:10566000064A02EBC100002202608280C2804A1C0E
:1056700091B2034A12889142F2DB70472431002034
:10568000BC8300082DE9F04F0C4616461D46042E3B
:105690001ED1DFF8A091D9F80090A4EB0909A9F177
:1056A000010313F5803F0DD94FF00009C0F84C906D
:1056B000C0F85090C0F81C9047F27E29A5F80090E1
:1056C000BDE8F08FC46403F10109C0F850903FE0D9
:1056D00084B3082E25D1D0F8489009EB0407DFF8F1
:1056E0005491D9F80090A7EB0909A9F10103A3424D
:1056F00001D2C76406E0DFF83C91D9F80090A144DC
:10570000C0F84C90DFF82CA1D0F84C90DAF800A04B
:10571000A9EB0A09C0F85090D0F84C90C0F8489016
:1057200016E0DFF81091D9F80090A144C0F84C9031
:1057300004650DE0FFE74FF00009C0F84C90C0F899
:105740005090C0F81C9047F27E29A5F80090B7E76A
:10575000DFF8E4A0BAF800A0D0F84C90B9FBFAFB4F
:105760000AFB1B991FFA89F8DFF8D09009EBC802F1
:10577000B2F80490B9F1000F0BD14FF00009C0F856
:105780001490C0F8189010604FF00109A2F804902E
:105790003EE0116834E0DFF89CA0D1F84C90DAF8D4
:1057A00000A0A9EB0A09C1F85090D0F85090D1F8A8
:1057B00050A0D1450ED9D1F81490B9F1000F01D005
:1057C00049691DE04FF00009C0F8149081614861FB
:1057D000002115E0D1F81890B9F1000F07D14FF072
:1057E0000009C0F8189041618861106007E0D1F8A5
:1057F00018C0C0F818C04161CCF8140088610021BD
:105800000029C8D1B2F8049009F10109A2F8049066
:10581000B2F80690B2F804A0D14503DAB2F80490C9
:10582000A2F80690C2614FF00009A5F8009000BFF1
:1058300046E70000C8000020BC8300082431002097
:1058400010B5C269BAB1002404651468844205D158
:105850004169116039B100248C6104E081694369B8
:105860004B6103B19961002444618461C461C464E3
:105870009488641E948010BD002006E0054A02EB67
:10588000C0010022CA80421C90B2034A1288904292
:10589000F4DB704724310020BC8300082DE9F04779
:1058A0002DED028B4FF0000A00BF00BFFAF78EFC0F
:1058B000824600BF00BFFCF70FF805465E4800684F
:1058C000401C5D490860084600685C490988B0FBD7
:1058D000F1F201FB12001FFA80F8594800EBC807EB
:1058E0003C684FF000098FE0002C7CD094ED058AD5
:1058F00094F83600082877D2DFE800F00408051C89
:105900000642075600BF00BF00BF77E04A49E06C7F
:105910000968401A20654849E06C0968884206D148
:10592000002084F836002046FFF790FC01E04FF09D
:10593000010963E04049E06C0968401A20653E496E
:10594000E06C0968884218D10020E065A4F8600086
:10595000FBF7C2FF20642046FEF772FF2046FFF7E8
:1059600075FC002004F13404A0704FF00300607057
:105970004FF0000004F8340901E04FF001093DE068
:105980002D49E06C0968401A20652B49E06C0968D4
:10599000884206D1042084F836002046FFF750FFE5
:1059A00001E04FF0010929E02349E06C0968401A41
:1059B00020652149E06C096888421BD10020E06520
:1059C000A4F86000FBF788FF20642046FEF738FF4C
:1059D0002046FFF735FF042004F13404A0704FF097
:1059E0000300607001E00DE007E04FF0000004F8F4
:1059F000340901E04FF0010900E000BF00BF18EEDC
:105A0000104A01E04FF00109B9F1000F3FF46CAF0B
:105A1000FBF762FF461B0B480068B04201D2094801
:105A2000066000BF00BF5046FAF7D4FB00BF00BFBE
:105A3000BDEC028BBDE8F087C8000020BC830008E5
:105A400024310020CC0000201CB500BF0EE001ABCB
:105A50006A4600210846FEF7C3F8BDF8040028B9DD
:105A600003480078012801D1FFF718FFEFE7000095
:105A70007500002010B58AB0044600201D4908605A
:105A80001D490860FFF7EAFD1C48006820B947F28D
:105A9000122020800AB010BD194800681949096811
:105AA000884203D247F213202080F3E7164800789B
:105AB0003F2803D347F211202080EBE70B20002181
:105AC00005910A46CDE9070406910D4800680F4983
:105AD00009680A4B1B68CDE90131CDE903020A4888
