:020000040800F2
:10000000008700209D01000811240008651C0008DD
:10001000B92300085D1500082D4D00080000000000
:10002000000000000000000000000000A9460008D9
:1000300015170008000000005B0B0008BD32000827
:10004000B7010008B7010008B7010008B7010008B0
:10005000B7010008B7010008B7010008B7010008A0
:10006000B7010008B7010008B7010008B701000890
:10007000B7010008B7010008B7010008B701000880
:10008000B7010008B7010008B7010008B701000870
:10009000B7010008B7010008B7010008B701000860
:1000A000B7010008B7010008B7010008B701000850
:1000B000B7010008B7010008B7010008B701000840
:1000C000B7010008B7010008B7010008B701000830
:1000D000B7010008C54A0008B7010008B7010008C9
:1000E000B7010008B7010008B7010008B701000810
:1000F000B7010008B7010008B7010008B701000800
:10010000B7010008B7010008B7010008B7010008EF
:10011000B7010008B7010008B7010008B7010008DF
:10012000B701000849160008B7010008B701000828
:10013000B7010008B7010008B7010008B7010008BF
:10014000B7010008B7010008B7010008B7010008AF
:10015000B7010008B7010008B7010008B70100089F
:10016000B7010008B7010008B7010008B70100088F
:10017000B7010008B7010008B7010008B70100087F
:10018000B7010008B7010008DFF80CD000F08AFCC6
:10019000004800473964000800870020064880476F
:1001A00006480047FEE7FEE7FEE7FEE7FEE7FEE75C
:1001B000FEE7FEE7FEE7FEE7C14700088901000809
:1001C00072B6704762B67047EFF3108072B6704730
:1001D00080F31088704730BF704720BF7047B0FA77
:1001E00080F0704790FAA0F0B0FA80F0704790FA73
:1001F000A0F07047002800D17047002900D1704757
:10020000002A00D170472DE9F81F00F0030301F028
:100210000304A34211D1C3F1040303F00303012B30
:100220001DD3012A00D2F2E011F8014B00F8014B76
:10023000A3F10103A2F10102F1E700F0010301F0D3
:100240000104A34200D094E0012B44D311F8014BE8
:1002500000F8014BA3F10103A2F10102F4E7B2F5AA
:10026000B47F26D3B1E8F81FA0E8F81FB1E8F81F63
:10027000A0E8F81FB1E8F81FA0E8F81FB1E8F81FE0
:10028000A0E8F81FB1E8F81FA0E8F81FB1E8F81FD0
:10029000A0E8F81FB1E8F81FA0E8F81FB1E8F81FC0
:1002A000A0E8F81FB1E8F81FA0E8F81FA2F5B472A3
:1002B000D5E7282A06D3B1E8F81FA0E8F81FA2F175
:1002C0002802F6E7042A06D351F8043B40F8043B21
:1002D000A2F10402F6E7202A42D331F8023B20F8CB
:1002E000023B31F8023B20F8023B31F8023B20F898
:1002F000023B31F8023B20F8023B31F8023B20F888
:10030000023B31F8023B20F8023B31F8023B20F877
:10031000023B31F8023B20F8023B31F8023B20F867
:10032000023B31F8023B20F8023B31F8023B20F857
:10033000023B31F8023B20F8023B31F8023B20F847
:10034000023B31F8023B20F8023B31F8023B20F837
:10035000023B31F8023B20F8023BA2F12002BAE74F
:10036000022A06D331F8023B20F8023BA2F1020236
:10037000F6E7102A42D311F8013B00F8013B11F8CF
:10038000013B00F8013B11F8013B00F8013B11F87B
:10039000013B00F8013B11F8013B00F8013B11F86B
:1003A000013B00F8013B11F8013B00F8013B11F85B
:1003B000013B00F8013B11F8013B00F8013B11F84B
:1003C000013B00F8013B11F8013B00F8013B11F83B
:1003D000013B00F8013B11F8013B00F8013B11F82B
:1003E000013B00F8013B11F8013B00F8013B11F81B
:1003F000013B00F8013BA2F11002BAE7012A06D343
:1004000011F8013B00F8013BA2F10102F6E7BDE85B
:10041000F81F70472DE9F05F0546002092469B4685
:1004200088460646814640241BE02846414647460A
:10043000224600F053FA52465B46801A994110D387
:1004400010461946224600F03AFA2D1A67EB0108C9
:100450004F4622460120002100F031FA17EB000937
:100460004E41201EA4F10104DFDC484631462A46F5
:100470004346BDE8F09F40EA01039B0703D009E033
:1004800008C9121F08C0042AFAD203E011F8013B80
:1004900000F8013B521EF9D2704730B50EE003461A
:1004A0000A4601E05B1C521C1C781578AC4201D155
:1004B000002CF7D115F0FF0F04D0401C0278002A61
:1004C000EDD1002030BDCAB20178914203D009B10C
:1004D000401CF9E7002070470146002000E0401C66
:1004E0000A5C002AFBD1704730B504460020034661
:1004F00000E05B1C934203D2E05CCD5C401BF8D073
:1005000030BD2DE9FE4F074681EA0300C00F0E46BD
:10051000019021F0004123F00044B81AA14105D216
:100520003846314617461E460B46024623F0004029
:10053000104304D13846314603B0BDE8F08F350D85
:10054000C5F30A00C3F30A510290401A00904028F4
:1005500068DAC3F3130040F4801B0198924620B17F
:100560000023D2EB030A63EB0B0B00985946C0F152
:100570004002504600F0A3F980460C4650465946CA
:10058000009A00F0BBF9C0197141EF1785EA1153C9
:100590003B4340D0019A52B3009A012A11DC002259
:1005A000801A4FF0004361EB055103EA05538018B0
:1005B000CDE9002341F580114246234600F0F3F9CE
:1005C000BAE72E050025401B61EB0601401941F5F5
:1005D0008012001852412818A6F5001343EB0201BF
:1005E00040EAD470294318EB0808644113E064081A
:1005F0004FEA38084FF0000244EAC0744FEA05534E
:10060000801A61EB0301801841F5801149084FEA17
:100610003000801859414246234603B0BDE8F04FF0
:1006200000F0B4B90198012240000023D0EB02028F
:1006300063EBE07301984FEAE074381A66EB04014B
:10064000EBE783F000435CE781F0004159E72DE9D7
:10065000FE4F81EA030421F0004504F0004423F03A
:1006600000414FF0000A009450EA050302D052EA1C
:10067000010304D10020014603B0BDE8F08FC1F3AF
:100680000A53C5F30A541C44A0FB02B3C5F3130577
:1006900045F4801CC1F3130141F480180CFB0233B4
:1006A00000FB083EA4F2F334810A930A41EA8C511C
:1006B00043EA88530194A1FB03474FEA9C2505FBBD
:1006C00003734FEA982601FB06373D05260545EAE8
:1006D0001435BBEB06016EEB0503850E920E45EA61
:1006E0008C1542EA8812A5FB0206261E67EB00075E
:1006F0000C0D44EA0334A41947EB1350C1F313065D
:100700004FF0000319464FEA033343EA165343EA16
:100710000403019CE5FB0201A4F10C040294009C7B
:100720004FEA0632CDE900A400F03DF9A4E72DE937
:10073000F04D81EA030404F0004B21F00047144619
:100740004FF0000A23F0004150EA070220D054EA9B
:1007500001021DD0C1F30A550246C1F31300C7F3CD
:100760000A56C7F3130340F4801143F48013A6EB39
:100770000508101BD64608F2FD3873EB010002D3C2
:1007800008F1010801E092185B41B8F1000F03DAAB
:1007900000200146BDE8F08D00204FF4801506468C
:1007A00007460EE0B2EB040C73EB010C04D3121BF2
:1007B000064363EB01032F436D084FEA30009218A4
:1007C0005B4150EA050CEDD152EA030012D082EAF7
:1007D000040083EA0105284303D100224FF00043BF
:1007E00008E0101B8B4102D20122002302E06FF0CF
:1007F000010253101AEB060047EB085110EB0A00F8
:1008000041EB0B01BDE8F04D00F0C0B80EB5C10FD3
:1008100080EAE0700844CA07002140F233438DE8C3
:100820000E000A460B4600F0BEF803B000BD00F013
:10083000004230F000400DD0C10D01F5607142EA78
:1008400001510022C0F31600520742EAD0024007CD
:100850001143704700200146704701F0004230B458
:1008600021F0004150EA010306D00B0DA3F560739F
:10087000C1F31301002B02DC30BC00207047440F91
:1008800044EAC104C100A01830BC00EBC35000F022
:1008900047B830B50B46014600202022012409E06C
:1008A00021FA02F59D4205D303FA02F5491B04FA29
:1008B00002F52844151EA2F10102F1DC30BD202A08
:1008C00004DB203A00FA02F1002070479140C2F1A7
:1008D000200320FA03F3194390407047202A04DBD9
:1008E000203A21FA02F00021704721FA02F3D040A9
:1008F000C2F120029140084319467047202A06DBC6
:10090000CB17203A41FA02F043EAE071704741FA0E
:1009100002F3D040C2F120029140084319467047CB
:100920000029A8BF7047401C490008BF20F0010003
:10093000704710B4B0FA80FC00FA0CF050EA0104E1
:1009400004BF10BC704749B1CCF1200421FA04F473
:1009500011FA0CF118BF012121430843A3EB0C014C
:10096000CB1D0106000A002BBEBF002010BC704743
:1009700000EBC35010440029A4BF10BC7047401CBA
:10098000490008BF20F0010010BC704710B5002BD3
:1009900008DA401C41F1000192185B411A4301D171
:1009A00020F0010010BD2DE9F04D92469B4611B19B
:1009B000B1FA81F202E0B0FA80F220329046FFF7FD
:1009C0007EFF06460F4640EA0A0041EA0B01524606
:1009D0005B46084303D130463946BDE8F08D1946E1
:1009E00052EA010015D0C8F140025046FFF776FFE9
:1009F00004460D46504659464246FFF760FF0843FD
:100A000001D0012000E00020044345EAE0752643C0
:100A10002F430A984FEAD625A0EB08000A304FEA88
:100A200046534FF0000245EA47554FEAD72402D516
:100A300000200146D1E7010550196141DDE9084573
:100A400000196941BDE8F04DA0E7C1F30A52C1F3B6
:100A5000130140F2FF3341F480119A4202DA002080
:100A60000146704740F233439A42A2F2334202DC1D
:100A70005242FFF733BFFFF722BF000030B5002915
:100A800004DB4FF00044404264EB0101002B04DB27
:100A90004FF00044524264EB0303994208BF904276
:100AA00030BD0000064C074D06E0E06840F0010351
:100AB00094E8070098471034AC42F6D3FFF768FB80
:100AC000206600084066000870B501EB020410F8CB
:100AD000015B15F0070301D110F8013B2A1106D183
:100AE00010F8012B03E010F8016B01F8016B5B1E9D
:100AF000F9D12B0705D40023521E0FD401F8013B76
:100B0000FAE710F8013B02F10202A1EB030303E054
:100B100013F8015B01F8015B521EF9D5A142D6D34F
:100B2000002070BD21484FF0FF010170002080F3CC
:100B300009881F48016881F308881E484FF08051DA
:100B4000016062B6FEE71B484FF0805101607047BC
:100B500018484FF080510160704772B6EFF309807A
:100B600050B11EF0100F08BF20ED108A734620E927
:100B7000F80F11490968086000B5104880475DF812
:100B800004EB0F480F490A7802700B480E490A68B7
:100B900002601068B0E8F80F9E461EF0100F08BF04
:100BA000B0EC108A80F3098862B6704722ED00E04D
:100BB000F000002004ED00E0E8000020893000088B
:100BC0009200002093000020EC00002070B5434C00
:100BD0002DED068B2069FFF72AFE41EC180B2068EB
:100BE000FFF725FE41EC100BB0EE481AF0EE681A44
:100BF00004F04EFA9FED3A9B51EC100B53EC192B7D
:100C0000FFF725FD9FED38AB53EC1A2BFFF78FFD57
:100C1000FFF723FE364D68612069FFF708FE41ECBF
:100C2000180BA068FFF703FE41EC100BB0EE481A5A
:100C3000F0EE681A04F02CFA53EC192B51EC100B5F
:100C4000FFF705FD53EC1A2BFFF771FDFFF705FECB
:100C5000284EA8617068FFF7EAFD41EC180B306878
:100C6000FFF7E5FD41EC100BB0EE481AF0EE681A04
:100C700004F00EFA51EC100BFFF7EFFDE8611E488F
:100C80002168814205DD95ED060AB1EE400A85ED49
:100C9000060AA168814205DD95ED050AB1EE400A1C
:100CA00085ED050AD4ED060A9FED140A60EE800A70
:100CB000C5ED080A94ED081A21EE000A85ED090A2F
:100CC00095ED050A01F04AF8D5ED090A95ED060AF9
:100CD000BDEC068BBDE8704001F0BEB808210020D5
:100CE000000000000080664000000060FB21094019
:100CF0001C010020E021002000F8FF4600007A3DA2
:100D0000564C00200127A0704FF4FA654FF00208FE
:100D10003E02A07820B101280DD002280AD17CE043
:100D20004FA000F04DFD29464FA000F05BFD0028CC
:100D300000D0A7708DE0607810B1012855D088E010
:100D400031464A4801F039FB49A000F039FD2A46F6
:100D50003146464800F0DFFC48A14448FFF79DFBC0
:100D600028B941A14148FFF798FB0028E8D03CA0F2
:100D700000F026FD29463CA000F034FD0028F6D006
:100D800084F8008040A000F01BFD294636A000F04A
:100D900029FD0028F6D03146344801F00EFB44A06E
:100DA00000F00EFD294630A000F01CFD0028F2D016
:100DB00042A000F005FD294643A000F013FD0028E5
:100DC000E9D044A000F0FCFC294627A000F00AFD71
:100DD0000028F6D044A000F0F3FC294622A000F041
:100DE00001FD0028F6D0677033E031461F4801F05E
:100DF000E4FA41A000F0E4FC2A4631461B4800F02A
:100E00008AFC5C21404801F0D8FA40A11748FFF75E
:100E100044FBF0B184F802801BE044F620613E48B8
:100E200000F05AFB4FF47A723146104800F073FC20
:100E30003AA10E48FFF731FB606038B100796328B2
:100E400004D13848017841F010010170324800F0B7
:100E500036FB4FF4FA7000F057FB5AE714000020FD
:100E600041542B52535400004F4B00000C220020E1
:100E700041542B43574D4F44453D32006E6F206324
:100E800068616E676500000041542B435753415021
:100E90003D225869616F53695A686F75222C22315F
:100EA0003233343536373839222C312C33000000B8
:100EB00041542B4349504D55583D310041542B432B
:100EC00049504D55583F00002B4349504D55583A15
:100ED0003100000041542B4349505345525645526E
:100EE0003D312C383038300041542B434950535455
:100EF0004F3D32383830000041542B434950535451
:100F000041545553000000000C2400202B4349504D
:100F10005354415455533A008C20002073796E632A
:100F200000000000020000203249082201F1080000
:100F3000FFF760F92F4904220839081DFFF75AF915
:100F40002C4DDFF8B080143D4FF0640A6888A8800B
:100F500005F11C0605F10C0905F1100BA98868883C
:100F6000814218D0642801D9A5F802A00024574670
:100F700036F814006988484390FBF7F0642800D9DC
:100F80006420C1B2601C05F049F8641CE4B2042C72
:100F9000EED36888A88000244FEA0B0736F81420A7
:100FA00038F8141040468A4214D0642902D95146B8
:100FB00020F814A088B2A988484390FBFAF064286E
:100FC00000D96420C1B2601C05F028F838F814007C
:100FD00026F8140019F80420395D8A4201D009F876
:100FE0000410641CE4B2042CD8D3052000F08CFA61
:100FF000B4E70000080100202DED108BA4B0D02034
:1010000005F05CF9CE4D0028287861D020F0010071
:10101000287004F0F5FE3C2005F050F9C94C00287A
:10102000207858D020F00100207004F055FEA14631
:10103000C54FC64CDFF818832E464FF0000A0DF15D
:10104000880B00BF01F05CF900F082FD00F082FF28
:1010500000F0A4FC30783146C2067CD598F8002018
:10106000D2063BD4C820B860BA48B0F9002000EEE0
:10107000102AB8EEC00A84ED010AB0F9022000EE91
:10108000102AB8EEC00A84ED030AB0F90420A2F5D4
:10109000804200EE102AB8EEC00A84ED050AB0F9CD
:1010A000082000EE102AB8EEC00A84ED070AB0F955
:1010B0000A2000EE102AB8EEC00A84ED090AB0F941
:1010C0000C0000EE100AB8EEC00A84ED0B0A0AE02C
:1010D00040F001009CE740F00100A5E7BA6812B9B2
:1010E00020F0100008709B48D4ED010AB0F90020F0
:1010F00000EE102AB8EEC00A70EE200AB6EE000A22
:1011000060EE800AC4ED010AB0F9022094ED031AE2
:1011100000EE902AF8EEE00A70EE810A60EE800A96
:10112000C4ED030AB0F9042094ED051A00EE902AEC
:10113000F8EEE00A70EE810A9FED871A70EEC10AA0
:1011400060EE800AC4ED050AB0F9082000EE902A8E
:10115000F8EEE00A00E02AE094ED071A70EE810A4A
:1011600060EE800AC4ED070AB0F90A2094ED091A6E
:1011700000EE902AF8EEE00A70EE810A60EE800A36
:10118000C4ED090AB0F90C0094ED0B1A00EE900AB8
:10119000F8EEE00A70EE810A20EE800A84ED0B0A78
:1011A000B868401EB860C82801D9C820B86099F84E
:1011B000000031780840C00701D000F097FB387874
:1011C000664AB0FBF2F302FB1302401C3870002A9F
:1011D0007DD1C821624801F0F0F8E06AFFF727FBF3
:1011E00041EC1E0B606AFFF722FB41EC1D0BE0692E
:1011F000FFF71DFB41EC110B8DED101B6069FFF734
:1012000016FB41EC110B8DED0E1BE068FFF70FFB99
:1012100041EC110B8DED0C1B6068FFF708FB41ECF6
:10122000110B504D8DED0A1BA868FFF700FB41EC38
:10123000110B8DED081B6868FFF7F9FA41EC1F0BE5
:101240002868FFF7F4FA41EC110B8DED061BA06A3C
:10125000FFF7EDFA41EC110B8DED041B206AFFF74F
:10126000E6FA41EC110B8DED021BA069FFF7DFFAE6
:1012700041EC110B8DED001B2069FFF7D8FA41EC12
:101280001C0BA068FFF7D3FA41EC1B0B2068FFF79B
:10129000CEFA41EC1A0B34480068FFF7C8FA41EC6B
:1012A000190B32480068FFF7C2FA41EC180B3048BE
:1012B0000068FFF7BCFA41EC100B1EA880EC04DBC1
:1012C0009DED101B8DED1C1B9DED0E1B00E02AE01B
:1012D0008DED1A1B9DED0C1B53EC102B8DED181B87
:1012E0009DED0A1B23498DED161B9DED081B1C4827
:1012F0008DED141B8DED12FB9DED061B8DED101B6E
:101300009DED041B8DED0E1B9DED021B8DED0C1B49
:101310009DED001B8DED0A1B8DEC0A8B03F018FD73
:101320000F4800F09BFA317888F800100022022361
:1013300011461046CDE900AB01F00CFF82E600003B
:101340000200002004000020F400002008210020FA
:1013500003000020B42000200000804640420F001F
:1013600024460020E0210020380100203401002024
:10137000300100203065000800220121014800F002
:1013800090B800008C2000202DE9F0438BB00024A1
:101390004FF0190906A809AE0325CDF80890059469
:1013A00070C01B4A0127CDE900524FF480781848DD
:1013B000CDE903872346174A17A1C03801F0C4FBC3
:1013C000194A042005948DE805020DF1180C164801
:1013D000ACE87000CDE903870023144A14A1C0389B
:1013E00001F0B2FB164A052005948DE805020DF1C7
:1013F00018091348A9E87000CDE903870023114AB2
:1014000011A1C03801F0A0FB0BB0BDE8F0830000D3
:10141000CC170020F90F0008417070205461736BE5
:101420002053616D706C65008C1C0020290F000832
:10143000417070205461736B204F75747075740027
:101440004C020020010D0008417070205461736B44
:1014500020436F6D6D00000008B504F023FC00F020
:101460008FF800F06DF8684601F018FBFFF78CFF6D
:10147000FFF782FF064D4FF4FA742878022802D154
:10148000012004F05BFD204600F03EF8F5E7000087
:10149000160000201FB5684603F0B0F8019804B0AC
:1014A00010BD08B58C4611466B46624601F07CF9CA
:1014B000BDF8000008B1002008BD012008BD08B536
:1014C0006A46002101F03EFABDF8000008B1002094
:1014D00008BD012008BD00001CB54FF47A725143CD
:1014E000084A00231268B1FBF2F101AA00921A46E1
:1014F00001F08CF9BDF8040008B100201CBD0120EA
:101500001CBD0000006500080EB542F210724FF4D9
:101510007A71904201D9104601E0884205D3B0FBB0
:10152000F1F293B201FB120201E083B2002202A9A0
:101530000020CDE90001014601F00CFE0EBD0000C7
:1015400010B5FFF7A7FF04490968BDE81040B0FBDC
:10155000F1F001F0C7BE000000650008FEE70000E2
:1015600010B50021054800F09FF8002000F05EF85B
:10157000BDE81040002000F04BB800002864024095
:10158000044910B50020086000F01CF8BDE81040C8
:1015900000F002B84C00002010B5FEF715FE04461E
:1015A0001021044800F009FF2046BDE81040FEF776
:1015B0000FBE0000C02C00200149086070470000E9
:1015C0004C00002010B5FFF765FF08490A6842F09B
:1015D00080720A60064900224A600A6842F00102ED
:1015E0000A60BDE81040FFF7E7BF0000FCED00E037
:1015F000001000E00148406870470000001000E063
:1016000008B100207047014870470000682400209E
:1016100005490028086802D040F0010001E020F0F0
:1016200001000860704700000000055005490028CF
:10163000086802D040F4804001E020F48040086057
:10164000704700000000055070B5094C094D214657
:10165000284600F033F8002808D02146284600F03C
:101660000DF8FFF77DFF04490120087070BD0000F0
:10167000008800102864024001000020074A9042C0
:1016800001D2074801E005481038064A8B0001EAFC
:10169000020101D5C160704781607047106402404B
:1016A000006002407D0F7D0F0029016802D041F0EB
:1016B000010101E021F001010160704710B5114AFC
:1016C0000024904201D2104A01E00E4A103A0F4B1A
:1016D000194206D01E2303EAD12C036803EA0C0347
:1016E00002E0406900F08003880001D5506800E006
:1016F0001068074A1040084201D003B10124204677
:1017000010BD000010640240006002403C0F3C0F1E
:101710007D0F7D0F70472DE9F8434FF00004074619
:101720008846160025460BD01146032004F0ECFC39
:1017300004F0B6FA11E004F0B3FA022D03D00BE086
:1017400004F0AEFA0FE0032004F098FA58B100203C
:101750003855E0B2BDE8F8832EB1032004F08EFACC
:1017600008B10020F6E76946002004F011FD0028CA
:10177000E1D08DB1012D1BD0022DDCD1052103203C
:1017800004F0C2FCA8F101008442D4DA9DF8000004
:101790003855641CA4B2CEE79DF800000D2803D094
:1017A000012504F07DFAD7E73855641CA4B203E0A4
:1017B0009DF800000D28BED1022504F071FAC2E7A1
:1017C00010B50446FEF788FE82B22146002004F0E0
:1017D00005FD0222BDE810400149002004F0FEBCD6
:1017E00098640008F0B5C1B00E4607460024FEF725
:1017F00073FE0546FF280CD876B13146032004F06D
:1018000083FC00BF04F04CFA46B1032004F036FA22
:1018100020B1002041B0F0BD04F042FA40A9002000
:1018200004F0B6FC0028EDD09DF800010A2808D08D
:10183000FF2CE7D82028E5D30DF80400641CA4B2DF
:10184000E0E7002CDED02A4639466846FEF74CFE1B
:1018500008B10024D6E70120DCE7000070B504469B
:101860001A488078022830D144F620611848FFF7E2
:1018700033FE4FF480752946164800F09EFD204641
:10188000FEF72AFE024614A1124803F061FA11483D
:10189000FFF796FF2946144800F08FFD4FF4FA62D7
:1018A00029461148FFF737FF3E210F48FEF70BFE90
:1018B00010B12046FFF784FF29460B4800F07DFD5C
:1018C000BDE870400248FFF7FABD70BD140000206B
:1018D0008C2000200C23002041542B4349505345B9
:1018E0004E443D302C2564000C22002010B5FFF73B
:1018F0006DF902480188491C018010BD18010020C3
:10190000F0B5002201234FF0030C00BF0D6803FA6D
:1019100002F42540A5422DD1066854000CFA04F5C6
:10192000AE4306600E790768A6403E4306600E7916
:10193000012E01D0022E12D18668AE4386604D7909
:101940008668A54035438560456803FA02F6B543CD
:10195000456045688E799640B6B235434560C568A6
:1019600056000CFA06F7BD43C560CD79A540C468A2
:101970002543C560521C102AC8D3F0BD4B07DB0EAF
:101980009A40C90810B500EB8100016A0F249C4001
:10199000A1430162016A1143016210BDF0B51C222E
:1019A0002DED068B87B00021684600F00BFD5649EF
:1019B0001C220C46A1F11C00FEF75DFD52491C22C1
:1019C0001C310D462046FEF756FD4F491C2238318A
:1019D0000E462846FEF74FFD4B491C2254310C465B
:1019E0003046FEF748FD48491C2238392046FEF7AC
:1019F00042FD4548444C1C3884340188828BB0F841
:101A000054301144028F1A441144B0F8702011442C
:101A10000DB2ADF800504188C28BB0F85630114479
:101A2000428F1A441144B0F8722011440EB2ADF83E
:101A300002608188028CB0F858301144828FB0F86F
:101A400074001A441144084407B2ADF80470606889
:101A5000FEF7EDFE41EC180B2068FEF7E8FE41ECC6
:101A6000190B2846FEF7D2FE9FED28AB53EC1A2B3C
:101A7000FEF75DFE53EC192BFEF7E9FD53EC182B36
:101A8000FEF73FFDFEF7E9FEA4F114052860E068CB
:101A9000FEF7CDFE41EC180BA068FEF7C8FE41EC46
:101AA000190B3046FEF7B2FE53EC1A2BFEF73FFE41
:101AB00053EC192BFEF7CBFD53EC182BFEF721FD51
:101AC000FEF7CBFE68606069FEF7B1FE41EC190BD2
:101AD0002069FEF7ACFE41EC180B3846FEF796FE87
:101AE00053EC1A2BFEF723FE53EC182BFEF7AFFD39
:101AF00053EC192BFEF705FDFEF7AFFEA86007B00B
:101B0000BDEC068BF0BD000070210020000000003D
:101B10000000144010B5044604F050FC3C2004F0D2
:101B200023FC04F06DFC204604F01EFC04F068FC6D
:101B300004F044FC3D2004F017FC04F061FC04F0C8
:101B4000EFFB044604F0DAFB04F04CFC204610BD29
:101B50007CB504F033FC3C2004F006FC04F050FC9F
:101B6000032004F001FC04F04BFC04F027FC3D20B2
:101B700004F0FAFB04F044FC00246D4604F0D0FBB2
:101B8000285504F087FB641CE4B2062CF6D304F05D
:101B9000C7FB8DF8060004F0B1FB04F023FC9DF8B0
:101BA00001009DF8001000EB012001B2204801F275
:101BB000FF7501809DF803209DF8023002EB03229F
:101BC00012B282809DF805309DF8044003EB042397
:101BD0001BB243809DF80640847440F6FF74A54212
:101BE00009D2B0F90C50A94200DD8181B0F906504C
:101BF000A94200DAC18003F2FF71A14209D2B0F913
:101C00000E108B4200DDC381B0F908108B4200DA60
:101C1000038102F2FF71A14209D2B0F910108A4289
:101C200000DD0282B0F90A108A4200DA42817CBDEE
:101C30003821002070B505460C4604F0BFFB3C205F
:101C400004F092FB04F0DCFB284604F08DFB04F06A
:101C5000D7FB204604F088FB04F0D2FBBDE87040BF
:101C600004F0C0BB114906A20020135C8B800B88D6
:101C70005B06FCD5401CC0B22A28F6D3FEE7000064
:101C80000D0A456E74657220486172644661756C18
:101C9000745F48616E646C65722C2053797374654F
:101CA0006D2048616C742E0D0A0000000010014088
:101CB00070B5012186B0084602F088FC0121102091
:101CC00002F090FC234E072209213046FFF756FE12
:101CD00007220A213046FFF751FE00248DF8064006
:101CE00001208DF80700022540028DF80450009075
:101CF0008DF8055069463046FFF702FE68020090F5
:101D00008DF8045069463046FFF7FAFD4FF416503F
:101D1000ADF80C400290ADF80E40ADF81040ADF8B3
:101D200014400C200C4CADF8120002A9204602F021
:101D30001BFF012240F22551204602F0FCFE01214A
:101D4000204602F0C8FE4021204602F0C1FE06B047
:101D500070BD000000000240001001403C483D4AB8
:101D600000F15C0190ED0E3AD0ED044AD0ED0A3A54
:101D700030EEC31AD0ED011A41EE243A91ED011A6A
:101D800031EEC12AD1ED021A72EE615AC2ED005A4B
:101D900091ED032AF1EE422AC2ED012AC2ED022A98
:101DA00090ED025A02EEA41A42EEA41A82ED035AF2
:101DB00070EE632A91ED004A05EE242AC0ED0F2A49
:101DC000027805EEA44A04EE902A00EE102AF8EEFE
:101DD000644AB8EE400A21EEA46A24EE000A04EE3A
:101DE000902A80ED100A80ED116AF8EE644AD0ED79
:101DF000035A44EE805AC0ED125AC0EE254A80EDD7
:101E0000150A86EE255A05EE902A00F14C0204EEE2
:101E1000C04AF8EE655A44EEA23A61EE255AC0ED8A
:101E2000165A04EEE51AC2EC024A05EE652A05EEE2
:101E3000223A45EE401AA1EC014A81EC031A30EE39
:101E4000C30AC0ED0A3A80ED0E3A80ED0C0A7047E5
:101E50001C010020EC4600203C483D4A00F15C019A
:101E600090ED0E3AD0ED044AD0ED0B3A30EEC31AA5
:101E7000D0ED011A41EE243A91ED011A31EEC12A5A
:101E8000D1ED021A72EE615AC2ED005A91ED032AA9
:101E9000F1EE422AC2ED012AC2ED022A90ED025A69
:101EA00002EEA41A42EEA41A82ED035A70EE632ADF
:101EB00091ED004A05EE242AC0ED0F2A027805EEC6
:101EC000A44A04EE902A00EE102AF8EE644AB8EE16
:101ED000400A21EEA46A24EE000A04EE902A80ED66
:101EE000100A80ED116AF8EE644AD0ED035A44EE10
:101EF000805AC0ED125AC0EE254A80ED150A86EED2
:101F0000255A05EE902A00F14C0204EEC04AF8EE84
:101F1000655A44EEA23A61EE255AC0ED165A04EE17
:101F2000E51AC2EC024A05EE652A05EE223A45EEB4
:101F3000401AA1EC014A81EC031A30EEC30AC0ED4D
:101F40000B3A80ED0E3A80ED0D0A70471C0100201F
:101F5000EC4600202DE9F041D9490E220C46A1F1B2
:101F60000E00FEF788FAD6490E220E310D462046A5
:101F7000FEF781FAD2490E221C310C462846FEF7A4
:101F80007AFACF490E222A312046FEF774FACC495C
:101F90001C3901F14600B1F90020B0F900301A44B3
:101FA00002EBD272521012B20280B1F90230B0F9D3
:101FB0000240234403EBD3735B101BB24380B1F99F
:101FC0000440B0F904502C4404EBD474641024B2DF
:101FD0008480B1F90850B0F90860354405EBD57537
:101FE0006D102DB20581B1F90A60B0F90A703E4456
:101FF00006EBD676761036B24681B1F90C10B0F900
:102000000C70394401EBD17149100FFA81FCA0F832
:102010000CC030F9381C30F92A7C00EE101A00F19F
:102020000E01F8EEC00A91ED010A30EEC01A00EE82
:10203000907A30F91C7CF8EEE00A71EE200A30EE5E
:10204000C01A00EE907A30F90E7CF8EEE00A71EEDC
:10205000200A30EEC01A00EE907AF8EEE00A71EE37
:10206000200A30EEC01A00EE902A30F9362CF8EE35
:10207000E00A71EE200A30EEC00AFDEEC00A00EE62
:10208000102AB8EEC01A91ED030A30F9282C71EE2F
:10209000401A01EE102A30F91A2CB8EEC11A31EEAE
:1020A000811A71EE401A01EE102A30F90C2CB8EEAC
:1020B000C11A31EE811A71EE401A01EE102A30F980
:1020C000342CB8EEC11A31EE811A71EE401A01EECD
:1020D000103AB8EEC11A31EE811A31EE400ABDEE67
:1020E000C01A00EE102A30F9262CF8EEC01A91ED35
:1020F000050A31EEC02A01EE902A30F9182CF8EECC
:10210000E11A72EE211A31EEC02A01EE902A30F95E
:102110000A2CF8EEE11A72EE211A31EEC02A01EE15
:10212000902A30F9302CF8EEE11A72EE211A31EED5
:10213000C02A01EE904AF8EEE11A72EE211A31EE51
:10214000C00AFDEEC01A00EE102A30F9222CB8EEBB
:10215000C02A91ED070A72EE402A02EE102A30F9E9
:10216000142CB8EEC22A32EE822A72EE402A02EE17
:10217000102A30F9062CB8EEC22A32EE822A72EE0C
:10218000402A02EE102A30F92E2CB8EEC22A32EE86
:10219000822A72EE402A02EE105AB8EEC22A32EEBD
:1021A000822A32EE400ABDEEC02A00EE102AF8EE76
:1021B000C02A91ED090A30F9202CF8EEE00A32EE3F
:1021C000C03A02EE902A30F9122CF8EEE22A73EEB1
:1021D000222A32EEC03A02EE902A30F9042CF8EEB0
:1021E000E22A73EE222A32EEC03A02EE902A30F949
:1021F0002C2CF8EEE22A73EE222A32EEC03A02EEDE
:10220000906AF8EEE22A73EE222A32EEC00AFDEE60
:10221000C02A00EE102A30F91E2CB8EEC03A91ED1B
:102220000B0A73EE403A03EE102A30F9102C30F905
:10223000020CB8EEC33A33EE833A73EE403A03EE43
:10224000102AB8EEC33A33EE833A73EE403A03EE07
:10225000100AB8EEC33A33EE833A73EE403A03EE17
:1022600010CAB8EEC33A33EE833A33EE400ABDEEFD
:10227000C03AB1EE040AC0EE803AF8EEC10A80EE30
:10228000801AF8EEE10AC1ED003A81ED021A80EE03
:10229000801AF8EEC20A81ED041A80EE801AF8EE78
:1022A000E20A81ED061A80EE801AF8EEC30A81ED8B
:1022B000081A80EE801A81ED0A1ABDE8F08100004C
:1022C000D020002010B5044604F078F8D02004F0A7
:1022D0004BF804F095F8204604F046F804F090F826
:1022E00004F06CF8D12004F03FF804F089F804F011
:1022F00017F8044604F002F804F074F8204610BD04
:102300007FB500244FEA0D0504F13B00C0B2FFF792
:10231000D9FF2855641CE4B20E2CF5D39DF80100BA
:102320009DF8001000EB0121164801809DF8031074
:102330009DF8022001EB022141809DF805109DF8D7
:10234000042001EB022181809DF807109DF80620F2
:1023500001EB0221C1809DF809109DF8082001EBD6
:10236000022101819DF80B109DF80A2001EB02214A
:1023700041819DF80D109DF80C2001EB0221818117
:102380007FBD0000B420002070B505460C4604F067
:1023900015F8D02003F0E8FF04F032F8284603F0E7
:1023A000E3FF04F02DF8204603F0DEFF04F028F8E8
:1023B000BDE8704004F016B8FEE70A46002100F0C0
:1023C00001B8000010B5002A21D000281FD0002439
:1023D0004FEA04035B1C41EA0424042BFAD310F0F7
:1023E000030305D10AE000BF521E00F8011B5B1C6D
:1023F0005AB1042BF8D301E010C0121F042AFBD2FB
:1024000003E000BF00F8011B521E002AFAD110BDE4
:102410007047000070B50F21C478027801234FF097
:10242000E026E4B1124C246804F4E064C4F5E064EE
:10243000C4F30724C4F10405E1404478AC40857836
:102440000D4025430B4C29011155007800F01F0168
:102450008B40400906EB8000C0F8003170BD02F0EF
:102460001F008340500906EB8000C0F8803170BD2A
:102470000CED00E000E400E0024908430249086076
:10248000704700000000FA050CED00E07047000006
:1024900002480068002800D0004770476400002010
:1024A00010B5044600F09CF83B490020424A0870F1
:1024B0003A4908703A4908703A4908603A49086050
:1024C0003A4908703A4908703A490870116831B1C0
:1024D0003A49096819B1126801C1521EFCD1384944
:1024E0000860384908603849086038490860384948
:1024F000086038490860384908603849087001F0B8
:1025000019F901F04FF9204600F002FF2088002859
:1025100041D1204600F050FF208800283BD12046C2
:1025200000F056FF2088002835D1204600F0AAFF91
:10253000208800282FD1204601F028F92088002883
:1025400029D1204601F0CAF92088002823D120464D
:1025500001F0C0FB208800281DD1204600F0F8FEC5
:102560002088002817D1204601F078FE2088002816
:1025700011D1204601F00AFB208800280BD120460B
:1025800001F0C0FE2088002805D100F0BFFEBDE8A4
:102590001040FFF77BBF10BD7800002079000020BD
:1025A0009E000020E8000020EC00002092000020A7
:1025B0009300002094000020DC640008D864000828
:1025C000580000205C000020600000206400002013
:1025D000680000206C00002070000020CA0000206D
:1025E000054806490068096800EB8100044920F0AD
:1025F0000700086070470000D8640008DC64000829
:10260000F0000020184810B5007801282BD1FDF704
:10261000DBFD16490446087800B3401E10F0FF00A9
:1026200008701BD112480078C0B901F071F8114947
:102630000870114900EB400051F820000F49086074
:102640000F490968884209D050F8901F491C016061
:102650000C480168491C0160FEF77AFA2046BDE883
:102660001040FDF7B5BD10BD7900002078000020B6
:102670009E00002093000020E4400020EC00002099
:10268000E8000020C0000020154810B500780028A0
:1026900024D114480078002820D1FDF795FD044688
:1026A00001F036F810490870104900EB400051F86D
:1026B00020000F4908600F490968884209D050F886
:1026C000901F491C01600C480168491C0160FEF71D
:1026D0003AFA2046BDE81040FDF77ABD10BD000073
:1026E000780000209E00002093000020E44000209D
:1026F000EC000020E8000020C000002070B5044677
:102700000E48007810B146F6625015E00C4800788B
:10271000012802D045F689600EE00A4D2878FA2893
:1027200002D345F2092007E0FDF74EFD2978491C48
:102730002970FDF74DFD0020208070BD780000203D
:10274000790000209E00002070B5044613480078F0
:1027500010B146F665501EE011480078012802D0FD
:1027600045F6896017E00F4D287860B1FDF72CFD24
:102770002978491E11F0FF01297007D0FDF728FDC7
:1027800046F6635007E046F6645004E0FDF720FD8E
:10279000FFF77AFF0020208070BD00007800002045
:1027A000790000209E0000202DE9F04104461448E5
:1027B0000F46164600781D4610B142F6E1601CE057
:1027C000CCB1FDF701FD2662804600260D48666209
:1027D000C4E9000704F1080000F0CEFE204601F035
:1027E0006BF809490888401C08804046FDF7F0FC5A
:1027F0002E80BDE8F08145F6C3501880F9E700004F
:102800007800002053454D41A40000202DE9F04FF1
:102810000646484889B08A460078129D91461C4673
:1028200010B146F2AE100BE046B1B9F1000F09D07D
:10283000B9F5004F06D045F6256001E045F6C350D6
:10284000288056E03C493068884202D045F6C450A2
:10285000F6E74FF0000B0CB1C4F800B0FDF7B4FC84
:10286000D6F820800746B8F1000F0DD0A8F1010876
:10287000C6F820800CB1706A20603846346AFDF7D3
:10288000A7FCA5F800B04CE05FEA094009D538463E
:10289000FDF79EFC46F2B0102880404609B0BDE826
:1028A000F08F2648007828B13846FDF791FC46F6AF
:1028B0006350C5E7534606223146684600F0EEFDF8
:1028C0003846FDF785FCFFF7DFFEFDF77DFC01468E
:1028D0001B48006890F835206AB1012A11D0022AFD
:1028E00021D0032A13D046F62E6028800846FDF733
:1028F0006FFC0020D2E70CB1006C2060A5F800B09E
:102900000BE00CB1006C206046F2A91004E00CB1A1
:10291000C4F800B047F2D92028800846346AFDF791
:1029200057FC2046BAE70CB1006C206045F6C25057
:10293000F2E700007800002053454D419E00002042
:10294000E800002070B505000E4614460CD076B1A4
:10295000B6F5007F0BD0B6F5004F08D0B6F5024FA4
:1029600005D045F6256008E045F6C35005E0094965
:102970002868884204D045F6C4501080002070BDFD
:10298000FEF738FE0246234631462846BDE8704031
:1029900000F0B0BF53454D4170B50F4D0446287847
:1029A00018B145F68A60208070BD00F0B1FE0B4979
:1029B00008700B4908700B4900EB400051F82000EB
:1029C000094908600949086001202870FEF7AAF843
:1029D00043F69920E7E700007900002093000020EB
:1029E00092000020E4400020EC000020E8000020DD
:1029F0002DE9F0410746FDF7E7FB214900260E804F
:102A000020490E6020490E6020490E6020490E8149
:102A1000FDF7DEFBFDF7D8FB1E490C6816E000BF92
:102A2000FDF7D2FB44F8786F05462663A661A682BF
:102A3000E6826662A662FEF7DDFD20624FF070005E
:102A4000A4F178040653D4F8B8402846FDF7C0FB3B
:102A5000002CE5D1FDF7B8FB0F490C6804E000BF7E
:102A6000FDF7B2FBA685A469FDF7B2FB002CF7D1F8
:102A700001F040FB01F01AFD3E80BDE8F08100004E
:102A8000AA000020BC000020D0000020D8000020B8
:102A9000D8400020C400002098000020F8B504466B
:102AA00069461E4800F0DCFABDF8000028BB6A4603
:102AB0000021022000F008FBBDF80000E8B9FDF796
:102AC00083FB174E00253560FDF782FB154916483C
:102AD0000A6803689A4202D9B2FBF3F010B90A21DE
:102AE000B2FBF1F06A46002100F0EEFA69460B48AD
:102AF00000F056F9BDF8000008B12080F8BDFDF7E0
:102B000063FB0A490A4A0D6031681160094A0121D4
:102B10001170FDF75DFB2580F8BD000064450020C5
:102B2000AC00002000650008EC640008BC00002038
:102B3000B0000020B800002002480068002800D043
:102B400000477047680000202DE9FF4F04462DED37
:102B5000028B83B017A8DDE914B6DDE91297DDE931
:102B60001985924690EC028A4C48007810B147F2E1
:102B70004A1018E054B1BAF1000F0AD067B14848C2
:102B8000006886420BD246F630600CE047F2AD108A
:102B900009E047F24F1006E046F62F6003E0B34528
:102BA00007D346F63160288003B0BDEC028BBDE848
:102BB000FF8F46F27322B9F1400F05D2B9F13F0FF2
:102BC00004D13848844201D02A80EDE7204601F044
:102BD00091F8002028805FEAC8700AD05FEA887008
:102BE00007D500223846134601E008C0521CB24205
:102BF000FBD3CDE9006807EB8B052B463A465046E0
:102C0000089900F0F1F9C4F828A00899E162069942
:102C1000216284F83790A560206084ED158AC4EDA8
:102C2000018A6762A6630020A4F83C804FEA000195
:102C300004EB8002401CD16710F0FF00F8D004F1D3
:102C40006400169900F016FC204600F031F8FDF7FC
:102C5000BBFA054694F8370000F078FD204600F0F6
:102C6000E7FD204601F006F80F490888401C08805F
:102C70000E4800780128284607D003B0BDEC028B2F
:102C800004B0BDE8F04FFDF7A3BAFDF7A1FA03B019
:102C9000BDEC028BBDE8FF4FFFF7F6BC78000020CB
:102CA000FC64000818400020C800002079000020C3
:102CB00002490968002900D00847704758000020E1
:102CC00070B504462E480D46007810B147F24E10FC
:102CD00004E02C48844203D147F24C10088070BDB8
:102CE0002CB9FDF771FA28490C68FDF771FAFDF768
:102CF0006BFA064694F8360008283AD2DFE800F06E
:102D000004080C0C1C080C0C204600F0ABFD13E072
:102D1000204601F0D3F90FE0204601F0CFF994F8F6
:102D20003400072808D2DFE800F007040704040491
:102D30000400204600F059FC04F1640000F07EFB22
:102D4000204600F025F8204600F0A6FF0F4908882D
:102D5000401E0880204600F0CDFFFF2084F836009A
:102D60003046FDF735FA00202880BDE87040FFF7B7
:102D70008BBC3046FDF72CFA46F62D60288070BDDE
:102D80007800002018400020E8000020C800002043
:102D900002490968002900D0084770475C000020FC
:102DA00070B504460E480D46007818B147F255102C
:102DB000088070BDFDF708FA1CB10A4909688C4209
:102DC00005D1FDF705FA47F25710288070BDFDF7D1
:102DD000FFF929462046BDE8704000F0F5BF00002D
:102DE00078000020E800002002490968002900D08E
:102DF00008477047600000202DE9F05F8346474890
:102E00008846144600781D4610B146F2AE1007E021
:102E1000B8F1000F06D0B8F5004F03D045F6256095
:102E200018803AE0002704B12760FDF7CDF93C4E49
:102E300082463068D0F84490B9F1000F1BD0A9F158
:102E40000109C0F844900CB1006C2060FEF7D2FB81
:102E500001463068026C891AC0F8A410D0F8A82086
:102E60008A4201D2C0F8A8105046FDF7B1F92F8070
:102E70004846BDE8F09F5FEA084005D55046FDF79B
:102E8000A7F946F2B01007E02648007838B150465E
:102E9000FDF79EF946F6635028800020E9E70021FF
:102EA0005B460722084600F0F9FA5046FDF790F914
:102EB000FFF7EAFBFDF788F98046306890F8351097
:102EC00031B1012917D003291BD046F62E601CE032
:102ED0007CB1006C2060FEF78DFB01463068026C0F
:102EE000891AC0F8A410D0F8A8208A4201D2C0F8EC
:102EF000A8102F800AE00CB1006C206046F2A910E7
:102F000003E004B1276047F2D92028803068446C80
:102F10004046FDF75DF92046ABE700007800002051
:102F2000E80000209E00002070B506460D00144603
:102F300007D0B5F5004F04D045F62560108000207D
:102F400070BDFEF757FB0246234629463046BDE8D2
:102F5000704000F099BF00002DE9F0410446204880
:102F60000E46174600781D4610B147F2591007E08B
:102F700046F2D52026B11FB1FDF726F91CB104E0B9
:102F80001880BDE8F08117490C684FF000082168EF
:102F900039B1A18FC9070DD0FDF71AF90020616A78
:102FA00014E0FDF715F9C6F8008047F25210C7F893
:102FB000008007E0FDF70CF9C6F8008047F25410D6
:102FC000C7F800802880DCE7091D401C0A68002A39
:102FD000FAD03060A16B081A3860A5F80080D0E7FD
:102FE00078000020E800002010B54FF08074DDF874
:102FF00008C002EB8C0222F00702A2F12402C2E90F
:103000000704164890614FF0123050614FF00330C2
:1030100010614FF00230C2E902304FF0113062E827
:103020000A014FF0103142F8241FA2F118004FF0AE
:10303000093141614FF0083101614FF00731C16042
:103040004FF0063181604FF0053141604FF004319F
:1030500040F804196FF00201016010BD713E0008D4
:10306000074A127812B147F25D1004E0054A904217
:1030700003D147F25B100880704700F051BF000099
:1030800078000020184000200C4810B5006800B1FE
:103090008047FEF7AFFA0A490A4A09681268914266
:1030A00008D001F194014B68A0EB03030B608C681E
:1030B00023448B60C2F8980010BD00006C00002013
:1030C000E8000020EC0000202DE9F04105461E48F4
:1030D0000E461446007810B147F2752026E01B48D2
:1030E000007810B146F6635020E046B1022E06D0BB
:1030F000042E05D0082E02D045F6256016E09DB1BD
:10310000FDF762F8124F80460121386823463246A7
:1031100080F83610294600F065FF208848B1404607
:10312000BDE8F041FDF754B847F27E201080BDE8BD
:10313000F081386800F096FB4046FDF749F8FFF74C
:10314000A3FA00202080F2E7780000209E000020F3
:10315000E80000202DE9F047414E1D46DDE9083426
:10316000367816B147F2752074E03E4E367816B1C7
:1031700046F663506EE013F00E0647F27E2945F6E0
:10318000256C05D0022E03D0042E05D0082E06D1C2
:1031900015B90AB901B9E0B333F01E0703D0A4F89A
:1031A00000C0BDE8F087C3F3001347F2792747F268
:1031B00078284FF47A7C012B0DD0654501D3B81CDB
:1031C00048E03B2A02D947F27A2043E03B2906D85F
:1031D000632808D80AE042F20F73994201D9278088
:1031E000DFE7604502D3A4F80080DAE71E4B4FF416
:1031F000FA77C1EB01111B68B7FBF3F73D445D4360
:10320000B5FBFCF54FF46167784300EB8100104497
:1032100000E021E000FB0355F5B1FCF7D5FF134FAB
:103220008046012138682346324680F83610294608
:1032300000F0D8FE208820B14046BDE8F047FCF7FA
:10324000C7BF386800F00EFB4046FCF7C1FFFFF730
:103250001BFA00202080A4E7A4F80090A1E700005A
:10326000780000209E00002000650008E800002093
:1032700008B500F01BF86A4600210848FFF754FE25
:1032800007490868401E086007D106486A4600687A
:10329000086000210448FFF747FE08BDA444002051
:1032A000E4000020E000002064450020024800689F
:1032B000002800D0004770477000002010B501F0D2
:1032C00043FAFCF781FF064A1178491C1170FCF79C
:1032D0007FFFFFF7CDFFBDE81040FFF793B9000077
:1032E000780000204FF0E021401E48610648026847
:1032F00022F07F420260086940F005000861086919
:1033000040F002000861704720ED00E070470000C7
:10331000034A00211160034A1180018070470000B8
:103320007C00002080000020074C084DFCF74CFF7B
:103330002168491C21602968491C2960FCF748FF65
:10334000FFF7A6F8F2E7000074000020AC000020B0
:1033500000B50E4A89B0002111600B22059106913B
:10336000CDE907200A480B4A0B4B006812681B681E
:103370000292CDE903013F20CDE900030023074A73
:1033800007A10C48FFF7E0FB09B000BD7400002066
:10339000D4640008D0640008CC6400082933000815
:1033A00075432F4F532D4949492049646C6520547A
:1033B00061736B0018400020034A00211160034A2A
:1033C00011800180704700008400002088000020E8
:1033D00070B5174C216861B1164E318861B13288E1
:1033E0002168521E1FFA82FC002501F110032A46B3
:1033F0000EE045F21E7101E045F21D71018070BDC5
:10340000C1E900320A81CA60103110336D1CADB2BF
:103410006545F5D30A604A600A81CA600649236897
:103420000B6033888B80CA800A81028070BD0000E7
:10343000E4640008E0640008D840002010B5428928
:10344000A2B10B490368D1F800C0C3F800C04368BB
:103450000B60CB8844891B1BCB808B884489234419
:103460008B8000214181818101604160104610BD47
:10347000D8400020018100214181818101604160AB
:1034800070470000034A00211160034A1180018047
:10349000704700008C000020900000202DE9F041D2
:1034A000114E05460C4630680027194680F8342036
:1034B00080F8357000F0C8FB64B1EC6004F10807D7
:1034C00001222946306800F011F82946384600F0FC
:1034D00059F802E03068C787076320463168BDE8C5
:1034E000F04100F017B80000E800002010B5C287D6
:1034F00000242346016309E04B600B600B614B61C4
:103500000B83CB6188602031641CA4B29442F3D356
:1035100010BD000038B14268C1F8BC2081688968DC
:10352000096AC161704791F83400022803D0072866
:1035300003D004A002E004A000E005A0C1F8BC0094
:1035400070470000200000005461736B20510000A0
:103550005461736B2053656D00000000054AC1F88B
:10356000BC20816819B18968096AC1617047C2616C
:10357000704700002C650008002101604160018156
:103580007047000030B58A68002392F837400289FE
:103590001AB1521C028102680DE0012202814B60C7
:1035A0000B6001601AE000BFD2F808C09CF83750E9
:1035B000A54203D85268002AF6D10BE052B1D2F8E6
:1035C00000C0BCF1000F0BD0C1E900C2CCF8041060
:1035D000116030BD4B6042680A605160416030BD8F
:1035E0001160C1E90032016030BD70B50546C48F7D
:1035F000066B07E0F0683146083000F009F8203625
:10360000641EA4B2002CF5D10020E887286370BDA9
:1036100002890023012A10D00A688AB1D1F804C0B7
:10362000BCF1000F10D0C2F804C0CCF80020028911
:10363000521E02814B600B60704703604360F6E7E7
:103640004A6813600260F2E753604260EFE7F8B542
:103650000C46054691F836100026069808293BD2FC
:10366000DFE801F03A3A04043A3A212194F83410A0
:10367000032912D0E265A4F86030206435B12046F9
:10368000FFF7B3FF21462846FFF768FF204600F00A
:103690008DFB04F13404A6701CE0009021462846FE
:1036A00000F021F8EAE794F83410032915D0E26518
:1036B000A4F860302064204600F000FD35B12046BB
:1036C000FFF793FF21462846FFF748FF04F1340433
:1036D0000420A07066702670F8BD00902146284630
:1036E00000F001F8E7E730B50C6BDDF80CC0C98FCE
:1036F0000BE0E568854205D1C4E904022383C4F8E0
:103700001CC030BD2034491E89B20029F1D130BD22
:1037100010B50024064802E02034E4B2001D016820
:103720000029F9D00846FCF75AFD2044C0B210BD6C
:10373000500000200020044A014600BF42F820103B
:10374000401C0228FAD370475000002000F01F02EE
:1037500041090120C2F11F029040034A52F8213072
:10376000034342F8213070475000002000F01F0250
:1037700041090120C2F11F029040034A52F8213052
:10378000834342F82130704750000020034A002153
:103790001160034A118001807047000098000020EA
:1037A0009C0000200020074B014600BF00EB4002B8
:1037B00003EB8202401C11811160C0B251604028AD
:1037C000F4D37047E440002010B5044690F8370069
:1037D000FFF7BCFF074994F8370009788842204674
:1037E00003D1BDE8104000F023B8BDE8104000F060
:1037F00003B800009200002090F837100B4A01EB4C
:10380000410102EB810100220B8943B15B1C0B815A
:103810000B68C0E903320A68106108607047012331
:103820000B81C2600261086048607047E44000207C
:1038300090F837100A4A01EB410102EB81010022A6
:103840000B893BB15B1C0B81C2604A680261D0608E
:103850004860704701230B81C26002610860F7E78E
:10386000E440002070B5044690F83700114900EBA1
:10387000400001EB8000D4E90312002542B1038926
:103880005B1E0381D16091B10A612561E56070BD65
:1038900029B10289521E02810D610160F5E705819F
:1038A0000560456094F83700FFF760FFEDE7426080
:1038B000EBE70000E44000200023074A05A1436134
:1038C000C161116819B181614861106070478361FD
:1038D000FBE7000020000000A0000020034A0021B8
:1038E0001160034A1180018070470000A000002091
:1038F000A40000202DE9F84F04468A4690461E4653
:10390000FCF762FC0746258A04F108004FF0000B23
:103910002DB15FEA8A5118D5D0F8009025E0256ACC
:10392000681C0AD06D1CC4E908583846FCF750FCE6
:10393000A6F800B02846BDE8F88F3846FCF748FCEA
:1039400046F6C55030800020F5E7D0F800900125FC
:103950000023D9F80810D9F804901A462046CDF86B
:103960000080FFF774FE6D1EADB2002DF0D1246A09
:103970003846FCF72DFC5FEA0A4001D4FEF784FECE
:10398000A6F800B02046D6E7714D08B52868714EFC
:10399000440004E06A4600212046FFF795FB30789A
:1039A0000128F7D16846FFF723F86B4829680268B9
:1039B0008A4206D911462A68B1FBF2F8B8F1000F25
:1039C00003D100680A21B0FBF1F8644F42F2107B8A
:1039D0005FF00006FDF70EFE8246FCF7F5FB0146A0
:1039E0005F48604C0268226006600846FCF7F0FB06
:1039F0005D48236802689A422BD95C48824202D211
:103A00005846012115E05A48824203D24FF47A7099
:103A10000A210EE05748824202D26420014608E0A3
:103A20005548824203D20A204FF47A7101E0012006
:103A30005946B2FBF1F15843B0FBF1F1ABEB010099
:103A40004E4980B208804E490A88824204D20880DA
:103A500002E04A48A0F800B0FFF76EF80025FCF736
:103A6000B3FB3C680DE000BFFCF7AEFB54F89C1FB5
:103A7000C4E90061FCF7ACFB60680544FCF7A4FBFB
:103A8000E469FCF7A5FB002CEED10DB33748854265
:103A900002D2D946012018E03548854203D24FF4BE
:103AA0007A790A2011E03348854203D24FF0640945
:103AB00048460AE03048854204D24FF00A094FF4E4
:103AC0007A7002E04FF001095846B5FBF0F502E0CC
:103AD0004FF000090125FCF777FB3C681DE000BFB3
:103AE000D4F8A00000FB09F0B0FBF5F080B2584517
:103AF00000D95846A4F88C00B4F88E10814201D247
:103B0000A4F88E0004F1AC026B46111D2046FFF7AD
:103B100023FAFCF759FBD4F8B840FCF759FB002C0A
:103B2000DED118480178012903D106706846FEF7F6
:103B30005FFFFDF75FFD1449A0EB0A000A688242AF
:103B400000D208606A4600214046FFF7BDFA41E70F
:103B5000EC640008B800002000650008C4000020E4
:103B6000AC000020B4000020B0000020801A060045
:103B700000093D00005A62020084D717A800002007
:103B8000AA000020A6000020BC00002030B51D4A7D
:103B900089B0002111601C4A11601C4A11601C4A46
:103BA00011701C4A11701C4A136843B11B4B1C4D09
:103BB0001C682D68AC4205D246F62C6108E046F63A
:103BC0002B6105E0174C25783F2D04D346F62A617A
:103BD000018009B030BD032505910691CDE907505C
:103BE0001868114B12681B68CDE90301CDE9012368
:103BF0002078009000230D4A0DA11248FEF7A4FF83
:103C0000E7E70000AC000020B4000020B000002076
:103C1000B8000020A6000020F0640008F864000846
:103C2000FC640008E8640008F464000889390008AE
:103C300075432F4F532D49494920537461742054C3
:103C400061736B00E443002038B50446022531B1AE
:103C50006B46022200F0C6F9BDF8000028B184F8D6
:103C600036502046FFF7FEFD38BD032084F83600AD
:103C7000F7E70000074B0022C0F8B420196829B10B
:103C8000C0F8B810C1F8B40018607047C0F8B82088
:103C9000FAE70000C4000020D0E92D2100234AB13A
:103CA00081B1C2F8B81000F1B400C1F8B42043608B
:103CB00003607047064A116009B1C1F8B430C0F81A
:103CC000B8307047C2F8B830C0F8B4307047000060
:103CD000C4000020044A00211160044A1180044AF3
:103CE0001160018070470000C4000020C80000205F
:103CF000C000002070B50025056085604560C56086
:103D0000056145610446856125A0C4E907506562E7
:103D1000A562E5622563E5872564E565A4F8605042
:103D2000002104F16400FFF7A5FB44F8745F284606
:103D30006560E560A5822561A4F1740404EB80014F
:103D400000F10100CD6710F0FF00F7D004F134045A
:103D50004FF00040256125676567656084F856501F
:103D6000E567A5672581C4E90505E561256265620A
:103D7000A4F85850A4F85A50E5652566FDF73AFCBA
:103D8000C4E9190525706570A5704020E070C4F87D
:103D9000805004F1840404A0C4E9005070BD000008
:103DA0003F5461736B0000002000000010B5044612
:103DB00000F084F994F83600400704D42046BDE8AA
:103DC0001040FFF701BD10BD70B504460D46FCF76D
:103DD000FBF906460020288094F83610082940D2C6
:103DE000DFE801F0040404040B1F29333046FCF71C
:103DF000EFF947F2531028800FE094F88A10491E1B
:103E000011F0FF0184F88A1004D184F836002046AE
:103E1000FFF7CCFF3046FCF7DBF9BDE87040FEF75A
:103E200033BC94F88A00401E10F0FF0084F88A002A
:103E3000F0D1012012E094F88A00401E10F0FF003B
:103E400084F88A00E6D1022008E094F88A00401E37
:103E500010F0FF0084F88A00DCD1032084F83600DB
:103E6000D8E73046FCF7B4F946F62D60288070BDDF
:103E7000044808B50068FEF7B7FF69460020FEF762
:103E80001FFF08BDE80000202DE9F84304468846DE
:103E900015461E46FCF798F907460CB91F480468FA
:103EA000002046F6C5592564308094F8360008286D
:103EB0002BD2DFE800F004040D0D04040D0D656C39
:103EC000681C1AD06D1C38466564FCF781F923E044
:103ED00094F834000728F2D100231A4621461846E8
:103EE0000095FFF7B4FB3846656CFCF771F95FEAA3
:103EF000084011D4FEF7C8FB0EE03846FCF768F91D
:103F0000A6F800900020BDE8F8833846FCF760F979
:103F100046F62D60308000252846F4E7E8000020B2
:103F200070B504460D46FCF74FF90646204804B923
:103F300004680068844208D11E48007828B13046E1
:103F4000FCF746F946F6635030E00020288094F8EC
:103F500036100120082924D2DFE801F0040D1618DC
:103F60001E1E1E1E042184F8361084F88A00204686
:103F7000FFF778FC01E0052109E03046FCF728F95D
:103F8000BDE87040FEF780BB062100E0072184F801
:103F9000361084F88A00F0E714F88A0F401C20706D
:103FA000EBE73046FCF714F946F62D60288070BD2B
:103FB000E80000209E00002010B500200146074CBC
:103FC000074B06E004EBC002401C11609180D180D9
:103FD00080B21A889042F5D310BD0000103D002039
:103FE00014650008F0B5324C47F27E26256800249F
:103FF000042A08D0B1B32E4E082A36680E440BD0DE
:10400000C0E9136115E04A1B521E12F5803F2AD801
:10401000521CC0E913120CE0826C0A44571B7F1E2D
:104020008F4201D2C26400E0C664C16C4A1B0265C3
:104030008164204AC16C1288B1FBF2F602FB1611B2
:104040001D4A89B202EBC102918889B11168F1B1B0
:10405000CE6C761B0E65076DB74212D94E6966B1FC
:104060003146F5E7FFE7C4640465C4611E80F0BD16
:1040700044618461012110600BE0C0E905414861A1
:1040800005E08D6975B1C0E90515686188619188A1
:10409000491C9180D58889B28D4200D2D180C261FD
:1040A0001C80F0BDC0E9051488611060EFE70000D6
:1040B000CC00002014650008103D0020C269002AD1
:1040C00017D0002101651368834204D1436913604E
:1040D00043B1996106E0D0E9053CCCF814300BB14E
:1040E000C3F818C041618161C161C1649088401EFC
:1040F0009080704710B500200346064C064A04E045
:1041000004EBC001401CCB8080B211888842F7D3F9
:1041100010BD0000103D0020146500082DE9F05F7F
:10412000FCF752F88146FDF765FA3E4F06463E49D8
:1041300038684FF00008401C38600988C246B0FB60
:10414000F1F201FB1200394980B24FF0030B51F834
:104150003040CCB394F836006569082851D2DFE8C6
:1041600000F05004501050265034E06C3968421A68
:104170002265884249D184F836A02046FFF716FE12
:104180003DE0E06C3968421A226588423DD1C4F8AE
:104190005CA0A4F860A0FDF72DFA20642046FFF78C
:1041A00024FA2046FFF702FE84F836A023E0E16CF3
:1041B00038680A1A2265814227D1042084F8360023
:1041C0002046FFF77BFF1AE01FE0E06C3968421AD7
:1041D0002265884219D1C4F85CA0A4F860A0FDF75C
:1041E00009FA20642046FFF700FA2046FFF766FF31
:1041F000042084F8360084F835B084F834A02C46C6
:10420000A7E72C46B8F1000FA3D0FDF7F3F9084952
:10421000801B0A68824200D208604846BDE8F05F11
:10422000FBF7D6BFCC00002014650008103D00202D
:10423000D00000201CB5084C00216B4601AA08469E
:10424000FEF7DAFDBDF800000028F5D1207801283E
:10425000F2D1FFF763FFEFE77900002030B50446A5
:104260001A4889B00025056019480560FFF7A4FECB
:104270001848016841B11849184B0A681B689A42EE
:1042800005D247F2132008E047F2122005E0144A55
:1042900013783F2B04D347F21120208009B030BDA2
:1042A0000B2305950695CDE907340E4B0968006888
:1042B0001B68CDE90103CDE90315107800900023B8
:1042C000094A0AA10E48FEF73FFCE7E7CC000020B0
:1042D000D00000200865000810650008FC64000894
:1042E000046500080C6500083542000875432F4F2F
:1042F000532D494949205469636B205461736B0005
:10430000A444002030B52A4A89B00021294B11600D
:10431000294C2A4A1D681DB12468B4FBF5F303E05B
:1043200023680A24B3FBF4F313601A46244B274D89
:10433000274C1A60234A1160234A1160002206E0CC
:1043400005EBC203521C9980D98092B21960238870
:104350009A42F5D31F4A136843B11F4B1F4D1C6887
:104360002D68AC4205D247F2483108E047F24731A8
:1043700005E01B4C25783F2D04D347F246310180E0
:1043800009B030BD0B2505910691CDE9075018689D
:10439000144B12681B68CDE90301CDE90123207895
:1043A00000900023104A11A11648FEF7CDFBE7E765
:1043B000D40000201865000800650008E000002017
:1043C000E4000020DC000020D8000020903F002006
:1043D000286500081C65000824650008FC640008C6
:1043E0001665000820650008D544000875432F4F66
:1043F000532D4949492054696D6572205461736B8E
:10440000000000006445002030B5022280F82A2018
:10441000234A0129136823D0016A09B3214A1944A8
:1044200081611288B1FBF2F402FB14121E4C92B2AD
:1044300004EBC20200241568A5B1C91AC161116854
:10444000F9B18D69A5EB030CC1F81CC0C5696545C0
:1044500011D9D1F810C0BCF1000F08D06146F0E7C7
:10446000416ADBE704614461106001200BE0C0E9B0
:104470000441086105E04B6963B1C0E904131861A8
:1044800048619088401C9080D18880B2814200D2DF
:10449000D08030BDC0E9041448611060F1E700002D
:1044A000DC00002028650008903F002010B50020A7
:1044B0000346064C064A04E004EBC001401CCB80D6
:1044C00080B211888842F7D310BD0000903F0020D1
:1044D000286500081CB5DFF89090DFF890A0244E06
:1044E000DFF890B000216B4601AA0846FEF784FC75
:1044F0006846FEF703F9FDF77DF8044630684FF093
:104500000308401C3060B9F80010B0FBF1F201FB69
:10451000120080B25AF83070C7B1B86931683D698D
:10452000884213D1384600F027F8388D022808D089
:1045300087F82A80BA6812B13846F96890472F4642
:10454000EAE701213846FFF75FFFF3E7FDF752F88E
:10455000041B6846FEF7F8F8DBF80010A142C1D250
:10456000CBF80040BEE7000028650008903F00201F
:10457000DC000020D800002010B5124A81691288A2
:10458000B1FBF2F302FB13110F4A89B202EBC10235
:10459000002314680169844203D1116041B14B6169
:1045A00006E0D0F814C0CCF8101009B1C1F814C05E
:1045B000012180F82A10036143619088401E908099
:1045C00010BD000028650008903F0020044A002923
:1045D000116801D0014300E0814311607047000081
:1045E00030380240044A0029116801D0014300E03C
:1045F00081431160704700004438024030B5224BBF
:104600001968224A11F00C0104D0214D042903D06D
:10461000082903D002601DE005601BE01A49091F4C
:104620000C68C4F3805C0C68BCF1000F04F03F041C
:1046300002D0B5FBF4F201E0B2FBF4F20C680968B9
:10464000C4F388146243C1F30141491C4900B2FB21
:10465000F1F1016019680F4A01F0F0010909545C99
:104660000168E14041601C6804F4E054A40A145D50
:1046700021FA04F484601B6803F460435B0BD25C92
:10468000D140C16030BD0000083802400024F40071
:1046900040787D01280000200248006800F00C00EE
:1046A000704700000838024070470000224900208F
:1046B0000A6842F480320A604FF4A0430A6800F1AD
:1046C000010012F4003F01D19842F7D1086880033D
:1046D00031D519484030026842F0805202601748D4
:1046E000026842F4404202601348083002680260E7
:1046F000026842F400420260026842F4A052026082
:10470000031F0F4A1A600A6842F080720A600A6842
:104710009201FCD50B4A40F205711160016821F04D
:1047200003010160016841F0020101600168C1F309
:1047300081010229FAD17047003802400070004020
:1047400019544007003C024070B51B4C60680122C0
:1047500020B16068401E606000D12270174B0021BC
:1047600001EB410003EB800045684DB145686D1ECB
:10477000456005D142700578012D01D185684560FD
:10478000491CC9B20429EBD3A068401CA060A068F2
:104790006FF000410025884200D1A56001F03DFC8A
:1047A0006078401CC0B260700A2804D36570BDE810
:1047B000704001F031BC70BD1C000020902C002026
:1047C000124810B5016841F4700101601048016899
:1047D00041F0010101600E4A0021083211600268B7
:1047E0000C4B1A400260031D0B4A1A60026822F447
:1047F0008022026006480C300160FFF757FF034932
:104800004FF000608039086010BD000088ED00E0C6
:1048100000380240FFFFF6FE103000240029018816
:1048200002D041F0800101E021F080010180704759
:104830000029018802D041F0010101E021F00101CD
:1048400001807047002930F8441F02D041F4004134
:1048500001E0C1F30E0101807047000030B5028C09
:1048600022F001020284028C8388048B22F002026F
:1048700024F073050C882C438D8915434A882A43FC
:104880000C4DA84202D00C4DA8420DD122F00805D3
:10489000CA8923F440732A4322F004058A882A43F4
:1048A0000D8A1D434B8A2B438380048389684163AF
:1048B000028430BD0000014000040140028B22F060
:1048C00008020A430283704730B5028C22F01002BE
:1048D0000284028C8388048B22F0200224F4E645B3
:1048E0000C88240645EA14448D892D0542EA1545B5
:1048F0004A88120545EA1242104DA84202D0104DD6
:10490000A84215D122F08005CA8923F4406312051C
:1049100045EA124222F040058A88120545EA124211
:104920000D8AAD0443EA15454B8A9B0445EA1343BF
:104930008380048389688163028430BD0000014064
:1049400000040140028B22F4006242EA012101834B
:104950007047000030B5028C22F480720284028C11
:104960008388848B22F4007224F073050C882C4316
:104970008D892D0642EA15454A88120645EA1242FB
:10498000104DA84202D0104DA84215D122F4006566
:10499000CA8923F44053120645EA124222F4806584
:1049A0008A88120645EA12420D8A2D0543EA15450A
:1049B0004B8A1B0545EA1343838084838968C1635E
:1049C000028430BD0000014000040140828B22F0CF
:1049D00008020A438283704730B5028C22F4805269
:1049E0000284038C8288848B4D8824F4E64C0C88E6
:1049F0002D0724064CEA144423F4005C8B891B0722
:104A00004CEA134343EA1545084B984202D0084B41
:104A1000984205D122F480430A8A920543EA124261
:104A20008280848389680164058430BD0000014070
:104A300000040140828B22F4006242EA012181835A
:104A40007047000030B50288174B184C98420DD0C3
:104A5000A0420BD0B0F1804F08D0154DA84205D030
:104A6000144DA84202D0144DA84204D122F0700C7B
:104A70004A8842EA0C02114DA84207D0104DA842C4
:104A800004D022F4407C0A8942EA0C0202804A687F
:104A9000C2620A880285984201D0A04201D1897A77
:104AA00001860121818230BD0000014000040140E7
:104AB0000004004000080040000C004000100040CE
:104AC00000140040014800F0B3B800006824002042
:104AD000C943018070470029818902D041F4005107
:104AE00001E021F4005181817047024600201288C4
:104AF0000A4200D00120704770B501F01F06012264
:104B00000025C1F3421302FA06F4012B0FD0022B49
:104B10000FD0838A4FEA11210088234202FA01F262
:104B200000EA020001D000B10125284670BD83894A
:104B3000F0E7038AEEE7C1F3421301F01F0C0121F5
:104B400001FA0CF1012B07D0022B07D01430002AF8
:104B5000026805D00A4304E00C30F8E71030F6E7AD
:104B60008A430260704700007FB50446008A0D4604
:104B700020F44051E88808432082A08941F20C616A
:104B80008843A9882A8911436A8902431143A18174
:104B9000A08A20F44071A8890843A0826846FFF7E4
:104BA0002DFD1D48844202D01C48844201D1039847
:104BB00000E00298A1890904002900EBC00101EB83
:104BC0000010296802DA4FEA410101E04FEA810151
:104BD000B0FBF1F06422B0FBF2F14FEA01114FEAB1
:104BE00011136FF018056B4300EB8300A3891D04BC
:104BF0004FF0320306D503EBC000B0FBF2F000F03B
:104C0000070005E003EB0010B0FBF2F000F00F002E
:104C1000084320817FBD00000010014000140140C6
:104C20008088C0F308007047C1F308018180704795
:104C30002DE9F0410446006840F22551FFF75CFF82
:104C40000025C0B12068FFF7EBFFE28AA168885415
:104C5000E08A401C80B2E082E189884200D3E5828C
:104C6000608B884201D2401C608380B2012802D14F
:104C7000606A00B1804740F2277739462068FFF725
:104C80003BFF40F2266690B1A08AC0B900223946A7
:104C90002068FFF750FF31462068BDE8F04101224F
:104CA000FFF749BFA08A401EA082BDE8F0813146CF
:104CB0002068FFF721FF0028F7D0A08A70B1618A31
:104CC0006068415C2068FFF7AFFF608A401C80B2DB
:104CD0006082A1898842E5D36582E3E700223146FC
:104CE0002068FFF728FF206A0028DED0BDE8F041E9
:104CF000004700000C480B49016000F128014160A9
:104D000000F5856181604FF480618181C18100215E
:104D100001824182C182018341838182C16101623A
:104D2000416270470010014068240020FEE7000047
:104D30000FB4054B10B503A9044A029800F0E4FB38
:104D400010BC5DF814FB00007162000888010020AF
:104D50000FB4084B10B504A902AA039800F0D4FBC5
:104D6000044602A9002000F07CFF204610BC5DF83C
:104D700014FB0000635C000803B401984100009834
:104D800050EAC12018BF04204A0D18BF40F00100AE
:104D900040F2FF72B2EB515F08BF40F00200012801
:104DA00008BF052002B0704770B59F482DED020B7B
:104DB0002DED068B079D25F0004484421DDB9B48AA
:104DC000844202DC0FD1069868B19DED060B53ECCE
:104DD000102B51EC100BFBF794FBBDEC068B02B0D3
:104DE00041EC100B70BD002DCCBF9FED910B9FEDE2
:104DF000920BBDEC068B02B070BD9148844215DA6F
:104E000090488442A8BF4FF0FF3440DA9DED060B76
:104E100051EC100BFFF7B0FF042808BF00F0A8FA10
:104E20009DED060BBDEC068B02B070BD9DED060B33
:104E300051EC100B01F00BFA41EC100B82488DED98
:104E4000060B9FED839B84423CDA834884421FDA41
:104E500000249FED83AB51EC100B53EC1A2BFBF7A6
:104E600050FB9DED060B41EC180B53EC1A2B51EC4B
:104E7000100BFBF7ECFB53EC192BFBF7E2FB53ECAD
:104E8000182BFBF754FC41EC100B8DED060B49E0A1
:104E9000012453EC192B51EC100BFBF732FB9DED69
:104EA000060B41EC180B53EC192B51EC100BFBF7D4
:104EB000C8FB53EC182BFBF73AFC41EC100B8DEDC3
:104EC000060B2FE0684884421FDA02249FED68AB8E
:104ED00051EC100B53EC1A2BFBF7B9FB53EC192BCD
:104EE000FBF70FFB9DED060B41EC180B53EC1A2B57
:104EF00051EC100BFBF7A5FB53EC182BFBF717FC41
:104F000041EC100B8DED060B0CE053EC102B032441
:104F10009FED590B51EC100BFBF709FC41EC100B0A
:104F20008DED060B9DED060B53EC102B51EC100B89
:104F3000FBF78DFB41EC180B53EC182BFBF787FBB1
:104F400041EC190B4E480621B0EE490AF0EE690A11
:104F5000784400F091F953EC182B51EC100BFBF74F
:104F600076FB41EC180B4748B0EE490AF0EE690AAF
:104F70000521784400F080F953EC192B51EC100B0B
:104F8000FBF765FB41EC100B51EC180B53EC102BAD
:104F9000002C0EDAFBF7B5FA9DED061B53EC112B36
:104FA000FBF755FB9DED061B53EC112BFBF74CFB60
:104FB00035E0FBF7A6FA9DED061B53EC112BFBF732
:104FC00046FB41EC100B3048784400EBC40090EDF8
:104FD000001B51EC100B53EC112BFBF732FB9DED3A
:104FE000061B53EC112BFBF72CFB41EC100B274855
:104FF000784400EBC40090ED001B51EC100B53EC17
:10500000112BFBF721FB41EC100B002DA2BFBDECD7
:10501000068B02B070BD51EC100B81F0004141ECE9
:10502000100BFFE600000000000010440000F07FBD
:10503000182D4454FB21F93F182D4454FB21F9BF8E
:105040000000DC3F0000203E0000F33F00000000B5
:10505000000000000000F03F0000E63F00000000FC
:10506000000000000000004000800340000000003D
:10507000000000000000F83F000000000000F0BF4A
:10508000941600004A160000D41500008C1500008C
:1050900070B5694E2DED040B2DED028B82B0DDE96C
:1050A000053C079ACCF1000422F000414CEA0404CC
:1050B00041EAD474049D23F00040B44205D86C4208
:1050C0002C4340EAD474B44210D99DED060B53EC46
:1050D000102B9DED040B51EC100BFBF712FA41EC79
:1050E000100B02B0BDEC028B04B070BDA2F14054B5
:1050F000A4F17F6454EA0C040BD0022404EAA274E5
:1051000044EAD37405439FED4E8B9FED4F2B07D0A0
:1051100010E09DED040B51EC100B00F0A7FD3BE0FF
:10512000002C14BF012C9DED040BDAD0022C36D0DC
:10513000032C39D051EA0C0C9FED451B9FED460B1B
:105140000AD0B14219D1B04209D121F0804120F0FA
:1051500080400791059010E0002BC2DA11E0DFF8E3
:1051600000C1FC44002C08BF9CED000BB9D0012C01
:105170000CD0022C13D0032C16D0B04219D1002B26
:10518000AFDAB0EE410AF0EE610AAAE79CED000B3F
:1051900051EC100B81F0004141EC100BA1E7B0EE97
:1051A000480AF0EE680A9CE7B0EE420AF0EE620AA6
:1051B00097E7401A00153C2816DC002ABCBF10F106
:1051C0003C0F9FED290B0FDB9DED060B53EC102BD5
:1051D0009DED040B51EC100BFBF7A9FA01F037F829
:1051E00000F044FD41EC100B002C8DED000B3FF462
:1051F00078AF012C10D0022C9FED1D0B53EC102B1F
:105200009DED000B51EC100B0ED0FBF71AFA53EC8E
:10521000182BFBF716FABFE710EE900A80F000405B
:1052200001909DED000B5CE7FBF70BFA53EC182B9C
:10523000FBF70AFAB0E700000000F07F0000000072
:10524000182D4454FB210940182D4454FB2109C05A
:10525000182D4454FB21F9BF182D4454FB21F93F6C
:10526000B214000000000000000000000000000078
:10527000075C143326A6A13C70B505462DED028BC4
:105280004C1E00EBC400B0EE408AF0EE608A90ED58
:10529000000B34F0060017D053EC182B51EC100B18
:1052A000FBF7D5F941EC100B641E05EBC40090ED43
:1052B000001B51EC100B53EC112BFBF722F941ECC6
:1052C000100B34F00600E7D1022C36D0042C1CD091
:1052D000062C1CBFBDEC028B70BD53EC182B51EC9F
:1052E000100BFBF7B4F995ED0A1B53EC112BFBF7F0
:1052F00008F953EC182BFBF7AAF995ED081B53ECB2
:10530000112BFBF7FEF841EC100B53EC182B51EC72
:10531000100BFBF79CF995ED061B53EC112BFBF7DB
:10532000F0F853EC182BFBF792F995ED041B53ECB6
:10533000112BFBF7E6F841EC100B53EC182B51EC5A
:10534000100BFBF784F995ED021B53EC112BFBF7C7
:10535000D8F853EC182BFBF77AF995ED001B53ECBA
:10536000112BFBF7CEF8BDEC028B41EC100B70BD9E
:105370009FED050B10B553EC102B51EC100BFBF708
:1053800066F941EC100B10BD000000000000001099
:1053900002E008C8121F08C1002AFAD170477047FE
:1053A000002001E001C1121F002AFBD1704700005C
:1053B0002DE9FF5FDDE90210020DDDF838B0014391
:1053C0000FD10F9801244BA3012807D000980F9A02
:1053D000C0E90031C0E90242BDE8FF9F6FEA0B015E
:1053E000F4E7A2F2FF3244F61050424315140F982E
:1053F00001280ED0A5EB0B00401C4FF000043E4EE0
:10540000DFF8F890B0F1000AA04605DACAF100070B
:1054100017E0CBF10000F0E7074612E0F80707D0ED
:105420002246334640464946FBF711F980468946F5
:105430002246334610461946FBF709F904460E4644
:105440007F10002FEAD1DDE90201BAF1000F4246D8
:105450004B4602DAFBF7FBF801E0FBF768F904467C
:105460000E460022264BFBF709FB03D84FF0FF3016
:10547000014607E00022234B20463146FBF741F866
:10548000FBF7E3FA102409E0002C0ADB0A220023D0
:10549000FAF7C0FF019B30321A55641E50EA010230
:1054A000F2D1641C019AC4F1110314440F9A012A29
:1054B00009D00122084301D15B450FDD4FF0000206
:1054C00005F101050DE0084303D1A3EB0B056D1EAB
:1054D00009E000204FF0110B0F9088E701DA00225D
:1054E0006D1E002A83D000980F99C0E90231C0E9EF
:1054F000004571E730000000000024400000F03F4C
:105500000000F0430000E03F2DE9FF4F95B0064654
:105510009A468946002521E2252801D01799A6E060
:105520000024F9492746761C4FF00108039432788D
:10553000203A08FA02F0084202D00443761CF6E74B
:1055400030782A2811D06FF02F023078A0F1300186
:10555000092916D8039944F0020401EB810102EBFA
:1055600041010844761C0390EFE759F8041B0391AE
:10557000002903DA484244F40054039044F0020442
:10558000761C30782E2816D116F8010F44F004044A
:105590002A280DD06FF02F013078A0F13002092AAF
:1055A00009D807EB870201EB42028718761CF3E764
:1055B00059F8047B761C30786C280FD006DC4C2818
:1055C00017D068280DD06A2814D104E0742810D0B0
:1055D0007A280FD10DE044F400140AE044F480145A
:1055E00001E044F440147178814202D1761C04F544
:1055F0008014761C96F800C0BCF1660F10D01ADC3F
:10560000BCF1580F70D00CDCBCF1000F6DD0BCF1B8
:10561000450FF3D0BCF1460FF0D0BCF1470F24D1B9
:10562000A4E1BCF1630F40D0BCF1640F74D0BCF1B5
:10563000650F1AD19AE1BCF1700F6ED00CDCBCF191
:10564000670FEDD0BCF1690F75D0BCF16E0F12D0B1
:10565000BCF16F0F09D1B3E0BCF1730F2FD0BCF1D7
:10566000750F76D0BCF1780F74D01799604652460A
:1056700090476D1C70E1C4F30250022809D0032842
:105680000DD0D9F8001004280DD00D6009F10409DF
:1056900062E1D9F80010EA17C1E90052F6E7D9F83B
:1056A00000100D80F2E70D70F0E759F8041B8DF83B
:1056B000001000208DF80100EB46012003E059F8AE
:1056C00004BB4FF0FF3061074FF0000102D40FE040
:1056D00008F101018846B94211DA8045F8DB1BF870
:1056E00008100029F4D10AE060E03BE108F1010173
:1056F00088468142FADB1BF808100029F6D103988E
:105700005346A0EB080721463846179A00F091FA55
:10571000284400EB080506E00DE049E01BF8010B0A
:10572000524617999047B8F10108F7D253462146DF
:105730003846179A0DE10A21C4F302524FF0000BCC
:105740000091022A07D059F8040BC117032A0AD086
:105750000BE024E025E009F1070020F00702F2E861
:105760000201914605E000B2C117042A01D140B2FE
:10577000C117002906DA0A460021404261EB020106
:105780002D2202E0220504D52B228DF804200122CF
:1057900003E0E20701D02022F7E7904654E00A2117
:1057A00000E010214FF0000B00910DE0102008E008
:1057B00010204FF0000B44F004040827009003E091
:1057C00008204FF0000B0090C4F30252022A05D0CB
:1057D00059F8040B0021032A08D009E009F1070059
:1057E00020F00702F2E80201914605E080B20021B4
:1057F000042A01D1C0B200214FF00008220723D5AE
:10580000BCF1700F28D0009B83F0100353EA0B0308
:1058100009D150EA010206D030228DF804208DF81B
:1058200005C002229046009B83F0080353EA0B0355
:105830000AD150EA010201D1620705D530228DF864
:1058400004204FF001087F1EBCF1580F09D02FA291
:105850000C920CAA029211E040228DF80420012241
:10586000E0E72FA2F4E75B46009AFAF7D3FD0C9B22
:105870009B5C029AA2F101020292137050EA0102AB
:10588000F1D1029804A9A1EB000000F1200B600700
:1058900002D524F4803400E001275F4502DDA7EB48
:1058A0000B0000E0002000EB0B0100900398414446
:1058B000A0EB01000390E00306D453462146179A5B
:1058C000039800F0B6F90544002706E001A8524607
:1058D000C05D179990476D1C7F1C4745F6DBE003C0
:1058E0000CD553462146179A039800F0A2F90544B7
:1058F00004E030205246179990476D1C0099481ECD
:1059000000900029F5DC1EE0092801003031323317
:1059100034353637383961626364656600000000EB
:1059200030313233343536373839414243444546D5
:10593000000000000298029952460078491C02912A
:10594000179990476D1CBBF10001ABF1010BF1DC25
:1059500050E100F05BF9054406F1010630780028BB
:105960007FF4DAAD19B02846BDE8F08F600700D4A7
:10597000062709F1070020F00701F1E80220894617
:1059800000F00043190001D09DA109E0210501D5D7
:105990009CA105E0E10701D09BA101E0AFF28401E9
:1059A00020F000431391BCF1650F11D009DCBCF16C
:1059B000450F0DD0BCF1460F20D0BCF1470F3ED1B2
:1059C0003EE0BCF1660F19D0BCF1670F7CD137E027
:1059D0000021112F01DB112000E0781CCDE900012E
:1059E00004A90CA8FFF7E4FCDDE90D010C9A4FF0C7
:1059F000000B07F10108109200914CE04FF00040BD
:105A00000097CDE9018004A90CA8FFF7D1FCDDE9DE
:105A10000E20DDE90C314FF0000B90461093009200
:105A200018B907F1010001EB0008B7EB080003D437
:105A3000C0F1FF3B07F10108A8EB0700019043E02C
:105A4000012F00DA01270021112F01DD112000E0D4
:105A50003846CDE9000104A90CA8FFF7A9FCDDE94F
:105A60000D010C9A00914FF0000BB84610922107DF
:105A70000CD40099414500DA8846B8F1010F05DDE4
:105A8000109AA8F10101515C302908D0B84202DA1D
:105A900010F1040F06DA0121CDE9011014E0A8F19C
:105AA0000101E9E7002803DC8344A8EB000102E0E0
:105AB000411C414500DD8846A0EB0B0000F10100D0
:105AC00001904FF000400290200705D40198404516
:105AD00002DB4FF0FF30019000208DF84B00029860
