:020000040800F2
:1000000098BE002015470008E9450008EB450008A8
:100010000D4600080F4600081146000800000000C9
:10002000000000000000000000000000134600086F
:100030001546000800000000D336000849200008DB
:1000400055470008594700085D4700086147000808
:1000500065470008694700086D47000871470008B8
:1000600075470008794700087D4700088147000868
:1000700085470008894700088D4700089147000818
:1000800095470008994700089D470008A1470008C8
:10009000A5470008A9470008AD470008B147000878
:1000A000B5470008B9470008BD470008C147000828
:1000B000C5470008C9470008CD470008D1470008D8
:1000C000D5470008D9470008DD470008E147000888
:1000D000E5470008413C0008453C0008493C000851
:1000E000F5470008F9470008FD47000801480008E7
:1000F00005480008094800080D4800081148000894
:1001000015480008194800081D4800082148000843
:1001100025480008294800082D48000831480008F3
:1001200035480008394800083D48000841480008A3
:1001300045480008494800084D4800085148000853
:1001400055480008594800085D4800086148000803
:1001500065480008694800086D4800084D3C0008E3
:1001600075480008794800087D4800088148000863
:1001700085480008894800088D4800089148000813
:1001800095480008994800082DE9F04FA1B0804635
:1001900017461D46029102AE0020706211AC6FF04E
:1001A00000490AE017F8011B0298C0470290002896
:1001B00000F07882706A401C7062387808B9706A02
:1001C00072E22528EED10020F06030617061B061EC
:1001D000F061306201E040F0010017F8011F2029B2
:1001E000F9D023290ED02B2904D02D2906D030296F
:1001F0000CD00FE040F0020080B2EEE740F00400C7
:1002000080B2EAE740F0080080B2E6E740F0100074
:1002100080B2E2E72A290DD129680A1D2A600968FF
:10022000F162002904D54942F16240F0040080B235
:100230007F1C11E00021F16209E0F16A494505D017
:1002400001EB810302EB43013039F1627F1C3A7804
:10025000A2F130010A29F0D339782E291CBF4FF0C2
:10026000FF31B1621CD117F8011F2A2906D1296874
:100270000A1D2A600968B1627F1C11E00021B16289
:1002800009E0B16A494505D001EB810302EB430166
:100290003039B1627F1C3A78A2F130010A29F0D3DB
:1002A000308639780FF6242000F034FD08B117F8B5
:1002B000010B8DF83A009DF83A00682804D138788F
:1002C00068280AD1622005E06C2804BF38786C28C1
:1002D00003D171208DF83A007F1C11A8B0603A78E4
:1002E0001046253821D02038022870D9133800F064
:1002F0009A800B3800F03781401E00F0DD80401EF0
:10030000022864D9001F00F0D780401F34D0401E5F
:1003100000F08980401E24D0C01E0CD0801E00F04A
:100320008280C01E00F07F8026E1F068411CF160F1
:10033000252101552AE12868011D296000687060A7
:10034000B26A002A03D500F001FD30611EE10021F0
:1003500000F018FD00281ABF7168401AB06A3061B9
:1003600014E12868011D296000680021CDE9000121
:1003700011A870607821F2E09DF83A00622818D048
:10038000682806D06A280BD06C2819D0712807D0AD
:1003900016E02868011D2960716A00680180F5E097
:1003A0002A68101D2860706AC1171268C2E900012E
:1003B000ECE02868011D2960716A00680170E5E0C1
:1003C0002868011D2960716A00680160DEE0286804
:1003D000C01D20F007002860034603F108002860D4
:1003E000D3E90001CDE90001002904D5F068411CE2
:1003F000F1602D210DE0308E810704D5F068411C9D
:10040000F1602B2105E0C00704D5F068411CF160C4
:1004100020210155F06811A940187060114600A80C
:1004200000F0D8F9B2E09DF83A306C2B08BF28688C
:1004300011D0712B08BF286802D06A2B28680AD116
:10044000C01D20F00700286084460CF108002860D9
:10045000DCE9000103E0011D296000680021CDE90D
:100460000001682B04BFDDE9000180B20BD0622BD4
:1004700004BFDDE90001C0B205D0742B18BF7A2B90
:1004800004D1DDE900010021CDE9000196F830003A
:1004900000075FD5DDE90001002908BF002859D019
:1004A00042F02000782855D1F06830210155401CD9
:1004B000411CF16002554DE09DF83A0062280CD0D5
:1004C000682810D06A281AD06C2824D0712816D039
:1004D000742820D07A280CD01DE02868011D2960DE
:1004E00090F900001BE02868011D2960B0F90000A8
:1004F00015E02868011D29600068002110E02868C7
:10050000C01D20F007002860034603F108002860A2
:10051000D3E9000104E02868011D29600068C117C3
:10052000CDE90001DDE90001002904DAF068411C91
:10053000F1602D210DE0308E810704D5F068411C5B
:10054000F1602B2105E0C00704D5F068411CF16083
:1005500020210155F06811A940187060114600A8CB
:1005600000F0A5F812E0F068411CF16029680A1D4E
:100570002A600968015509E0F068411CF1602521F5
:1005800001551AB1F068411CF16002557F1CF06AF8
:10059000F168401AB169401A3169401AF169401A8C
:1005A0007169401A316AA0EB010A96F830004007E1
:1005B00011D420208DF84000BAF1010F0BDBD34697
:1005C000012310AA00A9404600F069FB002869D168
:1005D000BBF1010BF4D1F36811AA00A9404600F069
:1005E0005EFB00285ED130208DF84000D6F818B0B0
:1005F000BBF1010F0ADB012310AA00A9404600F05D
:100600004EFB00284ED1BBF1010BF4D13369726867
:1006100000A9404600F043FB002843D130208DF86C
:100620004000D6F81CB0BBF1010F09DB012310AA72
:1006300000A9404600F033FBA0BBBBF1010BF5D194
:10064000736930697168421800A9404600F027FBC1
:1006500040BB30208DF84000D6F820B0BBF1010F30
:1006600009DB012310AA00A9404600F018FBC8B915
:10067000BBF1010BF5D196F8300040077FF59DAD39
:1006800020208DF84000BAF1010FFFF696AD01234E
:1006900010AA00A9404600F002FB18B9BAF1010AFD
:1006A000F5D18AE54FF0FF3021B0BDE8F08F2DE99C
:1006B000FA4B86B005462F696F2908BF082605D07A
:1006C00041F02000782814BF0A2610263C24D5E9E2
:1006D000000181468B469DF81820642A18BF692ABC
:1006E00005D1002903DAD9F100096BEB4B0BBBF103
:1006F000000F08BFB9F1000F0CD1286B50B9082EBC
:1007000044D195F83800000740D53B24302087F8C5
:100710003B003BE0A4F101084446F017CDE904603A
:1007200048465946DDE9042300F058FBCDE90201B3
:10073000CDE9009BDDE90223DDE90401A0FB029B7A
:10074000DDE90001A0EB09003030C0B23A2803D344
:100750009DF818105139081808F80700DDE9029BC8
:10076000BBF1000F08BFB9F1000F03D0E868E11931
:100770008842CFD3082E09D195F83800000705D557
:10078000E05D302802D0641E3020E055C4F13C000A
:10079000A861E119E960296B884207DA081A286222
:1007A000288F4FF6EF710840288710E000290ED5FA
:1007B00095F8381001F01401102908D1696B6A69A5
:1007C000891A2A6A891A0C1A012CA8BF2C6208B04F
:1007D000BDE8F08B2DE9F24F8CB0054602AFD5E9AC
:1007E0000089286B002848BF062005D404BF41F0CB
:1007F0002000672801D101202863C9F30A5040F284
:10080000FF7398421DD15FEA093008BFB8F1000FAD
:1008100009D10320A8619DF8300061381A2857D308
:100820000FF2BC4108E00320A8619DF83000613858
:100830001A284AD30FF2A0410322E86800F046FBD1
:1008400000E1010008D1284600F07BFB0128A4BF8D
:100850000023002680F2ED8040F2FE316A6861F3E9
:100860001E526A60461A404649460022002300F0A4
:100870008BFB38BF89F0004936B247F2975070437E
:10088000724990FBF1F636B2C6F107077049012FA5
:1008900021DBC246CB4690468946F80707D550462D
:1008A000594642464B4600F087FB82468B467F10F6
:1008B0004046494642464B4600F07EFB804689460C
:1008C000002FEAD1D046D94629E00FF20841B3E71C
:1008D0000FF20841B0E77F429246DFF878B1CDE9E8
:1008E000002114D0F80707D550465946DDE900230A
:1008F00000F062FB82468B467F10DDE90001DDE9F6
:10090000002300F059FBCDE90001002FEAD1404659
:10091000494652465B4600F021FC804689469DF8D8
:10092000300040F0200ABAF1660F0CBF06F10A0051
:100930000620296B4418142CA8BF132430208DF8EE
:1009400008000DF10907012C34DB4046494600F050
:1009500029FD014607F1080204234FF00A0CB1FB00
:10096000FCF707EB870BA1EB4B01303102F8011DBF
:10097000B7FBFCFC61460CEB8C0EA7EB4E07303747
:1009800002F8017D5B1EE8D102F10807083C012C4A
:10099000D9DB00F01DFD02460B464046494600F0FB
:1009A00025FD02460B4600202B4900F005FB804642
:1009B0008946CAE70DF10900381A0DF109079DF8BB
:1009C0000910302905D1401E761E17F8011F302965
:1009D000F9D0BAF1660F04BF36B2711C04D0BAF177
:1009E000650F0CBF012100212A6B8B181BB29842A6
:1009F000B8BF03461BB2002B1BD41946814204DA50
:100A0000C85D352828BF392000D23020CA19521EAF
:100A100000E05B1E491E12F801498442F9D03928D2
:100A200002D1C85D401CC855002902D57F1E5B1C41
:100A3000761C36B200961BB23A469DF83010284616
:100A400000F00CF80DB0BDE8F08F0000A0860100AA
:100A5000000024400000F03F84D797412DE9F04783
:100A600086B006468A4690461C46BDF9385000F0CE
:100A70009AFD406A90F80090376B012C02DA01244D
:100A80000FF260284AF02000662808D0672840F05E
:100A90008C806FF003018D4276DBBD4274DA6D1CF1
:100AA00066280AD096F83800000702D4BC42B8BFC6
:100AB00027462DB27F1B48BF0027F068B1692DB2D1
:100AC000012D21DA4A1C30230B54012F03DA96F84A
:100AD0003810090702D502F80090521CB261EF42AB
:100AE000B8BF7D422DB269427162EF19A742B8BF0B
:100AF0003C4624B2F46122464146B369181800F01E
:100B0000E5F9381BB062B3E00818AC4216DA2246A9
:100B1000414600F0DBF9B1696118B161281B7062D0
:100B2000012F03DA96F83800000705D5F06801F8C0
:100B30000090F069401CF061B76299E02A46414696
:100B400000F0C4F9B0692818B061641B012F03DA02
:100B500096F83810090704D5411CB161F16800F816
:100B6000019024B2A742B8BF3C4624B2224605EB0E
:100B70000801B069F368C01800F0A8F9B06920183E
:100B8000B061381B706273E0BC4204DA96F838102A
:100B9000090758BF27467F1E48BF0027BAF1670FD5
:100BA0000CBF4FF0650A4FF0450AB1694A1CF06866
:100BB00018F8013B0B54012F03DA96F83810090797
:100BC00002D502F80090521CB261012F10DB641EA6
:100BD00024B2A742B8BF3C4624B222464146B3697C
:100BE000181800F073F9B0692018B061381B7062F2
:100BF000B069F16800EB010808F801AB002D5CBF9B
:100C00002B2008F8010B03D52D2008F8010B6D42AD
:100C1000002402AF2DB2012D0EDB0A22294600A8C6
:100C200000F0DAFC019807F8010B009D641C2DB25E
:100C3000012DF2DA022C06DA4AF02000652804BF02
:100C4000302008F8010B1CB9302008F8010B09E02E
:100C5000012C07DB641E02A8205C303008F8010B71
:100C6000012CF7DAB069F1684018A8EB0000F061D8
:100C700096F8380000F0140010280DD17069B169A1
:100C80000818716A0818F1690818B16A0818716BB8
:100C90008842BCBF081A306206B0BDE8F087F8B5DC
:100CA00004460D4616461F46002077B116F8011B74
:100CB000A868A047A86030B1E86A401CE86200203C
:100CC0007F1EF3D1F2BD4FF0FF30F2BD686A6C7445
:100CD0007A4C00006E616E004E414E00696E6600F7
:100CE000494E4600300010B450F8041B81B1026830
:100CF0001218001D50F8043BDC0744BFA9F10104A1
:100D0000E31852F8044B43F8044B091FF9D1EBE701
:100D100010BC70470278C9B28A421AB11CBF10F8E1
:100D2000012FF9E718BF0020704750F8041B61B18C
:100D300050F8042BD30744BFA9F101039A180023EC
:100D400042F8043B091FFAD1EFE7704700F10103B5
:100D5000810704D010F8011B89B18107FAD102681C
:100D6000B2F10131914311F0803F04BF50F8042FDC
:100D7000F6E710F8011B11B110F8011BFBE7C01AD0
:100D800070470000C9B2830706D0521E22D310F864
:100D9000013B9942F7D11FE0083A13D302F1040254
:100DA00041EA012141EA014150F8043B121F21BFF1
:100DB0004B40A3F1013C2CEA030C1CF0803FF3D024
:100DC000C9B2001F083210F8013B521E28BF91EA39
:100DD000030FF8D818BF0120401E70471B4213D1E3
:100DE000094236D12AB18446B0FBF2F002FB10C2B0
:100DF000704700F0F9BBFCD30022002370470B00C2
:100E00000200002100207047904271EB030CF6D3E2
:100E100070B5B1FA81F4B3FA83F52C1BA340C4F189
:100E2000200532FA05F63343A2405FF00046E64063
:100E300002E05B085FEA3202841A71EB030524BF0B
:100E4000204629467641F4D302000B0030000021F1
:100E500070BD012ACFD970B5140C20D0B1FA81F43D
:100E6000B2FA82F5C4F120046419B4F12006D6D395
:100E7000B2405FF00044F440002502E052085FEA0F
:100E80003303C61A71EB020E24BF3046714664412B
:100E90006D41F3D302000B002000290070BD0C4609
:100EA000B1FBF2F102FB11452D0445EA1045B5FBFB
:100EB000F2F402FB145580B240EA0545B5FBF2F0AE
:100EC00002FB105240EA044070BD000062B38B0781
:100ED00008D0521E11F8013B00F8013B00F02480BD
:100EE0008B07F6D1830740F0208000BF103A07D36C
:100EF00030B4B1E83810103AA0E83810F9D230BC5C
:100F0000530724BFB1E80810A0E8081044BF51F807
:100F1000043B40F8043BD20724BF31F8022B20F8F1
:100F2000022B44BF0B7803707047083A07D3B1E82F
:100F30000810083A40F8043B40F804CBF7D25307B6
:100F4000E4E730B44168436801F0004201211B032B
:100F50001B0B436004BF0368002B0ED0036844687A
:100F6000DD0F45EA440444605B000360491EE30270
:100F7000F4D543681B031B0B436043681A4342606C
:100F800030BC0846704700004FF4001C1CEB410FBA
:100F900094BF1CEB430F09E041EA030C50EA4C0CF0
:100FA00052EA0C0C03D2994208BF9042704714BF1A
:100FB0008B42824270470000B0B581EA030C0CF00E
:100FC000004C40F2FF7515EA11541DBF15EA135786
:100FD000AC42AF4239E0E41923EA455343F48013AD
:100FE000C90241F0004141EA505EC7021100A7FB6F
:100FF000020200284FF00000EEFB01204FF000013C
:10100000E3FB072118BF42F00102401800214941CB
:10101000E3FB0E01A4F580640F0302D252004041AD
:10102000494154F101046CDD470872F1004250F16E
:10103000000051EB0451A1F580115CBF41EA0C01A5
:10104000B0BD4CEA05510020B0BD05EA1357AC42D3
:1010500014BFAF4241E050EA410E1CBF52EA430EBA
:1010600002E061460020B0BD24423C441BD15FEA4F
:10107000070EF6D0090302BF01460020AEF1140EA0
:10108000B1FA81F7AEEB070401FA07FE0C37C7F19E
:10109000200100FA07F7C8404EEA000E23EA455344
:1010A00043F48013A2E733F00043B3FA83F704BF9D
:1010B000B2FA82FE77440B3FE41BB7F1200E2FBF3C
:1010C00002FA0EF3BB40C7F1200E22FA0EFE38BF23
:1010D00043EA0E03BA40641C82E750EA410E14BF93
:1010E00052EA430E6FF000014FF4001717EB430F65
:1010F0008ABF194617EB410FB5E74CEA05510020AE
:10110000B0BDD4F10104B4F120070FDAC4F1200717
:10111000520828BF42F0010210FA07F501FA07F75A
:10112000E1BF2A43E0403843E1400FE0352C98DC32
:10113000C7F1200452EA400220FA07F218BF42F039
:10114000010231FA07F0A1400A43002172F1004286
:1011500050F1000051EB0C01B0BD0000F0B540F2C1
:10116000FF7581EA030C0CF0004C15EA11541DBF09
:1011700015EA1357AC42AF42E5E0BC41C1F313019D
:10118000C3F31303801A994143F4801304D2641EFD
:101190004000494180185941C90241EA5051B1FB10
:1011A000F3F603FB1611A2FB0675D7EBC020A9418D
:1011B00002D2761E80185941C90241EA5051B1FB52
:1011C000F3FE03FB1E11A2FB0E75D7EBC020A94155
:1011D00003D2AEF1010E80185941890241EA9051C3
:1011E000760546EA8E2EB1FBF3F603FB1611A2FB41
:1011F0000675D7EB8020A94102D2761E801859418E
:10120000C90241EA50514EEA060EB1FBF3F603FB68
:101210001611A2FB0675D7EBC020A94102D2761E9B
:1012200080185941C90241EA5051B1FBF3F703FB61
:101230001711A2FB0735D3EBC020A94167F10007C6
:101240000CBF004247F0010766F3D5274FEA1E3175
:10125000B80814F5806412DDBD0775F1004250EB4B
:101260000E5051EB045111F5801F5CBF41EA0C0197
:10127000F0BD4CF07F6141F0E0410020F0BDBD07C2
:101280006D0840EA0E5041F48011D4F10104B4F12C
:1012900020060ADAC4F120060200E04001FA06F353
:1012A000E1401843B24015430EE0342C13DCC6F184
:1012B000200445EA40056D0820FA06F2154321FA9C
:1012C00006F0A1400D43002175F1004250F10000ED
:1012D00051EB0C01F0BD00205FEA0C01F0BDCFB96D
:1012E00092185B41B3FA83F704BFB2FA82F6BF19D2
:1012F0000B3FB7F120062FBF02FA06F3BB40C7F140
:10130000200622FA06F638BF3343BA401CB1E4196E
:10131000641E33E77F4231F00041B1FA81F404BF2B
:10132000B0FA80F6A4190B3CB4F120062FBF00FAE6
:1013300006F1A140C4F1200620FA06F638BF314379
:10134000A0403C1B1AE7AC421ABF05EA1357AF4254
:1013500012E050EA41061CBF52EA4306BFE750EADA
:101360004107304661461CBF41EA0551F0BD52EAD3
:10137000430C08BFC143F0BD00204FF4001616EB2C
:10138000410F98BF16EB430F08BF16EB410F24BF68
:10139000C14305E016EB430F0CBF61464CEA055113
:1013A000F0BD0000400D40EAC120490080F00D80F2
:1013B00040F00040490DA1F58061491C05D4D1F1F0
:1013C0001F0154BFC840C01770474FF0000070475E
:1013D000010000BF09D0B0FA80F18840C91CC1F5F6
:1013E0008461090501EBD0214005704770B44FF0CE
:1013F000004591EA030F44BF6B4000F0F7B800BF0F
:10140000841A71EB030604D26E40001BB14112191D
:1014100073414FF4001C1CEB410F34BF7CEB4306BF
:1014200084E00C0DA4EB1356362E7DDC012E43DC3C
:1014300045EAC32343EA525312BFD20292025B0829
:10144000240545EAC12141EA5051D2EBC02099411F
:1014500025D407D1B0FA80F610FA06F164D0002046
:10146000203608E0B1FA81F6B140C6F1200220FA38
:1014700002F21143B0404FEAF474B4EB465434F036
:1014800001064FEA74040AD8D6F50016760D04F06A
:101490000044F04061FA06F25040F1404840C00A72
:1014A00040EA415021F0004128BF5FEA500550F169
:1014B000000044EBD12137E045EAC323DB0A45EACB
:1014C000C121C90AB6F120050EDD42EA0242120C22
:1014D000C5F1200603FA06F6EB4042EA06056D4226
:1014E000984161F100010DE062FA06F5F2405540C5
:1014F00063FA06FC82EA0C02F3405A406D429041C6
:1015000061EB030111F4801F05D1641E620502D056
:101510006D004041494121F48011430875F10043B9
:1015200050F1000041EB045170BC70471CEB410FBF
:1015300015D223F0004352EA43060BD04FEA4C0C7D
:10154000BCEB410F04D80C0D661E342EB7DDEBE763
:10155000801A994150EA410608BF0021E4E708BF1C
:101560001CEB430F28BF6FF00001DDE780B5134887
:1015700000F0A6F80FF24801016041608160C1608F
:101580000161416181610FF23C0242628162C1628C
:10159000016341630FF2300282630FF23402C263CF
:1015A0000164416401BD10B5044800F089F80446A7
:1015B000206808B9FFF7DAFF204610BD00000020C0
:1015C000000000002E00000066616C7365000000E2
:1015D000747275650000000091FBF2F303FB1211B9
:1015E000C0E900317047000070470000841A71EBB9
:1015F000030603D2001BB141121973414FF4001CC2
:101600001CEB410F34BF7CEB430443E00C0DA4EB17
:101610001356352E50DC45EAC323DB0A45EAC121C7
:10162000C912B6F120050DDD63FA05F6EB4086EA36
:101630000305124218BF45F00105C01851F1000121
:101640000CD213E062FA06F5F2405540F3415A40DD
:10165000B340F3405A408018594107D349085FEA24
:1016600030005FEA350528BF45F0010501F580111E
:10167000420875F1004250F1000041EB045170BC8A
:101680004FF4001C1CEB410F38BF70470020090DC0
:10169000090570471CEB410F10D252EA43060BD0EC
:1016A000BCEB410F05D80C0DAB43661E342EB5DDE7
:1016B00002E0AB438018594170BC704770BC704762
:1016C000704700002DE9FA4F83B0064617460E9C7E
:1016D000DDF83C80DDF840A0DDF84490159DDDF894
:1016E00058B0DFF844070078002804D047F24A10C9
:1016F000ABF8000099E0002E04D147F2AD10ABF832
:10170000000092E0380004D147F24F10ABF800001F
:101710008BE0B8F1000F04D146F62F60ABF8000063
:1017200083E0DFF8D4070068814504D246F63060D4
:10173000ABF8000079E0CA4504D346F63160ABF857
:10174000000072E0402C05D23F2C08D1DFF8AC0736
:10175000864204D046F27320ABF8000065E03046C4
:1017600000F04AFA0020ABF8000005F0030003285F
:1017700008D1404600210A4602E040F8042B491CEB
:101780004945FAD308EB8A0AADB20195CDF800902D
:10179000534642460499384600F0EBFBB762049981
:1017A000F1620399316286F837403060C6F808A0CC
:1017B0001398706514987060C6F82480C6F8389045
:1017C000B587002002E00020F06701200028FAD051
:1017D000BDF8481006F1640000F0C4FC304600F08B
:1017E000B6FB00F0D1FC044696F8370000F0FAFC96
:1017F000304601F05BF8304600F0BAF9DFF8000738
:101800000188491C0180DFF8FC0600780128204689
:1018100004D005B0BDE8F04F00F0BABC00F0B8FC51
:1018200005B0BDE8F04F00F0E8BD05B0BDE8F08FB1
:10183000F8B505460C46DFF8F0050078002803D01F
:1018400047F24E102080F1BDDFF8B006854203D18B
:1018500047F24C102080F1BD002D06D100F094FC21
:10186000DFF8C8150D6800F093FC00F08DFC06460B
:1018700005F23407B878072837D8DFE800F00424E9
:10188000282807242828284601F02BF805F16400B1
:1018900000F04EFC284600F060FB284600F07BF983
:1018A000DFF85C060188491E0180284600F0A4F993
:1018B000FF20B870304600F06BFC00202080BDE8AF
:1018C000F14000F09ABD284601F083F9DEE7284692
:1018D00001F07FF995F83400401E02D0801E0328E5
:1018E000D4D8284600F011FFD0E7304600F050FC75
:1018F00046F62D602080F1BD38B504460D46DFF870
:1019000028050078002803D047F25510288031BD03
:1019100000F03AFC002C04D0DFF8EC1509688C428A
:1019200005D100F035FC47F25710288031BD00F09A
:101930002FFC29462046BDE83440C1E12DE9F8439B
:101940008046894617461C46DFF8DC0400780028EC
:1019500004D046F2AE102080002098E048460028CF
:1019600002D0B0F5004F2CD1002F01D000203860FC
:1019700000F00AFC0546DFF8B4643068416C0029C9
:1019800024D0491E41643068D0F84480002F01D033
:10199000006C386001F051FA31680A6C801AC1F8A5
:1019A000A4003068D0F8A41000F2A40042688A4273
:1019B00000D24160284600F0EBFB0020208040462A
:1019C00065E045F625602080002060E05FEA094080
:1019D00007D5284600F0DCFB46F2B010208000203E
:1019E00055E0DFF828050078002807D0284600F0E9
:1019F000CFFB46F663502080002048E04346072294
:101A00000021084600F0E7FD284600F0C1FB00F089
:101A1000F4FC00F0B9FB0546306890F83510002959
:101A200004D0012919D003291FD026E0002F11D09E
:101A3000006C386001F001FA31680A6C801AC1F854
:101A4000A4003068D0F8A41000F2A40042688A42D2
:101A500000D241600020208012E0002F01D0006CF5
:101A6000386046F2A91020800AE0002F01D0002043
:101A7000386047F2D920208002E046F62E602080B0
:101A80003068D0F84480284600F082FB4046BDE82C
:101A9000F28370B504460D461646280002D0B0F514
:101AA000004F08D101F0C9F93346024629462046C5
:101AB000BDE8704068E145F625603080002070BDCB
:101AC000F8B507460D4616461C46DFF85C0300785D
:101AD000002803D047F259102080F1BD002D01D01D
:101AE000002E03D146F2D5202080F1BD00F04CFB42
:101AF000002F02D1DFF810140F683968002908D1CF
:101B000000F046FB00202860306047F25210208031
:101B1000F1BD97F83C10C90708D400F039FB00204C
:101B20002860306047F254102080F1BD00F030FB97
:101B30000020796A01E0091D401C0A68002AFAD0D9
:101B40002860B96B081A306000202080F1BDB64AC9
:101B50001278002A03D047F25D1008807047DFF842
:101B60009C23904203D147F25B10088070475FE1ED
:101B70000021C0F8B410DFF898130A68002A03D1D6
:101B80000022C0F8B82004E0C0F8B8200A68C2F803
:101B9000B40008607047D0F8B41000F2B402536883
:101BA00000290AD1DFF868030360002B02D000206F
:101BB000C3F8B400002050607047002B06D100220B
:101BC000C1F8B8201146C0F8B4107047C1F8B83059
:101BD000C3F8B41000215160C0F8B4107047DFF8AA
:101BE000301300220A60DFF818130A80DFF824138C
:101BF0000A6011460180704710B50446002020603D
:101C0000A0606060E06020616061A061E0610FF24F
:101C10000830206200206062A062E0622063E087FA
:101C20002064E065A4F86000014604F1640000F05F
:101C300099FA00206067A067C4F88000A4F88800C3
:101C4000C4F8840002E00020E06701200028FAD0F8
:101C500000206064C4F8A400C4F8A800A06384F85D
:101C60008A00C4F8B000C4F8AC00A0874FF0004070
:101C7000A0640020E06420656065A065A4F88C0085
:101C8000A4F88E00C4F89000C4F8940001F0D5F8D0
:101C9000C4F898000020C4F89C0084F8340084F84C
:101CA000350084F83600402084F837000020C4F85E
:101CB000B400C4F8B8008FA0C4F8BC0010BD000088
:101CC00070B504460E4600F05FFA054600203080ED
:101CD00094F83600072845D8DFE800F0040404042F
:101CE0000E1D2935284600F053FA47F25310308074
:101CF000BDE8704000F081BB94F88A00401E84F873
:101D00008A00C0B2002829D1002084F8360020467D
:101D100000F068FE22E094F88A00401E84F88A00F1
:101D2000C0B200281AD1012084F8360016E094F8D9
:101D30008A00401E84F88A00C0B200280ED102201A
:101D400084F836000AE094F88A00401E84F88A007D
:101D5000C0B2002802D1032084F83600284600F0E3
:101D600017FAC5E7284600F013FA46F62D603080D2
:101D700070BD80B56448006800F0F5F800A9002047
:101D8000FFF756FD01BD00002DE9F84381460E46E0
:101D900090461F4600F0F8F90446B9F1000F02D151
:101DA0005948D0F8009009F23405C5F80C8000209D
:101DB0003880A87807282CD8DFE800F01919040427
:101DC0001919040499F83400072810D1CDF80080BF
:101DD00000231A464946104600F0C8FC2F692046E9
:101DE00000F0D6F930041BD400F007FB18E0286996
:101DF00010F1010F07D1204600F0CAF946F6C55090
:101E0000388000200DE0471C2F61204600F0C0F90B
:101E100006E0204600F0BCF946F62D603880002729
:101E20003846BDE8F2830000887E0020707E0020E6
:101E300070B505460C4600F0A7F906463248006822
:101E4000002D00D1054685420AD13048007800288F
:101E500006D0304600F09CF946F66350208070BDF5
:101E60000020208095F8360007283CD8DFE800F0F5
:101E700004141E2832323232042085F83600012044
:101E800085F88A00284600F02CFD304600F080F9E5
:101E9000BDE8704000F0B1BA052085F83600012099
:101EA00085F88A00304600F073F9F1E7062085F8DE
:101EB0003600012085F88A00304600F069F9E7E72E
:101EC000072085F83600012085F88A00304600F0AA
:101ED0005FF9DDE795F88A00401C85F88A003046F6
:101EE00000F056F9D4E7304600F052F946F62D607E
:101EF000208070BD20000000B44500080C7900204F
:101F0000867E0020897E0020707E00208D7E00204D
:101F1000507E00204C7E00203F5461736B00000017
:101F200059480068010000D00047704757480068D2
:101F30005749096801EB8000C008C0005549086096
:101F4000704755480068010000D00047704753496A
:101F500009680A0000D008477047514909680A001B
:101F600000D0084770474F4909680A0000D0084769
:101F7000704710B4019C02EB8402D208D200121FF9
:101F80004FF08074146042F8040D474842F8040D85
:101F90004FF0123042F8040D4FF0033042F8040DB8
:101FA0004FF0023042F8040D42F8043D42F8041D9F
:101FB0004FF0113042F8040D4FF0103042F8040D8C
:101FC0004FF0093042F8040D4FF0083042F8040D8C
:101FD0004FF0073042F8040D4FF0063042F8040D80
:101FE0004FF0053042F8040D4FF0043042F8040D74
:101FF0006FF0020042F8040D104610BC704710B597
:102000002A480068010000D0804700F016FF2849E8
:102010000A68284B1C68A2420CD0D2F89840041BD6
:10202000C2F89440096801F294029468D1F89410BF
:10203000091991601968C1F8980010BD1E48006820
:10204000010000D00047704780B500F09DF81B49A3
:102050000A78521C0A7000F09BF800F046FFBDE8B9
:10206000014000F079B91649401E486015480268E1
:102070001202120A0260086840F005000860086851
:1020800040F0020008607047147E0020944500086C
:1020900090450008047E0020187E0020087E002065
:1020A0000C7E0020107E0020731D00081C7E002086
:1020B000707E0020747E0020207E0020887E00201C
:1020C00010E000E020ED00E0F0B42A4909680029A2
:1020D00003D145F21E71018028E0274A1288002AA8
:1020E00003D145F21D71018020E00B4601F110047F
:1020F000551EADB20026374609E043F8044B43F8BD
:10210000047B23F8047B43F8047B1034761CB6B2BE
:10211000AE42F2DB3C461C605C601C81DC60174B0D
:1021200019609A802146D98019810180F0BC7047DE
:1021300010B44289110012D0104A036814681C6060
:1021400043681360D38844891B1BD38093884489D8
:10215000E318938000224281828102604260084637
:1021600010BC704701810021418181810160416083
:10217000704700009C45000898450008EC7D002051
:1021800072B6704762B67047EFF3108072B6704750
:1021900080F31088704730BF704720BF7047B0FA97
:1021A00080F0704790FAA0F0B0FA80F0704790FA93
:1021B000A0F0704700201D49024602E041F82020AF
:1021C000401C0228FAD3704710B50024174901E0DB
:1021D0002034091D08680028FAD0FFF7E0FF001935
:1021E000C0B210BD10B44109104A52F82130012488
:1021F00000F01F00C0F11F0004FA00F0184342F87D
:10220000210010BC704710B44109084A52F821302F
:10221000012400F01F00C0F11F0004FA00F023EABF
:10222000000042F8210010BC70470000F87D00203B
:1022300010B50446FFF77AFEDFF8040700210170AD
:10224000DFF800070170DFF800070170DFF8FC0617
:102250000160DFF8FC060160DFF8F8060170DFF8C6
:10226000F8060170DFF8F4060170DFF8F406006884
:1022700000280BD0DFF8EC160968002906D00022F0
:10228000002802E0401E41F8042BFBD1DFF8D806FD
:1022900000210160DFF8D4060160DFF8D406016098
:1022A000DFF8D0060160DFF8D0060160DFF8CC0669
:1022B0000160DFF8CC060160DFF8C8060170FFF7A7
:1022C00079FF00F0B4FA204600F034FE20880028A0
:1022D00041D1204600F03AFE208800283BD120461C
:1022E000FFF7F2FE2088002835D1204600F03CFEA2
:1022F000208800282FD1204600F042FE20880028A8
:1023000029D1204600F04AFE2088002823D120460B
:10231000FFF765FC208800281DD1204600F035F924
:102320002088002817D1204600F092FB2088002842
:1023300011D1204600F0CDFF208800280BD1204687
:1023400001F044F82088002805D101F0A9F9BDE882
:10235000104001F0A6B910BD10B5DFF8E80500780F
:10236000012849D1FFF710FF0446DFF8D4050178B2
:10237000002904D12046BDE81040FFF709BF491EDF
:102380000170C9B2002904D02046BDE81040FFF713
:10239000FFBEDFF8B4050078002804D02046BDE871
:1023A0001040FFF7F5BEFFF70FFFDFF8AC15087020
:1023B00000EB40018800DFF8D0154058DFF8901599
:1023C0000860DFF888150968884204D12046BDE816
:1023D0001040FFF7DDBED0F89010491CC0F89010F7
:1023E000DFF8A8050168491C016001F06EF920467C
:1023F000BDE81040FFF7CCBE10BD10B5DFF84005BA
:102400000078DFF84415097808432BD1FFF7BCFEAC
:102410000446FFF7D9FEDFF84015087000EB4001D5
:102420008800DFF864154058DFF824150860DFF8ED
:102430001C150968884204D12046BDE81040FFF70A
:10244000A7BED0F89010491CC0F89010DFF83C05EA
:102450000168491C016001F034F92046BDE81040D4
:10246000FFF796BE10BD38B50446DFF8D4040078F7
:10247000002803D046F66250208031BDDFF8C40446
:102480000078012803D045F68960208031BDDFF84F
:10249000B8542878FA2803D345F20920208031BDAA
:1024A000FFF772FE2978491C2970FFF771FE0020A2
:1024B000208031BD38B50446DFF884040078002858
:1024C00003D046F66550208031BDDFF878040078EF
:1024D000012803D045F68960208031BDDFF86854BB
:1024E0002878002803D146F66450208031BDFFF7DC
:1024F0004BFE2978491E2970C9B2002905D0FFF783
:1025000047FE46F66350208031BDFFF741FEFFF7DE
:1025100074FF0020208031BD38B50446DFF8245414
:10252000287800281BD1FFF74FFEDFF82C14087025
:10253000DFF82014087000EB40018800DFF8481431
:102540004058DFF80C140860DFF800140860012020
:10255000287001F0A7F843F69920208031BD45F698
:102560008A60208031BD80B5FFF70EFEDFF82014B1
:102570000A68521C0A60DFF81C140A68521C0A60C0
:10258000FFF706FEFFF7CCFCEEE700B589B0DFF8F9
:10259000001400220A6008900B2007901046069055
:1025A00005900490DFF8F00300680390DFF8EC0377
:1025B00000680290DFF8E803006801903F20009077
:1025C0001346DFF8E0230FF23841DFF8DC03FFF7B2
:1025D00079F809B000BD70B506460C461946DFF81B
:1025E0006C53286880F834202868002280F8352051
:1025F000286800F0DBF9002C0BD0F4600122314692
:10260000286800F010F8314604F1080000F04AF89C
:1026100004E028680021C1872868016329682046F2
:10262000BDE8704013E010B4C287016300231C466C
:1026300008E04C600C600C614C610C83CC618860DC
:1026400020315B1C9BB29342F3D310BC704700282F
:1026500007D04268C1F8BC2081688968096AC161F5
:10266000704791F83400022802D0072805D009E00D
:102670000FF2A030C1F8BC0070470FF2A030C1F8D3
:10268000BC00704788A0C1F8BC00704786A2C1F8A2
:10269000BC208168002903D08968096AC16170473C
:1026A000C261704710B48A6892F837200389002B02
:1026B00007D10122028100224A600A600160416064
:1026C00021E05B1C0381036800E05B68002B04D001
:1026D0009C6894F83740A242F7D2002B06D1002222
:1026E0004A6042680A60516041600CE01A68002A42
:1026F00005D1196000220A604B60016003E00A60A6
:102700004B605160196010BC704770B50446256B72
:10271000E68F06E02946E868083000F009F8203521
:10272000761EB6B2002EF5D10020E087206370BD82
:102730000289012A03D10022026042600FE04A6848
:102740000B68002B03D100231360026007E0002A0E
:1027500003D100225A60436001E05A60136002898D
:10276000521E0281002048600860704770B582B038
:1027700006460C46069804F23405A978891E0129FC
:1027800003D9091F01291FD973BD94F834100329F7
:1027900005D100902146304600F036F802E0AA62EA
:1027A000AB85E860002E06D02046FFF7AEFF21463D
:1027B0003046FFF76BFF204600F014F90020A870A8
:1027C000687084F8340073BD94F83410032905D17F
:1027D00000902146304600F017F802E0AA62AB856F
:1027E000E860204600F0F5F9002E06D02046FFF7FD
:1027F0008CFF21463046FFF749FF0420A8700020D7
:10280000687084F8340073BD70B4039C0D6BC98F7D
:1028100001E02035491E89B2002906D0EE68B04299
:10282000F7D128616A612B83EC6170BC704700208E
:1028300009E000EB4001544A02EB810100220A81C9
:102840000A604A60401C4028F3D3704710B5044624
:1028500094F83700FFF7C6FC94F837003D49097833
:102860008842204602D1BDE810401FE0BDE810407C
:1028700090F8371001EB4102434901EB82010A89CC
:10288000002A07D101220A810022C2600261086089
:1028900048607047521C0A810A68C26000220261C7
:1028A0000A681061086070472000000090F8371037
:1028B00001EB4102344901EB82010A89002A07D168
:1028C00001220A810022C2600261086048607047EC
:1028D000521C0A810022C2604A680261D0604860CE
:1028E000704738B5044694F8370000EB400126489D
:1028F00000EB810004F20C056968E268002911D13F
:10290000002A08D1002101810160416094F837005C
:10291000FFF779FC0FE00189491E01810021116157
:10292000026008E003895B1E0381CA60002A01D1AE
:10293000416000E0116100206860E06031BD00008E
:10294000887E0020897E00208D7E0020707E002001
:10295000747E00208A7E00208B7E00208C7E0020EA
:102960009445000890450008087E00200C7E002059
:10297000107E0020147E0020187E00201C7E002087
:10298000207E0020907E00200C6E00204C7E0020D7
:10299000247E00203C7E00208C45000888450008ED
:1029A00084450008672500080C79002010B582B026
:1029B000044600290FD000AB022200F092F8BDF8C7
:1029C0000000002803D1032084F8360006E002202E
:1029D00084F8360002E0022084F836002046FFF733
:1029E00080FF13BD10B5044600F0F3F894F83600EC
:1029F000400703D42046BDE8104027E710BD000083
:102A000075432F4F532D4949492049646C65205423
:102A100061736B005461736B205100005461736BE0
:102A20002053656D0000000000B583B000AB01AA23
:102A300000210846FEF782FFBDF800000028F5D10E
:102A4000DFF8480300780128F0D100F0EDF8EDE759
:102A500010B58AB00446CE4800210160CD4801601F
:102A600000F02FF8CC480068002803D147F212206C
:102A7000208024E0C9490968C94A1268914203D2FA
:102A800047F2132020801AE0C64A12783F2A03D367
:102A900047F21120208012E008940B2307930023B3
:102AA0000693059304930391BF490968029101902D
:102AB0000092BE4A0FF20831BD48FEF703FE0AB08D
:102AC00010BD0020024606E0BA4901EBC0010A60D1
:102AD0008A80CA80401CB849098880B28842F3D3F2
:102AE000704770B4042A1ED1A94A12688A1A521E6D
:102AF000B24CA24232D2C164511C0165C16CAE4AD3
:102B00001288B1FBF2F402FB141189B2A94A02EB5C
:102B1000C1018A88002A29D10022426182610860AD
:102B200001228A804AE0002918D0994C2568082A99
:102B300010D1826C8A18561B761E8E4201D2C26456
:102B400001E04919C164C16C2268891A0165C16C30
:102B50008164D3E74A19C2640165CFE70021C164EB
:102B60000165C16147F27E20188030E00A6804E008
:102B700084614261606190610022002A1BD0844C14
:102B8000D56C24682C1B1465056DAC420AD25469BF
:102B9000002C01D02246F0E700244461826150619C
:102BA0002246EAE79469002CE2D100248461426164
:102BB00090610860E0E78A88521C8A80CA888C8805
:102BC000A24200D22246CA80C1610020188070BC97
:102BD0007047C169002918D00022026542690B685C
:102BE000834205D113000B6007D000229A6104E0F4
:102BF00083695A61002A00D0936100224261826198
:102C0000C261C2648888401E8880704700200246E6
:102C100004E0684901EBC001CA80401C664909888C
:102C200080B28842F5D370472DE9F047FFF7ACFA40
:102C3000044600F002F90546554E3068401C3060ED
:102C40005D490988B0FBF1F201FB120080B25949DD
:102C500051F83080002701E00127C846002F40F0DE
:102C60008780B8F1000F00F08180D8F8149008F246
:102C7000340A9AF80200012806D0032818D0052843
:102C80003CD007284ED0E8E7DAF818003168401A3F
:102C9000CAF81C003068DAF81810884206D1002003
:102CA0008AF802004046FFF79DFED6E70127D4E7E9
:102CB000DAF818003168401ACAF81C003068DAF8EF
:102CC0001810884218D10020CAF82800AAF82C0051
:102CD00000F0B3F8CAF80C004046FFF716FD404676
:102CE000FFF780FE00208AF8020003208AF8010026
:102CF000002088F83400B0E70127AEE7DAF81800C2
:102D00003168401ACAF81C003068DAF81810884296
:102D100006D104208AF802004046FFF75AFF9CE7DC
:102D200001279AE7DAF818003168401ACAF81C003F
:102D30003068DAF8181088428ED10020CAF82800CE
:102D4000AAF82C0000F079F8CAF80C004046FFF70A
:102D5000DCFC4046FFF73DFF04208AF80200032018
:102D60008AF80100002088F8340076E7012775E72B
:102D700000F063F8401B07490A68824200D202460D
:102D80000A602046BDE8F047FFF702BA897E0020BE
:102D9000547E0020587E0020C0450008C845000829
:102DA000B4450008BC450008C4450008292A0008AD
:102DB0008C7A0020947C0020CC4500080100FFFFA5
:102DC00075432F4F532D494949205469636B205453
:102DD00061736B0080B500F006F800F0B5FCBDE84B
:102DE000014000F065BF4FF4407000F0E7BF00B550
:102DF00085B000A801F020F8019805B000BD80B5AD
:102E0000FFF7F5FF0E490968B0FBF1F0BDE802409D
:102E1000FFF729B980B5FFF7EAFF0A490A6842F0CF
:102E200080720A60084900224A600A6842F0010282
:102E30000A60BDE8024001F08CB8044800687047A1
:102E4000B8450008FCED00E0001000E0041000E0D0
:102E50002DE9F04105460E4614462F48007800281B
:102E600003D047F2752020803DE02C4800780028F0
:102E700003D046F66350208035E0300005D00228AC
:102E800003D004280BD0082805D1002D07D147F224
:102E90007E20208027E045F62560208023E0FFF794
:102EA00073F90746DFF87880D8F80000012180F830
:102EB0003610234632462946D8F80000FFF711FEA7
:102EC0002088002804D03846BDE8F041FFF760B9FB
:102ED000D8F80000FFF705FD3846FFF759F9FFF76E
:102EE0008CFA00202080BDE8F08180B5FFF7A6F8BD
:102EF00000AA00210B48FEF7CCFD0B480168491ED3
:102F0000016007D109490968016000AA0021084849
:102F1000FEF7BFFD01BD0000887E00208D7E0020F1
:102F2000707E00208C7A00206C7E0020687E00205D
:102F30004C7B0020044900220A6002490A801146A5
:102F400001807047787E0020287E002005490022FD
:102F50000A6003490A8011460180704700000000A2
:102F60007A7E00202C7E0020044900220A6002495B
:102F70000A801146018070477C7E0020307E002050
:102F8000054900220A6003490A8011460180704702
:102F9000000000007E7E0020347E002005490022D3
:102FA0000A6003490A801146018070470000000052
:102FB000807E0020387E0020F8B50446FFF7E4F854
:102FC000DFF8881300220A80DFF884130A60DFF834
:102FD00084130A60DFF880130A60DFF880130A8127
:102FE000FFF7D6F8FFF7D0F80546DFF87403066858
:102FF0002846FFF7CDF816E0FFF7C6F8054606F2BB
:1030000070070020B860B8633862B883F883F8624C
:103010003863FFF712FFB8620020A6F87000BE6C9C
:103020002846FFF7B5F8002EE6D1FFF7ADF8CD49F9
:103030000D68FFF7ADF806E0FFF7A6F80021A985B7
:10304000AD69FFF7A5F8002DF6D1FFF7DFFD00F021
:1030500074FA00202080F1BD70B582B00446C24DE4
:1030600000A92846FEF773FDBDF80000002801D036
:10307000208073BD00AA00210220FFF7E9FEBDF801
:103080000000002801D0208073BDFFF77DF8B74E07
:1030900000213160FFF77CF80020B5490968B54A86
:1030A00012688A4201D2B1FBF2F0002802D10A2054
:1030B000B1FBF0F000AA0021FFF7CAFE00A92846E4
:1030C000FEF71AFCBDF80000002801D0208073BD77
:1030D000FFF75AF89E4900220A60A74932680A6041
:1030E000A64901220A70FFF753F80020208073BD23
:1030F0002DE9F84304E000AA00216800FFF7A8FECC
:103100009C4805689D4800780128F4D100A8FFF785
:1031100053FF002496480068854201D2B0FBF5F4C5
:10312000002C41D10A21B0FBF1F43DE007F28C09FB
:10313000D9F814007043B0FBF8F042F2117180B27C
:10314000884201D342F21070A7F88C00B9F802103F
:10315000814200D20146A9F8021000AB07F1AC028F
:1031600007F1B0013846FEF7ABFCFFF70DF8D9F8D0
:103170002C70FFF70DF8002FD8D181480178012974
:1031800004D10021017000A8FFF716FFFFF755FEDC
:10319000401B6F490A68824200D202460A6000AAB8
:1031A00000212046FFF754FEFFF747FE0546FEF7D5
:1031B000EBFF744E6D490A68326000220A60FEF728
:1031C000E7FF6D480068316881422ED26E4A904216
:1031D00003D242F21072012316E06C4A904203D2ED
:1031E0004FF47A720A230FE0694A904202D26422B5
:1031F000134609E0674A904203D20A224FF47A73D9
:1032000002E0012242F2107342F21076B0FBF3F0BA
:103210005143B1FBF0F0301A5F4908804B490A88EE
:1032200080B2824205D2088003E05B4842F210710E
:103230000180FEF786FE4FF00008FEF7A5FF484F1D
:10324000D7F80090FEF7A4FF13E0FEF79DFF09F208
:103250009C06D9F89C1071600021C9F89C10FEF7FB
:1032600097FF70688044FEF78FFFD6F81C90FEF73A
:103270008FFFB9F1000FE8D1B8F1000F20D042481C
:10328000804503D242F21076012016E03F48804587
:1032900003D24FF47A760A200FE03D48804502D2EF
:1032A0006426304609E03B48804503D20A264FF4A5
:1032B0007A7002E0012642F21070B8FBF0F802E0EA
:1032C00000264FF00108FEF75FFF3F68FEF760FF42
:1032D00051E700B589B0254900220A6029490A60F2
:1032E00025490A6025490A7025490A702B49096851
:1032F000002903D146F62B61018025E0284A126897
:10330000284B1B689A4203D246F62C6101801BE0D1
:10331000254B1B783F2B03D346F62A61018013E02F
:1033200008900320079000200690059004900392D7
:103330001E48006802900191009300231C4A0FF27E
:1033400078011C48FEF7BEF909B000BD847E00205C
:10335000487E0020587E0020607E0020EC7D00200A
:10336000507E0020347E00204C7B00203C7E0020DC
:10337000B8450008A4450008407E00208F7E00204C
:103380008E7E0020447E0020801A060000093D0049
:10339000005A62020084D717827E0020A8450008E8
:1033A000B0450008B4450008A0450008AC45000839
:1033B000F1300008CC79002075432F4F532D494937
:1033C000492053746174205461736B0000B589B057
:1033D0009F4900220A609F4909689F4A12689F4BD3
:1033E000002A03D0B1FBF2F1196003E00A22B1FB1D
:1033F000F2F119609A491A680A60944900220A6039
:1034000098490A6011460B4606E0974A02EBC10252
:103410009380D3801360491C944A128889B29142E8
:10342000F3D393490968002903D147F2473101805A
:1034300026E0904A1268904B1B689A4203D247F2EA
:10344000483101801CE08D4B1B783F2B03D347F2A2
:103450004631018014E008900B2007900020069070
:1034600005900490039286480068029001910093B1
:1034700000230FF235120FF210218248FEF722F9D5
:1034800009B000BD30B4022280F82A20012902D000
:10349000016A002905D1416A6C4A1268511881619C
:1034A00003E06A4A12685118816183696F4909888B
:1034B000B3FBF1F201FB123189B26B4A02EBC1019D
:1034C0000A68002A06D100220261426108600120D8
:1034D00088802AE05D4A14681B1BC3610B6804E006
:1034E00044610361206158610023002B1AD09C695C
:1034F0001568641BDC61C569AC420AD21C69002CEA
:1035000001D02346F1E7002404614361186123469A
:10351000EBE75C69002CE3D100244461036158614E
:103520000860E1E78888401C8880C8888A889042C3
:1035300000D21046C88030BC70470020024604E02C
:10354000494901EBC001CA80401C4849098880B242
:103550008842F5D3704710B400F110018A68434BDC
:103560001B88B2FBF3F403FB142292B23E4B03EB35
:10357000C20203691468844205D11C00146007D09C
:103580000023636104E04C682361002B00D05C6180
:1035900001238B7600230361184648609088401E03
:1035A000908010BC704700002DE9F04383B0274D98
:1035B0000BE0FFF742FC041B00A8FEF77BFF294845
:1035C0000168A14200D22146016000AB01AA00219E
:1035D0000846FEF7B3F900A8FEF745FFFFF72DFCFC
:1035E00004462868401C286020490988B0FBF1F295
:1035F00001FB120080B21C4951F83060002700E046
:103600000127002FD5D1002EFAD006F10808D8F8EE
:1036100008902868D8F810108842F1D13046FFF79A
:103620009AFFB8F82000022804D101213046FFF7A4
:1036300029FF02E0032086F82A00B268100003D0B8
:10364000D8F80410304690474E46DAE7647E0020F2
:103650005C7E0020B8450008D4450008687E002044
:103660006C7E0020607E00200C7C0020E445000879
:10367000D8450008E0450008B4450008D0450008DA
:10368000DC4500084C7B002075432F4F532D4949E2
:10369000492054696D6572205461736B000000000D
:1036A000704770471F48FF210170002080F3098890
:1036B0001D48016881F308881C481D49016062B6F5
:1036C000FEE71A481A490160704718481849016016
:1036D000704772B6EFF3098050B11EF0100F08BFAB
:1036E00020ED108A734620E9F80F12490968086036
:1036F00000B5114880475DF804EB104810490A787E
:1037000002700C480F490A6802601068B0E8F80FB0
:103710009E461EF0100F08BFB0EC108A80F3098897
:1037200062B6704722ED00E0047E002004ED00E068
:1037300000000010707E0020FF1F00088A7E00201D
:103740008B7E0020747E002080B500F00FF800F022
:103750006CF8BDE80140C9E1DFF8240504210180CF
:103760007047DFF82005042101807047DFF800056D
:10377000DFF81415016000F22C01416000F22C41C9
:1037800081604FF480618181C18100220261826188
:103790004261C26102624262DFF8D824DFF8EC3491
:1037A000136000F22803536000F62C03936001239A
:1037B00093814FF40063D3810023136193615361BC
:1037C000D36113625362DFF8B024DFF8C4341360AE
:1037D00000F580532C33536000F5A0532C339360D5
:1037E0009181D1810023136193615361DFF8A43487
:1037F000D361DFF8A434136200235362DFF87C2422
:10380000DFF89834136000F5C0532C33536000F593
:10381000E0502C3090609181D18100201061906146
:103820005061D0611062506270472DE9F04186B05E
:103830000121084600F04BFB0121102000F05DFB48
:10384000DFF85C7407220921384600F0CBFB072221
:103850000A21384600F0C6FB00208DF80600012042
:103860008DF8070002208DF804004FF400700090DE
:1038700002208DF8050000A9384600F079FB0220EF
:103880008DF804004FF48064009400A9384600F0DD
:103890006FFB4FF4E135029500200390ADF8100066
:1038A000ADF814000C20ADF81200DFF8DC8302A99B
:1038B000404600F0ABFB40F225560122314640461F
:1038C00000F00EFC0121404600F0F6FB402140468E
:1038D00000F02AFC0121084600F0F9FA01214FF41A
:1038E000003000F0FFFA07220321384600F07AFB8F
:1038F00000208DF8060001208DF8070002208DF8C9
:1039000004000820009002208DF8050000A9384628
:1039100000F02EFB4FF41657029700200390ADF8ED
:103920001000ADF814000420ADF81200DFF85C833D
:1039300002A9404600F06AFB01223146404600F0F1
:10394000CFFB0121404600F0B7FB4021404600F08C
:10395000EBFB0121022000F0BAFA01208DF80400EF
:103960000020ADF8060003208DF80500042000902B
:10397000DFF8308300A9404600F0FAFA0121022066
:1039800000F0A5FA01214FF4802000F0ABFA0722E5
:103990000A21404600F026FB07220B21404600F09A
:1039A00021FB00208DF8060001208DF80700022081
:1039B0008DF8040000948DF8050000A9404600F041
:1039C000D7FA02208DF804004FF40060009000A99F
:1039D000404600F0CDFA029700200390ADF81000A9
:1039E000ADF814000C20ADF81200A94C02A9204635
:1039F00000F00CFB01223146204600F071FB012152
:103A0000204600F059FB4021204600F08DFB0121AB
:103A1000442000F05CFA0121202000F06EFAA24C54
:103A200008220E21204600F0DDFAA04F08220721CF
:103A3000384600F0D7FA08221146204600F0D2FAA4
:103A400008220F21204600F0CDFA00208DF8060054
:103A500001208DF8070002208DF804004FF480400B
:103A6000009002208DF8050000A9204600F080FAA1
:103A700002208DF804008020009000A9384600F054
:103A800077FA02208DF804004FF48070009000A9AE
:103A9000204600F06DFA02208DF804004FF400403B
:103AA000009000A9204600F063FA029500200390E0
:103AB000ADF810004FF44070ADF814000C20ADF8D4
:103AC0001200764C02A9204600F0A0FA01223146ED
:103AD000204600F005FB0121204600F0EDFA4021D0
:103AE000204600F021FB06B0BDE8F08180B54FF420
:103AF000E06000F063F925208DF8000000208DF8CB
:103B0000020001208DF8030000A800F05CF92620D7
:103B10008DF8000001208DF802008DF8030000A848
:103B200000F051F927208DF8000002208DF80200E6
:103B300001208DF8030000A800F045F947208DF81A
:103B4000000005208DF8020001208DF8030000A878
:103B500000F039F901BD70B5044640F225512068E6
:103B600000F0E5FA00281AD0206800F0B5FAE18AE2
:103B7000A2688854E08A401CE082E18980B28842D1
:103B800001D30020E082608B884201D2401C608318
:103B9000608B012803D1606A010000D0804725684E
:103BA00040F227763146284600F0C1FA00281FD09F
:103BB000A08A00280CD100223146284600F090FA55
:103BC000012240F226612068BDE8704000F088BA0A
:103BD000608A6168415C284600F07AFA608A401C7D
:103BE0006082A18980B2884226D30020608223E0CF
:103BF00040F226663146284600F099FA00281ED089
:103C00002068A18A002909D10022314600F068FA13
:103C1000206A010013D0BDE870400047618A6268E5
:103C2000895C00F055FA608A401C6082A18980B2EC
:103C3000884201D300206082A08A401EA08270BD0D
:103C40000B4888E70B4886E70B4884E70B4882E778
:103C500038B504460C4D2146C9B2284600F038FA62
:103C60004021284600F059FA0028F9D0204632BDFC
:103C7000E0320020647D00208C7D0020B47D002097
:103C8000180402401A0402400010014000440040A1
:103C9000004800405937000863370008001401400D
:103CA00000000240000402400018024000080240E8
:103CB0001CB501214FF4927000F009F9012000F0C9
:103CC0002EF8022000F02BF8032000F028F8042042
:103CD00000F025F801208DF804000020ADF8060062
:103CE00003208DF805004FF48060009000A92A4859
:103CF00000F03EF980200090284C00A9204600F0FA
:103D000037F94FF48070009000A9204600F030F998
:103D10000420009000A9224800F02AF913BD401E9B
:103D2000C0B2002804D11F484FF480610180704761
:103D3000012803D11C48802101807047022804D14A
:103D400019484FF4807101807047032802D1174849
:103D5000042101807047012805D11548016881F4CC
:103D6000806101607047022805D11248016881F026
:103D7000800101607047032806D10E4801684FF4A6
:103D80008072514001607047042804D10A480168DC
:103D900081F00401016070470020024000140240DD
:103DA000000802401820024018140240180802407F
:103DB0001420024014140240140802401949084318
:103DC00019490860704770B403781A460121C47815
:103DD000002C1DD0144B1B6803F4E063C3F5E063B3
:103DE0001B0A4478C3F10405AC4085780F2646FAD7
:103DF00003F32B4023431B010C4C13550078421155
:103E00000B4B00F01F0001FA00F043F8220006E01F
:103E10005011084A03F01F03994042F8201070BC6B
:103E2000704700000000FA050CED00E000E400E03F
:103E300000E100E080E100E010B435494A6802F09A
:103E40000C02042A02D0082A03D022E0314A026080
:103E500021E00A68C2F380520B6803F03F03002A96
:103E600007D02C4AB2FBF3F20B68C3F388135A4312
:103E700006E0294AB2FBF3F20B68C3F388135A43F6
:103E80000B68C3F301435B1C5B00B2FBF3F20260FF
:103E900001E0214A02604A6802F0F0031F4A1B0950
:103EA0009B5C046824FA03F343604C6804F4E05418
:103EB000A40AA45CE3408360496801F46041490BB3
:103EC000895C426822FA01F1C16010BC7047144A53
:103ED0000029116802D008431060704721EA0000F1
:103EE000106070470F4A0029116802D00843106023
:103EF000704721EA0000106070470B4A00291168E2
:103F000002D008431060704721EA0000106070473B
:103F10000438024040787D010024F4009000002025
:103F200030380240403802404438024080B500F04A
:103F300014F8BDE801400FE010B5FEF725F904467E
:103F40001021094800F018F92046BDE81040FEF79E
:103F50001FB9064908607047EEE704480021016078
:103F6000FEF758BF00000000DC7D0020007E00202E
:103F7000F0B4002232E0012393400C681C409C42C4
:103F80002BD154000325A540ED4306682E40066062
:103F900006680F79A7403E4306600E79012E01D0D6
:103FA000022E11D186682E40866086684F79A74020
:103FB0003E438660466826EA0303436043688E7981
:103FC0009640B6B233434360C3682B40C360C368B6
:103FD000CD7905FA04F42343C360521C102ACAD3D6
:103FE000F0BC704710B4CB1000EB830001F0070168
:103FF0008900036A0F248C40A3430362036A02FA18
:1040000001F11943016210BC7047000030B585B062
:1040100004460D46208A4CF6FF710840E9880843A3
:104020002082A0894EF6F3110840A9880843298907
:10403000084369890843A081A08A4FF6FF410840E0
:10404000A9890843A08200A8FFF7F6FE1848844219
:1040500002D01848844201D1039800E002982968F0
:1040600019225043A289120403D54900B0FBF1F193
:1040700002E08900B0FBF1F16422B1FBF2F0000133
:10408000030902FB1311A3891B0407D5C9003231B0
:10409000B1FBF2F101F00701084306E009013231FA
:1040A000B1FBF2F101F00F010843208105B030BDF2
:1040B00000100140001401400029818903D041F41F
:1040C0000051818170474DF6FF7211408181704728
:1040D000C905C90D818070478088C005C00D704733
:1040E00010B40B46DBB25B09012401F01F0104FA96
:1040F00001F1012B01D10C3004E0022B01D1103071
:1041000000E01430002A026802D01143016002E08E
:1041100022EA0101016010BC7047002200880842B9
:1041200000D0012210467047C9430180704730B467
:104130000A4600211346DBB25B09012402F01F0589
:1041400004FA05F5012B02D183892B4006E0022BEE
:1041500002D1038A2B4001E0838A2B40120A04FA21
:1041600002F200881040002B02D0002800D0214627
:10417000084630BC704700000A460021002A00D1E2
:10418000704710B400281FD000231C4602E041EA0B
:104190000323641C042CFAD310F003040CD003E0B6
:1041A00000F8011B521E641C002A05D0042CF7D312
:1041B00002E040F8043B121F042AFAD2002A02E06F
:1041C00000F8011B521EFBD110BC704700B58BB02C
:1041D00009A8FEF72DF86A4809A90891032107915B
:1041E00000210691059104914FF4806103916621AD
:1041F000029100F1C00101910221009100230FF210
:1042000019020FF29011FDF75DFA09A8FEF784F983
:1042100000200BB000BD000000B52DED028B81B079
:104220009FED568AFEF7D6FDFFF780FEFEF7E7FD0D
:1042300000A8FEF711FF00F04CF8B7EE080A38EEC0
:10424000008A18EE100A00F0E3F802460B460FF25F
:10425000541000F005F90120FFF77DFD00AA0021B0
:104260004FF47A70FEF7F4FDE7E7000000B52DED9E
:10427000028B81B09FED418AB7EE080A38EE008AC2
:1042800018EE100A00F0C4F802460B460FF2301088
:1042900000F0E6F80220FFF75EFD00AA00214FF4CF
:1042A0007A70FEF7D5FDE7E780B50320FFF753FDF1
:1042B00000AA00214FF49670FEF7CAFDF5E780B51D
:1042C0000420FFF748FD00AA00216420FEF7C0FD8E
:1042D000F6E710B58AB02B4C09A808900320079088
:1042E000002006900590012004904FF48060039018
:1042F0006620029004F1C00001900320009000238A
:10430000214A0FF2DC012046FDF7DCF909A80890EC
:1043100003200790002006900590022004904FF49F
:10432000806003906620029004F58C500190042078
:1043300000900023154A0FF2B80104F58650FDF7EE
:10434000C1F909A808900320079000200690059065
:1043500004904FF4806003906620029004F50950A9
:104360000190052000900023094A0FF2940104F502
:104370000650FDF7A7F90AB010BD0000CDCC8C3F68
:104380000C530020A00000206D420008A942000844
:10439000BF420008417070205461736B20537461F8
:1043A000727400004170705461736B537461727465
:1043B0002054656D70203D2025660D0A0000000028
:1043C0004170705461736B475549557064617465F1
:1043D0002054656D70203D2025660D0A0000000008
:1043E000417070205461736B205570646174650076
:1043F000417070205461736B20434F4D00000000EA
:10440000417070205461736B20557365724946008A
:104410005FF0FF0C1CEAD05114BF614506E0C110EB
:10442000400721F0E04101F16051704779B900F097
:10443000004100020AD0B0FA80FC00FA0CF001F151
:104440006051A1EB0C5101EBD021400570474102B6
:104450000CBF40F4E0016FF0000100207047000045
:104460000EB400B582B003A9009100AB0246012151
:10447000034878440A30FBF787FE06BC5DF810FB62
:104480007102000080B53748016841F47001016095
:104490003548016841F00101016000218160016837
:1044A000324A1140016032494160016821F48021A3
:1044B00001600021C16000F005F82E484FF0006156
:1044C000016001BD82B00020019000902648016883
:1044D00041F480310160016801F4003100910199DB
:1044E000491C01910099002903D10199B1F5A04F10
:1044F000F1D10168490C01F00101009100990129F5
:104500002CD1016C41F0805101641B490A6842F4CE
:1045100040420A6081688160816841F400418160A5
:10452000816841F4A051816014494160016841F003
:104530008071016001688901FCD5114940F2057262
:104540000A608168890889008160816841F0020100
:104550008160816801F00C010829FAD102B070472E
:104560000000000088ED00E000380240FFFFF6FE8A
:104570001030002408ED00E000700040195440079E
:10458000003C02400C7100200C0000008000000084
:104590000C6A00200001000064000000CC630020D1
:1045A0003E0000000A0000000C7300200C00000018
:1045B0008000000040000000E8030000010000004F
:1045C0000C7500200C0000008000000010000000AE
:1045D0003E0000000A0000000C7700200C000000E4
:1045E000800000001100000070470020064907E02D
:1045F0000FF22402825C8A800A885206FCD5401C95
:104600002A28F5D3FEE7000000100140FEE7FEE790
:10461000FEE77047704700000D0A456E7465722012
:10462000486172644661756C745F48616E646C6564
:10463000722C2053797374656D2048616C742E0D53
:104640000A00000010B5084979441C31074C7C442D
:104650001A34A14206D0081D0A685118884701463D
:10466000A142F8D110BD00BF0800000028000000E2
:10467000BBC6FFFFF47D0000A0000020000000008A
:1046800067C6FFFFA0000000140200000000002029
:10469000000000004EF68851CEF20001086840F498
:1046A000700008604FF00070E1EE100A70470000E3
:1046B00000F009F8002801D0FFF7C4FF0020FFF741
:1046C00085FD00F002F80120704700F001B80000FD
:1046D0000746384600F002F8FBE7000080B5C04608
:1046E000C046024A11001820ABBEFBE726000200BC
:1046F00038B504460D46284600F006F8A84218BF13
:104700000024204632BD00000149FFF7A1BA00BFD6
:1047100050000020014880470148004785440008B8
:1047200025470008C046C046FFF7B4FFFFF7C0FFAB
:10473000FFF75ABFFFF759BFFFF768BFFFF767BF23
:10474000FFF766BFFFF765BFFFF764BFFEF7C1BFA6
:10475000FDF77ABCFFF7FEBFFFF7FEBFFFF7FEBF16
:10476000FFF7FEBFFFF7FEBFFFF7FEBFFFF7FEBF7D
:10477000FFF7FEBFFFF7FEBFFFF7FEBFFFF7FEBF6D
:10478000FFF7FEBFFFF7FEBFFFF7FEBFFFF7FEBF5D
:10479000FFF7FEBFFFF7FEBFFFF7FEBFFFF7FEBF4D
:1047A000FFF7FEBFFFF7FEBFFFF7FEBFFFF7FEBF3D
:1047B000FFF7FEBFFFF7FEBFFFF7FEBFFFF7FEBF2D
:1047C000FFF7FEBFFFF7FEBFFFF7FEBFFFF7FEBF1D
:1047D000FFF7FEBFFFF7FEBFFFF7FEBFFFF7FEBF0D
:1047E000FFF7FEBFFFF7FEBFFFF72ABAFFF72ABAAF
:1047F000FFF72ABAFFF7FEBFFFF7FEBFFFF7FEBFC6
:10480000FFF7FEBFFFF7FEBFFFF7FEBFFFF7FEBFDC
:10481000FFF7FEBFFFF7FEBFFFF7FEBFFFF7FEBFCC
:10482000FFF7FEBFFFF7FEBFFFF7FEBFFFF7FEBFBC
:10483000FFF7FEBFFFF7FEBFFFF7FEBFFFF7FEBFAC
:10484000FFF7FEBFFFF7FEBFFFF7FEBFFFF7FEBF9C
:10485000FFF7FEBFFFF7FEBFFFF7FEBFFFF7FEBF8C
:10486000FFF7FEBFFFF7FEBFFFF7FEBFFFF7FEBF7C
:10487000FFF7ECB9FFF7FEBFFFF7FEBFFFF7FEBF84
:10488000FFF7FEBFFFF7FEBFFFF7FEBFFFF7FEBF5C
:10489000FFF7FEBFFFF7FEBFFFF7FEBF00000000FF
:1048A0000000000000000000000000000000000008
:1048B0000000000000000000FFFFFFFFFFFFFFFF00
:1048C00000000000000000000000000000000000E8
:1048D00000000000000000000000000000000000D8
:1048E00000000000FFFFFFFFFFFF000002040101C6
:1048F000147D0020647D0020147D0020147D0020A4
:10490000147D00208D0000207400002000000000B5
:104910000000000000000000000000000000000097
:104920000000000000000000000000000000000087
:0C49300001020304010203040607080949
:040000050800472583
:00000001FF
